{
	"contracts/myContract.sol": {
		"DegenToken": {
			"abi": [
				{
					"inputs": [
						{
							"internalType": "address",
							"name": "initialOwner",
							"type": "address"
						},
						{
							"internalType": "uint256",
							"name": "initialSupply",
							"type": "uint256"
						}
					],
					"stateMutability": "nonpayable",
					"type": "constructor"
				},
				{
					"inputs": [
						{
							"internalType": "address",
							"name": "spender",
							"type": "address"
						},
						{
							"internalType": "uint256",
							"name": "allowance",
							"type": "uint256"
						},
						{
							"internalType": "uint256",
							"name": "needed",
							"type": "uint256"
						}
					],
					"name": "ERC20InsufficientAllowance",
					"type": "error"
				},
				{
					"inputs": [
						{
							"internalType": "address",
							"name": "sender",
							"type": "address"
						},
						{
							"internalType": "uint256",
							"name": "balance",
							"type": "uint256"
						},
						{
							"internalType": "uint256",
							"name": "needed",
							"type": "uint256"
						}
					],
					"name": "ERC20InsufficientBalance",
					"type": "error"
				},
				{
					"inputs": [
						{
							"internalType": "address",
							"name": "approver",
							"type": "address"
						}
					],
					"name": "ERC20InvalidApprover",
					"type": "error"
				},
				{
					"inputs": [
						{
							"internalType": "address",
							"name": "receiver",
							"type": "address"
						}
					],
					"name": "ERC20InvalidReceiver",
					"type": "error"
				},
				{
					"inputs": [
						{
							"internalType": "address",
							"name": "sender",
							"type": "address"
						}
					],
					"name": "ERC20InvalidSender",
					"type": "error"
				},
				{
					"inputs": [
						{
							"internalType": "address",
							"name": "spender",
							"type": "address"
						}
					],
					"name": "ERC20InvalidSpender",
					"type": "error"
				},
				{
					"inputs": [
						{
							"internalType": "address",
							"name": "owner",
							"type": "address"
						}
					],
					"name": "OwnableInvalidOwner",
					"type": "error"
				},
				{
					"inputs": [
						{
							"internalType": "address",
							"name": "account",
							"type": "address"
						}
					],
					"name": "OwnableUnauthorizedAccount",
					"type": "error"
				},
				{
					"anonymous": false,
					"inputs": [
						{
							"indexed": true,
							"internalType": "address",
							"name": "owner",
							"type": "address"
						},
						{
							"indexed": true,
							"internalType": "address",
							"name": "spender",
							"type": "address"
						},
						{
							"indexed": false,
							"internalType": "uint256",
							"name": "value",
							"type": "uint256"
						}
					],
					"name": "Approval",
					"type": "event"
				},
				{
					"anonymous": false,
					"inputs": [
						{
							"indexed": true,
							"internalType": "address",
							"name": "player",
							"type": "address"
						},
						{
							"indexed": false,
							"internalType": "uint256",
							"name": "num",
							"type": "uint256"
						},
						{
							"indexed": false,
							"internalType": "bool",
							"name": "won",
							"type": "bool"
						},
						{
							"indexed": false,
							"internalType": "string",
							"name": "result",
							"type": "string"
						}
					],
					"name": "GameOutcome",
					"type": "event"
				},
				{
					"anonymous": false,
					"inputs": [
						{
							"indexed": true,
							"internalType": "address",
							"name": "buyer",
							"type": "address"
						},
						{
							"indexed": false,
							"internalType": "uint8",
							"name": "itemId",
							"type": "uint8"
						},
						{
							"indexed": false,
							"internalType": "string",
							"name": "itemName",
							"type": "string"
						},
						{
							"indexed": false,
							"internalType": "uint256",
							"name": "price",
							"type": "uint256"
						}
					],
					"name": "ItemPurchased",
					"type": "event"
				},
				{
					"anonymous": false,
					"inputs": [
						{
							"indexed": true,
							"internalType": "address",
							"name": "previousOwner",
							"type": "address"
						},
						{
							"indexed": true,
							"internalType": "address",
							"name": "newOwner",
							"type": "address"
						}
					],
					"name": "OwnershipTransferred",
					"type": "event"
				},
				{
					"anonymous": false,
					"inputs": [
						{
							"indexed": true,
							"internalType": "address",
							"name": "from",
							"type": "address"
						},
						{
							"indexed": true,
							"internalType": "address",
							"name": "to",
							"type": "address"
						},
						{
							"indexed": false,
							"internalType": "uint256",
							"name": "value",
							"type": "uint256"
						}
					],
					"name": "Transfer",
					"type": "event"
				},
				{
					"inputs": [
						{
							"internalType": "string",
							"name": "name",
							"type": "string"
						},
						{
							"internalType": "uint256",
							"name": "price",
							"type": "uint256"
						}
					],
					"name": "addItemToStore",
					"outputs": [],
					"stateMutability": "nonpayable",
					"type": "function"
				},
				{
					"inputs": [
						{
							"internalType": "address",
							"name": "owner",
							"type": "address"
						},
						{
							"internalType": "address",
							"name": "spender",
							"type": "address"
						}
					],
					"name": "allowance",
					"outputs": [
						{
							"internalType": "uint256",
							"name": "",
							"type": "uint256"
						}
					],
					"stateMutability": "view",
					"type": "function"
				},
				{
					"inputs": [
						{
							"internalType": "address",
							"name": "spender",
							"type": "address"
						},
						{
							"internalType": "uint256",
							"name": "value",
							"type": "uint256"
						}
					],
					"name": "approve",
					"outputs": [
						{
							"internalType": "bool",
							"name": "",
							"type": "bool"
						}
					],
					"stateMutability": "nonpayable",
					"type": "function"
				},
				{
					"inputs": [
						{
							"internalType": "address",
							"name": "account",
							"type": "address"
						}
					],
					"name": "balanceOf",
					"outputs": [
						{
							"internalType": "uint256",
							"name": "",
							"type": "uint256"
						}
					],
					"stateMutability": "view",
					"type": "function"
				},
				{
					"inputs": [
						{
							"internalType": "bool",
							"name": "predictLessThanFive",
							"type": "bool"
						},
						{
							"internalType": "uint256",
							"name": "betAmount",
							"type": "uint256"
						}
					],
					"name": "betOnRandomNumber",
					"outputs": [],
					"stateMutability": "nonpayable",
					"type": "function"
				},
				{
					"inputs": [
						{
							"internalType": "uint256",
							"name": "value",
							"type": "uint256"
						}
					],
					"name": "burn",
					"outputs": [],
					"stateMutability": "nonpayable",
					"type": "function"
				},
				{
					"inputs": [
						{
							"internalType": "address",
							"name": "account",
							"type": "address"
						},
						{
							"internalType": "uint256",
							"name": "value",
							"type": "uint256"
						}
					],
					"name": "burnFrom",
					"outputs": [],
					"stateMutability": "nonpayable",
					"type": "function"
				},
				{
					"inputs": [
						{
							"internalType": "uint256",
							"name": "amount",
							"type": "uint256"
						}
					],
					"name": "burnTokens",
					"outputs": [],
					"stateMutability": "nonpayable",
					"type": "function"
				},
				{
					"inputs": [],
					"name": "decimals",
					"outputs": [
						{
							"internalType": "uint8",
							"name": "",
							"type": "uint8"
						}
					],
					"stateMutability": "view",
					"type": "function"
				},
				{
					"inputs": [
						{
							"internalType": "uint8",
							"name": "itemId",
							"type": "uint8"
						}
					],
					"name": "getItemDetails",
					"outputs": [
						{
							"internalType": "string",
							"name": "",
							"type": "string"
						},
						{
							"internalType": "uint256",
							"name": "",
							"type": "uint256"
						}
					],
					"stateMutability": "view",
					"type": "function"
				},
				{
					"inputs": [],
					"name": "getMyBalance",
					"outputs": [
						{
							"internalType": "uint256",
							"name": "",
							"type": "uint256"
						}
					],
					"stateMutability": "view",
					"type": "function"
				},
				{
					"inputs": [
						{
							"internalType": "address",
							"name": "user",
							"type": "address"
						}
					],
					"name": "getUserItems",
					"outputs": [
						{
							"internalType": "uint8[]",
							"name": "",
							"type": "uint8[]"
						}
					],
					"stateMutability": "view",
					"type": "function"
				},
				{
					"inputs": [
						{
							"internalType": "address",
							"name": "to",
							"type": "address"
						},
						{
							"internalType": "uint256",
							"name": "amount",
							"type": "uint256"
						}
					],
					"name": "mint",
					"outputs": [],
					"stateMutability": "nonpayable",
					"type": "function"
				},
				{
					"inputs": [],
					"name": "name",
					"outputs": [
						{
							"internalType": "string",
							"name": "",
							"type": "string"
						}
					],
					"stateMutability": "view",
					"type": "function"
				},
				{
					"inputs": [],
					"name": "owner",
					"outputs": [
						{
							"internalType": "address",
							"name": "",
							"type": "address"
						}
					],
					"stateMutability": "view",
					"type": "function"
				},
				{
					"inputs": [
						{
							"internalType": "uint8",
							"name": "itemId",
							"type": "uint8"
						}
					],
					"name": "purchaseItem",
					"outputs": [],
					"stateMutability": "nonpayable",
					"type": "function"
				},
				{
					"inputs": [],
					"name": "redeemWelcomeBonus",
					"outputs": [],
					"stateMutability": "nonpayable",
					"type": "function"
				},
				{
					"inputs": [],
					"name": "renounceOwnership",
					"outputs": [],
					"stateMutability": "nonpayable",
					"type": "function"
				},
				{
					"inputs": [],
					"name": "symbol",
					"outputs": [
						{
							"internalType": "string",
							"name": "",
							"type": "string"
						}
					],
					"stateMutability": "view",
					"type": "function"
				},
				{
					"inputs": [],
					"name": "totalSupply",
					"outputs": [
						{
							"internalType": "uint256",
							"name": "",
							"type": "uint256"
						}
					],
					"stateMutability": "view",
					"type": "function"
				},
				{
					"inputs": [
						{
							"internalType": "address",
							"name": "to",
							"type": "address"
						},
						{
							"internalType": "uint256",
							"name": "value",
							"type": "uint256"
						}
					],
					"name": "transfer",
					"outputs": [
						{
							"internalType": "bool",
							"name": "",
							"type": "bool"
						}
					],
					"stateMutability": "nonpayable",
					"type": "function"
				},
				{
					"inputs": [
						{
							"internalType": "address",
							"name": "from",
							"type": "address"
						},
						{
							"internalType": "address",
							"name": "to",
							"type": "address"
						},
						{
							"internalType": "uint256",
							"name": "value",
							"type": "uint256"
						}
					],
					"name": "transferFrom",
					"outputs": [
						{
							"internalType": "bool",
							"name": "",
							"type": "bool"
						}
					],
					"stateMutability": "nonpayable",
					"type": "function"
				},
				{
					"inputs": [
						{
							"internalType": "address",
							"name": "newOwner",
							"type": "address"
						}
					],
					"name": "transferOwnership",
					"outputs": [],
					"stateMutability": "nonpayable",
					"type": "function"
				},
				{
					"inputs": [
						{
							"internalType": "address",
							"name": "recipient",
							"type": "address"
						},
						{
							"internalType": "uint256",
							"name": "amount",
							"type": "uint256"
						}
					],
					"name": "transferToken",
					"outputs": [],
					"stateMutability": "nonpayable",
					"type": "function"
				}
			],
			"devdoc": {
				"errors": {
					"ERC20InsufficientAllowance(address,uint256,uint256)": [
						{
							"details": "Indicates a failure with the `spender`’s `allowance`. Used in transfers.",
							"params": {
								"allowance": "Amount of tokens a `spender` is allowed to operate with.",
								"needed": "Minimum amount required to perform a transfer.",
								"spender": "Address that may be allowed to operate on tokens without being their owner."
							}
						}
					],
					"ERC20InsufficientBalance(address,uint256,uint256)": [
						{
							"details": "Indicates an error related to the current `balance` of a `sender`. Used in transfers.",
							"params": {
								"balance": "Current balance for the interacting account.",
								"needed": "Minimum amount required to perform a transfer.",
								"sender": "Address whose tokens are being transferred."
							}
						}
					],
					"ERC20InvalidApprover(address)": [
						{
							"details": "Indicates a failure with the `approver` of a token to be approved. Used in approvals.",
							"params": {
								"approver": "Address initiating an approval operation."
							}
						}
					],
					"ERC20InvalidReceiver(address)": [
						{
							"details": "Indicates a failure with the token `receiver`. Used in transfers.",
							"params": {
								"receiver": "Address to which tokens are being transferred."
							}
						}
					],
					"ERC20InvalidSender(address)": [
						{
							"details": "Indicates a failure with the token `sender`. Used in transfers.",
							"params": {
								"sender": "Address whose tokens are being transferred."
							}
						}
					],
					"ERC20InvalidSpender(address)": [
						{
							"details": "Indicates a failure with the `spender` to be approved. Used in approvals.",
							"params": {
								"spender": "Address that may be allowed to operate on tokens without being their owner."
							}
						}
					],
					"OwnableInvalidOwner(address)": [
						{
							"details": "The owner is not a valid owner account. (eg. `address(0)`)"
						}
					],
					"OwnableUnauthorizedAccount(address)": [
						{
							"details": "The caller account is not authorized to perform an operation."
						}
					]
				},
				"events": {
					"Approval(address,address,uint256)": {
						"details": "Emitted when the allowance of a `spender` for an `owner` is set by a call to {approve}. `value` is the new allowance."
					},
					"Transfer(address,address,uint256)": {
						"details": "Emitted when `value` tokens are moved from one account (`from`) to another (`to`). Note that `value` may be zero."
					}
				},
				"kind": "dev",
				"methods": {
					"allowance(address,address)": {
						"details": "See {IERC20-allowance}."
					},
					"approve(address,uint256)": {
						"details": "See {IERC20-approve}. NOTE: If `value` is the maximum `uint256`, the allowance is not updated on `transferFrom`. This is semantically equivalent to an infinite approval. Requirements: - `spender` cannot be the zero address."
					},
					"balanceOf(address)": {
						"details": "See {IERC20-balanceOf}."
					},
					"burn(uint256)": {
						"details": "Destroys a `value` amount of tokens from the caller. See {ERC20-_burn}."
					},
					"burnFrom(address,uint256)": {
						"details": "Destroys a `value` amount of tokens from `account`, deducting from the caller's allowance. See {ERC20-_burn} and {ERC20-allowance}. Requirements: - the caller must have allowance for ``accounts``'s tokens of at least `value`."
					},
					"decimals()": {
						"details": "Returns the number of decimals used to get its user representation. For example, if `decimals` equals `2`, a balance of `505` tokens should be displayed to a user as `5.05` (`505 / 10 ** 2`). Tokens usually opt for a value of 18, imitating the relationship between Ether and Wei. This is the default value returned by this function, unless it's overridden. NOTE: This information is only used for _display_ purposes: it in no way affects any of the arithmetic of the contract, including {IERC20-balanceOf} and {IERC20-transfer}."
					},
					"name()": {
						"details": "Returns the name of the token."
					},
					"owner()": {
						"details": "Returns the address of the current owner."
					},
					"renounceOwnership()": {
						"details": "Leaves the contract without owner. It will not be possible to call `onlyOwner` functions. Can only be called by the current owner. NOTE: Renouncing ownership will leave the contract without an owner, thereby disabling any functionality that is only available to the owner."
					},
					"symbol()": {
						"details": "Returns the symbol of the token, usually a shorter version of the name."
					},
					"totalSupply()": {
						"details": "See {IERC20-totalSupply}."
					},
					"transfer(address,uint256)": {
						"details": "See {IERC20-transfer}. Requirements: - `to` cannot be the zero address. - the caller must have a balance of at least `value`."
					},
					"transferFrom(address,address,uint256)": {
						"details": "See {IERC20-transferFrom}. Emits an {Approval} event indicating the updated allowance. This is not required by the EIP. See the note at the beginning of {ERC20}. NOTE: Does not update the allowance if the current allowance is the maximum `uint256`. Requirements: - `from` and `to` cannot be the zero address. - `from` must have a balance of at least `value`. - the caller must have allowance for ``from``'s tokens of at least `value`."
					},
					"transferOwnership(address)": {
						"details": "Transfers ownership of the contract to a new account (`newOwner`). Can only be called by the current owner."
					}
				},
				"version": 1
			},
			"evm": {
				"assembly": "    /* \"contracts/myContract.sol\":243:4215  contract DegenToken is ERC20, Ownable, ERC20Burnable {... */\n  mstore(0x40, 0x80)\n    /* \"contracts/myContract.sol\":703:923  constructor(address initialOwner, uint256 initialSupply) ERC20(\"Degen\", \"DGN\") Ownable(initialOwner) {... */\n  callvalue\n  dup1\n  iszero\n  tag_1\n  jumpi\n  0x00\n  dup1\n  revert\ntag_1:\n  pop\n  mload(0x40)\n  sub(codesize, bytecodeSize)\n  dup1\n  bytecodeSize\n  dup4\n  codecopy\n  dup2\n  dup2\n  add\n  0x40\n  mstore\n  dup2\n  add\n  swap1\n  tag_2\n  swap2\n  swap1\n  tag_3\n  jump\t// in\ntag_2:\n    /* \"contracts/myContract.sol\":790:802  initialOwner */\n  dup2\n    /* \"@openzeppelin/contracts/token/ERC20/ERC20.sol\":1896:2009  constructor(string memory name_, string memory symbol_) {... */\n  mload(0x40)\n  dup1\n  0x40\n  add\n  0x40\n  mstore\n  dup1\n  0x05\n  dup2\n  mstore\n  0x20\n  add\n  0x446567656e000000000000000000000000000000000000000000000000000000\n  dup2\n  mstore\n  pop\n  mload(0x40)\n  dup1\n  0x40\n  add\n  0x40\n  mstore\n  dup1\n  0x03\n  dup2\n  mstore\n  0x20\n  add\n  0x44474e0000000000000000000000000000000000000000000000000000000000\n  dup2\n  mstore\n  pop\n    /* \"@openzeppelin/contracts/token/ERC20/ERC20.sol\":1970:1975  name_ */\n  dup2\n    /* \"@openzeppelin/contracts/token/ERC20/ERC20.sol\":1962:1967  _name */\n  0x03\n    /* \"@openzeppelin/contracts/token/ERC20/ERC20.sol\":1962:1975  _name = name_ */\n  swap1\n  dup2\n  tag_8\n  swap2\n  swap1\n  tag_9\n  jump\t// in\ntag_8:\n  pop\n    /* \"@openzeppelin/contracts/token/ERC20/ERC20.sol\":1995:2002  symbol_ */\n  dup1\n    /* \"@openzeppelin/contracts/token/ERC20/ERC20.sol\":1985:1992  _symbol */\n  0x04\n    /* \"@openzeppelin/contracts/token/ERC20/ERC20.sol\":1985:2002  _symbol = symbol_ */\n  swap1\n  dup2\n  tag_10\n  swap2\n  swap1\n  tag_9\n  jump\t// in\ntag_10:\n  pop\n    /* \"@openzeppelin/contracts/token/ERC20/ERC20.sol\":1896:2009  constructor(string memory name_, string memory symbol_) {... */\n  pop\n  pop\n    /* \"@openzeppelin/contracts/access/Ownable.sol\":1297:1298  0 */\n  0x00\n    /* \"@openzeppelin/contracts/access/Ownable.sol\":1273:1299  initialOwner == address(0) */\n  0xffffffffffffffffffffffffffffffffffffffff\n  and\n    /* \"@openzeppelin/contracts/access/Ownable.sol\":1273:1285  initialOwner */\n  dup2\n    /* \"@openzeppelin/contracts/access/Ownable.sol\":1273:1299  initialOwner == address(0) */\n  0xffffffffffffffffffffffffffffffffffffffff\n  and\n  sub\n    /* \"@openzeppelin/contracts/access/Ownable.sol\":1269:1364  if (initialOwner == address(0)) {... */\n  tag_12\n  jumpi\n    /* \"@openzeppelin/contracts/access/Ownable.sol\":1350:1351  0 */\n  0x00\n    /* \"@openzeppelin/contracts/access/Ownable.sol\":1322:1353  OwnableInvalidOwner(address(0)) */\n  mload(0x40)\n  0x1e4fbdf700000000000000000000000000000000000000000000000000000000\n  dup2\n  mstore\n  0x04\n  add\n  tag_13\n  swap2\n  swap1\n  tag_14\n  jump\t// in\ntag_13:\n  mload(0x40)\n  dup1\n  swap2\n  sub\n  swap1\n  revert\n    /* \"@openzeppelin/contracts/access/Ownable.sol\":1269:1364  if (initialOwner == address(0)) {... */\ntag_12:\n    /* \"@openzeppelin/contracts/access/Ownable.sol\":1373:1405  _transferOwnership(initialOwner) */\n  tag_15\n    /* \"@openzeppelin/contracts/access/Ownable.sol\":1392:1404  initialOwner */\n  dup2\n    /* \"@openzeppelin/contracts/access/Ownable.sol\":1373:1391  _transferOwnership */\n  shl(0x20, tag_16)\n    /* \"@openzeppelin/contracts/access/Ownable.sol\":1373:1405  _transferOwnership(initialOwner) */\n  0x20\n  shr\n  jump\t// in\ntag_15:\n    /* \"@openzeppelin/contracts/access/Ownable.sol\":1225:1412  constructor(address initialOwner) {... */\n  pop\n    /* \"contracts/myContract.sol\":814:845  transferOwnership(initialOwner) */\n  tag_18\n    /* \"contracts/myContract.sol\":832:844  initialOwner */\n  dup3\n    /* \"contracts/myContract.sol\":814:831  transferOwnership */\n  shl(0x20, tag_19)\n    /* \"contracts/myContract.sol\":814:845  transferOwnership(initialOwner) */\n  0x20\n  shr\n  jump\t// in\ntag_18:\n    /* \"contracts/myContract.sol\":855:888  mint(initialOwner, initialSupply) */\n  tag_20\n    /* \"contracts/myContract.sol\":860:872  initialOwner */\n  dup3\n    /* \"contracts/myContract.sol\":874:887  initialSupply */\n  dup3\n    /* \"contracts/myContract.sol\":855:859  mint */\n  shl(0x20, tag_21)\n    /* \"contracts/myContract.sol\":855:888  mint(initialOwner, initialSupply) */\n  0x20\n  shr\n  jump\t// in\ntag_20:\n    /* \"contracts/myContract.sol\":898:916  _initializeItems() */\n  tag_22\n    /* \"contracts/myContract.sol\":898:914  _initializeItems */\n  shl(0x20, tag_23)\n    /* \"contracts/myContract.sol\":898:916  _initializeItems() */\n  0x20\n  shr\n  jump\t// in\ntag_22:\n    /* \"contracts/myContract.sol\":703:923  constructor(address initialOwner, uint256 initialSupply) ERC20(\"Degen\", \"DGN\") Ownable(initialOwner) {... */\n  pop\n  pop\n    /* \"contracts/myContract.sol\":243:4215  contract DegenToken is ERC20, Ownable, ERC20Burnable {... */\n  jump(tag_24)\n    /* \"@openzeppelin/contracts/access/Ownable.sol\":2912:3099  function _transferOwnership(address newOwner) internal virtual {... */\ntag_16:\n    /* \"@openzeppelin/contracts/access/Ownable.sol\":2985:3001  address oldOwner */\n  0x00\n    /* \"@openzeppelin/contracts/access/Ownable.sol\":3004:3010  _owner */\n  0x05\n  0x00\n  swap1\n  sload\n  swap1\n  0x0100\n  exp\n  swap1\n  div\n  0xffffffffffffffffffffffffffffffffffffffff\n  and\n    /* \"@openzeppelin/contracts/access/Ownable.sol\":2985:3010  address oldOwner = _owner */\n  swap1\n  pop\n    /* \"@openzeppelin/contracts/access/Ownable.sol\":3029:3037  newOwner */\n  dup2\n    /* \"@openzeppelin/contracts/access/Ownable.sol\":3020:3026  _owner */\n  0x05\n  0x00\n    /* \"@openzeppelin/contracts/access/Ownable.sol\":3020:3037  _owner = newOwner */\n  0x0100\n  exp\n  dup2\n  sload\n  dup2\n  0xffffffffffffffffffffffffffffffffffffffff\n  mul\n  not\n  and\n  swap1\n  dup4\n  0xffffffffffffffffffffffffffffffffffffffff\n  and\n  mul\n  or\n  swap1\n  sstore\n  pop\n    /* \"@openzeppelin/contracts/access/Ownable.sol\":3083:3091  newOwner */\n  dup2\n    /* \"@openzeppelin/contracts/access/Ownable.sol\":3052:3092  OwnershipTransferred(oldOwner, newOwner) */\n  0xffffffffffffffffffffffffffffffffffffffff\n  and\n    /* \"@openzeppelin/contracts/access/Ownable.sol\":3073:3081  oldOwner */\n  dup2\n    /* \"@openzeppelin/contracts/access/Ownable.sol\":3052:3092  OwnershipTransferred(oldOwner, newOwner) */\n  0xffffffffffffffffffffffffffffffffffffffff\n  and\n  0x8be0079c531659141344cd1fd0a4f28419497f9722a3daafe3b4186f6b6457e0\n  mload(0x40)\n  mload(0x40)\n  dup1\n  swap2\n  sub\n  swap1\n  log3\n    /* \"@openzeppelin/contracts/access/Ownable.sol\":2975:3099  {... */\n  pop\n    /* \"@openzeppelin/contracts/access/Ownable.sol\":2912:3099  function _transferOwnership(address newOwner) internal virtual {... */\n  pop\n  jump\t// out\n    /* \"@openzeppelin/contracts/access/Ownable.sol\":2543:2758  function transferOwnership(address newOwner) public virtual onlyOwner {... */\ntag_19:\n    /* \"@openzeppelin/contracts/access/Ownable.sol\":1531:1544  _checkOwner() */\n  tag_27\n    /* \"@openzeppelin/contracts/access/Ownable.sol\":1531:1542  _checkOwner */\n  shl(0x20, tag_28)\n    /* \"@openzeppelin/contracts/access/Ownable.sol\":1531:1544  _checkOwner() */\n  0x20\n  shr\n  jump\t// in\ntag_27:\n    /* \"@openzeppelin/contracts/access/Ownable.sol\":2647:2648  0 */\n  0x00\n    /* \"@openzeppelin/contracts/access/Ownable.sol\":2627:2649  newOwner == address(0) */\n  0xffffffffffffffffffffffffffffffffffffffff\n  and\n    /* \"@openzeppelin/contracts/access/Ownable.sol\":2627:2635  newOwner */\n  dup2\n    /* \"@openzeppelin/contracts/access/Ownable.sol\":2627:2649  newOwner == address(0) */\n  0xffffffffffffffffffffffffffffffffffffffff\n  and\n  sub\n    /* \"@openzeppelin/contracts/access/Ownable.sol\":2623:2714  if (newOwner == address(0)) {... */\n  tag_30\n  jumpi\n    /* \"@openzeppelin/contracts/access/Ownable.sol\":2700:2701  0 */\n  0x00\n    /* \"@openzeppelin/contracts/access/Ownable.sol\":2672:2703  OwnableInvalidOwner(address(0)) */\n  mload(0x40)\n  0x1e4fbdf700000000000000000000000000000000000000000000000000000000\n  dup2\n  mstore\n  0x04\n  add\n  tag_31\n  swap2\n  swap1\n  tag_14\n  jump\t// in\ntag_31:\n  mload(0x40)\n  dup1\n  swap2\n  sub\n  swap1\n  revert\n    /* \"@openzeppelin/contracts/access/Ownable.sol\":2623:2714  if (newOwner == address(0)) {... */\ntag_30:\n    /* \"@openzeppelin/contracts/access/Ownable.sol\":2723:2751  _transferOwnership(newOwner) */\n  tag_32\n    /* \"@openzeppelin/contracts/access/Ownable.sol\":2742:2750  newOwner */\n  dup2\n    /* \"@openzeppelin/contracts/access/Ownable.sol\":2723:2741  _transferOwnership */\n  shl(0x20, tag_16)\n    /* \"@openzeppelin/contracts/access/Ownable.sol\":2723:2751  _transferOwnership(newOwner) */\n  0x20\n  shr\n  jump\t// in\ntag_32:\n    /* \"@openzeppelin/contracts/access/Ownable.sol\":2543:2758  function transferOwnership(address newOwner) public virtual onlyOwner {... */\n  pop\n  jump\t// out\n    /* \"contracts/myContract.sol\":1457:1550  function mint(address to, uint256 amount) public onlyOwner {... */\ntag_21:\n    /* \"@openzeppelin/contracts/access/Ownable.sol\":1531:1544  _checkOwner() */\n  tag_34\n    /* \"@openzeppelin/contracts/access/Ownable.sol\":1531:1542  _checkOwner */\n  shl(0x20, tag_28)\n    /* \"@openzeppelin/contracts/access/Ownable.sol\":1531:1544  _checkOwner() */\n  0x20\n  shr\n  jump\t// in\ntag_34:\n    /* \"contracts/myContract.sol\":1526:1543  _mint(to, amount) */\n  tag_36\n    /* \"contracts/myContract.sol\":1532:1534  to */\n  dup3\n    /* \"contracts/myContract.sol\":1536:1542  amount */\n  dup3\n    /* \"contracts/myContract.sol\":1526:1531  _mint */\n  shl(0x20, tag_37)\n    /* \"contracts/myContract.sol\":1526:1543  _mint(to, amount) */\n  0x20\n  shr\n  jump\t// in\ntag_36:\n    /* \"contracts/myContract.sol\":1457:1550  function mint(address to, uint256 amount) public onlyOwner {... */\n  pop\n  pop\n  jump\t// out\n    /* \"contracts/myContract.sol\":976:1232  function _initializeItems() internal {... */\ntag_23:\n    /* \"contracts/myContract.sol\":1023:1056  _addItem(\"Novice Navigator\", 100) */\n  tag_39\n  mload(0x40)\n  dup1\n  0x40\n  add\n  0x40\n  mstore\n  dup1\n  0x10\n  dup2\n  mstore\n  0x20\n  add\n  0x4e6f76696365204e6176696761746f7200000000000000000000000000000000\n  dup2\n  mstore\n  pop\n    /* \"contracts/myContract.sol\":1052:1055  100 */\n  0x64\n    /* \"contracts/myContract.sol\":1023:1031  _addItem */\n  shl(0x20, tag_40)\n    /* \"contracts/myContract.sol\":1023:1056  _addItem(\"Novice Navigator\", 100) */\n  0x20\n  shr\n  jump\t// in\ntag_39:\n    /* \"contracts/myContract.sol\":1066:1098  _addItem(\"Mythic Maverick\", 700) */\n  tag_41\n  mload(0x40)\n  dup1\n  0x40\n  add\n  0x40\n  mstore\n  dup1\n  0x0f\n  dup2\n  mstore\n  0x20\n  add\n  0x4d7974686963204d6176657269636b0000000000000000000000000000000000\n  dup2\n  mstore\n  pop\n    /* \"contracts/myContract.sol\":1094:1097  700 */\n  0x02bc\n    /* \"contracts/myContract.sol\":1066:1074  _addItem */\n  shl(0x20, tag_40)\n    /* \"contracts/myContract.sol\":1066:1098  _addItem(\"Mythic Maverick\", 700) */\n  0x20\n  shr\n  jump\t// in\ntag_41:\n    /* \"contracts/myContract.sol\":1108:1143  _addItem(\"Celestial Crusher\", 1200) */\n  tag_42\n  mload(0x40)\n  dup1\n  0x40\n  add\n  0x40\n  mstore\n  dup1\n  0x11\n  dup2\n  mstore\n  0x20\n  add\n  0x43656c65737469616c2043727573686572000000000000000000000000000000\n  dup2\n  mstore\n  pop\n    /* \"contracts/myContract.sol\":1138:1142  1200 */\n  0x04b0\n    /* \"contracts/myContract.sol\":1108:1116  _addItem */\n  shl(0x20, tag_40)\n    /* \"contracts/myContract.sol\":1108:1143  _addItem(\"Celestial Crusher\", 1200) */\n  0x20\n  shr\n  jump\t// in\ntag_42:\n    /* \"contracts/myContract.sol\":1153:1181  _addItem(\"Astral Ace\", 2200) */\n  tag_43\n  mload(0x40)\n  dup1\n  0x40\n  add\n  0x40\n  mstore\n  dup1\n  0x0a\n  dup2\n  mstore\n  0x20\n  add\n  0x41737472616c2041636500000000000000000000000000000000000000000000\n  dup2\n  mstore\n  pop\n    /* \"contracts/myContract.sol\":1176:1180  2200 */\n  0x0898\n    /* \"contracts/myContract.sol\":1153:1161  _addItem */\n  shl(0x20, tag_40)\n    /* \"contracts/myContract.sol\":1153:1181  _addItem(\"Astral Ace\", 2200) */\n  0x20\n  shr\n  jump\t// in\ntag_43:\n    /* \"contracts/myContract.sol\":1191:1225  _addItem(\"Divine Dominator\", 2400) */\n  tag_44\n  mload(0x40)\n  dup1\n  0x40\n  add\n  0x40\n  mstore\n  dup1\n  0x10\n  dup2\n  mstore\n  0x20\n  add\n  0x446976696e6520446f6d696e61746f7200000000000000000000000000000000\n  dup2\n  mstore\n  pop\n    /* \"contracts/myContract.sol\":1220:1224  2400 */\n  0x0960\n    /* \"contracts/myContract.sol\":1191:1199  _addItem */\n  shl(0x20, tag_40)\n    /* \"contracts/myContract.sol\":1191:1225  _addItem(\"Divine Dominator\", 2400) */\n  0x20\n  shr\n  jump\t// in\ntag_44:\n    /* \"contracts/myContract.sol\":976:1232  function _initializeItems() internal {... */\n  jump\t// out\n    /* \"@openzeppelin/contracts/access/Ownable.sol\":1796:1958  function _checkOwner() internal view virtual {... */\ntag_28:\n    /* \"@openzeppelin/contracts/access/Ownable.sol\":1866:1878  _msgSender() */\n  tag_46\n    /* \"@openzeppelin/contracts/access/Ownable.sol\":1866:1876  _msgSender */\n  shl(0x20, tag_47)\n    /* \"@openzeppelin/contracts/access/Ownable.sol\":1866:1878  _msgSender() */\n  0x20\n  shr\n  jump\t// in\ntag_46:\n    /* \"@openzeppelin/contracts/access/Ownable.sol\":1855:1878  owner() != _msgSender() */\n  0xffffffffffffffffffffffffffffffffffffffff\n  and\n    /* \"@openzeppelin/contracts/access/Ownable.sol\":1855:1862  owner() */\n  tag_48\n    /* \"@openzeppelin/contracts/access/Ownable.sol\":1855:1860  owner */\n  shl(0x20, tag_49)\n    /* \"@openzeppelin/contracts/access/Ownable.sol\":1855:1862  owner() */\n  0x20\n  shr\n  jump\t// in\ntag_48:\n    /* \"@openzeppelin/contracts/access/Ownable.sol\":1855:1878  owner() != _msgSender() */\n  0xffffffffffffffffffffffffffffffffffffffff\n  and\n  eq\n    /* \"@openzeppelin/contracts/access/Ownable.sol\":1851:1952  if (owner() != _msgSender()) {... */\n  tag_50\n  jumpi\n    /* \"@openzeppelin/contracts/access/Ownable.sol\":1928:1940  _msgSender() */\n  tag_51\n    /* \"@openzeppelin/contracts/access/Ownable.sol\":1928:1938  _msgSender */\n  shl(0x20, tag_47)\n    /* \"@openzeppelin/contracts/access/Ownable.sol\":1928:1940  _msgSender() */\n  0x20\n  shr\n  jump\t// in\ntag_51:\n    /* \"@openzeppelin/contracts/access/Ownable.sol\":1901:1941  OwnableUnauthorizedAccount(_msgSender()) */\n  mload(0x40)\n  0x118cdaa700000000000000000000000000000000000000000000000000000000\n  dup2\n  mstore\n  0x04\n  add\n  tag_52\n  swap2\n  swap1\n  tag_14\n  jump\t// in\ntag_52:\n  mload(0x40)\n  dup1\n  swap2\n  sub\n  swap1\n  revert\n    /* \"@openzeppelin/contracts/access/Ownable.sol\":1851:1952  if (owner() != _msgSender()) {... */\ntag_50:\n    /* \"@openzeppelin/contracts/access/Ownable.sol\":1796:1958  function _checkOwner() internal view virtual {... */\n  jump\t// out\n    /* \"@openzeppelin/contracts/token/ERC20/ERC20.sol\":7721:7929  function _mint(address account, uint256 value) internal {... */\ntag_37:\n    /* \"@openzeppelin/contracts/token/ERC20/ERC20.sol\":7810:7811  0 */\n  0x00\n    /* \"@openzeppelin/contracts/token/ERC20/ERC20.sol\":7791:7812  account == address(0) */\n  0xffffffffffffffffffffffffffffffffffffffff\n  and\n    /* \"@openzeppelin/contracts/token/ERC20/ERC20.sol\":7791:7798  account */\n  dup3\n    /* \"@openzeppelin/contracts/token/ERC20/ERC20.sol\":7791:7812  account == address(0) */\n  0xffffffffffffffffffffffffffffffffffffffff\n  and\n  sub\n    /* \"@openzeppelin/contracts/token/ERC20/ERC20.sol\":7787:7878  if (account == address(0)) {... */\n  tag_54\n  jumpi\n    /* \"@openzeppelin/contracts/token/ERC20/ERC20.sol\":7864:7865  0 */\n  0x00\n    /* \"@openzeppelin/contracts/token/ERC20/ERC20.sol\":7835:7867  ERC20InvalidReceiver(address(0)) */\n  mload(0x40)\n  0xec442f0500000000000000000000000000000000000000000000000000000000\n  dup2\n  mstore\n  0x04\n  add\n  tag_55\n  swap2\n  swap1\n  tag_14\n  jump\t// in\ntag_55:\n  mload(0x40)\n  dup1\n  swap2\n  sub\n  swap1\n  revert\n    /* \"@openzeppelin/contracts/token/ERC20/ERC20.sol\":7787:7878  if (account == address(0)) {... */\ntag_54:\n    /* \"@openzeppelin/contracts/token/ERC20/ERC20.sol\":7887:7922  _update(address(0), account, value) */\n  tag_56\n    /* \"@openzeppelin/contracts/token/ERC20/ERC20.sol\":7903:7904  0 */\n  0x00\n    /* \"@openzeppelin/contracts/token/ERC20/ERC20.sol\":7907:7914  account */\n  dup4\n    /* \"@openzeppelin/contracts/token/ERC20/ERC20.sol\":7916:7921  value */\n  dup4\n    /* \"@openzeppelin/contracts/token/ERC20/ERC20.sol\":7887:7894  _update */\n  shl(0x20, tag_57)\n    /* \"@openzeppelin/contracts/token/ERC20/ERC20.sol\":7887:7922  _update(address(0), account, value) */\n  0x20\n  shr\n  jump\t// in\ntag_56:\n    /* \"@openzeppelin/contracts/token/ERC20/ERC20.sol\":7721:7929  function _mint(address account, uint256 value) internal {... */\n  pop\n  pop\n  jump\t// out\n    /* \"contracts/myContract.sol\":1278:1428  function _addItem(string memory name, uint256 price) internal {... */\ntag_40:\n    /* \"contracts/myContract.sol\":1370:1399  Item(name, nextItemId, price) */\n  mload(0x40)\n  dup1\n  0x60\n  add\n  0x40\n  mstore\n  dup1\n    /* \"contracts/myContract.sol\":1375:1379  name */\n  dup4\n    /* \"contracts/myContract.sol\":1370:1399  Item(name, nextItemId, price) */\n  dup2\n  mstore\n  0x20\n  add\n    /* \"contracts/myContract.sol\":1381:1391  nextItemId */\n  0x08\n  0x00\n  swap1\n  sload\n  swap1\n  0x0100\n  exp\n  swap1\n  div\n  0xff\n  and\n    /* \"contracts/myContract.sol\":1370:1399  Item(name, nextItemId, price) */\n  0xff\n  and\n  dup2\n  mstore\n  0x20\n  add\n    /* \"contracts/myContract.sol\":1393:1398  price */\n  dup3\n    /* \"contracts/myContract.sol\":1370:1399  Item(name, nextItemId, price) */\n  dup2\n  mstore\n  pop\n    /* \"contracts/myContract.sol\":1350:1355  items */\n  0x06\n    /* \"contracts/myContract.sol\":1350:1367  items[nextItemId] */\n  0x00\n    /* \"contracts/myContract.sol\":1356:1366  nextItemId */\n  0x08\n  0x00\n  swap1\n  sload\n  swap1\n  0x0100\n  exp\n  swap1\n  div\n  0xff\n  and\n    /* \"contracts/myContract.sol\":1350:1367  items[nextItemId] */\n  0xff\n  and\n  0xff\n  and\n  dup2\n  mstore\n  0x20\n  add\n  swap1\n  dup2\n  mstore\n  0x20\n  add\n  0x00\n  keccak256\n    /* \"contracts/myContract.sol\":1350:1399  items[nextItemId] = Item(name, nextItemId, price) */\n  0x00\n  dup3\n  add\n  mload\n  dup2\n  0x00\n  add\n  swap1\n  dup2\n  tag_59\n  swap2\n  swap1\n  tag_9\n  jump\t// in\ntag_59:\n  pop\n  0x20\n  dup3\n  add\n  mload\n  dup2\n  0x01\n  add\n  exp(0x0100, 0x00)\n  dup2\n  sload\n  dup2\n  0xff\n  mul\n  not\n  and\n  swap1\n  dup4\n  0xff\n  and\n  mul\n  or\n  swap1\n  sstore\n  pop\n  0x40\n  dup3\n  add\n  mload\n  dup2\n  0x02\n  add\n  sstore\n  swap1\n  pop\n  pop\n    /* \"contracts/myContract.sol\":1409:1419  nextItemId */\n  0x08\n  0x00\n    /* \"contracts/myContract.sol\":1409:1421  nextItemId++ */\n  dup2\n  dup2\n  swap1\n  sload\n  swap1\n  0x0100\n  exp\n  swap1\n  div\n  0xff\n  and\n  dup1\n  swap3\n  swap2\n  swap1\n  tag_60\n  swap1\n  tag_61\n  jump\t// in\ntag_60:\n  swap2\n  swap1\n  0x0100\n  exp\n  dup2\n  sload\n  dup2\n  0xff\n  mul\n  not\n  and\n  swap1\n  dup4\n  0xff\n  and\n  mul\n  or\n  swap1\n  sstore\n  pop\n  pop\n    /* \"contracts/myContract.sol\":1278:1428  function _addItem(string memory name, uint256 price) internal {... */\n  pop\n  pop\n  jump\t// out\n    /* \"@openzeppelin/contracts/utils/Context.sol\":656:752  function _msgSender() internal view virtual returns (address) {... */\ntag_47:\n    /* \"@openzeppelin/contracts/utils/Context.sol\":709:716  address */\n  0x00\n    /* \"@openzeppelin/contracts/utils/Context.sol\":735:745  msg.sender */\n  caller\n    /* \"@openzeppelin/contracts/utils/Context.sol\":728:745  return msg.sender */\n  swap1\n  pop\n    /* \"@openzeppelin/contracts/utils/Context.sol\":656:752  function _msgSender() internal view virtual returns (address) {... */\n  swap1\n  jump\t// out\n    /* \"@openzeppelin/contracts/access/Ownable.sol\":1638:1723  function owner() public view virtual returns (address) {... */\ntag_49:\n    /* \"@openzeppelin/contracts/access/Ownable.sol\":1684:1691  address */\n  0x00\n    /* \"@openzeppelin/contracts/access/Ownable.sol\":1710:1716  _owner */\n  0x05\n  0x00\n  swap1\n  sload\n  swap1\n  0x0100\n  exp\n  swap1\n  div\n  0xffffffffffffffffffffffffffffffffffffffff\n  and\n    /* \"@openzeppelin/contracts/access/Ownable.sol\":1703:1716  return _owner */\n  swap1\n  pop\n    /* \"@openzeppelin/contracts/access/Ownable.sol\":1638:1723  function owner() public view virtual returns (address) {... */\n  swap1\n  jump\t// out\n    /* \"@openzeppelin/contracts/token/ERC20/ERC20.sol\":6271:7378  function _update(address from, address to, uint256 value) internal virtual {... */\ntag_57:\n    /* \"@openzeppelin/contracts/token/ERC20/ERC20.sol\":6376:6377  0 */\n  0x00\n    /* \"@openzeppelin/contracts/token/ERC20/ERC20.sol\":6360:6378  from == address(0) */\n  0xffffffffffffffffffffffffffffffffffffffff\n  and\n    /* \"@openzeppelin/contracts/token/ERC20/ERC20.sol\":6360:6364  from */\n  dup4\n    /* \"@openzeppelin/contracts/token/ERC20/ERC20.sol\":6360:6378  from == address(0) */\n  0xffffffffffffffffffffffffffffffffffffffff\n  and\n  sub\n    /* \"@openzeppelin/contracts/token/ERC20/ERC20.sol\":6356:6896  if (from == address(0)) {... */\n  tag_65\n  jumpi\n    /* \"@openzeppelin/contracts/token/ERC20/ERC20.sol\":6512:6517  value */\n  dup1\n    /* \"@openzeppelin/contracts/token/ERC20/ERC20.sol\":6496:6508  _totalSupply */\n  0x02\n  0x00\n    /* \"@openzeppelin/contracts/token/ERC20/ERC20.sol\":6496:6517  _totalSupply += value */\n  dup3\n  dup3\n  sload\n  tag_66\n  swap2\n  swap1\n  tag_67\n  jump\t// in\ntag_66:\n  swap3\n  pop\n  pop\n  dup2\n  swap1\n  sstore\n  pop\n    /* \"@openzeppelin/contracts/token/ERC20/ERC20.sol\":6356:6896  if (from == address(0)) {... */\n  jump(tag_68)\ntag_65:\n    /* \"@openzeppelin/contracts/token/ERC20/ERC20.sol\":6548:6567  uint256 fromBalance */\n  0x00\n    /* \"@openzeppelin/contracts/token/ERC20/ERC20.sol\":6570:6579  _balances */\n  dup1\n    /* \"@openzeppelin/contracts/token/ERC20/ERC20.sol\":6570:6585  _balances[from] */\n  0x00\n    /* \"@openzeppelin/contracts/token/ERC20/ERC20.sol\":6580:6584  from */\n  dup6\n    /* \"@openzeppelin/contracts/token/ERC20/ERC20.sol\":6570:6585  _balances[from] */\n  0xffffffffffffffffffffffffffffffffffffffff\n  and\n  0xffffffffffffffffffffffffffffffffffffffff\n  and\n  dup2\n  mstore\n  0x20\n  add\n  swap1\n  dup2\n  mstore\n  0x20\n  add\n  0x00\n  keccak256\n  sload\n    /* \"@openzeppelin/contracts/token/ERC20/ERC20.sol\":6548:6585  uint256 fromBalance = _balances[from] */\n  swap1\n  pop\n    /* \"@openzeppelin/contracts/token/ERC20/ERC20.sol\":6617:6622  value */\n  dup2\n    /* \"@openzeppelin/contracts/token/ERC20/ERC20.sol\":6603:6614  fromBalance */\n  dup2\n    /* \"@openzeppelin/contracts/token/ERC20/ERC20.sol\":6603:6622  fromBalance < value */\n  lt\n    /* \"@openzeppelin/contracts/token/ERC20/ERC20.sol\":6599:6714  if (fromBalance < value) {... */\n  iszero\n  tag_69\n  jumpi\n    /* \"@openzeppelin/contracts/token/ERC20/ERC20.sol\":6674:6678  from */\n  dup4\n    /* \"@openzeppelin/contracts/token/ERC20/ERC20.sol\":6680:6691  fromBalance */\n  dup2\n    /* \"@openzeppelin/contracts/token/ERC20/ERC20.sol\":6693:6698  value */\n  dup4\n    /* \"@openzeppelin/contracts/token/ERC20/ERC20.sol\":6649:6699  ERC20InsufficientBalance(from, fromBalance, value) */\n  mload(0x40)\n  0xe450d38c00000000000000000000000000000000000000000000000000000000\n  dup2\n  mstore\n  0x04\n  add\n  tag_70\n  swap4\n  swap3\n  swap2\n  swap1\n  tag_71\n  jump\t// in\ntag_70:\n  mload(0x40)\n  dup1\n  swap2\n  sub\n  swap1\n  revert\n    /* \"@openzeppelin/contracts/token/ERC20/ERC20.sol\":6599:6714  if (fromBalance < value) {... */\ntag_69:\n    /* \"@openzeppelin/contracts/token/ERC20/ERC20.sol\":6866:6871  value */\n  dup2\n    /* \"@openzeppelin/contracts/token/ERC20/ERC20.sol\":6852:6863  fromBalance */\n  dup2\n    /* \"@openzeppelin/contracts/token/ERC20/ERC20.sol\":6852:6871  fromBalance - value */\n  sub\n    /* \"@openzeppelin/contracts/token/ERC20/ERC20.sol\":6834:6843  _balances */\n  0x00\n    /* \"@openzeppelin/contracts/token/ERC20/ERC20.sol\":6834:6849  _balances[from] */\n  dup1\n    /* \"@openzeppelin/contracts/token/ERC20/ERC20.sol\":6844:6848  from */\n  dup7\n    /* \"@openzeppelin/contracts/token/ERC20/ERC20.sol\":6834:6849  _balances[from] */\n  0xffffffffffffffffffffffffffffffffffffffff\n  and\n  0xffffffffffffffffffffffffffffffffffffffff\n  and\n  dup2\n  mstore\n  0x20\n  add\n  swap1\n  dup2\n  mstore\n  0x20\n  add\n  0x00\n  keccak256\n    /* \"@openzeppelin/contracts/token/ERC20/ERC20.sol\":6834:6871  _balances[from] = fromBalance - value */\n  dup2\n  swap1\n  sstore\n  pop\n    /* \"@openzeppelin/contracts/token/ERC20/ERC20.sol\":6534:6896  {... */\n  pop\n    /* \"@openzeppelin/contracts/token/ERC20/ERC20.sol\":6356:6896  if (from == address(0)) {... */\ntag_68:\n    /* \"@openzeppelin/contracts/token/ERC20/ERC20.sol\":6924:6925  0 */\n  0x00\n    /* \"@openzeppelin/contracts/token/ERC20/ERC20.sol\":6910:6926  to == address(0) */\n  0xffffffffffffffffffffffffffffffffffffffff\n  and\n    /* \"@openzeppelin/contracts/token/ERC20/ERC20.sol\":6910:6912  to */\n  dup3\n    /* \"@openzeppelin/contracts/token/ERC20/ERC20.sol\":6910:6926  to == address(0) */\n  0xffffffffffffffffffffffffffffffffffffffff\n  and\n  sub\n    /* \"@openzeppelin/contracts/token/ERC20/ERC20.sol\":6906:7331  if (to == address(0)) {... */\n  tag_72\n  jumpi\n    /* \"@openzeppelin/contracts/token/ERC20/ERC20.sol\":7089:7094  value */\n  dup1\n    /* \"@openzeppelin/contracts/token/ERC20/ERC20.sol\":7073:7085  _totalSupply */\n  0x02\n  0x00\n    /* \"@openzeppelin/contracts/token/ERC20/ERC20.sol\":7073:7094  _totalSupply -= value */\n  dup3\n  dup3\n  sload\n  sub\n  swap3\n  pop\n  pop\n  dup2\n  swap1\n  sstore\n  pop\n    /* \"@openzeppelin/contracts/token/ERC20/ERC20.sol\":6906:7331  if (to == address(0)) {... */\n  jump(tag_73)\ntag_72:\n    /* \"@openzeppelin/contracts/token/ERC20/ERC20.sol\":7301:7306  value */\n  dup1\n    /* \"@openzeppelin/contracts/token/ERC20/ERC20.sol\":7284:7293  _balances */\n  0x00\n    /* \"@openzeppelin/contracts/token/ERC20/ERC20.sol\":7284:7297  _balances[to] */\n  dup1\n    /* \"@openzeppelin/contracts/token/ERC20/ERC20.sol\":7294:7296  to */\n  dup5\n    /* \"@openzeppelin/contracts/token/ERC20/ERC20.sol\":7284:7297  _balances[to] */\n  0xffffffffffffffffffffffffffffffffffffffff\n  and\n  0xffffffffffffffffffffffffffffffffffffffff\n  and\n  dup2\n  mstore\n  0x20\n  add\n  swap1\n  dup2\n  mstore\n  0x20\n  add\n  0x00\n  keccak256\n  0x00\n    /* \"@openzeppelin/contracts/token/ERC20/ERC20.sol\":7284:7306  _balances[to] += value */\n  dup3\n  dup3\n  sload\n  add\n  swap3\n  pop\n  pop\n  dup2\n  swap1\n  sstore\n  pop\n    /* \"@openzeppelin/contracts/token/ERC20/ERC20.sol\":6906:7331  if (to == address(0)) {... */\ntag_73:\n    /* \"@openzeppelin/contracts/token/ERC20/ERC20.sol\":7361:7363  to */\n  dup2\n    /* \"@openzeppelin/contracts/token/ERC20/ERC20.sol\":7346:7371  Transfer(from, to, value) */\n  0xffffffffffffffffffffffffffffffffffffffff\n  and\n    /* \"@openzeppelin/contracts/token/ERC20/ERC20.sol\":7355:7359  from */\n  dup4\n    /* \"@openzeppelin/contracts/token/ERC20/ERC20.sol\":7346:7371  Transfer(from, to, value) */\n  0xffffffffffffffffffffffffffffffffffffffff\n  and\n  0xddf252ad1be2c89b69c2b068fc378daa952ba7f163c4a11628f55a4df523b3ef\n    /* \"@openzeppelin/contracts/token/ERC20/ERC20.sol\":7365:7370  value */\n  dup4\n    /* \"@openzeppelin/contracts/token/ERC20/ERC20.sol\":7346:7371  Transfer(from, to, value) */\n  mload(0x40)\n  tag_74\n  swap2\n  swap1\n  tag_75\n  jump\t// in\ntag_74:\n  mload(0x40)\n  dup1\n  swap2\n  sub\n  swap1\n  log3\n    /* \"@openzeppelin/contracts/token/ERC20/ERC20.sol\":6271:7378  function _update(address from, address to, uint256 value) internal virtual {... */\n  pop\n  pop\n  pop\n  jump\t// out\n    /* \"#utility.yul\":88:205   */\ntag_77:\n    /* \"#utility.yul\":197:198   */\n  0x00\n    /* \"#utility.yul\":194:195   */\n  dup1\n    /* \"#utility.yul\":187:199   */\n  revert\n    /* \"#utility.yul\":334:460   */\ntag_79:\n    /* \"#utility.yul\":371:378   */\n  0x00\n    /* \"#utility.yul\":411:453   */\n  0xffffffffffffffffffffffffffffffffffffffff\n    /* \"#utility.yul\":404:409   */\n  dup3\n    /* \"#utility.yul\":400:454   */\n  and\n    /* \"#utility.yul\":389:454   */\n  swap1\n  pop\n    /* \"#utility.yul\":334:460   */\n  swap2\n  swap1\n  pop\n  jump\t// out\n    /* \"#utility.yul\":466:562   */\ntag_80:\n    /* \"#utility.yul\":503:510   */\n  0x00\n    /* \"#utility.yul\":532:556   */\n  tag_115\n    /* \"#utility.yul\":550:555   */\n  dup3\n    /* \"#utility.yul\":532:556   */\n  tag_79\n  jump\t// in\ntag_115:\n    /* \"#utility.yul\":521:556   */\n  swap1\n  pop\n    /* \"#utility.yul\":466:562   */\n  swap2\n  swap1\n  pop\n  jump\t// out\n    /* \"#utility.yul\":568:690   */\ntag_81:\n    /* \"#utility.yul\":641:665   */\n  tag_117\n    /* \"#utility.yul\":659:664   */\n  dup2\n    /* \"#utility.yul\":641:665   */\n  tag_80\n  jump\t// in\ntag_117:\n    /* \"#utility.yul\":634:639   */\n  dup2\n    /* \"#utility.yul\":631:666   */\n  eq\n    /* \"#utility.yul\":621:684   */\n  tag_118\n  jumpi\n    /* \"#utility.yul\":680:681   */\n  0x00\n    /* \"#utility.yul\":677:678   */\n  dup1\n    /* \"#utility.yul\":670:682   */\n  revert\n    /* \"#utility.yul\":621:684   */\ntag_118:\n    /* \"#utility.yul\":568:690   */\n  pop\n  jump\t// out\n    /* \"#utility.yul\":696:839   */\ntag_82:\n    /* \"#utility.yul\":753:758   */\n  0x00\n    /* \"#utility.yul\":784:790   */\n  dup2\n    /* \"#utility.yul\":778:791   */\n  mload\n    /* \"#utility.yul\":769:791   */\n  swap1\n  pop\n    /* \"#utility.yul\":800:833   */\n  tag_120\n    /* \"#utility.yul\":827:832   */\n  dup2\n    /* \"#utility.yul\":800:833   */\n  tag_81\n  jump\t// in\ntag_120:\n    /* \"#utility.yul\":696:839   */\n  swap3\n  swap2\n  pop\n  pop\n  jump\t// out\n    /* \"#utility.yul\":845:922   */\ntag_83:\n    /* \"#utility.yul\":882:889   */\n  0x00\n    /* \"#utility.yul\":911:916   */\n  dup2\n    /* \"#utility.yul\":900:916   */\n  swap1\n  pop\n    /* \"#utility.yul\":845:922   */\n  swap2\n  swap1\n  pop\n  jump\t// out\n    /* \"#utility.yul\":928:1050   */\ntag_84:\n    /* \"#utility.yul\":1001:1025   */\n  tag_123\n    /* \"#utility.yul\":1019:1024   */\n  dup2\n    /* \"#utility.yul\":1001:1025   */\n  tag_83\n  jump\t// in\ntag_123:\n    /* \"#utility.yul\":994:999   */\n  dup2\n    /* \"#utility.yul\":991:1026   */\n  eq\n    /* \"#utility.yul\":981:1044   */\n  tag_124\n  jumpi\n    /* \"#utility.yul\":1040:1041   */\n  0x00\n    /* \"#utility.yul\":1037:1038   */\n  dup1\n    /* \"#utility.yul\":1030:1042   */\n  revert\n    /* \"#utility.yul\":981:1044   */\ntag_124:\n    /* \"#utility.yul\":928:1050   */\n  pop\n  jump\t// out\n    /* \"#utility.yul\":1056:1199   */\ntag_85:\n    /* \"#utility.yul\":1113:1118   */\n  0x00\n    /* \"#utility.yul\":1144:1150   */\n  dup2\n    /* \"#utility.yul\":1138:1151   */\n  mload\n    /* \"#utility.yul\":1129:1151   */\n  swap1\n  pop\n    /* \"#utility.yul\":1160:1193   */\n  tag_126\n    /* \"#utility.yul\":1187:1192   */\n  dup2\n    /* \"#utility.yul\":1160:1193   */\n  tag_84\n  jump\t// in\ntag_126:\n    /* \"#utility.yul\":1056:1199   */\n  swap3\n  swap2\n  pop\n  pop\n  jump\t// out\n    /* \"#utility.yul\":1205:1712   */\ntag_3:\n    /* \"#utility.yul\":1284:1290   */\n  0x00\n    /* \"#utility.yul\":1292:1298   */\n  dup1\n    /* \"#utility.yul\":1341:1343   */\n  0x40\n    /* \"#utility.yul\":1329:1338   */\n  dup4\n    /* \"#utility.yul\":1320:1327   */\n  dup6\n    /* \"#utility.yul\":1316:1339   */\n  sub\n    /* \"#utility.yul\":1312:1344   */\n  slt\n    /* \"#utility.yul\":1309:1428   */\n  iszero\n  tag_128\n  jumpi\n    /* \"#utility.yul\":1347:1426   */\n  tag_129\n  tag_77\n  jump\t// in\ntag_129:\n    /* \"#utility.yul\":1309:1428   */\ntag_128:\n    /* \"#utility.yul\":1467:1468   */\n  0x00\n    /* \"#utility.yul\":1492:1556   */\n  tag_130\n    /* \"#utility.yul\":1548:1555   */\n  dup6\n    /* \"#utility.yul\":1539:1545   */\n  dup3\n    /* \"#utility.yul\":1528:1537   */\n  dup7\n    /* \"#utility.yul\":1524:1546   */\n  add\n    /* \"#utility.yul\":1492:1556   */\n  tag_82\n  jump\t// in\ntag_130:\n    /* \"#utility.yul\":1482:1556   */\n  swap3\n  pop\n    /* \"#utility.yul\":1438:1566   */\n  pop\n    /* \"#utility.yul\":1605:1607   */\n  0x20\n    /* \"#utility.yul\":1631:1695   */\n  tag_131\n    /* \"#utility.yul\":1687:1694   */\n  dup6\n    /* \"#utility.yul\":1678:1684   */\n  dup3\n    /* \"#utility.yul\":1667:1676   */\n  dup7\n    /* \"#utility.yul\":1663:1685   */\n  add\n    /* \"#utility.yul\":1631:1695   */\n  tag_85\n  jump\t// in\ntag_131:\n    /* \"#utility.yul\":1621:1695   */\n  swap2\n  pop\n    /* \"#utility.yul\":1576:1705   */\n  pop\n    /* \"#utility.yul\":1205:1712   */\n  swap3\n  pop\n  swap3\n  swap1\n  pop\n  jump\t// out\n    /* \"#utility.yul\":1718:1817   */\ntag_86:\n    /* \"#utility.yul\":1770:1776   */\n  0x00\n    /* \"#utility.yul\":1804:1809   */\n  dup2\n    /* \"#utility.yul\":1798:1810   */\n  mload\n    /* \"#utility.yul\":1788:1810   */\n  swap1\n  pop\n    /* \"#utility.yul\":1718:1817   */\n  swap2\n  swap1\n  pop\n  jump\t// out\n    /* \"#utility.yul\":1823:2003   */\ntag_87:\n    /* \"#utility.yul\":1871:1948   */\n  0x4e487b7100000000000000000000000000000000000000000000000000000000\n    /* \"#utility.yul\":1868:1869   */\n  0x00\n    /* \"#utility.yul\":1861:1949   */\n  mstore\n    /* \"#utility.yul\":1968:1972   */\n  0x41\n    /* \"#utility.yul\":1965:1966   */\n  0x04\n    /* \"#utility.yul\":1958:1973   */\n  mstore\n    /* \"#utility.yul\":1992:1996   */\n  0x24\n    /* \"#utility.yul\":1989:1990   */\n  0x00\n    /* \"#utility.yul\":1982:1997   */\n  revert\n    /* \"#utility.yul\":2009:2189   */\ntag_88:\n    /* \"#utility.yul\":2057:2134   */\n  0x4e487b7100000000000000000000000000000000000000000000000000000000\n    /* \"#utility.yul\":2054:2055   */\n  0x00\n    /* \"#utility.yul\":2047:2135   */\n  mstore\n    /* \"#utility.yul\":2154:2158   */\n  0x22\n    /* \"#utility.yul\":2151:2152   */\n  0x04\n    /* \"#utility.yul\":2144:2159   */\n  mstore\n    /* \"#utility.yul\":2178:2182   */\n  0x24\n    /* \"#utility.yul\":2175:2176   */\n  0x00\n    /* \"#utility.yul\":2168:2183   */\n  revert\n    /* \"#utility.yul\":2195:2515   */\ntag_89:\n    /* \"#utility.yul\":2239:2245   */\n  0x00\n    /* \"#utility.yul\":2276:2277   */\n  0x02\n    /* \"#utility.yul\":2270:2274   */\n  dup3\n    /* \"#utility.yul\":2266:2278   */\n  div\n    /* \"#utility.yul\":2256:2278   */\n  swap1\n  pop\n    /* \"#utility.yul\":2323:2324   */\n  0x01\n    /* \"#utility.yul\":2317:2321   */\n  dup3\n    /* \"#utility.yul\":2313:2325   */\n  and\n    /* \"#utility.yul\":2344:2362   */\n  dup1\n    /* \"#utility.yul\":2334:2415   */\n  tag_136\n  jumpi\n    /* \"#utility.yul\":2400:2404   */\n  0x7f\n    /* \"#utility.yul\":2392:2398   */\n  dup3\n    /* \"#utility.yul\":2388:2405   */\n  and\n    /* \"#utility.yul\":2378:2405   */\n  swap2\n  pop\n    /* \"#utility.yul\":2334:2415   */\ntag_136:\n    /* \"#utility.yul\":2462:2464   */\n  0x20\n    /* \"#utility.yul\":2454:2460   */\n  dup3\n    /* \"#utility.yul\":2451:2465   */\n  lt\n    /* \"#utility.yul\":2431:2449   */\n  dup2\n    /* \"#utility.yul\":2428:2466   */\n  sub\n    /* \"#utility.yul\":2425:2509   */\n  tag_137\n  jumpi\n    /* \"#utility.yul\":2481:2499   */\n  tag_138\n  tag_88\n  jump\t// in\ntag_138:\n    /* \"#utility.yul\":2425:2509   */\ntag_137:\n    /* \"#utility.yul\":2246:2515   */\n  pop\n    /* \"#utility.yul\":2195:2515   */\n  swap2\n  swap1\n  pop\n  jump\t// out\n    /* \"#utility.yul\":2521:2662   */\ntag_90:\n    /* \"#utility.yul\":2570:2574   */\n  0x00\n    /* \"#utility.yul\":2593:2596   */\n  dup2\n    /* \"#utility.yul\":2585:2596   */\n  swap1\n  pop\n    /* \"#utility.yul\":2616:2619   */\n  dup2\n    /* \"#utility.yul\":2613:2614   */\n  0x00\n    /* \"#utility.yul\":2606:2620   */\n  mstore\n    /* \"#utility.yul\":2650:2654   */\n  0x20\n    /* \"#utility.yul\":2647:2648   */\n  0x00\n    /* \"#utility.yul\":2637:2655   */\n  keccak256\n    /* \"#utility.yul\":2629:2655   */\n  swap1\n  pop\n    /* \"#utility.yul\":2521:2662   */\n  swap2\n  swap1\n  pop\n  jump\t// out\n    /* \"#utility.yul\":2668:2761   */\ntag_91:\n    /* \"#utility.yul\":2705:2711   */\n  0x00\n    /* \"#utility.yul\":2752:2754   */\n  0x20\n    /* \"#utility.yul\":2747:2749   */\n  0x1f\n    /* \"#utility.yul\":2740:2745   */\n  dup4\n    /* \"#utility.yul\":2736:2750   */\n  add\n    /* \"#utility.yul\":2732:2755   */\n  div\n    /* \"#utility.yul\":2722:2755   */\n  swap1\n  pop\n    /* \"#utility.yul\":2668:2761   */\n  swap2\n  swap1\n  pop\n  jump\t// out\n    /* \"#utility.yul\":2767:2874   */\ntag_92:\n    /* \"#utility.yul\":2811:2819   */\n  0x00\n    /* \"#utility.yul\":2861:2866   */\n  dup3\n    /* \"#utility.yul\":2855:2859   */\n  dup3\n    /* \"#utility.yul\":2851:2867   */\n  shl\n    /* \"#utility.yul\":2830:2867   */\n  swap1\n  pop\n    /* \"#utility.yul\":2767:2874   */\n  swap3\n  swap2\n  pop\n  pop\n  jump\t// out\n    /* \"#utility.yul\":2880:3273   */\ntag_93:\n    /* \"#utility.yul\":2949:2955   */\n  0x00\n    /* \"#utility.yul\":2999:3000   */\n  0x08\n    /* \"#utility.yul\":2987:2997   */\n  dup4\n    /* \"#utility.yul\":2983:3001   */\n  mul\n    /* \"#utility.yul\":3022:3119   */\n  tag_143\n    /* \"#utility.yul\":3052:3118   */\n  0xffffffffffffffffffffffffffffffffffffffffffffffffffffffffffffffff\n    /* \"#utility.yul\":3041:3050   */\n  dup3\n    /* \"#utility.yul\":3022:3119   */\n  tag_92\n  jump\t// in\ntag_143:\n    /* \"#utility.yul\":3140:3179   */\n  tag_144\n    /* \"#utility.yul\":3170:3178   */\n  dup7\n    /* \"#utility.yul\":3159:3168   */\n  dup4\n    /* \"#utility.yul\":3140:3179   */\n  tag_92\n  jump\t// in\ntag_144:\n    /* \"#utility.yul\":3128:3179   */\n  swap6\n  pop\n    /* \"#utility.yul\":3212:3216   */\n  dup1\n    /* \"#utility.yul\":3208:3217   */\n  not\n    /* \"#utility.yul\":3201:3206   */\n  dup5\n    /* \"#utility.yul\":3197:3218   */\n  and\n    /* \"#utility.yul\":3188:3218   */\n  swap4\n  pop\n    /* \"#utility.yul\":3261:3265   */\n  dup1\n    /* \"#utility.yul\":3251:3259   */\n  dup7\n    /* \"#utility.yul\":3247:3266   */\n  and\n    /* \"#utility.yul\":3240:3245   */\n  dup5\n    /* \"#utility.yul\":3237:3267   */\n  or\n    /* \"#utility.yul\":3227:3267   */\n  swap3\n  pop\n    /* \"#utility.yul\":2956:3273   */\n  pop\n  pop\n    /* \"#utility.yul\":2880:3273   */\n  swap4\n  swap3\n  pop\n  pop\n  pop\n  jump\t// out\n    /* \"#utility.yul\":3279:3339   */\ntag_94:\n    /* \"#utility.yul\":3307:3310   */\n  0x00\n    /* \"#utility.yul\":3328:3333   */\n  dup2\n    /* \"#utility.yul\":3321:3333   */\n  swap1\n  pop\n    /* \"#utility.yul\":3279:3339   */\n  swap2\n  swap1\n  pop\n  jump\t// out\n    /* \"#utility.yul\":3345:3487   */\ntag_95:\n    /* \"#utility.yul\":3395:3404   */\n  0x00\n    /* \"#utility.yul\":3428:3481   */\n  tag_147\n    /* \"#utility.yul\":3446:3480   */\n  tag_148\n    /* \"#utility.yul\":3455:3479   */\n  tag_149\n    /* \"#utility.yul\":3473:3478   */\n  dup5\n    /* \"#utility.yul\":3455:3479   */\n  tag_83\n  jump\t// in\ntag_149:\n    /* \"#utility.yul\":3446:3480   */\n  tag_94\n  jump\t// in\ntag_148:\n    /* \"#utility.yul\":3428:3481   */\n  tag_83\n  jump\t// in\ntag_147:\n    /* \"#utility.yul\":3415:3481   */\n  swap1\n  pop\n    /* \"#utility.yul\":3345:3487   */\n  swap2\n  swap1\n  pop\n  jump\t// out\n    /* \"#utility.yul\":3493:3568   */\ntag_96:\n    /* \"#utility.yul\":3536:3539   */\n  0x00\n    /* \"#utility.yul\":3557:3562   */\n  dup2\n    /* \"#utility.yul\":3550:3562   */\n  swap1\n  pop\n    /* \"#utility.yul\":3493:3568   */\n  swap2\n  swap1\n  pop\n  jump\t// out\n    /* \"#utility.yul\":3574:3843   */\ntag_97:\n    /* \"#utility.yul\":3684:3723   */\n  tag_152\n    /* \"#utility.yul\":3715:3722   */\n  dup4\n    /* \"#utility.yul\":3684:3723   */\n  tag_95\n  jump\t// in\ntag_152:\n    /* \"#utility.yul\":3745:3836   */\n  tag_153\n    /* \"#utility.yul\":3794:3835   */\n  tag_154\n    /* \"#utility.yul\":3818:3834   */\n  dup3\n    /* \"#utility.yul\":3794:3835   */\n  tag_96\n  jump\t// in\ntag_154:\n    /* \"#utility.yul\":3786:3792   */\n  dup5\n    /* \"#utility.yul\":3779:3783   */\n  dup5\n    /* \"#utility.yul\":3773:3784   */\n  sload\n    /* \"#utility.yul\":3745:3836   */\n  tag_93\n  jump\t// in\ntag_153:\n    /* \"#utility.yul\":3739:3743   */\n  dup3\n    /* \"#utility.yul\":3732:3837   */\n  sstore\n    /* \"#utility.yul\":3650:3843   */\n  pop\n    /* \"#utility.yul\":3574:3843   */\n  pop\n  pop\n  pop\n  jump\t// out\n    /* \"#utility.yul\":3849:3922   */\ntag_98:\n    /* \"#utility.yul\":3894:3897   */\n  0x00\n    /* \"#utility.yul\":3849:3922   */\n  swap1\n  jump\t// out\n    /* \"#utility.yul\":3928:4117   */\ntag_99:\n    /* \"#utility.yul\":4005:4037   */\n  tag_157\n  tag_98\n  jump\t// in\ntag_157:\n    /* \"#utility.yul\":4046:4111   */\n  tag_158\n    /* \"#utility.yul\":4104:4110   */\n  dup2\n    /* \"#utility.yul\":4096:4102   */\n  dup5\n    /* \"#utility.yul\":4090:4094   */\n  dup5\n    /* \"#utility.yul\":4046:4111   */\n  tag_97\n  jump\t// in\ntag_158:\n    /* \"#utility.yul\":3981:4117   */\n  pop\n    /* \"#utility.yul\":3928:4117   */\n  pop\n  pop\n  jump\t// out\n    /* \"#utility.yul\":4123:4309   */\ntag_100:\n    /* \"#utility.yul\":4183:4303   */\ntag_160:\n    /* \"#utility.yul\":4200:4203   */\n  dup2\n    /* \"#utility.yul\":4193:4198   */\n  dup2\n    /* \"#utility.yul\":4190:4204   */\n  lt\n    /* \"#utility.yul\":4183:4303   */\n  iszero\n  tag_162\n  jumpi\n    /* \"#utility.yul\":4254:4293   */\n  tag_163\n    /* \"#utility.yul\":4291:4292   */\n  0x00\n    /* \"#utility.yul\":4284:4289   */\n  dup3\n    /* \"#utility.yul\":4254:4293   */\n  tag_99\n  jump\t// in\ntag_163:\n    /* \"#utility.yul\":4227:4228   */\n  0x01\n    /* \"#utility.yul\":4220:4225   */\n  dup2\n    /* \"#utility.yul\":4216:4229   */\n  add\n    /* \"#utility.yul\":4207:4229   */\n  swap1\n  pop\n    /* \"#utility.yul\":4183:4303   */\n  jump(tag_160)\ntag_162:\n    /* \"#utility.yul\":4123:4309   */\n  pop\n  pop\n  jump\t// out\n    /* \"#utility.yul\":4315:4858   */\ntag_101:\n    /* \"#utility.yul\":4416:4418   */\n  0x1f\n    /* \"#utility.yul\":4411:4414   */\n  dup3\n    /* \"#utility.yul\":4408:4419   */\n  gt\n    /* \"#utility.yul\":4405:4851   */\n  iszero\n  tag_165\n  jumpi\n    /* \"#utility.yul\":4450:4488   */\n  tag_166\n    /* \"#utility.yul\":4482:4487   */\n  dup2\n    /* \"#utility.yul\":4450:4488   */\n  tag_90\n  jump\t// in\ntag_166:\n    /* \"#utility.yul\":4534:4563   */\n  tag_167\n    /* \"#utility.yul\":4552:4562   */\n  dup5\n    /* \"#utility.yul\":4534:4563   */\n  tag_91\n  jump\t// in\ntag_167:\n    /* \"#utility.yul\":4524:4532   */\n  dup2\n    /* \"#utility.yul\":4520:4564   */\n  add\n    /* \"#utility.yul\":4717:4719   */\n  0x20\n    /* \"#utility.yul\":4705:4715   */\n  dup6\n    /* \"#utility.yul\":4702:4720   */\n  lt\n    /* \"#utility.yul\":4699:4748   */\n  iszero\n  tag_168\n  jumpi\n    /* \"#utility.yul\":4738:4746   */\n  dup2\n    /* \"#utility.yul\":4723:4746   */\n  swap1\n  pop\n    /* \"#utility.yul\":4699:4748   */\ntag_168:\n    /* \"#utility.yul\":4761:4841   */\n  tag_169\n    /* \"#utility.yul\":4817:4839   */\n  tag_170\n    /* \"#utility.yul\":4835:4838   */\n  dup6\n    /* \"#utility.yul\":4817:4839   */\n  tag_91\n  jump\t// in\ntag_170:\n    /* \"#utility.yul\":4807:4815   */\n  dup4\n    /* \"#utility.yul\":4803:4840   */\n  add\n    /* \"#utility.yul\":4790:4801   */\n  dup3\n    /* \"#utility.yul\":4761:4841   */\n  tag_100\n  jump\t// in\ntag_169:\n    /* \"#utility.yul\":4420:4851   */\n  pop\n  pop\n    /* \"#utility.yul\":4405:4851   */\ntag_165:\n    /* \"#utility.yul\":4315:4858   */\n  pop\n  pop\n  pop\n  jump\t// out\n    /* \"#utility.yul\":4864:4981   */\ntag_102:\n    /* \"#utility.yul\":4918:4926   */\n  0x00\n    /* \"#utility.yul\":4968:4973   */\n  dup3\n    /* \"#utility.yul\":4962:4966   */\n  dup3\n    /* \"#utility.yul\":4958:4974   */\n  shr\n    /* \"#utility.yul\":4937:4974   */\n  swap1\n  pop\n    /* \"#utility.yul\":4864:4981   */\n  swap3\n  swap2\n  pop\n  pop\n  jump\t// out\n    /* \"#utility.yul\":4987:5156   */\ntag_103:\n    /* \"#utility.yul\":5031:5037   */\n  0x00\n    /* \"#utility.yul\":5064:5115   */\n  tag_173\n    /* \"#utility.yul\":5112:5113   */\n  0x00\n    /* \"#utility.yul\":5108:5114   */\n  not\n    /* \"#utility.yul\":5100:5105   */\n  dup5\n    /* \"#utility.yul\":5097:5098   */\n  0x08\n    /* \"#utility.yul\":5093:5106   */\n  mul\n    /* \"#utility.yul\":5064:5115   */\n  tag_102\n  jump\t// in\ntag_173:\n    /* \"#utility.yul\":5060:5116   */\n  not\n    /* \"#utility.yul\":5145:5149   */\n  dup1\n    /* \"#utility.yul\":5139:5143   */\n  dup4\n    /* \"#utility.yul\":5135:5150   */\n  and\n    /* \"#utility.yul\":5125:5150   */\n  swap2\n  pop\n    /* \"#utility.yul\":5038:5156   */\n  pop\n    /* \"#utility.yul\":4987:5156   */\n  swap3\n  swap2\n  pop\n  pop\n  jump\t// out\n    /* \"#utility.yul\":5161:5456   */\ntag_104:\n    /* \"#utility.yul\":5237:5241   */\n  0x00\n    /* \"#utility.yul\":5383:5412   */\n  tag_175\n    /* \"#utility.yul\":5408:5411   */\n  dup4\n    /* \"#utility.yul\":5402:5406   */\n  dup4\n    /* \"#utility.yul\":5383:5412   */\n  tag_103\n  jump\t// in\ntag_175:\n    /* \"#utility.yul\":5375:5412   */\n  swap2\n  pop\n    /* \"#utility.yul\":5445:5448   */\n  dup3\n    /* \"#utility.yul\":5442:5443   */\n  0x02\n    /* \"#utility.yul\":5438:5449   */\n  mul\n    /* \"#utility.yul\":5432:5436   */\n  dup3\n    /* \"#utility.yul\":5429:5450   */\n  or\n    /* \"#utility.yul\":5421:5450   */\n  swap1\n  pop\n    /* \"#utility.yul\":5161:5456   */\n  swap3\n  swap2\n  pop\n  pop\n  jump\t// out\n    /* \"#utility.yul\":5461:6856   */\ntag_9:\n    /* \"#utility.yul\":5578:5615   */\n  tag_177\n    /* \"#utility.yul\":5611:5614   */\n  dup3\n    /* \"#utility.yul\":5578:5615   */\n  tag_86\n  jump\t// in\ntag_177:\n    /* \"#utility.yul\":5680:5698   */\n  0xffffffffffffffff\n    /* \"#utility.yul\":5672:5678   */\n  dup2\n    /* \"#utility.yul\":5669:5699   */\n  gt\n    /* \"#utility.yul\":5666:5722   */\n  iszero\n  tag_178\n  jumpi\n    /* \"#utility.yul\":5702:5720   */\n  tag_179\n  tag_87\n  jump\t// in\ntag_179:\n    /* \"#utility.yul\":5666:5722   */\ntag_178:\n    /* \"#utility.yul\":5746:5784   */\n  tag_180\n    /* \"#utility.yul\":5778:5782   */\n  dup3\n    /* \"#utility.yul\":5772:5783   */\n  sload\n    /* \"#utility.yul\":5746:5784   */\n  tag_89\n  jump\t// in\ntag_180:\n    /* \"#utility.yul\":5831:5898   */\n  tag_181\n    /* \"#utility.yul\":5891:5897   */\n  dup3\n    /* \"#utility.yul\":5883:5889   */\n  dup3\n    /* \"#utility.yul\":5877:5881   */\n  dup6\n    /* \"#utility.yul\":5831:5898   */\n  tag_101\n  jump\t// in\ntag_181:\n    /* \"#utility.yul\":5925:5926   */\n  0x00\n    /* \"#utility.yul\":5949:5953   */\n  0x20\n    /* \"#utility.yul\":5936:5953   */\n  swap1\n  pop\n    /* \"#utility.yul\":5981:5983   */\n  0x1f\n    /* \"#utility.yul\":5973:5979   */\n  dup4\n    /* \"#utility.yul\":5970:5984   */\n  gt\n    /* \"#utility.yul\":5998:5999   */\n  0x01\n    /* \"#utility.yul\":5993:6611   */\n  dup2\n  eq\n  tag_183\n  jumpi\n    /* \"#utility.yul\":6655:6656   */\n  0x00\n    /* \"#utility.yul\":6672:6678   */\n  dup5\n    /* \"#utility.yul\":6669:6746   */\n  iszero\n  tag_184\n  jumpi\n    /* \"#utility.yul\":6721:6730   */\n  dup3\n    /* \"#utility.yul\":6716:6719   */\n  dup8\n    /* \"#utility.yul\":6712:6731   */\n  add\n    /* \"#utility.yul\":6706:6732   */\n  mload\n    /* \"#utility.yul\":6697:6732   */\n  swap1\n  pop\n    /* \"#utility.yul\":6669:6746   */\ntag_184:\n    /* \"#utility.yul\":6772:6839   */\n  tag_185\n    /* \"#utility.yul\":6832:6838   */\n  dup6\n    /* \"#utility.yul\":6825:6830   */\n  dup3\n    /* \"#utility.yul\":6772:6839   */\n  tag_104\n  jump\t// in\ntag_185:\n    /* \"#utility.yul\":6766:6770   */\n  dup7\n    /* \"#utility.yul\":6759:6840   */\n  sstore\n    /* \"#utility.yul\":6628:6850   */\n  pop\n    /* \"#utility.yul\":5963:6850   */\n  jump(tag_182)\n    /* \"#utility.yul\":5993:6611   */\ntag_183:\n    /* \"#utility.yul\":6045:6049   */\n  0x1f\n    /* \"#utility.yul\":6041:6050   */\n  not\n    /* \"#utility.yul\":6033:6039   */\n  dup5\n    /* \"#utility.yul\":6029:6051   */\n  and\n    /* \"#utility.yul\":6079:6116   */\n  tag_186\n    /* \"#utility.yul\":6111:6115   */\n  dup7\n    /* \"#utility.yul\":6079:6116   */\n  tag_90\n  jump\t// in\ntag_186:\n    /* \"#utility.yul\":6138:6139   */\n  0x00\n    /* \"#utility.yul\":6152:6360   */\ntag_187:\n    /* \"#utility.yul\":6166:6173   */\n  dup3\n    /* \"#utility.yul\":6163:6164   */\n  dup2\n    /* \"#utility.yul\":6160:6174   */\n  lt\n    /* \"#utility.yul\":6152:6360   */\n  iszero\n  tag_189\n  jumpi\n    /* \"#utility.yul\":6245:6254   */\n  dup5\n    /* \"#utility.yul\":6240:6243   */\n  dup10\n    /* \"#utility.yul\":6236:6255   */\n  add\n    /* \"#utility.yul\":6230:6256   */\n  mload\n    /* \"#utility.yul\":6222:6228   */\n  dup3\n    /* \"#utility.yul\":6215:6257   */\n  sstore\n    /* \"#utility.yul\":6296:6297   */\n  0x01\n    /* \"#utility.yul\":6288:6294   */\n  dup3\n    /* \"#utility.yul\":6284:6298   */\n  add\n    /* \"#utility.yul\":6274:6298   */\n  swap2\n  pop\n    /* \"#utility.yul\":6343:6345   */\n  0x20\n    /* \"#utility.yul\":6332:6341   */\n  dup6\n    /* \"#utility.yul\":6328:6346   */\n  add\n    /* \"#utility.yul\":6315:6346   */\n  swap5\n  pop\n    /* \"#utility.yul\":6189:6193   */\n  0x20\n    /* \"#utility.yul\":6186:6187   */\n  dup2\n    /* \"#utility.yul\":6182:6194   */\n  add\n    /* \"#utility.yul\":6177:6194   */\n  swap1\n  pop\n    /* \"#utility.yul\":6152:6360   */\n  jump(tag_187)\ntag_189:\n    /* \"#utility.yul\":6388:6394   */\n  dup7\n    /* \"#utility.yul\":6379:6386   */\n  dup4\n    /* \"#utility.yul\":6376:6395   */\n  lt\n    /* \"#utility.yul\":6373:6552   */\n  iszero\n  tag_190\n  jumpi\n    /* \"#utility.yul\":6446:6455   */\n  dup5\n    /* \"#utility.yul\":6441:6444   */\n  dup10\n    /* \"#utility.yul\":6437:6456   */\n  add\n    /* \"#utility.yul\":6431:6457   */\n  mload\n    /* \"#utility.yul\":6489:6537   */\n  tag_191\n    /* \"#utility.yul\":6531:6535   */\n  0x1f\n    /* \"#utility.yul\":6523:6529   */\n  dup10\n    /* \"#utility.yul\":6519:6536   */\n  and\n    /* \"#utility.yul\":6508:6517   */\n  dup3\n    /* \"#utility.yul\":6489:6537   */\n  tag_103\n  jump\t// in\ntag_191:\n    /* \"#utility.yul\":6481:6487   */\n  dup4\n    /* \"#utility.yul\":6474:6538   */\n  sstore\n    /* \"#utility.yul\":6396:6552   */\n  pop\n    /* \"#utility.yul\":6373:6552   */\ntag_190:\n    /* \"#utility.yul\":6598:6599   */\n  0x01\n    /* \"#utility.yul\":6594:6595   */\n  0x02\n    /* \"#utility.yul\":6586:6592   */\n  dup9\n    /* \"#utility.yul\":6582:6596   */\n  mul\n    /* \"#utility.yul\":6578:6600   */\n  add\n    /* \"#utility.yul\":6572:6576   */\n  dup9\n    /* \"#utility.yul\":6565:6601   */\n  sstore\n    /* \"#utility.yul\":6000:6611   */\n  pop\n  pop\n  pop\n    /* \"#utility.yul\":5963:6850   */\ntag_182:\n  pop\n    /* \"#utility.yul\":5553:6856   */\n  pop\n  pop\n  pop\n    /* \"#utility.yul\":5461:6856   */\n  pop\n  pop\n  jump\t// out\n    /* \"#utility.yul\":6862:6980   */\ntag_105:\n    /* \"#utility.yul\":6949:6973   */\n  tag_193\n    /* \"#utility.yul\":6967:6972   */\n  dup2\n    /* \"#utility.yul\":6949:6973   */\n  tag_80\n  jump\t// in\ntag_193:\n    /* \"#utility.yul\":6944:6947   */\n  dup3\n    /* \"#utility.yul\":6937:6974   */\n  mstore\n    /* \"#utility.yul\":6862:6980   */\n  pop\n  pop\n  jump\t// out\n    /* \"#utility.yul\":6986:7208   */\ntag_14:\n    /* \"#utility.yul\":7079:7083   */\n  0x00\n    /* \"#utility.yul\":7117:7119   */\n  0x20\n    /* \"#utility.yul\":7106:7115   */\n  dup3\n    /* \"#utility.yul\":7102:7120   */\n  add\n    /* \"#utility.yul\":7094:7120   */\n  swap1\n  pop\n    /* \"#utility.yul\":7130:7201   */\n  tag_195\n    /* \"#utility.yul\":7198:7199   */\n  0x00\n    /* \"#utility.yul\":7187:7196   */\n  dup4\n    /* \"#utility.yul\":7183:7200   */\n  add\n    /* \"#utility.yul\":7174:7180   */\n  dup5\n    /* \"#utility.yul\":7130:7201   */\n  tag_105\n  jump\t// in\ntag_195:\n    /* \"#utility.yul\":6986:7208   */\n  swap3\n  swap2\n  pop\n  pop\n  jump\t// out\n    /* \"#utility.yul\":7214:7394   */\ntag_106:\n    /* \"#utility.yul\":7262:7339   */\n  0x4e487b7100000000000000000000000000000000000000000000000000000000\n    /* \"#utility.yul\":7259:7260   */\n  0x00\n    /* \"#utility.yul\":7252:7340   */\n  mstore\n    /* \"#utility.yul\":7359:7363   */\n  0x11\n    /* \"#utility.yul\":7356:7357   */\n  0x04\n    /* \"#utility.yul\":7349:7364   */\n  mstore\n    /* \"#utility.yul\":7383:7387   */\n  0x24\n    /* \"#utility.yul\":7380:7381   */\n  0x00\n    /* \"#utility.yul\":7373:7388   */\n  revert\n    /* \"#utility.yul\":7400:7486   */\ntag_107:\n    /* \"#utility.yul\":7435:7442   */\n  0x00\n    /* \"#utility.yul\":7475:7479   */\n  0xff\n    /* \"#utility.yul\":7468:7473   */\n  dup3\n    /* \"#utility.yul\":7464:7480   */\n  and\n    /* \"#utility.yul\":7453:7480   */\n  swap1\n  pop\n    /* \"#utility.yul\":7400:7486   */\n  swap2\n  swap1\n  pop\n  jump\t// out\n    /* \"#utility.yul\":7492:7659   */\ntag_61:\n    /* \"#utility.yul\":7529:7532   */\n  0x00\n    /* \"#utility.yul\":7552:7574   */\n  tag_199\n    /* \"#utility.yul\":7568:7573   */\n  dup3\n    /* \"#utility.yul\":7552:7574   */\n  tag_107\n  jump\t// in\ntag_199:\n    /* \"#utility.yul\":7543:7574   */\n  swap2\n  pop\n    /* \"#utility.yul\":7596:7600   */\n  0xff\n    /* \"#utility.yul\":7589:7594   */\n  dup3\n    /* \"#utility.yul\":7586:7601   */\n  sub\n    /* \"#utility.yul\":7583:7624   */\n  tag_200\n  jumpi\n    /* \"#utility.yul\":7604:7622   */\n  tag_201\n  tag_106\n  jump\t// in\ntag_201:\n    /* \"#utility.yul\":7583:7624   */\ntag_200:\n    /* \"#utility.yul\":7651:7652   */\n  0x01\n    /* \"#utility.yul\":7644:7649   */\n  dup3\n    /* \"#utility.yul\":7640:7653   */\n  add\n    /* \"#utility.yul\":7633:7653   */\n  swap1\n  pop\n    /* \"#utility.yul\":7492:7659   */\n  swap2\n  swap1\n  pop\n  jump\t// out\n    /* \"#utility.yul\":7665:7856   */\ntag_67:\n    /* \"#utility.yul\":7705:7708   */\n  0x00\n    /* \"#utility.yul\":7724:7744   */\n  tag_203\n    /* \"#utility.yul\":7742:7743   */\n  dup3\n    /* \"#utility.yul\":7724:7744   */\n  tag_83\n  jump\t// in\ntag_203:\n    /* \"#utility.yul\":7719:7744   */\n  swap2\n  pop\n    /* \"#utility.yul\":7758:7778   */\n  tag_204\n    /* \"#utility.yul\":7776:7777   */\n  dup4\n    /* \"#utility.yul\":7758:7778   */\n  tag_83\n  jump\t// in\ntag_204:\n    /* \"#utility.yul\":7753:7778   */\n  swap3\n  pop\n    /* \"#utility.yul\":7801:7802   */\n  dup3\n    /* \"#utility.yul\":7798:7799   */\n  dup3\n    /* \"#utility.yul\":7794:7803   */\n  add\n    /* \"#utility.yul\":7787:7803   */\n  swap1\n  pop\n    /* \"#utility.yul\":7822:7825   */\n  dup1\n    /* \"#utility.yul\":7819:7820   */\n  dup3\n    /* \"#utility.yul\":7816:7826   */\n  gt\n    /* \"#utility.yul\":7813:7849   */\n  iszero\n  tag_205\n  jumpi\n    /* \"#utility.yul\":7829:7847   */\n  tag_206\n  tag_106\n  jump\t// in\ntag_206:\n    /* \"#utility.yul\":7813:7849   */\ntag_205:\n    /* \"#utility.yul\":7665:7856   */\n  swap3\n  swap2\n  pop\n  pop\n  jump\t// out\n    /* \"#utility.yul\":7862:7980   */\ntag_108:\n    /* \"#utility.yul\":7949:7973   */\n  tag_208\n    /* \"#utility.yul\":7967:7972   */\n  dup2\n    /* \"#utility.yul\":7949:7973   */\n  tag_83\n  jump\t// in\ntag_208:\n    /* \"#utility.yul\":7944:7947   */\n  dup3\n    /* \"#utility.yul\":7937:7974   */\n  mstore\n    /* \"#utility.yul\":7862:7980   */\n  pop\n  pop\n  jump\t// out\n    /* \"#utility.yul\":7986:8428   */\ntag_71:\n    /* \"#utility.yul\":8135:8139   */\n  0x00\n    /* \"#utility.yul\":8173:8175   */\n  0x60\n    /* \"#utility.yul\":8162:8171   */\n  dup3\n    /* \"#utility.yul\":8158:8176   */\n  add\n    /* \"#utility.yul\":8150:8176   */\n  swap1\n  pop\n    /* \"#utility.yul\":8186:8257   */\n  tag_210\n    /* \"#utility.yul\":8254:8255   */\n  0x00\n    /* \"#utility.yul\":8243:8252   */\n  dup4\n    /* \"#utility.yul\":8239:8256   */\n  add\n    /* \"#utility.yul\":8230:8236   */\n  dup7\n    /* \"#utility.yul\":8186:8257   */\n  tag_105\n  jump\t// in\ntag_210:\n    /* \"#utility.yul\":8267:8339   */\n  tag_211\n    /* \"#utility.yul\":8335:8337   */\n  0x20\n    /* \"#utility.yul\":8324:8333   */\n  dup4\n    /* \"#utility.yul\":8320:8338   */\n  add\n    /* \"#utility.yul\":8311:8317   */\n  dup6\n    /* \"#utility.yul\":8267:8339   */\n  tag_108\n  jump\t// in\ntag_211:\n    /* \"#utility.yul\":8349:8421   */\n  tag_212\n    /* \"#utility.yul\":8417:8419   */\n  0x40\n    /* \"#utility.yul\":8406:8415   */\n  dup4\n    /* \"#utility.yul\":8402:8420   */\n  add\n    /* \"#utility.yul\":8393:8399   */\n  dup5\n    /* \"#utility.yul\":8349:8421   */\n  tag_108\n  jump\t// in\ntag_212:\n    /* \"#utility.yul\":7986:8428   */\n  swap5\n  swap4\n  pop\n  pop\n  pop\n  pop\n  jump\t// out\n    /* \"#utility.yul\":8434:8656   */\ntag_75:\n    /* \"#utility.yul\":8527:8531   */\n  0x00\n    /* \"#utility.yul\":8565:8567   */\n  0x20\n    /* \"#utility.yul\":8554:8563   */\n  dup3\n    /* \"#utility.yul\":8550:8568   */\n  add\n    /* \"#utility.yul\":8542:8568   */\n  swap1\n  pop\n    /* \"#utility.yul\":8578:8649   */\n  tag_214\n    /* \"#utility.yul\":8646:8647   */\n  0x00\n    /* \"#utility.yul\":8635:8644   */\n  dup4\n    /* \"#utility.yul\":8631:8648   */\n  add\n    /* \"#utility.yul\":8622:8628   */\n  dup5\n    /* \"#utility.yul\":8578:8649   */\n  tag_108\n  jump\t// in\ntag_214:\n    /* \"#utility.yul\":8434:8656   */\n  swap3\n  swap2\n  pop\n  pop\n  jump\t// out\n    /* \"contracts/myContract.sol\":243:4215  contract DegenToken is ERC20, Ownable, ERC20Burnable {... */\ntag_24:\n  dataSize(sub_0)\n  dup1\n  dataOffset(sub_0)\n  0x00\n  codecopy\n  0x00\n  return\nstop\n\nsub_0: assembly {\n        /* \"contracts/myContract.sol\":243:4215  contract DegenToken is ERC20, Ownable, ERC20Burnable {... */\n      mstore(0x40, 0x80)\n      callvalue\n      dup1\n      iszero\n      tag_1\n      jumpi\n      0x00\n      dup1\n      revert\n    tag_1:\n      pop\n      jumpi(tag_2, lt(calldatasize, 0x04))\n      shr(0xe0, calldataload(0x00))\n      dup1\n      0x715018a6\n      gt\n      tag_27\n      jumpi\n      dup1\n      0xc81d7604\n      gt\n      tag_28\n      jumpi\n      dup1\n      0xc81d7604\n      eq\n      tag_21\n      jumpi\n      dup1\n      0xce6019b4\n      eq\n      tag_22\n      jumpi\n      dup1\n      0xd917bd27\n      eq\n      tag_23\n      jumpi\n      dup1\n      0xdd62ed3e\n      eq\n      tag_24\n      jumpi\n      dup1\n      0xe3af42e1\n      eq\n      tag_25\n      jumpi\n      dup1\n      0xf2fde38b\n      eq\n      tag_26\n      jumpi\n      jump(tag_2)\n    tag_28:\n      dup1\n      0x715018a6\n      eq\n      tag_15\n      jumpi\n      dup1\n      0x79cc6790\n      eq\n      tag_16\n      jumpi\n      dup1\n      0x8da5cb5b\n      eq\n      tag_17\n      jumpi\n      dup1\n      0x95d89b41\n      eq\n      tag_18\n      jumpi\n      dup1\n      0xa9059cbb\n      eq\n      tag_19\n      jumpi\n      dup1\n      0xaf3bcb7d\n      eq\n      tag_20\n      jumpi\n      jump(tag_2)\n    tag_27:\n      dup1\n      0x313ce567\n      gt\n      tag_29\n      jumpi\n      dup1\n      0x313ce567\n      eq\n      tag_9\n      jumpi\n      dup1\n      0x40c10f19\n      eq\n      tag_10\n      jumpi\n      dup1\n      0x42966c68\n      eq\n      tag_11\n      jumpi\n      dup1\n      0x4c738909\n      eq\n      tag_12\n      jumpi\n      dup1\n      0x6d1b229d\n      eq\n      tag_13\n      jumpi\n      dup1\n      0x70a08231\n      eq\n      tag_14\n      jumpi\n      jump(tag_2)\n    tag_29:\n      dup1\n      0x06fdde03\n      eq\n      tag_3\n      jumpi\n      dup1\n      0x095ea7b3\n      eq\n      tag_4\n      jumpi\n      dup1\n      0x09ceb537\n      eq\n      tag_5\n      jumpi\n      dup1\n      0x1072cbea\n      eq\n      tag_6\n      jumpi\n      dup1\n      0x18160ddd\n      eq\n      tag_7\n      jumpi\n      dup1\n      0x23b872dd\n      eq\n      tag_8\n      jumpi\n    tag_2:\n      0x00\n      dup1\n      revert\n        /* \"@openzeppelin/contracts/token/ERC20/ERC20.sol\":2074:2163  function name() public view virtual returns (string memory) {... */\n    tag_3:\n      tag_30\n      tag_31\n      jump\t// in\n    tag_30:\n      mload(0x40)\n      tag_32\n      swap2\n      swap1\n      tag_33\n      jump\t// in\n    tag_32:\n      mload(0x40)\n      dup1\n      swap2\n      sub\n      swap1\n      return\n        /* \"@openzeppelin/contracts/token/ERC20/ERC20.sol\":4293:4479  function approve(address spender, uint256 value) public virtual returns (bool) {... */\n    tag_4:\n      tag_34\n      0x04\n      dup1\n      calldatasize\n      sub\n      dup2\n      add\n      swap1\n      tag_35\n      swap2\n      swap1\n      tag_36\n      jump\t// in\n    tag_35:\n      tag_37\n      jump\t// in\n    tag_34:\n      mload(0x40)\n      tag_38\n      swap2\n      swap1\n      tag_39\n      jump\t// in\n    tag_38:\n      mload(0x40)\n      dup1\n      swap2\n      sub\n      swap1\n      return\n        /* \"contracts/myContract.sol\":2231:2816  function betOnRandomNumber(bool predictLessThanFive, uint256 betAmount) public {... */\n    tag_5:\n      tag_40\n      0x04\n      dup1\n      calldatasize\n      sub\n      dup2\n      add\n      swap1\n      tag_41\n      swap2\n      swap1\n      tag_42\n      jump\t// in\n    tag_41:\n      tag_43\n      jump\t// in\n    tag_40:\n      stop\n        /* \"contracts/myContract.sol\":1607:1805  function transferToken(address recipient, uint256 amount) external {... */\n    tag_6:\n      tag_44\n      0x04\n      dup1\n      calldatasize\n      sub\n      dup2\n      add\n      swap1\n      tag_45\n      swap2\n      swap1\n      tag_36\n      jump\t// in\n    tag_45:\n      tag_46\n      jump\t// in\n    tag_44:\n      stop\n        /* \"@openzeppelin/contracts/token/ERC20/ERC20.sol\":3144:3241  function totalSupply() public view virtual returns (uint256) {... */\n    tag_7:\n      tag_47\n      tag_48\n      jump\t// in\n    tag_47:\n      mload(0x40)\n      tag_49\n      swap2\n      swap1\n      tag_50\n      jump\t// in\n    tag_49:\n      mload(0x40)\n      dup1\n      swap2\n      sub\n      swap1\n      return\n        /* \"@openzeppelin/contracts/token/ERC20/ERC20.sol\":5039:5283  function transferFrom(address from, address to, uint256 value) public virtual returns (bool) {... */\n    tag_8:\n      tag_51\n      0x04\n      dup1\n      calldatasize\n      sub\n      dup2\n      add\n      swap1\n      tag_52\n      swap2\n      swap1\n      tag_53\n      jump\t// in\n    tag_52:\n      tag_54\n      jump\t// in\n    tag_51:\n      mload(0x40)\n      tag_55\n      swap2\n      swap1\n      tag_39\n      jump\t// in\n    tag_55:\n      mload(0x40)\n      dup1\n      swap2\n      sub\n      swap1\n      return\n        /* \"@openzeppelin/contracts/token/ERC20/ERC20.sol\":3002:3084  function decimals() public view virtual returns (uint8) {... */\n    tag_9:\n      tag_56\n      tag_57\n      jump\t// in\n    tag_56:\n      mload(0x40)\n      tag_58\n      swap2\n      swap1\n      tag_59\n      jump\t// in\n    tag_58:\n      mload(0x40)\n      dup1\n      swap2\n      sub\n      swap1\n      return\n        /* \"contracts/myContract.sol\":1457:1550  function mint(address to, uint256 amount) public onlyOwner {... */\n    tag_10:\n      tag_60\n      0x04\n      dup1\n      calldatasize\n      sub\n      dup2\n      add\n      swap1\n      tag_61\n      swap2\n      swap1\n      tag_36\n      jump\t// in\n    tag_61:\n      tag_62\n      jump\t// in\n    tag_60:\n      stop\n        /* \"@openzeppelin/contracts/token/ERC20/extensions/ERC20Burnable.sol\":618:705  function burn(uint256 value) public virtual {... */\n    tag_11:\n      tag_63\n      0x04\n      dup1\n      calldatasize\n      sub\n      dup2\n      add\n      swap1\n      tag_64\n      swap2\n      swap1\n      tag_65\n      jump\t// in\n    tag_64:\n      tag_66\n      jump\t// in\n    tag_63:\n      stop\n        /* \"contracts/myContract.sol\":3918:4019  function getMyBalance() external view returns (uint256) {... */\n    tag_12:\n      tag_67\n      tag_68\n      jump\t// in\n    tag_67:\n      mload(0x40)\n      tag_69\n      swap2\n      swap1\n      tag_50\n      jump\t// in\n    tag_69:\n      mload(0x40)\n      dup1\n      swap2\n      sub\n      swap1\n      return\n        /* \"contracts/myContract.sol\":4065:4213  function burnTokens(uint256 amount) external {... */\n    tag_13:\n      tag_70\n      0x04\n      dup1\n      calldatasize\n      sub\n      dup2\n      add\n      swap1\n      tag_71\n      swap2\n      swap1\n      tag_65\n      jump\t// in\n    tag_71:\n      tag_72\n      jump\t// in\n    tag_70:\n      stop\n        /* \"@openzeppelin/contracts/token/ERC20/ERC20.sol\":3299:3415  function balanceOf(address account) public view virtual returns (uint256) {... */\n    tag_14:\n      tag_73\n      0x04\n      dup1\n      calldatasize\n      sub\n      dup2\n      add\n      swap1\n      tag_74\n      swap2\n      swap1\n      tag_75\n      jump\t// in\n    tag_74:\n      tag_76\n      jump\t// in\n    tag_73:\n      mload(0x40)\n      tag_77\n      swap2\n      swap1\n      tag_50\n      jump\t// in\n    tag_77:\n      mload(0x40)\n      dup1\n      swap2\n      sub\n      swap1\n      return\n        /* \"@openzeppelin/contracts/access/Ownable.sol\":2293:2394  function renounceOwnership() public virtual onlyOwner {... */\n    tag_15:\n      tag_78\n      tag_79\n      jump\t// in\n    tag_78:\n      stop\n        /* \"@openzeppelin/contracts/token/ERC20/extensions/ERC20Burnable.sol\":1021:1179  function burnFrom(address account, uint256 value) public virtual {... */\n    tag_16:\n      tag_80\n      0x04\n      dup1\n      calldatasize\n      sub\n      dup2\n      add\n      swap1\n      tag_81\n      swap2\n      swap1\n      tag_36\n      jump\t// in\n    tag_81:\n      tag_82\n      jump\t// in\n    tag_80:\n      stop\n        /* \"@openzeppelin/contracts/access/Ownable.sol\":1638:1723  function owner() public view virtual returns (address) {... */\n    tag_17:\n      tag_83\n      tag_84\n      jump\t// in\n    tag_83:\n      mload(0x40)\n      tag_85\n      swap2\n      swap1\n      tag_86\n      jump\t// in\n    tag_85:\n      mload(0x40)\n      dup1\n      swap2\n      sub\n      swap1\n      return\n        /* \"@openzeppelin/contracts/token/ERC20/ERC20.sol\":2276:2369  function symbol() public view virtual returns (string memory) {... */\n    tag_18:\n      tag_87\n      tag_88\n      jump\t// in\n    tag_87:\n      mload(0x40)\n      tag_89\n      swap2\n      swap1\n      tag_33\n      jump\t// in\n    tag_89:\n      mload(0x40)\n      dup1\n      swap2\n      sub\n      swap1\n      return\n        /* \"@openzeppelin/contracts/token/ERC20/ERC20.sol\":3610:3788  function transfer(address to, uint256 value) public virtual returns (bool) {... */\n    tag_19:\n      tag_90\n      0x04\n      dup1\n      calldatasize\n      sub\n      dup2\n      add\n      swap1\n      tag_91\n      swap2\n      swap1\n      tag_36\n      jump\t// in\n    tag_91:\n      tag_92\n      jump\t// in\n    tag_90:\n      mload(0x40)\n      tag_93\n      swap2\n      swap1\n      tag_39\n      jump\t// in\n    tag_93:\n      mload(0x40)\n      dup1\n      swap2\n      sub\n      swap1\n      return\n        /* \"contracts/myContract.sol\":2859:3237  function purchaseItem(uint8 itemId) external {... */\n    tag_20:\n      tag_94\n      0x04\n      dup1\n      calldatasize\n      sub\n      dup2\n      add\n      swap1\n      tag_95\n      swap2\n      swap1\n      tag_96\n      jump\t// in\n    tag_95:\n      tag_97\n      jump\t// in\n    tag_94:\n      stop\n        /* \"contracts/myContract.sol\":1869:2014  function redeemWelcomeBonus() public {... */\n    tag_21:\n      tag_98\n      tag_99\n      jump\t// in\n    tag_98:\n      stop\n        /* \"contracts/myContract.sol\":3296:3657  function getUserItems(address user) external view returns (uint8[] memory) {... */\n    tag_22:\n      tag_100\n      0x04\n      dup1\n      calldatasize\n      sub\n      dup2\n      add\n      swap1\n      tag_101\n      swap2\n      swap1\n      tag_75\n      jump\t// in\n    tag_101:\n      tag_102\n      jump\t// in\n    tag_100:\n      mload(0x40)\n      tag_103\n      swap2\n      swap1\n      tag_104\n      jump\t// in\n    tag_103:\n      mload(0x40)\n      dup1\n      swap2\n      sub\n      swap1\n      return\n        /* \"contracts/myContract.sol\":3701:3875  function getItemDetails(uint8 itemId) external view returns (string memory, uint256) {... */\n    tag_23:\n      tag_105\n      0x04\n      dup1\n      calldatasize\n      sub\n      dup2\n      add\n      swap1\n      tag_106\n      swap2\n      swap1\n      tag_96\n      jump\t// in\n    tag_106:\n      tag_107\n      jump\t// in\n    tag_105:\n      mload(0x40)\n      tag_108\n      swap3\n      swap2\n      swap1\n      tag_109\n      jump\t// in\n    tag_108:\n      mload(0x40)\n      dup1\n      swap2\n      sub\n      swap1\n      return\n        /* \"@openzeppelin/contracts/token/ERC20/ERC20.sol\":3846:3986  function allowance(address owner, address spender) public view virtual returns (uint256) {... */\n    tag_24:\n      tag_110\n      0x04\n      dup1\n      calldatasize\n      sub\n      dup2\n      add\n      swap1\n      tag_111\n      swap2\n      swap1\n      tag_112\n      jump\t// in\n    tag_111:\n      tag_113\n      jump\t// in\n    tag_110:\n      mload(0x40)\n      tag_114\n      swap2\n      swap1\n      tag_50\n      jump\t// in\n    tag_114:\n      mload(0x40)\n      dup1\n      swap2\n      sub\n      swap1\n      return\n        /* \"contracts/myContract.sol\":2068:2182  function addItemToStore(string memory name, uint256 price) public onlyOwner {... */\n    tag_25:\n      tag_115\n      0x04\n      dup1\n      calldatasize\n      sub\n      dup2\n      add\n      swap1\n      tag_116\n      swap2\n      swap1\n      tag_117\n      jump\t// in\n    tag_116:\n      tag_118\n      jump\t// in\n    tag_115:\n      stop\n        /* \"@openzeppelin/contracts/access/Ownable.sol\":2543:2758  function transferOwnership(address newOwner) public virtual onlyOwner {... */\n    tag_26:\n      tag_119\n      0x04\n      dup1\n      calldatasize\n      sub\n      dup2\n      add\n      swap1\n      tag_120\n      swap2\n      swap1\n      tag_75\n      jump\t// in\n    tag_120:\n      tag_121\n      jump\t// in\n    tag_119:\n      stop\n        /* \"@openzeppelin/contracts/token/ERC20/ERC20.sol\":2074:2163  function name() public view virtual returns (string memory) {... */\n    tag_31:\n        /* \"@openzeppelin/contracts/token/ERC20/ERC20.sol\":2119:2132  string memory */\n      0x60\n        /* \"@openzeppelin/contracts/token/ERC20/ERC20.sol\":2151:2156  _name */\n      0x03\n        /* \"@openzeppelin/contracts/token/ERC20/ERC20.sol\":2144:2156  return _name */\n      dup1\n      sload\n      tag_123\n      swap1\n      tag_124\n      jump\t// in\n    tag_123:\n      dup1\n      0x1f\n      add\n      0x20\n      dup1\n      swap2\n      div\n      mul\n      0x20\n      add\n      mload(0x40)\n      swap1\n      dup2\n      add\n      0x40\n      mstore\n      dup1\n      swap3\n      swap2\n      swap1\n      dup2\n      dup2\n      mstore\n      0x20\n      add\n      dup3\n      dup1\n      sload\n      tag_125\n      swap1\n      tag_124\n      jump\t// in\n    tag_125:\n      dup1\n      iszero\n      tag_126\n      jumpi\n      dup1\n      0x1f\n      lt\n      tag_127\n      jumpi\n      0x0100\n      dup1\n      dup4\n      sload\n      div\n      mul\n      dup4\n      mstore\n      swap2\n      0x20\n      add\n      swap2\n      jump(tag_126)\n    tag_127:\n      dup3\n      add\n      swap2\n      swap1\n      0x00\n      mstore\n      keccak256(0x00, 0x20)\n      swap1\n    tag_128:\n      dup2\n      sload\n      dup2\n      mstore\n      swap1\n      0x01\n      add\n      swap1\n      0x20\n      add\n      dup1\n      dup4\n      gt\n      tag_128\n      jumpi\n      dup3\n      swap1\n      sub\n      0x1f\n      and\n      dup3\n      add\n      swap2\n    tag_126:\n      pop\n      pop\n      pop\n      pop\n      pop\n      swap1\n      pop\n        /* \"@openzeppelin/contracts/token/ERC20/ERC20.sol\":2074:2163  function name() public view virtual returns (string memory) {... */\n      swap1\n      jump\t// out\n        /* \"@openzeppelin/contracts/token/ERC20/ERC20.sol\":4293:4479  function approve(address spender, uint256 value) public virtual returns (bool) {... */\n    tag_37:\n        /* \"@openzeppelin/contracts/token/ERC20/ERC20.sol\":4366:4370  bool */\n      0x00\n        /* \"@openzeppelin/contracts/token/ERC20/ERC20.sol\":4382:4395  address owner */\n      dup1\n        /* \"@openzeppelin/contracts/token/ERC20/ERC20.sol\":4398:4410  _msgSender() */\n      tag_130\n        /* \"@openzeppelin/contracts/token/ERC20/ERC20.sol\":4398:4408  _msgSender */\n      tag_131\n        /* \"@openzeppelin/contracts/token/ERC20/ERC20.sol\":4398:4410  _msgSender() */\n      jump\t// in\n    tag_130:\n        /* \"@openzeppelin/contracts/token/ERC20/ERC20.sol\":4382:4410  address owner = _msgSender() */\n      swap1\n      pop\n        /* \"@openzeppelin/contracts/token/ERC20/ERC20.sol\":4420:4451  _approve(owner, spender, value) */\n      tag_132\n        /* \"@openzeppelin/contracts/token/ERC20/ERC20.sol\":4429:4434  owner */\n      dup2\n        /* \"@openzeppelin/contracts/token/ERC20/ERC20.sol\":4436:4443  spender */\n      dup6\n        /* \"@openzeppelin/contracts/token/ERC20/ERC20.sol\":4445:4450  value */\n      dup6\n        /* \"@openzeppelin/contracts/token/ERC20/ERC20.sol\":4420:4428  _approve */\n      tag_133\n        /* \"@openzeppelin/contracts/token/ERC20/ERC20.sol\":4420:4451  _approve(owner, spender, value) */\n      jump\t// in\n    tag_132:\n        /* \"@openzeppelin/contracts/token/ERC20/ERC20.sol\":4468:4472  true */\n      0x01\n        /* \"@openzeppelin/contracts/token/ERC20/ERC20.sol\":4461:4472  return true */\n      swap2\n      pop\n      pop\n        /* \"@openzeppelin/contracts/token/ERC20/ERC20.sol\":4293:4479  function approve(address spender, uint256 value) public virtual returns (bool) {... */\n      swap3\n      swap2\n      pop\n      pop\n      jump\t// out\n        /* \"contracts/myContract.sol\":2231:2816  function betOnRandomNumber(bool predictLessThanFive, uint256 betAmount) public {... */\n    tag_43:\n        /* \"contracts/myContract.sol\":2353:2362  betAmount */\n      dup1\n        /* \"contracts/myContract.sol\":2328:2349  balanceOf(msg.sender) */\n      tag_135\n        /* \"contracts/myContract.sol\":2338:2348  msg.sender */\n      caller\n        /* \"contracts/myContract.sol\":2328:2337  balanceOf */\n      tag_76\n        /* \"contracts/myContract.sol\":2328:2349  balanceOf(msg.sender) */\n      jump\t// in\n    tag_135:\n        /* \"contracts/myContract.sol\":2328:2362  balanceOf(msg.sender) >= betAmount */\n      lt\n      iszero\n        /* \"contracts/myContract.sol\":2320:2387  require(balanceOf(msg.sender) >= betAmount, \"Insufficient balance\") */\n      tag_136\n      jumpi\n      mload(0x40)\n      0x08c379a000000000000000000000000000000000000000000000000000000000\n      dup2\n      mstore\n      0x04\n      add\n      tag_137\n      swap1\n      tag_138\n      jump\t// in\n    tag_137:\n      mload(0x40)\n      dup1\n      swap2\n      sub\n      swap1\n      revert\n    tag_136:\n        /* \"contracts/myContract.sol\":2406:2426  uint256 randomNumber */\n      0x00\n        /* \"contracts/myContract.sol\":2497:2499  10 */\n      0x0a\n        /* \"contracts/myContract.sol\":2464:2479  block.timestamp */\n      timestamp\n        /* \"contracts/myContract.sol\":2481:2491  msg.sender */\n      caller\n        /* \"contracts/myContract.sol\":2447:2492  abi.encodePacked(block.timestamp, msg.sender) */\n      add(0x20, mload(0x40))\n      tag_139\n      swap3\n      swap2\n      swap1\n      tag_140\n      jump\t// in\n    tag_139:\n      mload(0x40)\n      0x20\n      dup2\n      dup4\n      sub\n      sub\n      dup2\n      mstore\n      swap1\n      0x40\n      mstore\n        /* \"contracts/myContract.sol\":2437:2493  keccak256(abi.encodePacked(block.timestamp, msg.sender)) */\n      dup1\n      mload\n      swap1\n      0x20\n      add\n      keccak256\n        /* \"contracts/myContract.sol\":2429:2494  uint256(keccak256(abi.encodePacked(block.timestamp, msg.sender))) */\n      0x00\n      shr\n        /* \"contracts/myContract.sol\":2429:2499  uint256(keccak256(abi.encodePacked(block.timestamp, msg.sender))) % 10 */\n      tag_141\n      swap2\n      swap1\n      tag_142\n      jump\t// in\n    tag_141:\n        /* \"contracts/myContract.sol\":2406:2499  uint256 randomNumber = uint256(keccak256(abi.encodePacked(block.timestamp, msg.sender))) % 10 */\n      swap1\n      pop\n        /* \"contracts/myContract.sol\":2553:2554  5 */\n      0x05\n        /* \"contracts/myContract.sol\":2538:2550  randomNumber */\n      dup2\n        /* \"contracts/myContract.sol\":2538:2554  randomNumber < 5 */\n      lt\n        /* \"contracts/myContract.sol\":2514:2555  predictLessThanFive == (randomNumber < 5) */\n      iszero\n      iszero\n        /* \"contracts/myContract.sol\":2514:2533  predictLessThanFive */\n      dup4\n        /* \"contracts/myContract.sol\":2514:2555  predictLessThanFive == (randomNumber < 5) */\n      iszero\n      iszero\n      sub\n        /* \"contracts/myContract.sol\":2510:2810  if (predictLessThanFive == (randomNumber < 5)) {... */\n      tag_143\n      jumpi\n        /* \"contracts/myContract.sol\":2571:2603  _mint(msg.sender, betAmount * 2) */\n      tag_144\n        /* \"contracts/myContract.sol\":2577:2587  msg.sender */\n      caller\n        /* \"contracts/myContract.sol\":2601:2602  2 */\n      0x02\n        /* \"contracts/myContract.sol\":2589:2598  betAmount */\n      dup5\n        /* \"contracts/myContract.sol\":2589:2602  betAmount * 2 */\n      tag_145\n      swap2\n      swap1\n      tag_146\n      jump\t// in\n    tag_145:\n        /* \"contracts/myContract.sol\":2571:2576  _mint */\n      tag_147\n        /* \"contracts/myContract.sol\":2571:2603  _mint(msg.sender, betAmount * 2) */\n      jump\t// in\n    tag_144:\n        /* \"contracts/myContract.sol\":2634:2644  msg.sender */\n      caller\n        /* \"contracts/myContract.sol\":2622:2677  GameOutcome(msg.sender, randomNumber, true, \"You won!\") */\n      0xffffffffffffffffffffffffffffffffffffffff\n      and\n      0xd04d9689d8e43bc0bacea67661ef472dcf321f34f08af72f651af30c4c866587\n        /* \"contracts/myContract.sol\":2646:2658  randomNumber */\n      dup3\n        /* \"contracts/myContract.sol\":2660:2664  true */\n      0x01\n        /* \"contracts/myContract.sol\":2622:2677  GameOutcome(msg.sender, randomNumber, true, \"You won!\") */\n      mload(0x40)\n      tag_148\n      swap3\n      swap2\n      swap1\n      tag_149\n      jump\t// in\n    tag_148:\n      mload(0x40)\n      dup1\n      swap2\n      sub\n      swap1\n      log2\n        /* \"contracts/myContract.sol\":2510:2810  if (predictLessThanFive == (randomNumber < 5)) {... */\n      jump(tag_150)\n    tag_143:\n        /* \"contracts/myContract.sol\":2708:2723  burn(betAmount) */\n      tag_151\n        /* \"contracts/myContract.sol\":2713:2722  betAmount */\n      dup3\n        /* \"contracts/myContract.sol\":2708:2712  burn */\n      tag_66\n        /* \"contracts/myContract.sol\":2708:2723  burn(betAmount) */\n      jump\t// in\n    tag_151:\n        /* \"contracts/myContract.sol\":2754:2764  msg.sender */\n      caller\n        /* \"contracts/myContract.sol\":2742:2799  GameOutcome(msg.sender, randomNumber, false, \"You lost!\") */\n      0xffffffffffffffffffffffffffffffffffffffff\n      and\n      0xd04d9689d8e43bc0bacea67661ef472dcf321f34f08af72f651af30c4c866587\n        /* \"contracts/myContract.sol\":2766:2778  randomNumber */\n      dup3\n        /* \"contracts/myContract.sol\":2780:2785  false */\n      0x00\n        /* \"contracts/myContract.sol\":2742:2799  GameOutcome(msg.sender, randomNumber, false, \"You lost!\") */\n      mload(0x40)\n      tag_152\n      swap3\n      swap2\n      swap1\n      tag_153\n      jump\t// in\n    tag_152:\n      mload(0x40)\n      dup1\n      swap2\n      sub\n      swap1\n      log2\n        /* \"contracts/myContract.sol\":2510:2810  if (predictLessThanFive == (randomNumber < 5)) {... */\n    tag_150:\n        /* \"contracts/myContract.sol\":2310:2816  {... */\n      pop\n        /* \"contracts/myContract.sol\":2231:2816  function betOnRandomNumber(bool predictLessThanFive, uint256 betAmount) public {... */\n      pop\n      pop\n      jump\t// out\n        /* \"contracts/myContract.sol\":1607:1805  function transferToken(address recipient, uint256 amount) external {... */\n    tag_46:\n        /* \"contracts/myContract.sol\":1717:1723  amount */\n      dup1\n        /* \"contracts/myContract.sol\":1692:1713  balanceOf(msg.sender) */\n      tag_155\n        /* \"contracts/myContract.sol\":1702:1712  msg.sender */\n      caller\n        /* \"contracts/myContract.sol\":1692:1701  balanceOf */\n      tag_76\n        /* \"contracts/myContract.sol\":1692:1713  balanceOf(msg.sender) */\n      jump\t// in\n    tag_155:\n        /* \"contracts/myContract.sol\":1692:1723  balanceOf(msg.sender) >= amount */\n      lt\n      iszero\n        /* \"contracts/myContract.sol\":1684:1748  require(balanceOf(msg.sender) >= amount, \"Insufficient balance\") */\n      tag_156\n      jumpi\n      mload(0x40)\n      0x08c379a000000000000000000000000000000000000000000000000000000000\n      dup2\n      mstore\n      0x04\n      add\n      tag_157\n      swap1\n      tag_138\n      jump\t// in\n    tag_157:\n      mload(0x40)\n      dup1\n      swap2\n      sub\n      swap1\n      revert\n    tag_156:\n        /* \"contracts/myContract.sol\":1758:1798  _transfer(msg.sender, recipient, amount) */\n      tag_158\n        /* \"contracts/myContract.sol\":1768:1778  msg.sender */\n      caller\n        /* \"contracts/myContract.sol\":1780:1789  recipient */\n      dup4\n        /* \"contracts/myContract.sol\":1791:1797  amount */\n      dup4\n        /* \"contracts/myContract.sol\":1758:1767  _transfer */\n      tag_159\n        /* \"contracts/myContract.sol\":1758:1798  _transfer(msg.sender, recipient, amount) */\n      jump\t// in\n    tag_158:\n        /* \"contracts/myContract.sol\":1607:1805  function transferToken(address recipient, uint256 amount) external {... */\n      pop\n      pop\n      jump\t// out\n        /* \"@openzeppelin/contracts/token/ERC20/ERC20.sol\":3144:3241  function totalSupply() public view virtual returns (uint256) {... */\n    tag_48:\n        /* \"@openzeppelin/contracts/token/ERC20/ERC20.sol\":3196:3203  uint256 */\n      0x00\n        /* \"@openzeppelin/contracts/token/ERC20/ERC20.sol\":3222:3234  _totalSupply */\n      sload(0x02)\n        /* \"@openzeppelin/contracts/token/ERC20/ERC20.sol\":3215:3234  return _totalSupply */\n      swap1\n      pop\n        /* \"@openzeppelin/contracts/token/ERC20/ERC20.sol\":3144:3241  function totalSupply() public view virtual returns (uint256) {... */\n      swap1\n      jump\t// out\n        /* \"@openzeppelin/contracts/token/ERC20/ERC20.sol\":5039:5283  function transferFrom(address from, address to, uint256 value) public virtual returns (bool) {... */\n    tag_54:\n        /* \"@openzeppelin/contracts/token/ERC20/ERC20.sol\":5126:5130  bool */\n      0x00\n        /* \"@openzeppelin/contracts/token/ERC20/ERC20.sol\":5142:5157  address spender */\n      dup1\n        /* \"@openzeppelin/contracts/token/ERC20/ERC20.sol\":5160:5172  _msgSender() */\n      tag_162\n        /* \"@openzeppelin/contracts/token/ERC20/ERC20.sol\":5160:5170  _msgSender */\n      tag_131\n        /* \"@openzeppelin/contracts/token/ERC20/ERC20.sol\":5160:5172  _msgSender() */\n      jump\t// in\n    tag_162:\n        /* \"@openzeppelin/contracts/token/ERC20/ERC20.sol\":5142:5172  address spender = _msgSender() */\n      swap1\n      pop\n        /* \"@openzeppelin/contracts/token/ERC20/ERC20.sol\":5182:5219  _spendAllowance(from, spender, value) */\n      tag_163\n        /* \"@openzeppelin/contracts/token/ERC20/ERC20.sol\":5198:5202  from */\n      dup6\n        /* \"@openzeppelin/contracts/token/ERC20/ERC20.sol\":5204:5211  spender */\n      dup3\n        /* \"@openzeppelin/contracts/token/ERC20/ERC20.sol\":5213:5218  value */\n      dup6\n        /* \"@openzeppelin/contracts/token/ERC20/ERC20.sol\":5182:5197  _spendAllowance */\n      tag_164\n        /* \"@openzeppelin/contracts/token/ERC20/ERC20.sol\":5182:5219  _spendAllowance(from, spender, value) */\n      jump\t// in\n    tag_163:\n        /* \"@openzeppelin/contracts/token/ERC20/ERC20.sol\":5229:5255  _transfer(from, to, value) */\n      tag_165\n        /* \"@openzeppelin/contracts/token/ERC20/ERC20.sol\":5239:5243  from */\n      dup6\n        /* \"@openzeppelin/contracts/token/ERC20/ERC20.sol\":5245:5247  to */\n      dup6\n        /* \"@openzeppelin/contracts/token/ERC20/ERC20.sol\":5249:5254  value */\n      dup6\n        /* \"@openzeppelin/contracts/token/ERC20/ERC20.sol\":5229:5238  _transfer */\n      tag_159\n        /* \"@openzeppelin/contracts/token/ERC20/ERC20.sol\":5229:5255  _transfer(from, to, value) */\n      jump\t// in\n    tag_165:\n        /* \"@openzeppelin/contracts/token/ERC20/ERC20.sol\":5272:5276  true */\n      0x01\n        /* \"@openzeppelin/contracts/token/ERC20/ERC20.sol\":5265:5276  return true */\n      swap2\n      pop\n      pop\n        /* \"@openzeppelin/contracts/token/ERC20/ERC20.sol\":5039:5283  function transferFrom(address from, address to, uint256 value) public virtual returns (bool) {... */\n      swap4\n      swap3\n      pop\n      pop\n      pop\n      jump\t// out\n        /* \"@openzeppelin/contracts/token/ERC20/ERC20.sol\":3002:3084  function decimals() public view virtual returns (uint8) {... */\n    tag_57:\n        /* \"@openzeppelin/contracts/token/ERC20/ERC20.sol\":3051:3056  uint8 */\n      0x00\n        /* \"@openzeppelin/contracts/token/ERC20/ERC20.sol\":3075:3077  18 */\n      0x12\n        /* \"@openzeppelin/contracts/token/ERC20/ERC20.sol\":3068:3077  return 18 */\n      swap1\n      pop\n        /* \"@openzeppelin/contracts/token/ERC20/ERC20.sol\":3002:3084  function decimals() public view virtual returns (uint8) {... */\n      swap1\n      jump\t// out\n        /* \"contracts/myContract.sol\":1457:1550  function mint(address to, uint256 amount) public onlyOwner {... */\n    tag_62:\n        /* \"@openzeppelin/contracts/access/Ownable.sol\":1531:1544  _checkOwner() */\n      tag_168\n        /* \"@openzeppelin/contracts/access/Ownable.sol\":1531:1542  _checkOwner */\n      tag_169\n        /* \"@openzeppelin/contracts/access/Ownable.sol\":1531:1544  _checkOwner() */\n      jump\t// in\n    tag_168:\n        /* \"contracts/myContract.sol\":1526:1543  _mint(to, amount) */\n      tag_171\n        /* \"contracts/myContract.sol\":1532:1534  to */\n      dup3\n        /* \"contracts/myContract.sol\":1536:1542  amount */\n      dup3\n        /* \"contracts/myContract.sol\":1526:1531  _mint */\n      tag_147\n        /* \"contracts/myContract.sol\":1526:1543  _mint(to, amount) */\n      jump\t// in\n    tag_171:\n        /* \"contracts/myContract.sol\":1457:1550  function mint(address to, uint256 amount) public onlyOwner {... */\n      pop\n      pop\n      jump\t// out\n        /* \"@openzeppelin/contracts/token/ERC20/extensions/ERC20Burnable.sol\":618:705  function burn(uint256 value) public virtual {... */\n    tag_66:\n        /* \"@openzeppelin/contracts/token/ERC20/extensions/ERC20Burnable.sol\":672:698  _burn(_msgSender(), value) */\n      tag_173\n        /* \"@openzeppelin/contracts/token/ERC20/extensions/ERC20Burnable.sol\":678:690  _msgSender() */\n      tag_174\n        /* \"@openzeppelin/contracts/token/ERC20/extensions/ERC20Burnable.sol\":678:688  _msgSender */\n      tag_131\n        /* \"@openzeppelin/contracts/token/ERC20/extensions/ERC20Burnable.sol\":678:690  _msgSender() */\n      jump\t// in\n    tag_174:\n        /* \"@openzeppelin/contracts/token/ERC20/extensions/ERC20Burnable.sol\":692:697  value */\n      dup3\n        /* \"@openzeppelin/contracts/token/ERC20/extensions/ERC20Burnable.sol\":672:677  _burn */\n      tag_175\n        /* \"@openzeppelin/contracts/token/ERC20/extensions/ERC20Burnable.sol\":672:698  _burn(_msgSender(), value) */\n      jump\t// in\n    tag_173:\n        /* \"@openzeppelin/contracts/token/ERC20/extensions/ERC20Burnable.sol\":618:705  function burn(uint256 value) public virtual {... */\n      pop\n      jump\t// out\n        /* \"contracts/myContract.sol\":3918:4019  function getMyBalance() external view returns (uint256) {... */\n    tag_68:\n        /* \"contracts/myContract.sol\":3965:3972  uint256 */\n      0x00\n        /* \"contracts/myContract.sol\":3991:4012  balanceOf(msg.sender) */\n      tag_177\n        /* \"contracts/myContract.sol\":4001:4011  msg.sender */\n      caller\n        /* \"contracts/myContract.sol\":3991:4000  balanceOf */\n      tag_76\n        /* \"contracts/myContract.sol\":3991:4012  balanceOf(msg.sender) */\n      jump\t// in\n    tag_177:\n        /* \"contracts/myContract.sol\":3984:4012  return balanceOf(msg.sender) */\n      swap1\n      pop\n        /* \"contracts/myContract.sol\":3918:4019  function getMyBalance() external view returns (uint256) {... */\n      swap1\n      jump\t// out\n        /* \"contracts/myContract.sol\":4065:4213  function burnTokens(uint256 amount) external {... */\n    tag_72:\n        /* \"contracts/myContract.sol\":4153:4159  amount */\n      dup1\n        /* \"contracts/myContract.sol\":4128:4149  balanceOf(msg.sender) */\n      tag_179\n        /* \"contracts/myContract.sol\":4138:4148  msg.sender */\n      caller\n        /* \"contracts/myContract.sol\":4128:4137  balanceOf */\n      tag_76\n        /* \"contracts/myContract.sol\":4128:4149  balanceOf(msg.sender) */\n      jump\t// in\n    tag_179:\n        /* \"contracts/myContract.sol\":4128:4159  balanceOf(msg.sender) >= amount */\n      lt\n      iszero\n        /* \"contracts/myContract.sol\":4120:4184  require(balanceOf(msg.sender) >= amount, \"Insufficient balance\") */\n      tag_180\n      jumpi\n      mload(0x40)\n      0x08c379a000000000000000000000000000000000000000000000000000000000\n      dup2\n      mstore\n      0x04\n      add\n      tag_181\n      swap1\n      tag_138\n      jump\t// in\n    tag_181:\n      mload(0x40)\n      dup1\n      swap2\n      sub\n      swap1\n      revert\n    tag_180:\n        /* \"contracts/myContract.sol\":4194:4206  burn(amount) */\n      tag_182\n        /* \"contracts/myContract.sol\":4199:4205  amount */\n      dup2\n        /* \"contracts/myContract.sol\":4194:4198  burn */\n      tag_66\n        /* \"contracts/myContract.sol\":4194:4206  burn(amount) */\n      jump\t// in\n    tag_182:\n        /* \"contracts/myContract.sol\":4065:4213  function burnTokens(uint256 amount) external {... */\n      pop\n      jump\t// out\n        /* \"@openzeppelin/contracts/token/ERC20/ERC20.sol\":3299:3415  function balanceOf(address account) public view virtual returns (uint256) {... */\n    tag_76:\n        /* \"@openzeppelin/contracts/token/ERC20/ERC20.sol\":3364:3371  uint256 */\n      0x00\n        /* \"@openzeppelin/contracts/token/ERC20/ERC20.sol\":3390:3399  _balances */\n      dup1\n        /* \"@openzeppelin/contracts/token/ERC20/ERC20.sol\":3390:3408  _balances[account] */\n      0x00\n        /* \"@openzeppelin/contracts/token/ERC20/ERC20.sol\":3400:3407  account */\n      dup4\n        /* \"@openzeppelin/contracts/token/ERC20/ERC20.sol\":3390:3408  _balances[account] */\n      0xffffffffffffffffffffffffffffffffffffffff\n      and\n      0xffffffffffffffffffffffffffffffffffffffff\n      and\n      dup2\n      mstore\n      0x20\n      add\n      swap1\n      dup2\n      mstore\n      0x20\n      add\n      0x00\n      keccak256\n      sload\n        /* \"@openzeppelin/contracts/token/ERC20/ERC20.sol\":3383:3408  return _balances[account] */\n      swap1\n      pop\n        /* \"@openzeppelin/contracts/token/ERC20/ERC20.sol\":3299:3415  function balanceOf(address account) public view virtual returns (uint256) {... */\n      swap2\n      swap1\n      pop\n      jump\t// out\n        /* \"@openzeppelin/contracts/access/Ownable.sol\":2293:2394  function renounceOwnership() public virtual onlyOwner {... */\n    tag_79:\n        /* \"@openzeppelin/contracts/access/Ownable.sol\":1531:1544  _checkOwner() */\n      tag_185\n        /* \"@openzeppelin/contracts/access/Ownable.sol\":1531:1542  _checkOwner */\n      tag_169\n        /* \"@openzeppelin/contracts/access/Ownable.sol\":1531:1544  _checkOwner() */\n      jump\t// in\n    tag_185:\n        /* \"@openzeppelin/contracts/access/Ownable.sol\":2357:2387  _transferOwnership(address(0)) */\n      tag_187\n        /* \"@openzeppelin/contracts/access/Ownable.sol\":2384:2385  0 */\n      0x00\n        /* \"@openzeppelin/contracts/access/Ownable.sol\":2357:2375  _transferOwnership */\n      tag_188\n        /* \"@openzeppelin/contracts/access/Ownable.sol\":2357:2387  _transferOwnership(address(0)) */\n      jump\t// in\n    tag_187:\n        /* \"@openzeppelin/contracts/access/Ownable.sol\":2293:2394  function renounceOwnership() public virtual onlyOwner {... */\n      jump\t// out\n        /* \"@openzeppelin/contracts/token/ERC20/extensions/ERC20Burnable.sol\":1021:1179  function burnFrom(address account, uint256 value) public virtual {... */\n    tag_82:\n        /* \"@openzeppelin/contracts/token/ERC20/extensions/ERC20Burnable.sol\":1096:1141  _spendAllowance(account, _msgSender(), value) */\n      tag_190\n        /* \"@openzeppelin/contracts/token/ERC20/extensions/ERC20Burnable.sol\":1112:1119  account */\n      dup3\n        /* \"@openzeppelin/contracts/token/ERC20/extensions/ERC20Burnable.sol\":1121:1133  _msgSender() */\n      tag_191\n        /* \"@openzeppelin/contracts/token/ERC20/extensions/ERC20Burnable.sol\":1121:1131  _msgSender */\n      tag_131\n        /* \"@openzeppelin/contracts/token/ERC20/extensions/ERC20Burnable.sol\":1121:1133  _msgSender() */\n      jump\t// in\n    tag_191:\n        /* \"@openzeppelin/contracts/token/ERC20/extensions/ERC20Burnable.sol\":1135:1140  value */\n      dup4\n        /* \"@openzeppelin/contracts/token/ERC20/extensions/ERC20Burnable.sol\":1096:1111  _spendAllowance */\n      tag_164\n        /* \"@openzeppelin/contracts/token/ERC20/extensions/ERC20Burnable.sol\":1096:1141  _spendAllowance(account, _msgSender(), value) */\n      jump\t// in\n    tag_190:\n        /* \"@openzeppelin/contracts/token/ERC20/extensions/ERC20Burnable.sol\":1151:1172  _burn(account, value) */\n      tag_192\n        /* \"@openzeppelin/contracts/token/ERC20/extensions/ERC20Burnable.sol\":1157:1164  account */\n      dup3\n        /* \"@openzeppelin/contracts/token/ERC20/extensions/ERC20Burnable.sol\":1166:1171  value */\n      dup3\n        /* \"@openzeppelin/contracts/token/ERC20/extensions/ERC20Burnable.sol\":1151:1156  _burn */\n      tag_175\n        /* \"@openzeppelin/contracts/token/ERC20/extensions/ERC20Burnable.sol\":1151:1172  _burn(account, value) */\n      jump\t// in\n    tag_192:\n        /* \"@openzeppelin/contracts/token/ERC20/extensions/ERC20Burnable.sol\":1021:1179  function burnFrom(address account, uint256 value) public virtual {... */\n      pop\n      pop\n      jump\t// out\n        /* \"@openzeppelin/contracts/access/Ownable.sol\":1638:1723  function owner() public view virtual returns (address) {... */\n    tag_84:\n        /* \"@openzeppelin/contracts/access/Ownable.sol\":1684:1691  address */\n      0x00\n        /* \"@openzeppelin/contracts/access/Ownable.sol\":1710:1716  _owner */\n      0x05\n      0x00\n      swap1\n      sload\n      swap1\n      0x0100\n      exp\n      swap1\n      div\n      0xffffffffffffffffffffffffffffffffffffffff\n      and\n        /* \"@openzeppelin/contracts/access/Ownable.sol\":1703:1716  return _owner */\n      swap1\n      pop\n        /* \"@openzeppelin/contracts/access/Ownable.sol\":1638:1723  function owner() public view virtual returns (address) {... */\n      swap1\n      jump\t// out\n        /* \"@openzeppelin/contracts/token/ERC20/ERC20.sol\":2276:2369  function symbol() public view virtual returns (string memory) {... */\n    tag_88:\n        /* \"@openzeppelin/contracts/token/ERC20/ERC20.sol\":2323:2336  string memory */\n      0x60\n        /* \"@openzeppelin/contracts/token/ERC20/ERC20.sol\":2355:2362  _symbol */\n      0x04\n        /* \"@openzeppelin/contracts/token/ERC20/ERC20.sol\":2348:2362  return _symbol */\n      dup1\n      sload\n      tag_195\n      swap1\n      tag_124\n      jump\t// in\n    tag_195:\n      dup1\n      0x1f\n      add\n      0x20\n      dup1\n      swap2\n      div\n      mul\n      0x20\n      add\n      mload(0x40)\n      swap1\n      dup2\n      add\n      0x40\n      mstore\n      dup1\n      swap3\n      swap2\n      swap1\n      dup2\n      dup2\n      mstore\n      0x20\n      add\n      dup3\n      dup1\n      sload\n      tag_196\n      swap1\n      tag_124\n      jump\t// in\n    tag_196:\n      dup1\n      iszero\n      tag_197\n      jumpi\n      dup1\n      0x1f\n      lt\n      tag_198\n      jumpi\n      0x0100\n      dup1\n      dup4\n      sload\n      div\n      mul\n      dup4\n      mstore\n      swap2\n      0x20\n      add\n      swap2\n      jump(tag_197)\n    tag_198:\n      dup3\n      add\n      swap2\n      swap1\n      0x00\n      mstore\n      keccak256(0x00, 0x20)\n      swap1\n    tag_199:\n      dup2\n      sload\n      dup2\n      mstore\n      swap1\n      0x01\n      add\n      swap1\n      0x20\n      add\n      dup1\n      dup4\n      gt\n      tag_199\n      jumpi\n      dup3\n      swap1\n      sub\n      0x1f\n      and\n      dup3\n      add\n      swap2\n    tag_197:\n      pop\n      pop\n      pop\n      pop\n      pop\n      swap1\n      pop\n        /* \"@openzeppelin/contracts/token/ERC20/ERC20.sol\":2276:2369  function symbol() public view virtual returns (string memory) {... */\n      swap1\n      jump\t// out\n        /* \"@openzeppelin/contracts/token/ERC20/ERC20.sol\":3610:3788  function transfer(address to, uint256 value) public virtual returns (bool) {... */\n    tag_92:\n        /* \"@openzeppelin/contracts/token/ERC20/ERC20.sol\":3679:3683  bool */\n      0x00\n        /* \"@openzeppelin/contracts/token/ERC20/ERC20.sol\":3695:3708  address owner */\n      dup1\n        /* \"@openzeppelin/contracts/token/ERC20/ERC20.sol\":3711:3723  _msgSender() */\n      tag_201\n        /* \"@openzeppelin/contracts/token/ERC20/ERC20.sol\":3711:3721  _msgSender */\n      tag_131\n        /* \"@openzeppelin/contracts/token/ERC20/ERC20.sol\":3711:3723  _msgSender() */\n      jump\t// in\n    tag_201:\n        /* \"@openzeppelin/contracts/token/ERC20/ERC20.sol\":3695:3723  address owner = _msgSender() */\n      swap1\n      pop\n        /* \"@openzeppelin/contracts/token/ERC20/ERC20.sol\":3733:3760  _transfer(owner, to, value) */\n      tag_202\n        /* \"@openzeppelin/contracts/token/ERC20/ERC20.sol\":3743:3748  owner */\n      dup2\n        /* \"@openzeppelin/contracts/token/ERC20/ERC20.sol\":3750:3752  to */\n      dup6\n        /* \"@openzeppelin/contracts/token/ERC20/ERC20.sol\":3754:3759  value */\n      dup6\n        /* \"@openzeppelin/contracts/token/ERC20/ERC20.sol\":3733:3742  _transfer */\n      tag_159\n        /* \"@openzeppelin/contracts/token/ERC20/ERC20.sol\":3733:3760  _transfer(owner, to, value) */\n      jump\t// in\n    tag_202:\n        /* \"@openzeppelin/contracts/token/ERC20/ERC20.sol\":3777:3781  true */\n      0x01\n        /* \"@openzeppelin/contracts/token/ERC20/ERC20.sol\":3770:3781  return true */\n      swap2\n      pop\n      pop\n        /* \"@openzeppelin/contracts/token/ERC20/ERC20.sol\":3610:3788  function transfer(address to, uint256 value) public virtual returns (bool) {... */\n      swap3\n      swap2\n      pop\n      pop\n      jump\t// out\n        /* \"contracts/myContract.sol\":2859:3237  function purchaseItem(uint8 itemId) external {... */\n    tag_97:\n        /* \"contracts/myContract.sol\":2944:2945  0 */\n      0x00\n        /* \"contracts/myContract.sol\":2922:2927  items */\n      0x06\n        /* \"contracts/myContract.sol\":2922:2935  items[itemId] */\n      0x00\n        /* \"contracts/myContract.sol\":2928:2934  itemId */\n      dup4\n        /* \"contracts/myContract.sol\":2922:2935  items[itemId] */\n      0xff\n      and\n      0xff\n      and\n      dup2\n      mstore\n      0x20\n      add\n      swap1\n      dup2\n      mstore\n      0x20\n      add\n      0x00\n      keccak256\n        /* \"contracts/myContract.sol\":2922:2941  items[itemId].price */\n      0x02\n      add\n      sload\n        /* \"contracts/myContract.sol\":2922:2945  items[itemId].price > 0 */\n      gt\n        /* \"contracts/myContract.sol\":2914:2964  require(items[itemId].price > 0, \"Item not found\") */\n      tag_204\n      jumpi\n      mload(0x40)\n      0x08c379a000000000000000000000000000000000000000000000000000000000\n      dup2\n      mstore\n      0x04\n      add\n      tag_205\n      swap1\n      tag_206\n      jump\t// in\n    tag_205:\n      mload(0x40)\n      dup1\n      swap2\n      sub\n      swap1\n      revert\n    tag_204:\n        /* \"contracts/myContract.sol\":3007:3012  items */\n      0x06\n        /* \"contracts/myContract.sol\":3007:3020  items[itemId] */\n      0x00\n        /* \"contracts/myContract.sol\":3013:3019  itemId */\n      dup3\n        /* \"contracts/myContract.sol\":3007:3020  items[itemId] */\n      0xff\n      and\n      0xff\n      and\n      dup2\n      mstore\n      0x20\n      add\n      swap1\n      dup2\n      mstore\n      0x20\n      add\n      0x00\n      keccak256\n        /* \"contracts/myContract.sol\":3007:3026  items[itemId].price */\n      0x02\n      add\n      sload\n        /* \"contracts/myContract.sol\":2982:3003  balanceOf(msg.sender) */\n      tag_207\n        /* \"contracts/myContract.sol\":2992:3002  msg.sender */\n      caller\n        /* \"contracts/myContract.sol\":2982:2991  balanceOf */\n      tag_76\n        /* \"contracts/myContract.sol\":2982:3003  balanceOf(msg.sender) */\n      jump\t// in\n    tag_207:\n        /* \"contracts/myContract.sol\":2982:3026  balanceOf(msg.sender) >= items[itemId].price */\n      lt\n      iszero\n        /* \"contracts/myContract.sol\":2974:3051  require(balanceOf(msg.sender) >= items[itemId].price, \"Insufficient balance\") */\n      tag_208\n      jumpi\n      mload(0x40)\n      0x08c379a000000000000000000000000000000000000000000000000000000000\n      dup2\n      mstore\n      0x04\n      add\n      tag_209\n      swap1\n      tag_138\n      jump\t// in\n    tag_209:\n      mload(0x40)\n      dup1\n      swap2\n      sub\n      swap1\n      revert\n    tag_208:\n        /* \"contracts/myContract.sol\":3062:3087  burn(items[itemId].price) */\n      tag_210\n        /* \"contracts/myContract.sol\":3067:3072  items */\n      0x06\n        /* \"contracts/myContract.sol\":3067:3080  items[itemId] */\n      0x00\n        /* \"contracts/myContract.sol\":3073:3079  itemId */\n      dup4\n        /* \"contracts/myContract.sol\":3067:3080  items[itemId] */\n      0xff\n      and\n      0xff\n      and\n      dup2\n      mstore\n      0x20\n      add\n      swap1\n      dup2\n      mstore\n      0x20\n      add\n      0x00\n      keccak256\n        /* \"contracts/myContract.sol\":3067:3086  items[itemId].price */\n      0x02\n      add\n      sload\n        /* \"contracts/myContract.sol\":3062:3066  burn */\n      tag_66\n        /* \"contracts/myContract.sol\":3062:3087  burn(items[itemId].price) */\n      jump\t// in\n    tag_210:\n        /* \"contracts/myContract.sol\":3097:3108  playerItems */\n      0x07\n        /* \"contracts/myContract.sol\":3097:3120  playerItems[msg.sender] */\n      0x00\n        /* \"contracts/myContract.sol\":3109:3119  msg.sender */\n      caller\n        /* \"contracts/myContract.sol\":3097:3120  playerItems[msg.sender] */\n      0xffffffffffffffffffffffffffffffffffffffff\n      and\n      0xffffffffffffffffffffffffffffffffffffffff\n      and\n      dup2\n      mstore\n      0x20\n      add\n      swap1\n      dup2\n      mstore\n      0x20\n      add\n      0x00\n      keccak256\n        /* \"contracts/myContract.sol\":3126:3131  items */\n      0x06\n        /* \"contracts/myContract.sol\":3126:3139  items[itemId] */\n      0x00\n        /* \"contracts/myContract.sol\":3132:3138  itemId */\n      dup4\n        /* \"contracts/myContract.sol\":3126:3139  items[itemId] */\n      0xff\n      and\n      0xff\n      and\n      dup2\n      mstore\n      0x20\n      add\n      swap1\n      dup2\n      mstore\n      0x20\n      add\n      0x00\n      keccak256\n        /* \"contracts/myContract.sol\":3097:3140  playerItems[msg.sender].push(items[itemId]) */\n      swap1\n      dup1\n      0x01\n      dup2\n      sload\n      add\n      dup1\n      dup3\n      sstore\n      dup1\n      swap2\n      pop\n      pop\n      0x01\n      swap1\n      sub\n      swap1\n      0x00\n      mstore\n      keccak256(0x00, 0x20)\n      swap1\n      0x03\n      mul\n      add\n      0x00\n      swap1\n      swap2\n      swap1\n      swap2\n      swap1\n      swap2\n      pop\n      0x00\n      dup3\n      add\n      dup2\n      0x00\n      add\n      swap1\n      dup2\n      tag_212\n      swap2\n      swap1\n      tag_213\n      jump\t// in\n    tag_212:\n      pop\n      0x01\n      dup3\n      add\n      0x00\n      swap1\n      sload\n      swap1\n      0x0100\n      exp\n      swap1\n      div\n      0xff\n      and\n      dup2\n      0x01\n      add\n      exp(0x0100, 0x00)\n      dup2\n      sload\n      dup2\n      0xff\n      mul\n      not\n      and\n      swap1\n      dup4\n      0xff\n      and\n      mul\n      or\n      swap1\n      sstore\n      pop\n      0x02\n      dup3\n      add\n      sload\n      dup2\n      0x02\n      add\n      sstore\n      pop\n      pop\n        /* \"contracts/myContract.sol\":3170:3180  msg.sender */\n      caller\n        /* \"contracts/myContract.sol\":3156:3230  ItemPurchased(msg.sender, itemId, items[itemId].name, items[itemId].price) */\n      0xffffffffffffffffffffffffffffffffffffffff\n      and\n      0x8bedd141782c49139782bd92bd7a760a0bcb544ffecfd2b25f00366fae06598e\n        /* \"contracts/myContract.sol\":3182:3188  itemId */\n      dup3\n        /* \"contracts/myContract.sol\":3190:3195  items */\n      0x06\n        /* \"contracts/myContract.sol\":3190:3203  items[itemId] */\n      0x00\n        /* \"contracts/myContract.sol\":3196:3202  itemId */\n      dup6\n        /* \"contracts/myContract.sol\":3190:3203  items[itemId] */\n      0xff\n      and\n      0xff\n      and\n      dup2\n      mstore\n      0x20\n      add\n      swap1\n      dup2\n      mstore\n      0x20\n      add\n      0x00\n      keccak256\n        /* \"contracts/myContract.sol\":3190:3208  items[itemId].name */\n      0x00\n      add\n        /* \"contracts/myContract.sol\":3210:3215  items */\n      0x06\n        /* \"contracts/myContract.sol\":3210:3223  items[itemId] */\n      0x00\n        /* \"contracts/myContract.sol\":3216:3222  itemId */\n      dup7\n        /* \"contracts/myContract.sol\":3210:3223  items[itemId] */\n      0xff\n      and\n      0xff\n      and\n      dup2\n      mstore\n      0x20\n      add\n      swap1\n      dup2\n      mstore\n      0x20\n      add\n      0x00\n      keccak256\n        /* \"contracts/myContract.sol\":3210:3229  items[itemId].price */\n      0x02\n      add\n      sload\n        /* \"contracts/myContract.sol\":3156:3230  ItemPurchased(msg.sender, itemId, items[itemId].name, items[itemId].price) */\n      mload(0x40)\n      tag_214\n      swap4\n      swap3\n      swap2\n      swap1\n      tag_215\n      jump\t// in\n    tag_214:\n      mload(0x40)\n      dup1\n      swap2\n      sub\n      swap1\n      log2\n        /* \"contracts/myContract.sol\":2859:3237  function purchaseItem(uint8 itemId) external {... */\n      pop\n      jump\t// out\n        /* \"contracts/myContract.sol\":1869:2014  function redeemWelcomeBonus() public {... */\n    tag_99:\n        /* \"contracts/myContract.sol\":1949:1950  0 */\n      0x00\n        /* \"contracts/myContract.sol\":1924:1945  balanceOf(msg.sender) */\n      tag_217\n        /* \"contracts/myContract.sol\":1934:1944  msg.sender */\n      caller\n        /* \"contracts/myContract.sol\":1924:1933  balanceOf */\n      tag_76\n        /* \"contracts/myContract.sol\":1924:1945  balanceOf(msg.sender) */\n      jump\t// in\n    tag_217:\n        /* \"contracts/myContract.sol\":1924:1950  balanceOf(msg.sender) == 0 */\n      eq\n        /* \"contracts/myContract.sol\":1916:1976  require(balanceOf(msg.sender) == 0, \"Bonus already claimed\") */\n      tag_218\n      jumpi\n      mload(0x40)\n      0x08c379a000000000000000000000000000000000000000000000000000000000\n      dup2\n      mstore\n      0x04\n      add\n      tag_219\n      swap1\n      tag_220\n      jump\t// in\n    tag_219:\n      mload(0x40)\n      dup1\n      swap2\n      sub\n      swap1\n      revert\n    tag_218:\n        /* \"contracts/myContract.sol\":1986:2007  _mint(msg.sender, 50) */\n      tag_221\n        /* \"contracts/myContract.sol\":1992:2002  msg.sender */\n      caller\n        /* \"contracts/myContract.sol\":2004:2006  50 */\n      0x32\n        /* \"contracts/myContract.sol\":1986:1991  _mint */\n      tag_147\n        /* \"contracts/myContract.sol\":1986:2007  _mint(msg.sender, 50) */\n      jump\t// in\n    tag_221:\n        /* \"contracts/myContract.sol\":1869:2014  function redeemWelcomeBonus() public {... */\n      jump\t// out\n        /* \"contracts/myContract.sol\":3296:3657  function getUserItems(address user) external view returns (uint8[] memory) {... */\n    tag_102:\n        /* \"contracts/myContract.sol\":3355:3369  uint8[] memory */\n      0x60\n        /* \"contracts/myContract.sol\":3381:3404  Item[] memory itemsList */\n      0x00\n        /* \"contracts/myContract.sol\":3407:3418  playerItems */\n      0x07\n        /* \"contracts/myContract.sol\":3407:3424  playerItems[user] */\n      0x00\n        /* \"contracts/myContract.sol\":3419:3423  user */\n      dup5\n        /* \"contracts/myContract.sol\":3407:3424  playerItems[user] */\n      0xffffffffffffffffffffffffffffffffffffffff\n      and\n      0xffffffffffffffffffffffffffffffffffffffff\n      and\n      dup2\n      mstore\n      0x20\n      add\n      swap1\n      dup2\n      mstore\n      0x20\n      add\n      0x00\n      keccak256\n        /* \"contracts/myContract.sol\":3381:3424  Item[] memory itemsList = playerItems[user] */\n      dup1\n      sload\n      dup1\n      0x20\n      mul\n      0x20\n      add\n      mload(0x40)\n      swap1\n      dup2\n      add\n      0x40\n      mstore\n      dup1\n      swap3\n      swap2\n      swap1\n      dup2\n      dup2\n      mstore\n      0x20\n      add\n      0x00\n      swap1\n    tag_223:\n      dup3\n      dup3\n      lt\n      iszero\n      tag_224\n      jumpi\n      dup4\n      dup3\n      swap1\n      0x00\n      mstore\n      keccak256(0x00, 0x20)\n      swap1\n      0x03\n      mul\n      add\n      mload(0x40)\n      dup1\n      0x60\n      add\n      0x40\n      mstore\n      swap1\n      dup2\n      0x00\n      dup3\n      add\n      dup1\n      sload\n      tag_226\n      swap1\n      tag_124\n      jump\t// in\n    tag_226:\n      dup1\n      0x1f\n      add\n      0x20\n      dup1\n      swap2\n      div\n      mul\n      0x20\n      add\n      mload(0x40)\n      swap1\n      dup2\n      add\n      0x40\n      mstore\n      dup1\n      swap3\n      swap2\n      swap1\n      dup2\n      dup2\n      mstore\n      0x20\n      add\n      dup3\n      dup1\n      sload\n      tag_227\n      swap1\n      tag_124\n      jump\t// in\n    tag_227:\n      dup1\n      iszero\n      tag_228\n      jumpi\n      dup1\n      0x1f\n      lt\n      tag_229\n      jumpi\n      0x0100\n      dup1\n      dup4\n      sload\n      div\n      mul\n      dup4\n      mstore\n      swap2\n      0x20\n      add\n      swap2\n      jump(tag_228)\n    tag_229:\n      dup3\n      add\n      swap2\n      swap1\n      0x00\n      mstore\n      keccak256(0x00, 0x20)\n      swap1\n    tag_230:\n      dup2\n      sload\n      dup2\n      mstore\n      swap1\n      0x01\n      add\n      swap1\n      0x20\n      add\n      dup1\n      dup4\n      gt\n      tag_230\n      jumpi\n      dup3\n      swap1\n      sub\n      0x1f\n      and\n      dup3\n      add\n      swap2\n    tag_228:\n      pop\n      pop\n      pop\n      pop\n      pop\n      dup2\n      mstore\n      0x20\n      add\n      0x01\n      dup3\n      add\n      0x00\n      swap1\n      sload\n      swap1\n      0x0100\n      exp\n      swap1\n      div\n      0xff\n      and\n      0xff\n      and\n      0xff\n      and\n      dup2\n      mstore\n      0x20\n      add\n      0x02\n      dup3\n      add\n      sload\n      dup2\n      mstore\n      pop\n      pop\n      dup2\n      mstore\n      0x20\n      add\n      swap1\n      0x01\n      add\n      swap1\n      jump(tag_223)\n    tag_224:\n      pop\n      pop\n      pop\n      pop\n      swap1\n      pop\n        /* \"contracts/myContract.sol\":3434:3448  uint256 length */\n      0x00\n        /* \"contracts/myContract.sol\":3451:3460  itemsList */\n      dup2\n        /* \"contracts/myContract.sol\":3451:3467  itemsList.length */\n      mload\n        /* \"contracts/myContract.sol\":3434:3467  uint256 length = itemsList.length */\n      swap1\n      pop\n        /* \"contracts/myContract.sol\":3478:3500  uint8[] memory itemIds */\n      0x00\n        /* \"contracts/myContract.sol\":3515:3521  length */\n      dup2\n        /* \"contracts/myContract.sol\":3503:3522  new uint8[](length) */\n      0xffffffffffffffff\n      dup2\n      gt\n      iszero\n      tag_231\n      jumpi\n      tag_232\n      tag_233\n      jump\t// in\n    tag_232:\n    tag_231:\n      mload(0x40)\n      swap1\n      dup1\n      dup3\n      mstore\n      dup1\n      0x20\n      mul\n      0x20\n      add\n      dup3\n      add\n      0x40\n      mstore\n      dup1\n      iszero\n      tag_234\n      jumpi\n      dup2\n      0x20\n      add\n      0x20\n      dup3\n      mul\n      dup1\n      calldatasize\n      dup4\n      calldatacopy\n      dup1\n      dup3\n      add\n      swap2\n      pop\n      pop\n      swap1\n      pop\n    tag_234:\n      pop\n        /* \"contracts/myContract.sol\":3478:3522  uint8[] memory itemIds = new uint8[](length) */\n      swap1\n      pop\n        /* \"contracts/myContract.sol\":3537:3546  uint256 i */\n      0x00\n        /* \"contracts/myContract.sol\":3532:3626  for (uint256 i = 0; i < length; i++) {... */\n    tag_235:\n        /* \"contracts/myContract.sol\":3556:3562  length */\n      dup3\n        /* \"contracts/myContract.sol\":3552:3553  i */\n      dup2\n        /* \"contracts/myContract.sol\":3552:3562  i < length */\n      lt\n        /* \"contracts/myContract.sol\":3532:3626  for (uint256 i = 0; i < length; i++) {... */\n      iszero\n      tag_236\n      jumpi\n        /* \"contracts/myContract.sol\":3596:3605  itemsList */\n      dup4\n        /* \"contracts/myContract.sol\":3606:3607  i */\n      dup2\n        /* \"contracts/myContract.sol\":3596:3608  itemsList[i] */\n      dup2\n      mload\n      dup2\n      lt\n      tag_238\n      jumpi\n      tag_239\n      tag_240\n      jump\t// in\n    tag_239:\n    tag_238:\n      0x20\n      mul\n      0x20\n      add\n      add\n      mload\n        /* \"contracts/myContract.sol\":3596:3615  itemsList[i].itemId */\n      0x20\n      add\n      mload\n        /* \"contracts/myContract.sol\":3583:3590  itemIds */\n      dup3\n        /* \"contracts/myContract.sol\":3591:3592  i */\n      dup3\n        /* \"contracts/myContract.sol\":3583:3593  itemIds[i] */\n      dup2\n      mload\n      dup2\n      lt\n      tag_241\n      jumpi\n      tag_242\n      tag_240\n      jump\t// in\n    tag_242:\n    tag_241:\n      0x20\n      mul\n      0x20\n      add\n      add\n        /* \"contracts/myContract.sol\":3583:3615  itemIds[i] = itemsList[i].itemId */\n      swap1\n      0xff\n      and\n      swap1\n      dup2\n      0xff\n      and\n      dup2\n      mstore\n      pop\n      pop\n        /* \"contracts/myContract.sol\":3564:3567  i++ */\n      dup1\n      dup1\n      0x01\n      add\n      swap2\n      pop\n      pop\n        /* \"contracts/myContract.sol\":3532:3626  for (uint256 i = 0; i < length; i++) {... */\n      jump(tag_235)\n    tag_236:\n      pop\n        /* \"contracts/myContract.sol\":3643:3650  itemIds */\n      dup1\n        /* \"contracts/myContract.sol\":3636:3650  return itemIds */\n      swap4\n      pop\n      pop\n      pop\n      pop\n        /* \"contracts/myContract.sol\":3296:3657  function getUserItems(address user) external view returns (uint8[] memory) {... */\n      swap2\n      swap1\n      pop\n      jump\t// out\n        /* \"contracts/myContract.sol\":3701:3875  function getItemDetails(uint8 itemId) external view returns (string memory, uint256) {... */\n    tag_107:\n        /* \"contracts/myContract.sol\":3762:3775  string memory */\n      0x60\n        /* \"contracts/myContract.sol\":3777:3784  uint256 */\n      0x00\n        /* \"contracts/myContract.sol\":3796:3812  Item memory item */\n      dup1\n        /* \"contracts/myContract.sol\":3815:3820  items */\n      0x06\n        /* \"contracts/myContract.sol\":3815:3828  items[itemId] */\n      0x00\n        /* \"contracts/myContract.sol\":3821:3827  itemId */\n      dup6\n        /* \"contracts/myContract.sol\":3815:3828  items[itemId] */\n      0xff\n      and\n      0xff\n      and\n      dup2\n      mstore\n      0x20\n      add\n      swap1\n      dup2\n      mstore\n      0x20\n      add\n      0x00\n      keccak256\n        /* \"contracts/myContract.sol\":3796:3828  Item memory item = items[itemId] */\n      mload(0x40)\n      dup1\n      0x60\n      add\n      0x40\n      mstore\n      swap1\n      dup2\n      0x00\n      dup3\n      add\n      dup1\n      sload\n      tag_244\n      swap1\n      tag_124\n      jump\t// in\n    tag_244:\n      dup1\n      0x1f\n      add\n      0x20\n      dup1\n      swap2\n      div\n      mul\n      0x20\n      add\n      mload(0x40)\n      swap1\n      dup2\n      add\n      0x40\n      mstore\n      dup1\n      swap3\n      swap2\n      swap1\n      dup2\n      dup2\n      mstore\n      0x20\n      add\n      dup3\n      dup1\n      sload\n      tag_245\n      swap1\n      tag_124\n      jump\t// in\n    tag_245:\n      dup1\n      iszero\n      tag_246\n      jumpi\n      dup1\n      0x1f\n      lt\n      tag_247\n      jumpi\n      0x0100\n      dup1\n      dup4\n      sload\n      div\n      mul\n      dup4\n      mstore\n      swap2\n      0x20\n      add\n      swap2\n      jump(tag_246)\n    tag_247:\n      dup3\n      add\n      swap2\n      swap1\n      0x00\n      mstore\n      keccak256(0x00, 0x20)\n      swap1\n    tag_248:\n      dup2\n      sload\n      dup2\n      mstore\n      swap1\n      0x01\n      add\n      swap1\n      0x20\n      add\n      dup1\n      dup4\n      gt\n      tag_248\n      jumpi\n      dup3\n      swap1\n      sub\n      0x1f\n      and\n      dup3\n      add\n      swap2\n    tag_246:\n      pop\n      pop\n      pop\n      pop\n      pop\n      dup2\n      mstore\n      0x20\n      add\n      0x01\n      dup3\n      add\n      0x00\n      swap1\n      sload\n      swap1\n      0x0100\n      exp\n      swap1\n      div\n      0xff\n      and\n      0xff\n      and\n      0xff\n      and\n      dup2\n      mstore\n      0x20\n      add\n      0x02\n      dup3\n      add\n      sload\n      dup2\n      mstore\n      pop\n      pop\n      swap1\n      pop\n        /* \"contracts/myContract.sol\":3846:3850  item */\n      dup1\n        /* \"contracts/myContract.sol\":3846:3855  item.name */\n      0x00\n      add\n      mload\n        /* \"contracts/myContract.sol\":3857:3861  item */\n      dup2\n        /* \"contracts/myContract.sol\":3857:3867  item.price */\n      0x40\n      add\n      mload\n        /* \"contracts/myContract.sol\":3838:3868  return (item.name, item.price) */\n      swap3\n      pop\n      swap3\n      pop\n      pop\n        /* \"contracts/myContract.sol\":3701:3875  function getItemDetails(uint8 itemId) external view returns (string memory, uint256) {... */\n      swap2\n      pop\n      swap2\n      jump\t// out\n        /* \"@openzeppelin/contracts/token/ERC20/ERC20.sol\":3846:3986  function allowance(address owner, address spender) public view virtual returns (uint256) {... */\n    tag_113:\n        /* \"@openzeppelin/contracts/token/ERC20/ERC20.sol\":3926:3933  uint256 */\n      0x00\n        /* \"@openzeppelin/contracts/token/ERC20/ERC20.sol\":3952:3963  _allowances */\n      0x01\n        /* \"@openzeppelin/contracts/token/ERC20/ERC20.sol\":3952:3970  _allowances[owner] */\n      0x00\n        /* \"@openzeppelin/contracts/token/ERC20/ERC20.sol\":3964:3969  owner */\n      dup5\n        /* \"@openzeppelin/contracts/token/ERC20/ERC20.sol\":3952:3970  _allowances[owner] */\n      0xffffffffffffffffffffffffffffffffffffffff\n      and\n      0xffffffffffffffffffffffffffffffffffffffff\n      and\n      dup2\n      mstore\n      0x20\n      add\n      swap1\n      dup2\n      mstore\n      0x20\n      add\n      0x00\n      keccak256\n        /* \"@openzeppelin/contracts/token/ERC20/ERC20.sol\":3952:3979  _allowances[owner][spender] */\n      0x00\n        /* \"@openzeppelin/contracts/token/ERC20/ERC20.sol\":3971:3978  spender */\n      dup4\n        /* \"@openzeppelin/contracts/token/ERC20/ERC20.sol\":3952:3979  _allowances[owner][spender] */\n      0xffffffffffffffffffffffffffffffffffffffff\n      and\n      0xffffffffffffffffffffffffffffffffffffffff\n      and\n      dup2\n      mstore\n      0x20\n      add\n      swap1\n      dup2\n      mstore\n      0x20\n      add\n      0x00\n      keccak256\n      sload\n        /* \"@openzeppelin/contracts/token/ERC20/ERC20.sol\":3945:3979  return _allowances[owner][spender] */\n      swap1\n      pop\n        /* \"@openzeppelin/contracts/token/ERC20/ERC20.sol\":3846:3986  function allowance(address owner, address spender) public view virtual returns (uint256) {... */\n      swap3\n      swap2\n      pop\n      pop\n      jump\t// out\n        /* \"contracts/myContract.sol\":2068:2182  function addItemToStore(string memory name, uint256 price) public onlyOwner {... */\n    tag_118:\n        /* \"@openzeppelin/contracts/access/Ownable.sol\":1531:1544  _checkOwner() */\n      tag_251\n        /* \"@openzeppelin/contracts/access/Ownable.sol\":1531:1542  _checkOwner */\n      tag_169\n        /* \"@openzeppelin/contracts/access/Ownable.sol\":1531:1544  _checkOwner() */\n      jump\t// in\n    tag_251:\n        /* \"contracts/myContract.sol\":2154:2175  _addItem(name, price) */\n      tag_253\n        /* \"contracts/myContract.sol\":2163:2167  name */\n      dup3\n        /* \"contracts/myContract.sol\":2169:2174  price */\n      dup3\n        /* \"contracts/myContract.sol\":2154:2162  _addItem */\n      tag_254\n        /* \"contracts/myContract.sol\":2154:2175  _addItem(name, price) */\n      jump\t// in\n    tag_253:\n        /* \"contracts/myContract.sol\":2068:2182  function addItemToStore(string memory name, uint256 price) public onlyOwner {... */\n      pop\n      pop\n      jump\t// out\n        /* \"@openzeppelin/contracts/access/Ownable.sol\":2543:2758  function transferOwnership(address newOwner) public virtual onlyOwner {... */\n    tag_121:\n        /* \"@openzeppelin/contracts/access/Ownable.sol\":1531:1544  _checkOwner() */\n      tag_256\n        /* \"@openzeppelin/contracts/access/Ownable.sol\":1531:1542  _checkOwner */\n      tag_169\n        /* \"@openzeppelin/contracts/access/Ownable.sol\":1531:1544  _checkOwner() */\n      jump\t// in\n    tag_256:\n        /* \"@openzeppelin/contracts/access/Ownable.sol\":2647:2648  0 */\n      0x00\n        /* \"@openzeppelin/contracts/access/Ownable.sol\":2627:2649  newOwner == address(0) */\n      0xffffffffffffffffffffffffffffffffffffffff\n      and\n        /* \"@openzeppelin/contracts/access/Ownable.sol\":2627:2635  newOwner */\n      dup2\n        /* \"@openzeppelin/contracts/access/Ownable.sol\":2627:2649  newOwner == address(0) */\n      0xffffffffffffffffffffffffffffffffffffffff\n      and\n      sub\n        /* \"@openzeppelin/contracts/access/Ownable.sol\":2623:2714  if (newOwner == address(0)) {... */\n      tag_258\n      jumpi\n        /* \"@openzeppelin/contracts/access/Ownable.sol\":2700:2701  0 */\n      0x00\n        /* \"@openzeppelin/contracts/access/Ownable.sol\":2672:2703  OwnableInvalidOwner(address(0)) */\n      mload(0x40)\n      0x1e4fbdf700000000000000000000000000000000000000000000000000000000\n      dup2\n      mstore\n      0x04\n      add\n      tag_259\n      swap2\n      swap1\n      tag_86\n      jump\t// in\n    tag_259:\n      mload(0x40)\n      dup1\n      swap2\n      sub\n      swap1\n      revert\n        /* \"@openzeppelin/contracts/access/Ownable.sol\":2623:2714  if (newOwner == address(0)) {... */\n    tag_258:\n        /* \"@openzeppelin/contracts/access/Ownable.sol\":2723:2751  _transferOwnership(newOwner) */\n      tag_260\n        /* \"@openzeppelin/contracts/access/Ownable.sol\":2742:2750  newOwner */\n      dup2\n        /* \"@openzeppelin/contracts/access/Ownable.sol\":2723:2741  _transferOwnership */\n      tag_188\n        /* \"@openzeppelin/contracts/access/Ownable.sol\":2723:2751  _transferOwnership(newOwner) */\n      jump\t// in\n    tag_260:\n        /* \"@openzeppelin/contracts/access/Ownable.sol\":2543:2758  function transferOwnership(address newOwner) public virtual onlyOwner {... */\n      pop\n      jump\t// out\n        /* \"@openzeppelin/contracts/utils/Context.sol\":656:752  function _msgSender() internal view virtual returns (address) {... */\n    tag_131:\n        /* \"@openzeppelin/contracts/utils/Context.sol\":709:716  address */\n      0x00\n        /* \"@openzeppelin/contracts/utils/Context.sol\":735:745  msg.sender */\n      caller\n        /* \"@openzeppelin/contracts/utils/Context.sol\":728:745  return msg.sender */\n      swap1\n      pop\n        /* \"@openzeppelin/contracts/utils/Context.sol\":656:752  function _msgSender() internal view virtual returns (address) {... */\n      swap1\n      jump\t// out\n        /* \"@openzeppelin/contracts/token/ERC20/ERC20.sol\":8989:9117  function _approve(address owner, address spender, uint256 value) internal {... */\n    tag_133:\n        /* \"@openzeppelin/contracts/token/ERC20/ERC20.sol\":9073:9110  _approve(owner, spender, value, true) */\n      tag_263\n        /* \"@openzeppelin/contracts/token/ERC20/ERC20.sol\":9082:9087  owner */\n      dup4\n        /* \"@openzeppelin/contracts/token/ERC20/ERC20.sol\":9089:9096  spender */\n      dup4\n        /* \"@openzeppelin/contracts/token/ERC20/ERC20.sol\":9098:9103  value */\n      dup4\n        /* \"@openzeppelin/contracts/token/ERC20/ERC20.sol\":9105:9109  true */\n      0x01\n        /* \"@openzeppelin/contracts/token/ERC20/ERC20.sol\":9073:9081  _approve */\n      tag_264\n        /* \"@openzeppelin/contracts/token/ERC20/ERC20.sol\":9073:9110  _approve(owner, spender, value, true) */\n      jump\t// in\n    tag_263:\n        /* \"@openzeppelin/contracts/token/ERC20/ERC20.sol\":8989:9117  function _approve(address owner, address spender, uint256 value) internal {... */\n      pop\n      pop\n      pop\n      jump\t// out\n        /* \"@openzeppelin/contracts/token/ERC20/ERC20.sol\":7721:7929  function _mint(address account, uint256 value) internal {... */\n    tag_147:\n        /* \"@openzeppelin/contracts/token/ERC20/ERC20.sol\":7810:7811  0 */\n      0x00\n        /* \"@openzeppelin/contracts/token/ERC20/ERC20.sol\":7791:7812  account == address(0) */\n      0xffffffffffffffffffffffffffffffffffffffff\n      and\n        /* \"@openzeppelin/contracts/token/ERC20/ERC20.sol\":7791:7798  account */\n      dup3\n        /* \"@openzeppelin/contracts/token/ERC20/ERC20.sol\":7791:7812  account == address(0) */\n      0xffffffffffffffffffffffffffffffffffffffff\n      and\n      sub\n        /* \"@openzeppelin/contracts/token/ERC20/ERC20.sol\":7787:7878  if (account == address(0)) {... */\n      tag_266\n      jumpi\n        /* \"@openzeppelin/contracts/token/ERC20/ERC20.sol\":7864:7865  0 */\n      0x00\n        /* \"@openzeppelin/contracts/token/ERC20/ERC20.sol\":7835:7867  ERC20InvalidReceiver(address(0)) */\n      mload(0x40)\n      0xec442f0500000000000000000000000000000000000000000000000000000000\n      dup2\n      mstore\n      0x04\n      add\n      tag_267\n      swap2\n      swap1\n      tag_86\n      jump\t// in\n    tag_267:\n      mload(0x40)\n      dup1\n      swap2\n      sub\n      swap1\n      revert\n        /* \"@openzeppelin/contracts/token/ERC20/ERC20.sol\":7787:7878  if (account == address(0)) {... */\n    tag_266:\n        /* \"@openzeppelin/contracts/token/ERC20/ERC20.sol\":7887:7922  _update(address(0), account, value) */\n      tag_268\n        /* \"@openzeppelin/contracts/token/ERC20/ERC20.sol\":7903:7904  0 */\n      0x00\n        /* \"@openzeppelin/contracts/token/ERC20/ERC20.sol\":7907:7914  account */\n      dup4\n        /* \"@openzeppelin/contracts/token/ERC20/ERC20.sol\":7916:7921  value */\n      dup4\n        /* \"@openzeppelin/contracts/token/ERC20/ERC20.sol\":7887:7894  _update */\n      tag_269\n        /* \"@openzeppelin/contracts/token/ERC20/ERC20.sol\":7887:7922  _update(address(0), account, value) */\n      jump\t// in\n    tag_268:\n        /* \"@openzeppelin/contracts/token/ERC20/ERC20.sol\":7721:7929  function _mint(address account, uint256 value) internal {... */\n      pop\n      pop\n      jump\t// out\n        /* \"@openzeppelin/contracts/token/ERC20/ERC20.sol\":5656:5956  function _transfer(address from, address to, uint256 value) internal {... */\n    tag_159:\n        /* \"@openzeppelin/contracts/token/ERC20/ERC20.sol\":5755:5756  0 */\n      0x00\n        /* \"@openzeppelin/contracts/token/ERC20/ERC20.sol\":5739:5757  from == address(0) */\n      0xffffffffffffffffffffffffffffffffffffffff\n      and\n        /* \"@openzeppelin/contracts/token/ERC20/ERC20.sol\":5739:5743  from */\n      dup4\n        /* \"@openzeppelin/contracts/token/ERC20/ERC20.sol\":5739:5757  from == address(0) */\n      0xffffffffffffffffffffffffffffffffffffffff\n      and\n      sub\n        /* \"@openzeppelin/contracts/token/ERC20/ERC20.sol\":5735:5821  if (from == address(0)) {... */\n      tag_271\n      jumpi\n        /* \"@openzeppelin/contracts/token/ERC20/ERC20.sol\":5807:5808  0 */\n      0x00\n        /* \"@openzeppelin/contracts/token/ERC20/ERC20.sol\":5780:5810  ERC20InvalidSender(address(0)) */\n      mload(0x40)\n      0x96c6fd1e00000000000000000000000000000000000000000000000000000000\n      dup2\n      mstore\n      0x04\n      add\n      tag_272\n      swap2\n      swap1\n      tag_86\n      jump\t// in\n    tag_272:\n      mload(0x40)\n      dup1\n      swap2\n      sub\n      swap1\n      revert\n        /* \"@openzeppelin/contracts/token/ERC20/ERC20.sol\":5735:5821  if (from == address(0)) {... */\n    tag_271:\n        /* \"@openzeppelin/contracts/token/ERC20/ERC20.sol\":5848:5849  0 */\n      0x00\n        /* \"@openzeppelin/contracts/token/ERC20/ERC20.sol\":5834:5850  to == address(0) */\n      0xffffffffffffffffffffffffffffffffffffffff\n      and\n        /* \"@openzeppelin/contracts/token/ERC20/ERC20.sol\":5834:5836  to */\n      dup3\n        /* \"@openzeppelin/contracts/token/ERC20/ERC20.sol\":5834:5850  to == address(0) */\n      0xffffffffffffffffffffffffffffffffffffffff\n      and\n      sub\n        /* \"@openzeppelin/contracts/token/ERC20/ERC20.sol\":5830:5916  if (to == address(0)) {... */\n      tag_273\n      jumpi\n        /* \"@openzeppelin/contracts/token/ERC20/ERC20.sol\":5902:5903  0 */\n      0x00\n        /* \"@openzeppelin/contracts/token/ERC20/ERC20.sol\":5873:5905  ERC20InvalidReceiver(address(0)) */\n      mload(0x40)\n      0xec442f0500000000000000000000000000000000000000000000000000000000\n      dup2\n      mstore\n      0x04\n      add\n      tag_274\n      swap2\n      swap1\n      tag_86\n      jump\t// in\n    tag_274:\n      mload(0x40)\n      dup1\n      swap2\n      sub\n      swap1\n      revert\n        /* \"@openzeppelin/contracts/token/ERC20/ERC20.sol\":5830:5916  if (to == address(0)) {... */\n    tag_273:\n        /* \"@openzeppelin/contracts/token/ERC20/ERC20.sol\":5925:5949  _update(from, to, value) */\n      tag_275\n        /* \"@openzeppelin/contracts/token/ERC20/ERC20.sol\":5933:5937  from */\n      dup4\n        /* \"@openzeppelin/contracts/token/ERC20/ERC20.sol\":5939:5941  to */\n      dup4\n        /* \"@openzeppelin/contracts/token/ERC20/ERC20.sol\":5943:5948  value */\n      dup4\n        /* \"@openzeppelin/contracts/token/ERC20/ERC20.sol\":5925:5932  _update */\n      tag_269\n        /* \"@openzeppelin/contracts/token/ERC20/ERC20.sol\":5925:5949  _update(from, to, value) */\n      jump\t// in\n    tag_275:\n        /* \"@openzeppelin/contracts/token/ERC20/ERC20.sol\":5656:5956  function _transfer(address from, address to, uint256 value) internal {... */\n      pop\n      pop\n      pop\n      jump\t// out\n        /* \"@openzeppelin/contracts/token/ERC20/ERC20.sol\":10663:11140  function _spendAllowance(address owner, address spender, uint256 value) internal virtual {... */\n    tag_164:\n        /* \"@openzeppelin/contracts/token/ERC20/ERC20.sol\":10762:10786  uint256 currentAllowance */\n      0x00\n        /* \"@openzeppelin/contracts/token/ERC20/ERC20.sol\":10789:10814  allowance(owner, spender) */\n      tag_277\n        /* \"@openzeppelin/contracts/token/ERC20/ERC20.sol\":10799:10804  owner */\n      dup5\n        /* \"@openzeppelin/contracts/token/ERC20/ERC20.sol\":10806:10813  spender */\n      dup5\n        /* \"@openzeppelin/contracts/token/ERC20/ERC20.sol\":10789:10798  allowance */\n      tag_113\n        /* \"@openzeppelin/contracts/token/ERC20/ERC20.sol\":10789:10814  allowance(owner, spender) */\n      jump\t// in\n    tag_277:\n        /* \"@openzeppelin/contracts/token/ERC20/ERC20.sol\":10762:10814  uint256 currentAllowance = allowance(owner, spender) */\n      swap1\n      pop\n        /* \"@openzeppelin/contracts/token/ERC20/ERC20.sol\":10848:10865  type(uint256).max */\n      0xffffffffffffffffffffffffffffffffffffffffffffffffffffffffffffffff\n        /* \"@openzeppelin/contracts/token/ERC20/ERC20.sol\":10828:10844  currentAllowance */\n      dup2\n        /* \"@openzeppelin/contracts/token/ERC20/ERC20.sol\":10828:10865  currentAllowance != type(uint256).max */\n      eq\n        /* \"@openzeppelin/contracts/token/ERC20/ERC20.sol\":10824:11134  if (currentAllowance != type(uint256).max) {... */\n      tag_278\n      jumpi\n        /* \"@openzeppelin/contracts/token/ERC20/ERC20.sol\":10904:10909  value */\n      dup2\n        /* \"@openzeppelin/contracts/token/ERC20/ERC20.sol\":10885:10901  currentAllowance */\n      dup2\n        /* \"@openzeppelin/contracts/token/ERC20/ERC20.sol\":10885:10909  currentAllowance < value */\n      lt\n        /* \"@openzeppelin/contracts/token/ERC20/ERC20.sol\":10881:11011  if (currentAllowance < value) {... */\n      iszero\n      tag_279\n      jumpi\n        /* \"@openzeppelin/contracts/token/ERC20/ERC20.sol\":10963:10970  spender */\n      dup3\n        /* \"@openzeppelin/contracts/token/ERC20/ERC20.sol\":10972:10988  currentAllowance */\n      dup2\n        /* \"@openzeppelin/contracts/token/ERC20/ERC20.sol\":10990:10995  value */\n      dup4\n        /* \"@openzeppelin/contracts/token/ERC20/ERC20.sol\":10936:10996  ERC20InsufficientAllowance(spender, currentAllowance, value) */\n      mload(0x40)\n      0xfb8f41b200000000000000000000000000000000000000000000000000000000\n      dup2\n      mstore\n      0x04\n      add\n      tag_280\n      swap4\n      swap3\n      swap2\n      swap1\n      tag_281\n      jump\t// in\n    tag_280:\n      mload(0x40)\n      dup1\n      swap2\n      sub\n      swap1\n      revert\n        /* \"@openzeppelin/contracts/token/ERC20/ERC20.sol\":10881:11011  if (currentAllowance < value) {... */\n    tag_279:\n        /* \"@openzeppelin/contracts/token/ERC20/ERC20.sol\":11052:11109  _approve(owner, spender, currentAllowance - value, false) */\n      tag_282\n        /* \"@openzeppelin/contracts/token/ERC20/ERC20.sol\":11061:11066  owner */\n      dup5\n        /* \"@openzeppelin/contracts/token/ERC20/ERC20.sol\":11068:11075  spender */\n      dup5\n        /* \"@openzeppelin/contracts/token/ERC20/ERC20.sol\":11096:11101  value */\n      dup5\n        /* \"@openzeppelin/contracts/token/ERC20/ERC20.sol\":11077:11093  currentAllowance */\n      dup5\n        /* \"@openzeppelin/contracts/token/ERC20/ERC20.sol\":11077:11101  currentAllowance - value */\n      sub\n        /* \"@openzeppelin/contracts/token/ERC20/ERC20.sol\":11103:11108  false */\n      0x00\n        /* \"@openzeppelin/contracts/token/ERC20/ERC20.sol\":11052:11060  _approve */\n      tag_264\n        /* \"@openzeppelin/contracts/token/ERC20/ERC20.sol\":11052:11109  _approve(owner, spender, currentAllowance - value, false) */\n      jump\t// in\n    tag_282:\n        /* \"@openzeppelin/contracts/token/ERC20/ERC20.sol\":10824:11134  if (currentAllowance != type(uint256).max) {... */\n    tag_278:\n        /* \"@openzeppelin/contracts/token/ERC20/ERC20.sol\":10752:11140  {... */\n      pop\n        /* \"@openzeppelin/contracts/token/ERC20/ERC20.sol\":10663:11140  function _spendAllowance(address owner, address spender, uint256 value) internal virtual {... */\n      pop\n      pop\n      pop\n      jump\t// out\n        /* \"@openzeppelin/contracts/access/Ownable.sol\":1796:1958  function _checkOwner() internal view virtual {... */\n    tag_169:\n        /* \"@openzeppelin/contracts/access/Ownable.sol\":1866:1878  _msgSender() */\n      tag_284\n        /* \"@openzeppelin/contracts/access/Ownable.sol\":1866:1876  _msgSender */\n      tag_131\n        /* \"@openzeppelin/contracts/access/Ownable.sol\":1866:1878  _msgSender() */\n      jump\t// in\n    tag_284:\n        /* \"@openzeppelin/contracts/access/Ownable.sol\":1855:1878  owner() != _msgSender() */\n      0xffffffffffffffffffffffffffffffffffffffff\n      and\n        /* \"@openzeppelin/contracts/access/Ownable.sol\":1855:1862  owner() */\n      tag_285\n        /* \"@openzeppelin/contracts/access/Ownable.sol\":1855:1860  owner */\n      tag_84\n        /* \"@openzeppelin/contracts/access/Ownable.sol\":1855:1862  owner() */\n      jump\t// in\n    tag_285:\n        /* \"@openzeppelin/contracts/access/Ownable.sol\":1855:1878  owner() != _msgSender() */\n      0xffffffffffffffffffffffffffffffffffffffff\n      and\n      eq\n        /* \"@openzeppelin/contracts/access/Ownable.sol\":1851:1952  if (owner() != _msgSender()) {... */\n      tag_286\n      jumpi\n        /* \"@openzeppelin/contracts/access/Ownable.sol\":1928:1940  _msgSender() */\n      tag_287\n        /* \"@openzeppelin/contracts/access/Ownable.sol\":1928:1938  _msgSender */\n      tag_131\n        /* \"@openzeppelin/contracts/access/Ownable.sol\":1928:1940  _msgSender() */\n      jump\t// in\n    tag_287:\n        /* \"@openzeppelin/contracts/access/Ownable.sol\":1901:1941  OwnableUnauthorizedAccount(_msgSender()) */\n      mload(0x40)\n      0x118cdaa700000000000000000000000000000000000000000000000000000000\n      dup2\n      mstore\n      0x04\n      add\n      tag_288\n      swap2\n      swap1\n      tag_86\n      jump\t// in\n    tag_288:\n      mload(0x40)\n      dup1\n      swap2\n      sub\n      swap1\n      revert\n        /* \"@openzeppelin/contracts/access/Ownable.sol\":1851:1952  if (owner() != _msgSender()) {... */\n    tag_286:\n        /* \"@openzeppelin/contracts/access/Ownable.sol\":1796:1958  function _checkOwner() internal view virtual {... */\n      jump\t// out\n        /* \"@openzeppelin/contracts/token/ERC20/ERC20.sol\":8247:8453  function _burn(address account, uint256 value) internal {... */\n    tag_175:\n        /* \"@openzeppelin/contracts/token/ERC20/ERC20.sol\":8336:8337  0 */\n      0x00\n        /* \"@openzeppelin/contracts/token/ERC20/ERC20.sol\":8317:8338  account == address(0) */\n      0xffffffffffffffffffffffffffffffffffffffff\n      and\n        /* \"@openzeppelin/contracts/token/ERC20/ERC20.sol\":8317:8324  account */\n      dup3\n        /* \"@openzeppelin/contracts/token/ERC20/ERC20.sol\":8317:8338  account == address(0) */\n      0xffffffffffffffffffffffffffffffffffffffff\n      and\n      sub\n        /* \"@openzeppelin/contracts/token/ERC20/ERC20.sol\":8313:8402  if (account == address(0)) {... */\n      tag_290\n      jumpi\n        /* \"@openzeppelin/contracts/token/ERC20/ERC20.sol\":8388:8389  0 */\n      0x00\n        /* \"@openzeppelin/contracts/token/ERC20/ERC20.sol\":8361:8391  ERC20InvalidSender(address(0)) */\n      mload(0x40)\n      0x96c6fd1e00000000000000000000000000000000000000000000000000000000\n      dup2\n      mstore\n      0x04\n      add\n      tag_291\n      swap2\n      swap1\n      tag_86\n      jump\t// in\n    tag_291:\n      mload(0x40)\n      dup1\n      swap2\n      sub\n      swap1\n      revert\n        /* \"@openzeppelin/contracts/token/ERC20/ERC20.sol\":8313:8402  if (account == address(0)) {... */\n    tag_290:\n        /* \"@openzeppelin/contracts/token/ERC20/ERC20.sol\":8411:8446  _update(account, address(0), value) */\n      tag_292\n        /* \"@openzeppelin/contracts/token/ERC20/ERC20.sol\":8419:8426  account */\n      dup3\n        /* \"@openzeppelin/contracts/token/ERC20/ERC20.sol\":8436:8437  0 */\n      0x00\n        /* \"@openzeppelin/contracts/token/ERC20/ERC20.sol\":8440:8445  value */\n      dup4\n        /* \"@openzeppelin/contracts/token/ERC20/ERC20.sol\":8411:8418  _update */\n      tag_269\n        /* \"@openzeppelin/contracts/token/ERC20/ERC20.sol\":8411:8446  _update(account, address(0), value) */\n      jump\t// in\n    tag_292:\n        /* \"@openzeppelin/contracts/token/ERC20/ERC20.sol\":8247:8453  function _burn(address account, uint256 value) internal {... */\n      pop\n      pop\n      jump\t// out\n        /* \"@openzeppelin/contracts/access/Ownable.sol\":2912:3099  function _transferOwnership(address newOwner) internal virtual {... */\n    tag_188:\n        /* \"@openzeppelin/contracts/access/Ownable.sol\":2985:3001  address oldOwner */\n      0x00\n        /* \"@openzeppelin/contracts/access/Ownable.sol\":3004:3010  _owner */\n      0x05\n      0x00\n      swap1\n      sload\n      swap1\n      0x0100\n      exp\n      swap1\n      div\n      0xffffffffffffffffffffffffffffffffffffffff\n      and\n        /* \"@openzeppelin/contracts/access/Ownable.sol\":2985:3010  address oldOwner = _owner */\n      swap1\n      pop\n        /* \"@openzeppelin/contracts/access/Ownable.sol\":3029:3037  newOwner */\n      dup2\n        /* \"@openzeppelin/contracts/access/Ownable.sol\":3020:3026  _owner */\n      0x05\n      0x00\n        /* \"@openzeppelin/contracts/access/Ownable.sol\":3020:3037  _owner = newOwner */\n      0x0100\n      exp\n      dup2\n      sload\n      dup2\n      0xffffffffffffffffffffffffffffffffffffffff\n      mul\n      not\n      and\n      swap1\n      dup4\n      0xffffffffffffffffffffffffffffffffffffffff\n      and\n      mul\n      or\n      swap1\n      sstore\n      pop\n        /* \"@openzeppelin/contracts/access/Ownable.sol\":3083:3091  newOwner */\n      dup2\n        /* \"@openzeppelin/contracts/access/Ownable.sol\":3052:3092  OwnershipTransferred(oldOwner, newOwner) */\n      0xffffffffffffffffffffffffffffffffffffffff\n      and\n        /* \"@openzeppelin/contracts/access/Ownable.sol\":3073:3081  oldOwner */\n      dup2\n        /* \"@openzeppelin/contracts/access/Ownable.sol\":3052:3092  OwnershipTransferred(oldOwner, newOwner) */\n      0xffffffffffffffffffffffffffffffffffffffff\n      and\n      0x8be0079c531659141344cd1fd0a4f28419497f9722a3daafe3b4186f6b6457e0\n      mload(0x40)\n      mload(0x40)\n      dup1\n      swap2\n      sub\n      swap1\n      log3\n        /* \"@openzeppelin/contracts/access/Ownable.sol\":2975:3099  {... */\n      pop\n        /* \"@openzeppelin/contracts/access/Ownable.sol\":2912:3099  function _transferOwnership(address newOwner) internal virtual {... */\n      pop\n      jump\t// out\n        /* \"contracts/myContract.sol\":1278:1428  function _addItem(string memory name, uint256 price) internal {... */\n    tag_254:\n        /* \"contracts/myContract.sol\":1370:1399  Item(name, nextItemId, price) */\n      mload(0x40)\n      dup1\n      0x60\n      add\n      0x40\n      mstore\n      dup1\n        /* \"contracts/myContract.sol\":1375:1379  name */\n      dup4\n        /* \"contracts/myContract.sol\":1370:1399  Item(name, nextItemId, price) */\n      dup2\n      mstore\n      0x20\n      add\n        /* \"contracts/myContract.sol\":1381:1391  nextItemId */\n      0x08\n      0x00\n      swap1\n      sload\n      swap1\n      0x0100\n      exp\n      swap1\n      div\n      0xff\n      and\n        /* \"contracts/myContract.sol\":1370:1399  Item(name, nextItemId, price) */\n      0xff\n      and\n      dup2\n      mstore\n      0x20\n      add\n        /* \"contracts/myContract.sol\":1393:1398  price */\n      dup3\n        /* \"contracts/myContract.sol\":1370:1399  Item(name, nextItemId, price) */\n      dup2\n      mstore\n      pop\n        /* \"contracts/myContract.sol\":1350:1355  items */\n      0x06\n        /* \"contracts/myContract.sol\":1350:1367  items[nextItemId] */\n      0x00\n        /* \"contracts/myContract.sol\":1356:1366  nextItemId */\n      0x08\n      0x00\n      swap1\n      sload\n      swap1\n      0x0100\n      exp\n      swap1\n      div\n      0xff\n      and\n        /* \"contracts/myContract.sol\":1350:1367  items[nextItemId] */\n      0xff\n      and\n      0xff\n      and\n      dup2\n      mstore\n      0x20\n      add\n      swap1\n      dup2\n      mstore\n      0x20\n      add\n      0x00\n      keccak256\n        /* \"contracts/myContract.sol\":1350:1399  items[nextItemId] = Item(name, nextItemId, price) */\n      0x00\n      dup3\n      add\n      mload\n      dup2\n      0x00\n      add\n      swap1\n      dup2\n      tag_295\n      swap2\n      swap1\n      tag_296\n      jump\t// in\n    tag_295:\n      pop\n      0x20\n      dup3\n      add\n      mload\n      dup2\n      0x01\n      add\n      exp(0x0100, 0x00)\n      dup2\n      sload\n      dup2\n      0xff\n      mul\n      not\n      and\n      swap1\n      dup4\n      0xff\n      and\n      mul\n      or\n      swap1\n      sstore\n      pop\n      0x40\n      dup3\n      add\n      mload\n      dup2\n      0x02\n      add\n      sstore\n      swap1\n      pop\n      pop\n        /* \"contracts/myContract.sol\":1409:1419  nextItemId */\n      0x08\n      0x00\n        /* \"contracts/myContract.sol\":1409:1421  nextItemId++ */\n      dup2\n      dup2\n      swap1\n      sload\n      swap1\n      0x0100\n      exp\n      swap1\n      div\n      0xff\n      and\n      dup1\n      swap3\n      swap2\n      swap1\n      tag_297\n      swap1\n      tag_298\n      jump\t// in\n    tag_297:\n      swap2\n      swap1\n      0x0100\n      exp\n      dup2\n      sload\n      dup2\n      0xff\n      mul\n      not\n      and\n      swap1\n      dup4\n      0xff\n      and\n      mul\n      or\n      swap1\n      sstore\n      pop\n      pop\n        /* \"contracts/myContract.sol\":1278:1428  function _addItem(string memory name, uint256 price) internal {... */\n      pop\n      pop\n      jump\t// out\n        /* \"@openzeppelin/contracts/token/ERC20/ERC20.sol\":9949:10381  function _approve(address owner, address spender, uint256 value, bool emitEvent) internal virtual {... */\n    tag_264:\n        /* \"@openzeppelin/contracts/token/ERC20/ERC20.sol\":10078:10079  0 */\n      0x00\n        /* \"@openzeppelin/contracts/token/ERC20/ERC20.sol\":10061:10080  owner == address(0) */\n      0xffffffffffffffffffffffffffffffffffffffff\n      and\n        /* \"@openzeppelin/contracts/token/ERC20/ERC20.sol\":10061:10066  owner */\n      dup5\n        /* \"@openzeppelin/contracts/token/ERC20/ERC20.sol\":10061:10080  owner == address(0) */\n      0xffffffffffffffffffffffffffffffffffffffff\n      and\n      sub\n        /* \"@openzeppelin/contracts/token/ERC20/ERC20.sol\":10057:10146  if (owner == address(0)) {... */\n      tag_300\n      jumpi\n        /* \"@openzeppelin/contracts/token/ERC20/ERC20.sol\":10132:10133  0 */\n      0x00\n        /* \"@openzeppelin/contracts/token/ERC20/ERC20.sol\":10103:10135  ERC20InvalidApprover(address(0)) */\n      mload(0x40)\n      0xe602df0500000000000000000000000000000000000000000000000000000000\n      dup2\n      mstore\n      0x04\n      add\n      tag_301\n      swap2\n      swap1\n      tag_86\n      jump\t// in\n    tag_301:\n      mload(0x40)\n      dup1\n      swap2\n      sub\n      swap1\n      revert\n        /* \"@openzeppelin/contracts/token/ERC20/ERC20.sol\":10057:10146  if (owner == address(0)) {... */\n    tag_300:\n        /* \"@openzeppelin/contracts/token/ERC20/ERC20.sol\":10178:10179  0 */\n      0x00\n        /* \"@openzeppelin/contracts/token/ERC20/ERC20.sol\":10159:10180  spender == address(0) */\n      0xffffffffffffffffffffffffffffffffffffffff\n      and\n        /* \"@openzeppelin/contracts/token/ERC20/ERC20.sol\":10159:10166  spender */\n      dup4\n        /* \"@openzeppelin/contracts/token/ERC20/ERC20.sol\":10159:10180  spender == address(0) */\n      0xffffffffffffffffffffffffffffffffffffffff\n      and\n      sub\n        /* \"@openzeppelin/contracts/token/ERC20/ERC20.sol\":10155:10245  if (spender == address(0)) {... */\n      tag_302\n      jumpi\n        /* \"@openzeppelin/contracts/token/ERC20/ERC20.sol\":10231:10232  0 */\n      0x00\n        /* \"@openzeppelin/contracts/token/ERC20/ERC20.sol\":10203:10234  ERC20InvalidSpender(address(0)) */\n      mload(0x40)\n      0x94280d6200000000000000000000000000000000000000000000000000000000\n      dup2\n      mstore\n      0x04\n      add\n      tag_303\n      swap2\n      swap1\n      tag_86\n      jump\t// in\n    tag_303:\n      mload(0x40)\n      dup1\n      swap2\n      sub\n      swap1\n      revert\n        /* \"@openzeppelin/contracts/token/ERC20/ERC20.sol\":10155:10245  if (spender == address(0)) {... */\n    tag_302:\n        /* \"@openzeppelin/contracts/token/ERC20/ERC20.sol\":10284:10289  value */\n      dup2\n        /* \"@openzeppelin/contracts/token/ERC20/ERC20.sol\":10254:10265  _allowances */\n      0x01\n        /* \"@openzeppelin/contracts/token/ERC20/ERC20.sol\":10254:10272  _allowances[owner] */\n      0x00\n        /* \"@openzeppelin/contracts/token/ERC20/ERC20.sol\":10266:10271  owner */\n      dup7\n        /* \"@openzeppelin/contracts/token/ERC20/ERC20.sol\":10254:10272  _allowances[owner] */\n      0xffffffffffffffffffffffffffffffffffffffff\n      and\n      0xffffffffffffffffffffffffffffffffffffffff\n      and\n      dup2\n      mstore\n      0x20\n      add\n      swap1\n      dup2\n      mstore\n      0x20\n      add\n      0x00\n      keccak256\n        /* \"@openzeppelin/contracts/token/ERC20/ERC20.sol\":10254:10281  _allowances[owner][spender] */\n      0x00\n        /* \"@openzeppelin/contracts/token/ERC20/ERC20.sol\":10273:10280  spender */\n      dup6\n        /* \"@openzeppelin/contracts/token/ERC20/ERC20.sol\":10254:10281  _allowances[owner][spender] */\n      0xffffffffffffffffffffffffffffffffffffffff\n      and\n      0xffffffffffffffffffffffffffffffffffffffff\n      and\n      dup2\n      mstore\n      0x20\n      add\n      swap1\n      dup2\n      mstore\n      0x20\n      add\n      0x00\n      keccak256\n        /* \"@openzeppelin/contracts/token/ERC20/ERC20.sol\":10254:10289  _allowances[owner][spender] = value */\n      dup2\n      swap1\n      sstore\n      pop\n        /* \"@openzeppelin/contracts/token/ERC20/ERC20.sol\":10303:10312  emitEvent */\n      dup1\n        /* \"@openzeppelin/contracts/token/ERC20/ERC20.sol\":10299:10375  if (emitEvent) {... */\n      iszero\n      tag_304\n      jumpi\n        /* \"@openzeppelin/contracts/token/ERC20/ERC20.sol\":10349:10356  spender */\n      dup3\n        /* \"@openzeppelin/contracts/token/ERC20/ERC20.sol\":10333:10364  Approval(owner, spender, value) */\n      0xffffffffffffffffffffffffffffffffffffffff\n      and\n        /* \"@openzeppelin/contracts/token/ERC20/ERC20.sol\":10342:10347  owner */\n      dup5\n        /* \"@openzeppelin/contracts/token/ERC20/ERC20.sol\":10333:10364  Approval(owner, spender, value) */\n      0xffffffffffffffffffffffffffffffffffffffff\n      and\n      0x8c5be1e5ebec7d5bd14f71427d1e84f3dd0314c0f7b2291e5b200ac8c7c3b925\n        /* \"@openzeppelin/contracts/token/ERC20/ERC20.sol\":10358:10363  value */\n      dup5\n        /* \"@openzeppelin/contracts/token/ERC20/ERC20.sol\":10333:10364  Approval(owner, spender, value) */\n      mload(0x40)\n      tag_305\n      swap2\n      swap1\n      tag_50\n      jump\t// in\n    tag_305:\n      mload(0x40)\n      dup1\n      swap2\n      sub\n      swap1\n      log3\n        /* \"@openzeppelin/contracts/token/ERC20/ERC20.sol\":10299:10375  if (emitEvent) {... */\n    tag_304:\n        /* \"@openzeppelin/contracts/token/ERC20/ERC20.sol\":9949:10381  function _approve(address owner, address spender, uint256 value, bool emitEvent) internal virtual {... */\n      pop\n      pop\n      pop\n      pop\n      jump\t// out\n        /* \"@openzeppelin/contracts/token/ERC20/ERC20.sol\":6271:7378  function _update(address from, address to, uint256 value) internal virtual {... */\n    tag_269:\n        /* \"@openzeppelin/contracts/token/ERC20/ERC20.sol\":6376:6377  0 */\n      0x00\n        /* \"@openzeppelin/contracts/token/ERC20/ERC20.sol\":6360:6378  from == address(0) */\n      0xffffffffffffffffffffffffffffffffffffffff\n      and\n        /* \"@openzeppelin/contracts/token/ERC20/ERC20.sol\":6360:6364  from */\n      dup4\n        /* \"@openzeppelin/contracts/token/ERC20/ERC20.sol\":6360:6378  from == address(0) */\n      0xffffffffffffffffffffffffffffffffffffffff\n      and\n      sub\n        /* \"@openzeppelin/contracts/token/ERC20/ERC20.sol\":6356:6896  if (from == address(0)) {... */\n      tag_307\n      jumpi\n        /* \"@openzeppelin/contracts/token/ERC20/ERC20.sol\":6512:6517  value */\n      dup1\n        /* \"@openzeppelin/contracts/token/ERC20/ERC20.sol\":6496:6508  _totalSupply */\n      0x02\n      0x00\n        /* \"@openzeppelin/contracts/token/ERC20/ERC20.sol\":6496:6517  _totalSupply += value */\n      dup3\n      dup3\n      sload\n      tag_308\n      swap2\n      swap1\n      tag_309\n      jump\t// in\n    tag_308:\n      swap3\n      pop\n      pop\n      dup2\n      swap1\n      sstore\n      pop\n        /* \"@openzeppelin/contracts/token/ERC20/ERC20.sol\":6356:6896  if (from == address(0)) {... */\n      jump(tag_310)\n    tag_307:\n        /* \"@openzeppelin/contracts/token/ERC20/ERC20.sol\":6548:6567  uint256 fromBalance */\n      0x00\n        /* \"@openzeppelin/contracts/token/ERC20/ERC20.sol\":6570:6579  _balances */\n      dup1\n        /* \"@openzeppelin/contracts/token/ERC20/ERC20.sol\":6570:6585  _balances[from] */\n      0x00\n        /* \"@openzeppelin/contracts/token/ERC20/ERC20.sol\":6580:6584  from */\n      dup6\n        /* \"@openzeppelin/contracts/token/ERC20/ERC20.sol\":6570:6585  _balances[from] */\n      0xffffffffffffffffffffffffffffffffffffffff\n      and\n      0xffffffffffffffffffffffffffffffffffffffff\n      and\n      dup2\n      mstore\n      0x20\n      add\n      swap1\n      dup2\n      mstore\n      0x20\n      add\n      0x00\n      keccak256\n      sload\n        /* \"@openzeppelin/contracts/token/ERC20/ERC20.sol\":6548:6585  uint256 fromBalance = _balances[from] */\n      swap1\n      pop\n        /* \"@openzeppelin/contracts/token/ERC20/ERC20.sol\":6617:6622  value */\n      dup2\n        /* \"@openzeppelin/contracts/token/ERC20/ERC20.sol\":6603:6614  fromBalance */\n      dup2\n        /* \"@openzeppelin/contracts/token/ERC20/ERC20.sol\":6603:6622  fromBalance < value */\n      lt\n        /* \"@openzeppelin/contracts/token/ERC20/ERC20.sol\":6599:6714  if (fromBalance < value) {... */\n      iszero\n      tag_311\n      jumpi\n        /* \"@openzeppelin/contracts/token/ERC20/ERC20.sol\":6674:6678  from */\n      dup4\n        /* \"@openzeppelin/contracts/token/ERC20/ERC20.sol\":6680:6691  fromBalance */\n      dup2\n        /* \"@openzeppelin/contracts/token/ERC20/ERC20.sol\":6693:6698  value */\n      dup4\n        /* \"@openzeppelin/contracts/token/ERC20/ERC20.sol\":6649:6699  ERC20InsufficientBalance(from, fromBalance, value) */\n      mload(0x40)\n      0xe450d38c00000000000000000000000000000000000000000000000000000000\n      dup2\n      mstore\n      0x04\n      add\n      tag_312\n      swap4\n      swap3\n      swap2\n      swap1\n      tag_281\n      jump\t// in\n    tag_312:\n      mload(0x40)\n      dup1\n      swap2\n      sub\n      swap1\n      revert\n        /* \"@openzeppelin/contracts/token/ERC20/ERC20.sol\":6599:6714  if (fromBalance < value) {... */\n    tag_311:\n        /* \"@openzeppelin/contracts/token/ERC20/ERC20.sol\":6866:6871  value */\n      dup2\n        /* \"@openzeppelin/contracts/token/ERC20/ERC20.sol\":6852:6863  fromBalance */\n      dup2\n        /* \"@openzeppelin/contracts/token/ERC20/ERC20.sol\":6852:6871  fromBalance - value */\n      sub\n        /* \"@openzeppelin/contracts/token/ERC20/ERC20.sol\":6834:6843  _balances */\n      0x00\n        /* \"@openzeppelin/contracts/token/ERC20/ERC20.sol\":6834:6849  _balances[from] */\n      dup1\n        /* \"@openzeppelin/contracts/token/ERC20/ERC20.sol\":6844:6848  from */\n      dup7\n        /* \"@openzeppelin/contracts/token/ERC20/ERC20.sol\":6834:6849  _balances[from] */\n      0xffffffffffffffffffffffffffffffffffffffff\n      and\n      0xffffffffffffffffffffffffffffffffffffffff\n      and\n      dup2\n      mstore\n      0x20\n      add\n      swap1\n      dup2\n      mstore\n      0x20\n      add\n      0x00\n      keccak256\n        /* \"@openzeppelin/contracts/token/ERC20/ERC20.sol\":6834:6871  _balances[from] = fromBalance - value */\n      dup2\n      swap1\n      sstore\n      pop\n        /* \"@openzeppelin/contracts/token/ERC20/ERC20.sol\":6534:6896  {... */\n      pop\n        /* \"@openzeppelin/contracts/token/ERC20/ERC20.sol\":6356:6896  if (from == address(0)) {... */\n    tag_310:\n        /* \"@openzeppelin/contracts/token/ERC20/ERC20.sol\":6924:6925  0 */\n      0x00\n        /* \"@openzeppelin/contracts/token/ERC20/ERC20.sol\":6910:6926  to == address(0) */\n      0xffffffffffffffffffffffffffffffffffffffff\n      and\n        /* \"@openzeppelin/contracts/token/ERC20/ERC20.sol\":6910:6912  to */\n      dup3\n        /* \"@openzeppelin/contracts/token/ERC20/ERC20.sol\":6910:6926  to == address(0) */\n      0xffffffffffffffffffffffffffffffffffffffff\n      and\n      sub\n        /* \"@openzeppelin/contracts/token/ERC20/ERC20.sol\":6906:7331  if (to == address(0)) {... */\n      tag_313\n      jumpi\n        /* \"@openzeppelin/contracts/token/ERC20/ERC20.sol\":7089:7094  value */\n      dup1\n        /* \"@openzeppelin/contracts/token/ERC20/ERC20.sol\":7073:7085  _totalSupply */\n      0x02\n      0x00\n        /* \"@openzeppelin/contracts/token/ERC20/ERC20.sol\":7073:7094  _totalSupply -= value */\n      dup3\n      dup3\n      sload\n      sub\n      swap3\n      pop\n      pop\n      dup2\n      swap1\n      sstore\n      pop\n        /* \"@openzeppelin/contracts/token/ERC20/ERC20.sol\":6906:7331  if (to == address(0)) {... */\n      jump(tag_314)\n    tag_313:\n        /* \"@openzeppelin/contracts/token/ERC20/ERC20.sol\":7301:7306  value */\n      dup1\n        /* \"@openzeppelin/contracts/token/ERC20/ERC20.sol\":7284:7293  _balances */\n      0x00\n        /* \"@openzeppelin/contracts/token/ERC20/ERC20.sol\":7284:7297  _balances[to] */\n      dup1\n        /* \"@openzeppelin/contracts/token/ERC20/ERC20.sol\":7294:7296  to */\n      dup5\n        /* \"@openzeppelin/contracts/token/ERC20/ERC20.sol\":7284:7297  _balances[to] */\n      0xffffffffffffffffffffffffffffffffffffffff\n      and\n      0xffffffffffffffffffffffffffffffffffffffff\n      and\n      dup2\n      mstore\n      0x20\n      add\n      swap1\n      dup2\n      mstore\n      0x20\n      add\n      0x00\n      keccak256\n      0x00\n        /* \"@openzeppelin/contracts/token/ERC20/ERC20.sol\":7284:7306  _balances[to] += value */\n      dup3\n      dup3\n      sload\n      add\n      swap3\n      pop\n      pop\n      dup2\n      swap1\n      sstore\n      pop\n        /* \"@openzeppelin/contracts/token/ERC20/ERC20.sol\":6906:7331  if (to == address(0)) {... */\n    tag_314:\n        /* \"@openzeppelin/contracts/token/ERC20/ERC20.sol\":7361:7363  to */\n      dup2\n        /* \"@openzeppelin/contracts/token/ERC20/ERC20.sol\":7346:7371  Transfer(from, to, value) */\n      0xffffffffffffffffffffffffffffffffffffffff\n      and\n        /* \"@openzeppelin/contracts/token/ERC20/ERC20.sol\":7355:7359  from */\n      dup4\n        /* \"@openzeppelin/contracts/token/ERC20/ERC20.sol\":7346:7371  Transfer(from, to, value) */\n      0xffffffffffffffffffffffffffffffffffffffff\n      and\n      0xddf252ad1be2c89b69c2b068fc378daa952ba7f163c4a11628f55a4df523b3ef\n        /* \"@openzeppelin/contracts/token/ERC20/ERC20.sol\":7365:7370  value */\n      dup4\n        /* \"@openzeppelin/contracts/token/ERC20/ERC20.sol\":7346:7371  Transfer(from, to, value) */\n      mload(0x40)\n      tag_315\n      swap2\n      swap1\n      tag_50\n      jump\t// in\n    tag_315:\n      mload(0x40)\n      dup1\n      swap2\n      sub\n      swap1\n      log3\n        /* \"@openzeppelin/contracts/token/ERC20/ERC20.sol\":6271:7378  function _update(address from, address to, uint256 value) internal virtual {... */\n      pop\n      pop\n      pop\n      jump\t// out\n        /* \"#utility.yul\":7:106   */\n    tag_316:\n        /* \"#utility.yul\":59:65   */\n      0x00\n        /* \"#utility.yul\":93:98   */\n      dup2\n        /* \"#utility.yul\":87:99   */\n      mload\n        /* \"#utility.yul\":77:99   */\n      swap1\n      pop\n        /* \"#utility.yul\":7:106   */\n      swap2\n      swap1\n      pop\n      jump\t// out\n        /* \"#utility.yul\":112:281   */\n    tag_317:\n        /* \"#utility.yul\":196:207   */\n      0x00\n        /* \"#utility.yul\":230:236   */\n      dup3\n        /* \"#utility.yul\":225:228   */\n      dup3\n        /* \"#utility.yul\":218:237   */\n      mstore\n        /* \"#utility.yul\":270:274   */\n      0x20\n        /* \"#utility.yul\":265:268   */\n      dup3\n        /* \"#utility.yul\":261:275   */\n      add\n        /* \"#utility.yul\":246:275   */\n      swap1\n      pop\n        /* \"#utility.yul\":112:281   */\n      swap3\n      swap2\n      pop\n      pop\n      jump\t// out\n        /* \"#utility.yul\":287:426   */\n    tag_318:\n        /* \"#utility.yul\":376:382   */\n      dup3\n        /* \"#utility.yul\":371:374   */\n      dup2\n        /* \"#utility.yul\":366:369   */\n      dup4\n        /* \"#utility.yul\":360:383   */\n      mcopy\n        /* \"#utility.yul\":417:418   */\n      0x00\n        /* \"#utility.yul\":408:414   */\n      dup4\n        /* \"#utility.yul\":403:406   */\n      dup4\n        /* \"#utility.yul\":399:415   */\n      add\n        /* \"#utility.yul\":392:419   */\n      mstore\n        /* \"#utility.yul\":287:426   */\n      pop\n      pop\n      pop\n      jump\t// out\n        /* \"#utility.yul\":432:534   */\n    tag_319:\n        /* \"#utility.yul\":473:479   */\n      0x00\n        /* \"#utility.yul\":524:526   */\n      0x1f\n        /* \"#utility.yul\":520:527   */\n      not\n        /* \"#utility.yul\":515:517   */\n      0x1f\n        /* \"#utility.yul\":508:513   */\n      dup4\n        /* \"#utility.yul\":504:518   */\n      add\n        /* \"#utility.yul\":500:528   */\n      and\n        /* \"#utility.yul\":490:528   */\n      swap1\n      pop\n        /* \"#utility.yul\":432:534   */\n      swap2\n      swap1\n      pop\n      jump\t// out\n        /* \"#utility.yul\":540:917   */\n    tag_320:\n        /* \"#utility.yul\":628:631   */\n      0x00\n        /* \"#utility.yul\":656:695   */\n      tag_398\n        /* \"#utility.yul\":689:694   */\n      dup3\n        /* \"#utility.yul\":656:695   */\n      tag_316\n      jump\t// in\n    tag_398:\n        /* \"#utility.yul\":711:782   */\n      tag_399\n        /* \"#utility.yul\":775:781   */\n      dup2\n        /* \"#utility.yul\":770:773   */\n      dup6\n        /* \"#utility.yul\":711:782   */\n      tag_317\n      jump\t// in\n    tag_399:\n        /* \"#utility.yul\":704:782   */\n      swap4\n      pop\n        /* \"#utility.yul\":791:856   */\n      tag_400\n        /* \"#utility.yul\":849:855   */\n      dup2\n        /* \"#utility.yul\":844:847   */\n      dup6\n        /* \"#utility.yul\":837:841   */\n      0x20\n        /* \"#utility.yul\":830:835   */\n      dup7\n        /* \"#utility.yul\":826:842   */\n      add\n        /* \"#utility.yul\":791:856   */\n      tag_318\n      jump\t// in\n    tag_400:\n        /* \"#utility.yul\":881:910   */\n      tag_401\n        /* \"#utility.yul\":903:909   */\n      dup2\n        /* \"#utility.yul\":881:910   */\n      tag_319\n      jump\t// in\n    tag_401:\n        /* \"#utility.yul\":876:879   */\n      dup5\n        /* \"#utility.yul\":872:911   */\n      add\n        /* \"#utility.yul\":865:911   */\n      swap2\n      pop\n        /* \"#utility.yul\":632:917   */\n      pop\n        /* \"#utility.yul\":540:917   */\n      swap3\n      swap2\n      pop\n      pop\n      jump\t// out\n        /* \"#utility.yul\":923:1236   */\n    tag_33:\n        /* \"#utility.yul\":1036:1040   */\n      0x00\n        /* \"#utility.yul\":1074:1076   */\n      0x20\n        /* \"#utility.yul\":1063:1072   */\n      dup3\n        /* \"#utility.yul\":1059:1077   */\n      add\n        /* \"#utility.yul\":1051:1077   */\n      swap1\n      pop\n        /* \"#utility.yul\":1123:1132   */\n      dup2\n        /* \"#utility.yul\":1117:1121   */\n      dup2\n        /* \"#utility.yul\":1113:1133   */\n      sub\n        /* \"#utility.yul\":1109:1110   */\n      0x00\n        /* \"#utility.yul\":1098:1107   */\n      dup4\n        /* \"#utility.yul\":1094:1111   */\n      add\n        /* \"#utility.yul\":1087:1134   */\n      mstore\n        /* \"#utility.yul\":1151:1229   */\n      tag_403\n        /* \"#utility.yul\":1224:1228   */\n      dup2\n        /* \"#utility.yul\":1215:1221   */\n      dup5\n        /* \"#utility.yul\":1151:1229   */\n      tag_320\n      jump\t// in\n    tag_403:\n        /* \"#utility.yul\":1143:1229   */\n      swap1\n      pop\n        /* \"#utility.yul\":923:1236   */\n      swap3\n      swap2\n      pop\n      pop\n      jump\t// out\n        /* \"#utility.yul\":1242:1317   */\n    tag_321:\n        /* \"#utility.yul\":1275:1281   */\n      0x00\n        /* \"#utility.yul\":1308:1310   */\n      0x40\n        /* \"#utility.yul\":1302:1311   */\n      mload\n        /* \"#utility.yul\":1292:1311   */\n      swap1\n      pop\n        /* \"#utility.yul\":1242:1317   */\n      swap1\n      jump\t// out\n        /* \"#utility.yul\":1323:1440   */\n    tag_322:\n        /* \"#utility.yul\":1432:1433   */\n      0x00\n        /* \"#utility.yul\":1429:1430   */\n      dup1\n        /* \"#utility.yul\":1422:1434   */\n      revert\n        /* \"#utility.yul\":1446:1563   */\n    tag_323:\n        /* \"#utility.yul\":1555:1556   */\n      0x00\n        /* \"#utility.yul\":1552:1553   */\n      dup1\n        /* \"#utility.yul\":1545:1557   */\n      revert\n        /* \"#utility.yul\":1569:1695   */\n    tag_324:\n        /* \"#utility.yul\":1606:1613   */\n      0x00\n        /* \"#utility.yul\":1646:1688   */\n      0xffffffffffffffffffffffffffffffffffffffff\n        /* \"#utility.yul\":1639:1644   */\n      dup3\n        /* \"#utility.yul\":1635:1689   */\n      and\n        /* \"#utility.yul\":1624:1689   */\n      swap1\n      pop\n        /* \"#utility.yul\":1569:1695   */\n      swap2\n      swap1\n      pop\n      jump\t// out\n        /* \"#utility.yul\":1701:1797   */\n    tag_325:\n        /* \"#utility.yul\":1738:1745   */\n      0x00\n        /* \"#utility.yul\":1767:1791   */\n      tag_409\n        /* \"#utility.yul\":1785:1790   */\n      dup3\n        /* \"#utility.yul\":1767:1791   */\n      tag_324\n      jump\t// in\n    tag_409:\n        /* \"#utility.yul\":1756:1791   */\n      swap1\n      pop\n        /* \"#utility.yul\":1701:1797   */\n      swap2\n      swap1\n      pop\n      jump\t// out\n        /* \"#utility.yul\":1803:1925   */\n    tag_326:\n        /* \"#utility.yul\":1876:1900   */\n      tag_411\n        /* \"#utility.yul\":1894:1899   */\n      dup2\n        /* \"#utility.yul\":1876:1900   */\n      tag_325\n      jump\t// in\n    tag_411:\n        /* \"#utility.yul\":1869:1874   */\n      dup2\n        /* \"#utility.yul\":1866:1901   */\n      eq\n        /* \"#utility.yul\":1856:1919   */\n      tag_412\n      jumpi\n        /* \"#utility.yul\":1915:1916   */\n      0x00\n        /* \"#utility.yul\":1912:1913   */\n      dup1\n        /* \"#utility.yul\":1905:1917   */\n      revert\n        /* \"#utility.yul\":1856:1919   */\n    tag_412:\n        /* \"#utility.yul\":1803:1925   */\n      pop\n      jump\t// out\n        /* \"#utility.yul\":1931:2070   */\n    tag_327:\n        /* \"#utility.yul\":1977:1982   */\n      0x00\n        /* \"#utility.yul\":2015:2021   */\n      dup2\n        /* \"#utility.yul\":2002:2022   */\n      calldataload\n        /* \"#utility.yul\":1993:2022   */\n      swap1\n      pop\n        /* \"#utility.yul\":2031:2064   */\n      tag_414\n        /* \"#utility.yul\":2058:2063   */\n      dup2\n        /* \"#utility.yul\":2031:2064   */\n      tag_326\n      jump\t// in\n    tag_414:\n        /* \"#utility.yul\":1931:2070   */\n      swap3\n      swap2\n      pop\n      pop\n      jump\t// out\n        /* \"#utility.yul\":2076:2153   */\n    tag_328:\n        /* \"#utility.yul\":2113:2120   */\n      0x00\n        /* \"#utility.yul\":2142:2147   */\n      dup2\n        /* \"#utility.yul\":2131:2147   */\n      swap1\n      pop\n        /* \"#utility.yul\":2076:2153   */\n      swap2\n      swap1\n      pop\n      jump\t// out\n        /* \"#utility.yul\":2159:2281   */\n    tag_329:\n        /* \"#utility.yul\":2232:2256   */\n      tag_417\n        /* \"#utility.yul\":2250:2255   */\n      dup2\n        /* \"#utility.yul\":2232:2256   */\n      tag_328\n      jump\t// in\n    tag_417:\n        /* \"#utility.yul\":2225:2230   */\n      dup2\n        /* \"#utility.yul\":2222:2257   */\n      eq\n        /* \"#utility.yul\":2212:2275   */\n      tag_418\n      jumpi\n        /* \"#utility.yul\":2271:2272   */\n      0x00\n        /* \"#utility.yul\":2268:2269   */\n      dup1\n        /* \"#utility.yul\":2261:2273   */\n      revert\n        /* \"#utility.yul\":2212:2275   */\n    tag_418:\n        /* \"#utility.yul\":2159:2281   */\n      pop\n      jump\t// out\n        /* \"#utility.yul\":2287:2426   */\n    tag_330:\n        /* \"#utility.yul\":2333:2338   */\n      0x00\n        /* \"#utility.yul\":2371:2377   */\n      dup2\n        /* \"#utility.yul\":2358:2378   */\n      calldataload\n        /* \"#utility.yul\":2349:2378   */\n      swap1\n      pop\n        /* \"#utility.yul\":2387:2420   */\n      tag_420\n        /* \"#utility.yul\":2414:2419   */\n      dup2\n        /* \"#utility.yul\":2387:2420   */\n      tag_329\n      jump\t// in\n    tag_420:\n        /* \"#utility.yul\":2287:2426   */\n      swap3\n      swap2\n      pop\n      pop\n      jump\t// out\n        /* \"#utility.yul\":2432:2906   */\n    tag_36:\n        /* \"#utility.yul\":2500:2506   */\n      0x00\n        /* \"#utility.yul\":2508:2514   */\n      dup1\n        /* \"#utility.yul\":2557:2559   */\n      0x40\n        /* \"#utility.yul\":2545:2554   */\n      dup4\n        /* \"#utility.yul\":2536:2543   */\n      dup6\n        /* \"#utility.yul\":2532:2555   */\n      sub\n        /* \"#utility.yul\":2528:2560   */\n      slt\n        /* \"#utility.yul\":2525:2644   */\n      iszero\n      tag_422\n      jumpi\n        /* \"#utility.yul\":2563:2642   */\n      tag_423\n      tag_322\n      jump\t// in\n    tag_423:\n        /* \"#utility.yul\":2525:2644   */\n    tag_422:\n        /* \"#utility.yul\":2683:2684   */\n      0x00\n        /* \"#utility.yul\":2708:2761   */\n      tag_424\n        /* \"#utility.yul\":2753:2760   */\n      dup6\n        /* \"#utility.yul\":2744:2750   */\n      dup3\n        /* \"#utility.yul\":2733:2742   */\n      dup7\n        /* \"#utility.yul\":2729:2751   */\n      add\n        /* \"#utility.yul\":2708:2761   */\n      tag_327\n      jump\t// in\n    tag_424:\n        /* \"#utility.yul\":2698:2761   */\n      swap3\n      pop\n        /* \"#utility.yul\":2654:2771   */\n      pop\n        /* \"#utility.yul\":2810:2812   */\n      0x20\n        /* \"#utility.yul\":2836:2889   */\n      tag_425\n        /* \"#utility.yul\":2881:2888   */\n      dup6\n        /* \"#utility.yul\":2872:2878   */\n      dup3\n        /* \"#utility.yul\":2861:2870   */\n      dup7\n        /* \"#utility.yul\":2857:2879   */\n      add\n        /* \"#utility.yul\":2836:2889   */\n      tag_330\n      jump\t// in\n    tag_425:\n        /* \"#utility.yul\":2826:2889   */\n      swap2\n      pop\n        /* \"#utility.yul\":2781:2899   */\n      pop\n        /* \"#utility.yul\":2432:2906   */\n      swap3\n      pop\n      swap3\n      swap1\n      pop\n      jump\t// out\n        /* \"#utility.yul\":2912:3002   */\n    tag_331:\n        /* \"#utility.yul\":2946:2953   */\n      0x00\n        /* \"#utility.yul\":2989:2994   */\n      dup2\n        /* \"#utility.yul\":2982:2995   */\n      iszero\n        /* \"#utility.yul\":2975:2996   */\n      iszero\n        /* \"#utility.yul\":2964:2996   */\n      swap1\n      pop\n        /* \"#utility.yul\":2912:3002   */\n      swap2\n      swap1\n      pop\n      jump\t// out\n        /* \"#utility.yul\":3008:3117   */\n    tag_332:\n        /* \"#utility.yul\":3089:3110   */\n      tag_428\n        /* \"#utility.yul\":3104:3109   */\n      dup2\n        /* \"#utility.yul\":3089:3110   */\n      tag_331\n      jump\t// in\n    tag_428:\n        /* \"#utility.yul\":3084:3087   */\n      dup3\n        /* \"#utility.yul\":3077:3111   */\n      mstore\n        /* \"#utility.yul\":3008:3117   */\n      pop\n      pop\n      jump\t// out\n        /* \"#utility.yul\":3123:3333   */\n    tag_39:\n        /* \"#utility.yul\":3210:3214   */\n      0x00\n        /* \"#utility.yul\":3248:3250   */\n      0x20\n        /* \"#utility.yul\":3237:3246   */\n      dup3\n        /* \"#utility.yul\":3233:3251   */\n      add\n        /* \"#utility.yul\":3225:3251   */\n      swap1\n      pop\n        /* \"#utility.yul\":3261:3326   */\n      tag_430\n        /* \"#utility.yul\":3323:3324   */\n      0x00\n        /* \"#utility.yul\":3312:3321   */\n      dup4\n        /* \"#utility.yul\":3308:3325   */\n      add\n        /* \"#utility.yul\":3299:3305   */\n      dup5\n        /* \"#utility.yul\":3261:3326   */\n      tag_332\n      jump\t// in\n    tag_430:\n        /* \"#utility.yul\":3123:3333   */\n      swap3\n      swap2\n      pop\n      pop\n      jump\t// out\n        /* \"#utility.yul\":3339:3455   */\n    tag_333:\n        /* \"#utility.yul\":3409:3430   */\n      tag_432\n        /* \"#utility.yul\":3424:3429   */\n      dup2\n        /* \"#utility.yul\":3409:3430   */\n      tag_331\n      jump\t// in\n    tag_432:\n        /* \"#utility.yul\":3402:3407   */\n      dup2\n        /* \"#utility.yul\":3399:3431   */\n      eq\n        /* \"#utility.yul\":3389:3449   */\n      tag_433\n      jumpi\n        /* \"#utility.yul\":3445:3446   */\n      0x00\n        /* \"#utility.yul\":3442:3443   */\n      dup1\n        /* \"#utility.yul\":3435:3447   */\n      revert\n        /* \"#utility.yul\":3389:3449   */\n    tag_433:\n        /* \"#utility.yul\":3339:3455   */\n      pop\n      jump\t// out\n        /* \"#utility.yul\":3461:3594   */\n    tag_334:\n        /* \"#utility.yul\":3504:3509   */\n      0x00\n        /* \"#utility.yul\":3542:3548   */\n      dup2\n        /* \"#utility.yul\":3529:3549   */\n      calldataload\n        /* \"#utility.yul\":3520:3549   */\n      swap1\n      pop\n        /* \"#utility.yul\":3558:3588   */\n      tag_435\n        /* \"#utility.yul\":3582:3587   */\n      dup2\n        /* \"#utility.yul\":3558:3588   */\n      tag_333\n      jump\t// in\n    tag_435:\n        /* \"#utility.yul\":3461:3594   */\n      swap3\n      swap2\n      pop\n      pop\n      jump\t// out\n        /* \"#utility.yul\":3600:4068   */\n    tag_42:\n        /* \"#utility.yul\":3665:3671   */\n      0x00\n        /* \"#utility.yul\":3673:3679   */\n      dup1\n        /* \"#utility.yul\":3722:3724   */\n      0x40\n        /* \"#utility.yul\":3710:3719   */\n      dup4\n        /* \"#utility.yul\":3701:3708   */\n      dup6\n        /* \"#utility.yul\":3697:3720   */\n      sub\n        /* \"#utility.yul\":3693:3725   */\n      slt\n        /* \"#utility.yul\":3690:3809   */\n      iszero\n      tag_437\n      jumpi\n        /* \"#utility.yul\":3728:3807   */\n      tag_438\n      tag_322\n      jump\t// in\n    tag_438:\n        /* \"#utility.yul\":3690:3809   */\n    tag_437:\n        /* \"#utility.yul\":3848:3849   */\n      0x00\n        /* \"#utility.yul\":3873:3923   */\n      tag_439\n        /* \"#utility.yul\":3915:3922   */\n      dup6\n        /* \"#utility.yul\":3906:3912   */\n      dup3\n        /* \"#utility.yul\":3895:3904   */\n      dup7\n        /* \"#utility.yul\":3891:3913   */\n      add\n        /* \"#utility.yul\":3873:3923   */\n      tag_334\n      jump\t// in\n    tag_439:\n        /* \"#utility.yul\":3863:3923   */\n      swap3\n      pop\n        /* \"#utility.yul\":3819:3933   */\n      pop\n        /* \"#utility.yul\":3972:3974   */\n      0x20\n        /* \"#utility.yul\":3998:4051   */\n      tag_440\n        /* \"#utility.yul\":4043:4050   */\n      dup6\n        /* \"#utility.yul\":4034:4040   */\n      dup3\n        /* \"#utility.yul\":4023:4032   */\n      dup7\n        /* \"#utility.yul\":4019:4041   */\n      add\n        /* \"#utility.yul\":3998:4051   */\n      tag_330\n      jump\t// in\n    tag_440:\n        /* \"#utility.yul\":3988:4051   */\n      swap2\n      pop\n        /* \"#utility.yul\":3943:4061   */\n      pop\n        /* \"#utility.yul\":3600:4068   */\n      swap3\n      pop\n      swap3\n      swap1\n      pop\n      jump\t// out\n        /* \"#utility.yul\":4074:4192   */\n    tag_335:\n        /* \"#utility.yul\":4161:4185   */\n      tag_442\n        /* \"#utility.yul\":4179:4184   */\n      dup2\n        /* \"#utility.yul\":4161:4185   */\n      tag_328\n      jump\t// in\n    tag_442:\n        /* \"#utility.yul\":4156:4159   */\n      dup3\n        /* \"#utility.yul\":4149:4186   */\n      mstore\n        /* \"#utility.yul\":4074:4192   */\n      pop\n      pop\n      jump\t// out\n        /* \"#utility.yul\":4198:4420   */\n    tag_50:\n        /* \"#utility.yul\":4291:4295   */\n      0x00\n        /* \"#utility.yul\":4329:4331   */\n      0x20\n        /* \"#utility.yul\":4318:4327   */\n      dup3\n        /* \"#utility.yul\":4314:4332   */\n      add\n        /* \"#utility.yul\":4306:4332   */\n      swap1\n      pop\n        /* \"#utility.yul\":4342:4413   */\n      tag_444\n        /* \"#utility.yul\":4410:4411   */\n      0x00\n        /* \"#utility.yul\":4399:4408   */\n      dup4\n        /* \"#utility.yul\":4395:4412   */\n      add\n        /* \"#utility.yul\":4386:4392   */\n      dup5\n        /* \"#utility.yul\":4342:4413   */\n      tag_335\n      jump\t// in\n    tag_444:\n        /* \"#utility.yul\":4198:4420   */\n      swap3\n      swap2\n      pop\n      pop\n      jump\t// out\n        /* \"#utility.yul\":4426:5045   */\n    tag_53:\n        /* \"#utility.yul\":4503:4509   */\n      0x00\n        /* \"#utility.yul\":4511:4517   */\n      dup1\n        /* \"#utility.yul\":4519:4525   */\n      0x00\n        /* \"#utility.yul\":4568:4570   */\n      0x60\n        /* \"#utility.yul\":4556:4565   */\n      dup5\n        /* \"#utility.yul\":4547:4554   */\n      dup7\n        /* \"#utility.yul\":4543:4566   */\n      sub\n        /* \"#utility.yul\":4539:4571   */\n      slt\n        /* \"#utility.yul\":4536:4655   */\n      iszero\n      tag_446\n      jumpi\n        /* \"#utility.yul\":4574:4653   */\n      tag_447\n      tag_322\n      jump\t// in\n    tag_447:\n        /* \"#utility.yul\":4536:4655   */\n    tag_446:\n        /* \"#utility.yul\":4694:4695   */\n      0x00\n        /* \"#utility.yul\":4719:4772   */\n      tag_448\n        /* \"#utility.yul\":4764:4771   */\n      dup7\n        /* \"#utility.yul\":4755:4761   */\n      dup3\n        /* \"#utility.yul\":4744:4753   */\n      dup8\n        /* \"#utility.yul\":4740:4762   */\n      add\n        /* \"#utility.yul\":4719:4772   */\n      tag_327\n      jump\t// in\n    tag_448:\n        /* \"#utility.yul\":4709:4772   */\n      swap4\n      pop\n        /* \"#utility.yul\":4665:4782   */\n      pop\n        /* \"#utility.yul\":4821:4823   */\n      0x20\n        /* \"#utility.yul\":4847:4900   */\n      tag_449\n        /* \"#utility.yul\":4892:4899   */\n      dup7\n        /* \"#utility.yul\":4883:4889   */\n      dup3\n        /* \"#utility.yul\":4872:4881   */\n      dup8\n        /* \"#utility.yul\":4868:4890   */\n      add\n        /* \"#utility.yul\":4847:4900   */\n      tag_327\n      jump\t// in\n    tag_449:\n        /* \"#utility.yul\":4837:4900   */\n      swap3\n      pop\n        /* \"#utility.yul\":4792:4910   */\n      pop\n        /* \"#utility.yul\":4949:4951   */\n      0x40\n        /* \"#utility.yul\":4975:5028   */\n      tag_450\n        /* \"#utility.yul\":5020:5027   */\n      dup7\n        /* \"#utility.yul\":5011:5017   */\n      dup3\n        /* \"#utility.yul\":5000:5009   */\n      dup8\n        /* \"#utility.yul\":4996:5018   */\n      add\n        /* \"#utility.yul\":4975:5028   */\n      tag_330\n      jump\t// in\n    tag_450:\n        /* \"#utility.yul\":4965:5028   */\n      swap2\n      pop\n        /* \"#utility.yul\":4920:5038   */\n      pop\n        /* \"#utility.yul\":4426:5045   */\n      swap3\n      pop\n      swap3\n      pop\n      swap3\n      jump\t// out\n        /* \"#utility.yul\":5051:5137   */\n    tag_336:\n        /* \"#utility.yul\":5086:5093   */\n      0x00\n        /* \"#utility.yul\":5126:5130   */\n      0xff\n        /* \"#utility.yul\":5119:5124   */\n      dup3\n        /* \"#utility.yul\":5115:5131   */\n      and\n        /* \"#utility.yul\":5104:5131   */\n      swap1\n      pop\n        /* \"#utility.yul\":5051:5137   */\n      swap2\n      swap1\n      pop\n      jump\t// out\n        /* \"#utility.yul\":5143:5255   */\n    tag_337:\n        /* \"#utility.yul\":5226:5248   */\n      tag_453\n        /* \"#utility.yul\":5242:5247   */\n      dup2\n        /* \"#utility.yul\":5226:5248   */\n      tag_336\n      jump\t// in\n    tag_453:\n        /* \"#utility.yul\":5221:5224   */\n      dup3\n        /* \"#utility.yul\":5214:5249   */\n      mstore\n        /* \"#utility.yul\":5143:5255   */\n      pop\n      pop\n      jump\t// out\n        /* \"#utility.yul\":5261:5475   */\n    tag_59:\n        /* \"#utility.yul\":5350:5354   */\n      0x00\n        /* \"#utility.yul\":5388:5390   */\n      0x20\n        /* \"#utility.yul\":5377:5386   */\n      dup3\n        /* \"#utility.yul\":5373:5391   */\n      add\n        /* \"#utility.yul\":5365:5391   */\n      swap1\n      pop\n        /* \"#utility.yul\":5401:5468   */\n      tag_455\n        /* \"#utility.yul\":5465:5466   */\n      0x00\n        /* \"#utility.yul\":5454:5463   */\n      dup4\n        /* \"#utility.yul\":5450:5467   */\n      add\n        /* \"#utility.yul\":5441:5447   */\n      dup5\n        /* \"#utility.yul\":5401:5468   */\n      tag_337\n      jump\t// in\n    tag_455:\n        /* \"#utility.yul\":5261:5475   */\n      swap3\n      swap2\n      pop\n      pop\n      jump\t// out\n        /* \"#utility.yul\":5481:5810   */\n    tag_65:\n        /* \"#utility.yul\":5540:5546   */\n      0x00\n        /* \"#utility.yul\":5589:5591   */\n      0x20\n        /* \"#utility.yul\":5577:5586   */\n      dup3\n        /* \"#utility.yul\":5568:5575   */\n      dup5\n        /* \"#utility.yul\":5564:5587   */\n      sub\n        /* \"#utility.yul\":5560:5592   */\n      slt\n        /* \"#utility.yul\":5557:5676   */\n      iszero\n      tag_457\n      jumpi\n        /* \"#utility.yul\":5595:5674   */\n      tag_458\n      tag_322\n      jump\t// in\n    tag_458:\n        /* \"#utility.yul\":5557:5676   */\n    tag_457:\n        /* \"#utility.yul\":5715:5716   */\n      0x00\n        /* \"#utility.yul\":5740:5793   */\n      tag_459\n        /* \"#utility.yul\":5785:5792   */\n      dup5\n        /* \"#utility.yul\":5776:5782   */\n      dup3\n        /* \"#utility.yul\":5765:5774   */\n      dup6\n        /* \"#utility.yul\":5761:5783   */\n      add\n        /* \"#utility.yul\":5740:5793   */\n      tag_330\n      jump\t// in\n    tag_459:\n        /* \"#utility.yul\":5730:5793   */\n      swap2\n      pop\n        /* \"#utility.yul\":5686:5803   */\n      pop\n        /* \"#utility.yul\":5481:5810   */\n      swap3\n      swap2\n      pop\n      pop\n      jump\t// out\n        /* \"#utility.yul\":5816:6145   */\n    tag_75:\n        /* \"#utility.yul\":5875:5881   */\n      0x00\n        /* \"#utility.yul\":5924:5926   */\n      0x20\n        /* \"#utility.yul\":5912:5921   */\n      dup3\n        /* \"#utility.yul\":5903:5910   */\n      dup5\n        /* \"#utility.yul\":5899:5922   */\n      sub\n        /* \"#utility.yul\":5895:5927   */\n      slt\n        /* \"#utility.yul\":5892:6011   */\n      iszero\n      tag_461\n      jumpi\n        /* \"#utility.yul\":5930:6009   */\n      tag_462\n      tag_322\n      jump\t// in\n    tag_462:\n        /* \"#utility.yul\":5892:6011   */\n    tag_461:\n        /* \"#utility.yul\":6050:6051   */\n      0x00\n        /* \"#utility.yul\":6075:6128   */\n      tag_463\n        /* \"#utility.yul\":6120:6127   */\n      dup5\n        /* \"#utility.yul\":6111:6117   */\n      dup3\n        /* \"#utility.yul\":6100:6109   */\n      dup6\n        /* \"#utility.yul\":6096:6118   */\n      add\n        /* \"#utility.yul\":6075:6128   */\n      tag_327\n      jump\t// in\n    tag_463:\n        /* \"#utility.yul\":6065:6128   */\n      swap2\n      pop\n        /* \"#utility.yul\":6021:6138   */\n      pop\n        /* \"#utility.yul\":5816:6145   */\n      swap3\n      swap2\n      pop\n      pop\n      jump\t// out\n        /* \"#utility.yul\":6151:6269   */\n    tag_338:\n        /* \"#utility.yul\":6238:6262   */\n      tag_465\n        /* \"#utility.yul\":6256:6261   */\n      dup2\n        /* \"#utility.yul\":6238:6262   */\n      tag_325\n      jump\t// in\n    tag_465:\n        /* \"#utility.yul\":6233:6236   */\n      dup3\n        /* \"#utility.yul\":6226:6263   */\n      mstore\n        /* \"#utility.yul\":6151:6269   */\n      pop\n      pop\n      jump\t// out\n        /* \"#utility.yul\":6275:6497   */\n    tag_86:\n        /* \"#utility.yul\":6368:6372   */\n      0x00\n        /* \"#utility.yul\":6406:6408   */\n      0x20\n        /* \"#utility.yul\":6395:6404   */\n      dup3\n        /* \"#utility.yul\":6391:6409   */\n      add\n        /* \"#utility.yul\":6383:6409   */\n      swap1\n      pop\n        /* \"#utility.yul\":6419:6490   */\n      tag_467\n        /* \"#utility.yul\":6487:6488   */\n      0x00\n        /* \"#utility.yul\":6476:6485   */\n      dup4\n        /* \"#utility.yul\":6472:6489   */\n      add\n        /* \"#utility.yul\":6463:6469   */\n      dup5\n        /* \"#utility.yul\":6419:6490   */\n      tag_338\n      jump\t// in\n    tag_467:\n        /* \"#utility.yul\":6275:6497   */\n      swap3\n      swap2\n      pop\n      pop\n      jump\t// out\n        /* \"#utility.yul\":6503:6621   */\n    tag_339:\n        /* \"#utility.yul\":6574:6596   */\n      tag_469\n        /* \"#utility.yul\":6590:6595   */\n      dup2\n        /* \"#utility.yul\":6574:6596   */\n      tag_336\n      jump\t// in\n    tag_469:\n        /* \"#utility.yul\":6567:6572   */\n      dup2\n        /* \"#utility.yul\":6564:6597   */\n      eq\n        /* \"#utility.yul\":6554:6615   */\n      tag_470\n      jumpi\n        /* \"#utility.yul\":6611:6612   */\n      0x00\n        /* \"#utility.yul\":6608:6609   */\n      dup1\n        /* \"#utility.yul\":6601:6613   */\n      revert\n        /* \"#utility.yul\":6554:6615   */\n    tag_470:\n        /* \"#utility.yul\":6503:6621   */\n      pop\n      jump\t// out\n        /* \"#utility.yul\":6627:6762   */\n    tag_340:\n        /* \"#utility.yul\":6671:6676   */\n      0x00\n        /* \"#utility.yul\":6709:6715   */\n      dup2\n        /* \"#utility.yul\":6696:6716   */\n      calldataload\n        /* \"#utility.yul\":6687:6716   */\n      swap1\n      pop\n        /* \"#utility.yul\":6725:6756   */\n      tag_472\n        /* \"#utility.yul\":6750:6755   */\n      dup2\n        /* \"#utility.yul\":6725:6756   */\n      tag_339\n      jump\t// in\n    tag_472:\n        /* \"#utility.yul\":6627:6762   */\n      swap3\n      swap2\n      pop\n      pop\n      jump\t// out\n        /* \"#utility.yul\":6768:7093   */\n    tag_96:\n        /* \"#utility.yul\":6825:6831   */\n      0x00\n        /* \"#utility.yul\":6874:6876   */\n      0x20\n        /* \"#utility.yul\":6862:6871   */\n      dup3\n        /* \"#utility.yul\":6853:6860   */\n      dup5\n        /* \"#utility.yul\":6849:6872   */\n      sub\n        /* \"#utility.yul\":6845:6877   */\n      slt\n        /* \"#utility.yul\":6842:6961   */\n      iszero\n      tag_474\n      jumpi\n        /* \"#utility.yul\":6880:6959   */\n      tag_475\n      tag_322\n      jump\t// in\n    tag_475:\n        /* \"#utility.yul\":6842:6961   */\n    tag_474:\n        /* \"#utility.yul\":7000:7001   */\n      0x00\n        /* \"#utility.yul\":7025:7076   */\n      tag_476\n        /* \"#utility.yul\":7068:7075   */\n      dup5\n        /* \"#utility.yul\":7059:7065   */\n      dup3\n        /* \"#utility.yul\":7048:7057   */\n      dup6\n        /* \"#utility.yul\":7044:7066   */\n      add\n        /* \"#utility.yul\":7025:7076   */\n      tag_340\n      jump\t// in\n    tag_476:\n        /* \"#utility.yul\":7015:7076   */\n      swap2\n      pop\n        /* \"#utility.yul\":6971:7086   */\n      pop\n        /* \"#utility.yul\":6768:7093   */\n      swap3\n      swap2\n      pop\n      pop\n      jump\t// out\n        /* \"#utility.yul\":7099:7211   */\n    tag_341:\n        /* \"#utility.yul\":7164:7170   */\n      0x00\n        /* \"#utility.yul\":7198:7203   */\n      dup2\n        /* \"#utility.yul\":7192:7204   */\n      mload\n        /* \"#utility.yul\":7182:7204   */\n      swap1\n      pop\n        /* \"#utility.yul\":7099:7211   */\n      swap2\n      swap1\n      pop\n      jump\t// out\n        /* \"#utility.yul\":7217:7399   */\n    tag_342:\n        /* \"#utility.yul\":7314:7325   */\n      0x00\n        /* \"#utility.yul\":7348:7354   */\n      dup3\n        /* \"#utility.yul\":7343:7346   */\n      dup3\n        /* \"#utility.yul\":7336:7355   */\n      mstore\n        /* \"#utility.yul\":7388:7392   */\n      0x20\n        /* \"#utility.yul\":7383:7386   */\n      dup3\n        /* \"#utility.yul\":7379:7393   */\n      add\n        /* \"#utility.yul\":7364:7393   */\n      swap1\n      pop\n        /* \"#utility.yul\":7217:7399   */\n      swap3\n      swap2\n      pop\n      pop\n      jump\t// out\n        /* \"#utility.yul\":7405:7535   */\n    tag_343:\n        /* \"#utility.yul\":7470:7474   */\n      0x00\n        /* \"#utility.yul\":7493:7496   */\n      dup2\n        /* \"#utility.yul\":7485:7496   */\n      swap1\n      pop\n        /* \"#utility.yul\":7523:7527   */\n      0x20\n        /* \"#utility.yul\":7518:7521   */\n      dup3\n        /* \"#utility.yul\":7514:7528   */\n      add\n        /* \"#utility.yul\":7506:7528   */\n      swap1\n      pop\n        /* \"#utility.yul\":7405:7535   */\n      swap2\n      swap1\n      pop\n      jump\t// out\n        /* \"#utility.yul\":7541:7643   */\n    tag_344:\n        /* \"#utility.yul\":7614:7636   */\n      tag_481\n        /* \"#utility.yul\":7630:7635   */\n      dup2\n        /* \"#utility.yul\":7614:7636   */\n      tag_336\n      jump\t// in\n    tag_481:\n        /* \"#utility.yul\":7609:7612   */\n      dup3\n        /* \"#utility.yul\":7602:7637   */\n      mstore\n        /* \"#utility.yul\":7541:7643   */\n      pop\n      pop\n      jump\t// out\n        /* \"#utility.yul\":7649:7820   */\n    tag_345:\n        /* \"#utility.yul\":7714:7724   */\n      0x00\n        /* \"#utility.yul\":7735:7777   */\n      tag_483\n        /* \"#utility.yul\":7773:7776   */\n      dup4\n        /* \"#utility.yul\":7765:7771   */\n      dup4\n        /* \"#utility.yul\":7735:7777   */\n      tag_344\n      jump\t// in\n    tag_483:\n        /* \"#utility.yul\":7809:7813   */\n      0x20\n        /* \"#utility.yul\":7804:7807   */\n      dup4\n        /* \"#utility.yul\":7800:7814   */\n      add\n        /* \"#utility.yul\":7786:7814   */\n      swap1\n      pop\n        /* \"#utility.yul\":7649:7820   */\n      swap3\n      swap2\n      pop\n      pop\n      jump\t// out\n        /* \"#utility.yul\":7826:7937   */\n    tag_346:\n        /* \"#utility.yul\":7894:7898   */\n      0x00\n        /* \"#utility.yul\":7926:7930   */\n      0x20\n        /* \"#utility.yul\":7921:7924   */\n      dup3\n        /* \"#utility.yul\":7917:7931   */\n      add\n        /* \"#utility.yul\":7909:7931   */\n      swap1\n      pop\n        /* \"#utility.yul\":7826:7937   */\n      swap2\n      swap1\n      pop\n      jump\t// out\n        /* \"#utility.yul\":7969:8685   */\n    tag_347:\n        /* \"#utility.yul\":8084:8087   */\n      0x00\n        /* \"#utility.yul\":8113:8165   */\n      tag_486\n        /* \"#utility.yul\":8159:8164   */\n      dup3\n        /* \"#utility.yul\":8113:8165   */\n      tag_341\n      jump\t// in\n    tag_486:\n        /* \"#utility.yul\":8181:8265   */\n      tag_487\n        /* \"#utility.yul\":8258:8264   */\n      dup2\n        /* \"#utility.yul\":8253:8256   */\n      dup6\n        /* \"#utility.yul\":8181:8265   */\n      tag_342\n      jump\t// in\n    tag_487:\n        /* \"#utility.yul\":8174:8265   */\n      swap4\n      pop\n        /* \"#utility.yul\":8289:8343   */\n      tag_488\n        /* \"#utility.yul\":8337:8342   */\n      dup4\n        /* \"#utility.yul\":8289:8343   */\n      tag_343\n      jump\t// in\n    tag_488:\n        /* \"#utility.yul\":8366:8373   */\n      dup1\n        /* \"#utility.yul\":8397:8398   */\n      0x00\n        /* \"#utility.yul\":8382:8660   */\n    tag_489:\n        /* \"#utility.yul\":8407:8413   */\n      dup4\n        /* \"#utility.yul\":8404:8405   */\n      dup2\n        /* \"#utility.yul\":8401:8414   */\n      lt\n        /* \"#utility.yul\":8382:8660   */\n      iszero\n      tag_491\n      jumpi\n        /* \"#utility.yul\":8483:8489   */\n      dup2\n        /* \"#utility.yul\":8477:8490   */\n      mload\n        /* \"#utility.yul\":8510:8569   */\n      tag_492\n        /* \"#utility.yul\":8565:8568   */\n      dup9\n        /* \"#utility.yul\":8550:8563   */\n      dup3\n        /* \"#utility.yul\":8510:8569   */\n      tag_345\n      jump\t// in\n    tag_492:\n        /* \"#utility.yul\":8503:8569   */\n      swap8\n      pop\n        /* \"#utility.yul\":8592:8650   */\n      tag_493\n        /* \"#utility.yul\":8643:8649   */\n      dup4\n        /* \"#utility.yul\":8592:8650   */\n      tag_346\n      jump\t// in\n    tag_493:\n        /* \"#utility.yul\":8582:8650   */\n      swap3\n      pop\n        /* \"#utility.yul\":8442:8660   */\n      pop\n        /* \"#utility.yul\":8429:8430   */\n      0x01\n        /* \"#utility.yul\":8426:8427   */\n      dup2\n        /* \"#utility.yul\":8422:8431   */\n      add\n        /* \"#utility.yul\":8417:8431   */\n      swap1\n      pop\n        /* \"#utility.yul\":8382:8660   */\n      jump(tag_489)\n    tag_491:\n        /* \"#utility.yul\":8386:8400   */\n      pop\n        /* \"#utility.yul\":8676:8679   */\n      dup6\n        /* \"#utility.yul\":8669:8679   */\n      swap4\n      pop\n        /* \"#utility.yul\":8089:8685   */\n      pop\n      pop\n      pop\n        /* \"#utility.yul\":7969:8685   */\n      swap3\n      swap2\n      pop\n      pop\n      jump\t// out\n        /* \"#utility.yul\":8691:9056   */\n    tag_104:\n        /* \"#utility.yul\":8830:8834   */\n      0x00\n        /* \"#utility.yul\":8868:8870   */\n      0x20\n        /* \"#utility.yul\":8857:8866   */\n      dup3\n        /* \"#utility.yul\":8853:8871   */\n      add\n        /* \"#utility.yul\":8845:8871   */\n      swap1\n      pop\n        /* \"#utility.yul\":8917:8926   */\n      dup2\n        /* \"#utility.yul\":8911:8915   */\n      dup2\n        /* \"#utility.yul\":8907:8927   */\n      sub\n        /* \"#utility.yul\":8903:8904   */\n      0x00\n        /* \"#utility.yul\":8892:8901   */\n      dup4\n        /* \"#utility.yul\":8888:8905   */\n      add\n        /* \"#utility.yul\":8881:8928   */\n      mstore\n        /* \"#utility.yul\":8945:9049   */\n      tag_495\n        /* \"#utility.yul\":9044:9048   */\n      dup2\n        /* \"#utility.yul\":9035:9041   */\n      dup5\n        /* \"#utility.yul\":8945:9049   */\n      tag_347\n      jump\t// in\n    tag_495:\n        /* \"#utility.yul\":8937:9049   */\n      swap1\n      pop\n        /* \"#utility.yul\":8691:9056   */\n      swap3\n      swap2\n      pop\n      pop\n      jump\t// out\n        /* \"#utility.yul\":9062:9485   */\n    tag_109:\n        /* \"#utility.yul\":9203:9207   */\n      0x00\n        /* \"#utility.yul\":9241:9243   */\n      0x40\n        /* \"#utility.yul\":9230:9239   */\n      dup3\n        /* \"#utility.yul\":9226:9244   */\n      add\n        /* \"#utility.yul\":9218:9244   */\n      swap1\n      pop\n        /* \"#utility.yul\":9290:9299   */\n      dup2\n        /* \"#utility.yul\":9284:9288   */\n      dup2\n        /* \"#utility.yul\":9280:9300   */\n      sub\n        /* \"#utility.yul\":9276:9277   */\n      0x00\n        /* \"#utility.yul\":9265:9274   */\n      dup4\n        /* \"#utility.yul\":9261:9278   */\n      add\n        /* \"#utility.yul\":9254:9301   */\n      mstore\n        /* \"#utility.yul\":9318:9396   */\n      tag_497\n        /* \"#utility.yul\":9391:9395   */\n      dup2\n        /* \"#utility.yul\":9382:9388   */\n      dup6\n        /* \"#utility.yul\":9318:9396   */\n      tag_320\n      jump\t// in\n    tag_497:\n        /* \"#utility.yul\":9310:9396   */\n      swap1\n      pop\n        /* \"#utility.yul\":9406:9478   */\n      tag_498\n        /* \"#utility.yul\":9474:9476   */\n      0x20\n        /* \"#utility.yul\":9463:9472   */\n      dup4\n        /* \"#utility.yul\":9459:9477   */\n      add\n        /* \"#utility.yul\":9450:9456   */\n      dup5\n        /* \"#utility.yul\":9406:9478   */\n      tag_335\n      jump\t// in\n    tag_498:\n        /* \"#utility.yul\":9062:9485   */\n      swap4\n      swap3\n      pop\n      pop\n      pop\n      jump\t// out\n        /* \"#utility.yul\":9491:9965   */\n    tag_112:\n        /* \"#utility.yul\":9559:9565   */\n      0x00\n        /* \"#utility.yul\":9567:9573   */\n      dup1\n        /* \"#utility.yul\":9616:9618   */\n      0x40\n        /* \"#utility.yul\":9604:9613   */\n      dup4\n        /* \"#utility.yul\":9595:9602   */\n      dup6\n        /* \"#utility.yul\":9591:9614   */\n      sub\n        /* \"#utility.yul\":9587:9619   */\n      slt\n        /* \"#utility.yul\":9584:9703   */\n      iszero\n      tag_500\n      jumpi\n        /* \"#utility.yul\":9622:9701   */\n      tag_501\n      tag_322\n      jump\t// in\n    tag_501:\n        /* \"#utility.yul\":9584:9703   */\n    tag_500:\n        /* \"#utility.yul\":9742:9743   */\n      0x00\n        /* \"#utility.yul\":9767:9820   */\n      tag_502\n        /* \"#utility.yul\":9812:9819   */\n      dup6\n        /* \"#utility.yul\":9803:9809   */\n      dup3\n        /* \"#utility.yul\":9792:9801   */\n      dup7\n        /* \"#utility.yul\":9788:9810   */\n      add\n        /* \"#utility.yul\":9767:9820   */\n      tag_327\n      jump\t// in\n    tag_502:\n        /* \"#utility.yul\":9757:9820   */\n      swap3\n      pop\n        /* \"#utility.yul\":9713:9830   */\n      pop\n        /* \"#utility.yul\":9869:9871   */\n      0x20\n        /* \"#utility.yul\":9895:9948   */\n      tag_503\n        /* \"#utility.yul\":9940:9947   */\n      dup6\n        /* \"#utility.yul\":9931:9937   */\n      dup3\n        /* \"#utility.yul\":9920:9929   */\n      dup7\n        /* \"#utility.yul\":9916:9938   */\n      add\n        /* \"#utility.yul\":9895:9948   */\n      tag_327\n      jump\t// in\n    tag_503:\n        /* \"#utility.yul\":9885:9948   */\n      swap2\n      pop\n        /* \"#utility.yul\":9840:9958   */\n      pop\n        /* \"#utility.yul\":9491:9965   */\n      swap3\n      pop\n      swap3\n      swap1\n      pop\n      jump\t// out\n        /* \"#utility.yul\":9971:10088   */\n    tag_348:\n        /* \"#utility.yul\":10080:10081   */\n      0x00\n        /* \"#utility.yul\":10077:10078   */\n      dup1\n        /* \"#utility.yul\":10070:10082   */\n      revert\n        /* \"#utility.yul\":10094:10211   */\n    tag_349:\n        /* \"#utility.yul\":10203:10204   */\n      0x00\n        /* \"#utility.yul\":10200:10201   */\n      dup1\n        /* \"#utility.yul\":10193:10205   */\n      revert\n        /* \"#utility.yul\":10217:10397   */\n    tag_233:\n        /* \"#utility.yul\":10265:10342   */\n      0x4e487b7100000000000000000000000000000000000000000000000000000000\n        /* \"#utility.yul\":10262:10263   */\n      0x00\n        /* \"#utility.yul\":10255:10343   */\n      mstore\n        /* \"#utility.yul\":10362:10366   */\n      0x41\n        /* \"#utility.yul\":10359:10360   */\n      0x04\n        /* \"#utility.yul\":10352:10367   */\n      mstore\n        /* \"#utility.yul\":10386:10390   */\n      0x24\n        /* \"#utility.yul\":10383:10384   */\n      0x00\n        /* \"#utility.yul\":10376:10391   */\n      revert\n        /* \"#utility.yul\":10403:10684   */\n    tag_350:\n        /* \"#utility.yul\":10486:10513   */\n      tag_508\n        /* \"#utility.yul\":10508:10512   */\n      dup3\n        /* \"#utility.yul\":10486:10513   */\n      tag_319\n      jump\t// in\n    tag_508:\n        /* \"#utility.yul\":10478:10484   */\n      dup2\n        /* \"#utility.yul\":10474:10514   */\n      add\n        /* \"#utility.yul\":10616:10622   */\n      dup2\n        /* \"#utility.yul\":10604:10614   */\n      dup2\n        /* \"#utility.yul\":10601:10623   */\n      lt\n        /* \"#utility.yul\":10580:10598   */\n      0xffffffffffffffff\n        /* \"#utility.yul\":10568:10578   */\n      dup3\n        /* \"#utility.yul\":10565:10599   */\n      gt\n        /* \"#utility.yul\":10562:10624   */\n      or\n        /* \"#utility.yul\":10559:10647   */\n      iszero\n      tag_509\n      jumpi\n        /* \"#utility.yul\":10627:10645   */\n      tag_510\n      tag_233\n      jump\t// in\n    tag_510:\n        /* \"#utility.yul\":10559:10647   */\n    tag_509:\n        /* \"#utility.yul\":10667:10677   */\n      dup1\n        /* \"#utility.yul\":10663:10665   */\n      0x40\n        /* \"#utility.yul\":10656:10678   */\n      mstore\n        /* \"#utility.yul\":10446:10684   */\n      pop\n        /* \"#utility.yul\":10403:10684   */\n      pop\n      pop\n      jump\t// out\n        /* \"#utility.yul\":10690:10819   */\n    tag_351:\n        /* \"#utility.yul\":10724:10730   */\n      0x00\n        /* \"#utility.yul\":10751:10771   */\n      tag_512\n      tag_321\n      jump\t// in\n    tag_512:\n        /* \"#utility.yul\":10741:10771   */\n      swap1\n      pop\n        /* \"#utility.yul\":10780:10813   */\n      tag_513\n        /* \"#utility.yul\":10808:10812   */\n      dup3\n        /* \"#utility.yul\":10800:10806   */\n      dup3\n        /* \"#utility.yul\":10780:10813   */\n      tag_350\n      jump\t// in\n    tag_513:\n        /* \"#utility.yul\":10690:10819   */\n      swap2\n      swap1\n      pop\n      jump\t// out\n        /* \"#utility.yul\":10825:11133   */\n    tag_352:\n        /* \"#utility.yul\":10887:10891   */\n      0x00\n        /* \"#utility.yul\":10977:10995   */\n      0xffffffffffffffff\n        /* \"#utility.yul\":10969:10975   */\n      dup3\n        /* \"#utility.yul\":10966:10996   */\n      gt\n        /* \"#utility.yul\":10963:11019   */\n      iszero\n      tag_515\n      jumpi\n        /* \"#utility.yul\":10999:11017   */\n      tag_516\n      tag_233\n      jump\t// in\n    tag_516:\n        /* \"#utility.yul\":10963:11019   */\n    tag_515:\n        /* \"#utility.yul\":11037:11066   */\n      tag_517\n        /* \"#utility.yul\":11059:11065   */\n      dup3\n        /* \"#utility.yul\":11037:11066   */\n      tag_319\n      jump\t// in\n    tag_517:\n        /* \"#utility.yul\":11029:11066   */\n      swap1\n      pop\n        /* \"#utility.yul\":11121:11125   */\n      0x20\n        /* \"#utility.yul\":11115:11119   */\n      dup2\n        /* \"#utility.yul\":11111:11126   */\n      add\n        /* \"#utility.yul\":11103:11126   */\n      swap1\n      pop\n        /* \"#utility.yul\":10825:11133   */\n      swap2\n      swap1\n      pop\n      jump\t// out\n        /* \"#utility.yul\":11139:11287   */\n    tag_353:\n        /* \"#utility.yul\":11237:11243   */\n      dup3\n        /* \"#utility.yul\":11232:11235   */\n      dup2\n        /* \"#utility.yul\":11227:11230   */\n      dup4\n        /* \"#utility.yul\":11214:11244   */\n      calldatacopy\n        /* \"#utility.yul\":11278:11279   */\n      0x00\n        /* \"#utility.yul\":11269:11275   */\n      dup4\n        /* \"#utility.yul\":11264:11267   */\n      dup4\n        /* \"#utility.yul\":11260:11276   */\n      add\n        /* \"#utility.yul\":11253:11280   */\n      mstore\n        /* \"#utility.yul\":11139:11287   */\n      pop\n      pop\n      pop\n      jump\t// out\n        /* \"#utility.yul\":11293:11718   */\n    tag_354:\n        /* \"#utility.yul\":11371:11376   */\n      0x00\n        /* \"#utility.yul\":11396:11462   */\n      tag_520\n        /* \"#utility.yul\":11412:11461   */\n      tag_521\n        /* \"#utility.yul\":11454:11460   */\n      dup5\n        /* \"#utility.yul\":11412:11461   */\n      tag_352\n      jump\t// in\n    tag_521:\n        /* \"#utility.yul\":11396:11462   */\n      tag_351\n      jump\t// in\n    tag_520:\n        /* \"#utility.yul\":11387:11462   */\n      swap1\n      pop\n        /* \"#utility.yul\":11485:11491   */\n      dup3\n        /* \"#utility.yul\":11478:11483   */\n      dup2\n        /* \"#utility.yul\":11471:11492   */\n      mstore\n        /* \"#utility.yul\":11523:11527   */\n      0x20\n        /* \"#utility.yul\":11516:11521   */\n      dup2\n        /* \"#utility.yul\":11512:11528   */\n      add\n        /* \"#utility.yul\":11561:11564   */\n      dup5\n        /* \"#utility.yul\":11552:11558   */\n      dup5\n        /* \"#utility.yul\":11547:11550   */\n      dup5\n        /* \"#utility.yul\":11543:11559   */\n      add\n        /* \"#utility.yul\":11540:11565   */\n      gt\n        /* \"#utility.yul\":11537:11649   */\n      iszero\n      tag_522\n      jumpi\n        /* \"#utility.yul\":11568:11647   */\n      tag_523\n      tag_349\n      jump\t// in\n    tag_523:\n        /* \"#utility.yul\":11537:11649   */\n    tag_522:\n        /* \"#utility.yul\":11658:11712   */\n      tag_524\n        /* \"#utility.yul\":11705:11711   */\n      dup5\n        /* \"#utility.yul\":11700:11703   */\n      dup3\n        /* \"#utility.yul\":11695:11698   */\n      dup6\n        /* \"#utility.yul\":11658:11712   */\n      tag_353\n      jump\t// in\n    tag_524:\n        /* \"#utility.yul\":11377:11718   */\n      pop\n        /* \"#utility.yul\":11293:11718   */\n      swap4\n      swap3\n      pop\n      pop\n      pop\n      jump\t// out\n        /* \"#utility.yul\":11738:12078   */\n    tag_355:\n        /* \"#utility.yul\":11794:11799   */\n      0x00\n        /* \"#utility.yul\":11843:11846   */\n      dup3\n        /* \"#utility.yul\":11836:11840   */\n      0x1f\n        /* \"#utility.yul\":11828:11834   */\n      dup4\n        /* \"#utility.yul\":11824:11841   */\n      add\n        /* \"#utility.yul\":11820:11847   */\n      slt\n        /* \"#utility.yul\":11810:11932   */\n      tag_526\n      jumpi\n        /* \"#utility.yul\":11851:11930   */\n      tag_527\n      tag_348\n      jump\t// in\n    tag_527:\n        /* \"#utility.yul\":11810:11932   */\n    tag_526:\n        /* \"#utility.yul\":11968:11974   */\n      dup2\n        /* \"#utility.yul\":11955:11975   */\n      calldataload\n        /* \"#utility.yul\":11993:12072   */\n      tag_528\n        /* \"#utility.yul\":12068:12071   */\n      dup5\n        /* \"#utility.yul\":12060:12066   */\n      dup3\n        /* \"#utility.yul\":12053:12057   */\n      0x20\n        /* \"#utility.yul\":12045:12051   */\n      dup7\n        /* \"#utility.yul\":12041:12058   */\n      add\n        /* \"#utility.yul\":11993:12072   */\n      tag_354\n      jump\t// in\n    tag_528:\n        /* \"#utility.yul\":11984:12072   */\n      swap2\n      pop\n        /* \"#utility.yul\":11800:12078   */\n      pop\n        /* \"#utility.yul\":11738:12078   */\n      swap3\n      swap2\n      pop\n      pop\n      jump\t// out\n        /* \"#utility.yul\":12084:12738   */\n    tag_117:\n        /* \"#utility.yul\":12162:12168   */\n      0x00\n        /* \"#utility.yul\":12170:12176   */\n      dup1\n        /* \"#utility.yul\":12219:12221   */\n      0x40\n        /* \"#utility.yul\":12207:12216   */\n      dup4\n        /* \"#utility.yul\":12198:12205   */\n      dup6\n        /* \"#utility.yul\":12194:12217   */\n      sub\n        /* \"#utility.yul\":12190:12222   */\n      slt\n        /* \"#utility.yul\":12187:12306   */\n      iszero\n      tag_530\n      jumpi\n        /* \"#utility.yul\":12225:12304   */\n      tag_531\n      tag_322\n      jump\t// in\n    tag_531:\n        /* \"#utility.yul\":12187:12306   */\n    tag_530:\n        /* \"#utility.yul\":12373:12374   */\n      0x00\n        /* \"#utility.yul\":12362:12371   */\n      dup4\n        /* \"#utility.yul\":12358:12375   */\n      add\n        /* \"#utility.yul\":12345:12376   */\n      calldataload\n        /* \"#utility.yul\":12403:12421   */\n      0xffffffffffffffff\n        /* \"#utility.yul\":12395:12401   */\n      dup2\n        /* \"#utility.yul\":12392:12422   */\n      gt\n        /* \"#utility.yul\":12389:12506   */\n      iszero\n      tag_532\n      jumpi\n        /* \"#utility.yul\":12425:12504   */\n      tag_533\n      tag_323\n      jump\t// in\n    tag_533:\n        /* \"#utility.yul\":12389:12506   */\n    tag_532:\n        /* \"#utility.yul\":12530:12593   */\n      tag_534\n        /* \"#utility.yul\":12585:12592   */\n      dup6\n        /* \"#utility.yul\":12576:12582   */\n      dup3\n        /* \"#utility.yul\":12565:12574   */\n      dup7\n        /* \"#utility.yul\":12561:12583   */\n      add\n        /* \"#utility.yul\":12530:12593   */\n      tag_355\n      jump\t// in\n    tag_534:\n        /* \"#utility.yul\":12520:12593   */\n      swap3\n      pop\n        /* \"#utility.yul\":12316:12603   */\n      pop\n        /* \"#utility.yul\":12642:12644   */\n      0x20\n        /* \"#utility.yul\":12668:12721   */\n      tag_535\n        /* \"#utility.yul\":12713:12720   */\n      dup6\n        /* \"#utility.yul\":12704:12710   */\n      dup3\n        /* \"#utility.yul\":12693:12702   */\n      dup7\n        /* \"#utility.yul\":12689:12711   */\n      add\n        /* \"#utility.yul\":12668:12721   */\n      tag_330\n      jump\t// in\n    tag_535:\n        /* \"#utility.yul\":12658:12721   */\n      swap2\n      pop\n        /* \"#utility.yul\":12613:12731   */\n      pop\n        /* \"#utility.yul\":12084:12738   */\n      swap3\n      pop\n      swap3\n      swap1\n      pop\n      jump\t// out\n        /* \"#utility.yul\":12744:12924   */\n    tag_356:\n        /* \"#utility.yul\":12792:12869   */\n      0x4e487b7100000000000000000000000000000000000000000000000000000000\n        /* \"#utility.yul\":12789:12790   */\n      0x00\n        /* \"#utility.yul\":12782:12870   */\n      mstore\n        /* \"#utility.yul\":12889:12893   */\n      0x22\n        /* \"#utility.yul\":12886:12887   */\n      0x04\n        /* \"#utility.yul\":12879:12894   */\n      mstore\n        /* \"#utility.yul\":12913:12917   */\n      0x24\n        /* \"#utility.yul\":12910:12911   */\n      0x00\n        /* \"#utility.yul\":12903:12918   */\n      revert\n        /* \"#utility.yul\":12930:13250   */\n    tag_124:\n        /* \"#utility.yul\":12974:12980   */\n      0x00\n        /* \"#utility.yul\":13011:13012   */\n      0x02\n        /* \"#utility.yul\":13005:13009   */\n      dup3\n        /* \"#utility.yul\":13001:13013   */\n      div\n        /* \"#utility.yul\":12991:13013   */\n      swap1\n      pop\n        /* \"#utility.yul\":13058:13059   */\n      0x01\n        /* \"#utility.yul\":13052:13056   */\n      dup3\n        /* \"#utility.yul\":13048:13060   */\n      and\n        /* \"#utility.yul\":13079:13097   */\n      dup1\n        /* \"#utility.yul\":13069:13150   */\n      tag_538\n      jumpi\n        /* \"#utility.yul\":13135:13139   */\n      0x7f\n        /* \"#utility.yul\":13127:13133   */\n      dup3\n        /* \"#utility.yul\":13123:13140   */\n      and\n        /* \"#utility.yul\":13113:13140   */\n      swap2\n      pop\n        /* \"#utility.yul\":13069:13150   */\n    tag_538:\n        /* \"#utility.yul\":13197:13199   */\n      0x20\n        /* \"#utility.yul\":13189:13195   */\n      dup3\n        /* \"#utility.yul\":13186:13200   */\n      lt\n        /* \"#utility.yul\":13166:13184   */\n      dup2\n        /* \"#utility.yul\":13163:13201   */\n      sub\n        /* \"#utility.yul\":13160:13244   */\n      tag_539\n      jumpi\n        /* \"#utility.yul\":13216:13234   */\n      tag_540\n      tag_356\n      jump\t// in\n    tag_540:\n        /* \"#utility.yul\":13160:13244   */\n    tag_539:\n        /* \"#utility.yul\":12981:13250   */\n      pop\n        /* \"#utility.yul\":12930:13250   */\n      swap2\n      swap1\n      pop\n      jump\t// out\n        /* \"#utility.yul\":13256:13426   */\n    tag_357:\n        /* \"#utility.yul\":13396:13418   */\n      0x496e73756666696369656e742062616c616e6365000000000000000000000000\n        /* \"#utility.yul\":13392:13393   */\n      0x00\n        /* \"#utility.yul\":13384:13390   */\n      dup3\n        /* \"#utility.yul\":13380:13394   */\n      add\n        /* \"#utility.yul\":13373:13419   */\n      mstore\n        /* \"#utility.yul\":13256:13426   */\n      pop\n      jump\t// out\n        /* \"#utility.yul\":13432:13798   */\n    tag_358:\n        /* \"#utility.yul\":13574:13577   */\n      0x00\n        /* \"#utility.yul\":13595:13662   */\n      tag_543\n        /* \"#utility.yul\":13659:13661   */\n      0x14\n        /* \"#utility.yul\":13654:13657   */\n      dup4\n        /* \"#utility.yul\":13595:13662   */\n      tag_317\n      jump\t// in\n    tag_543:\n        /* \"#utility.yul\":13588:13662   */\n      swap2\n      pop\n        /* \"#utility.yul\":13671:13764   */\n      tag_544\n        /* \"#utility.yul\":13760:13763   */\n      dup3\n        /* \"#utility.yul\":13671:13764   */\n      tag_357\n      jump\t// in\n    tag_544:\n        /* \"#utility.yul\":13789:13791   */\n      0x20\n        /* \"#utility.yul\":13784:13787   */\n      dup3\n        /* \"#utility.yul\":13780:13792   */\n      add\n        /* \"#utility.yul\":13773:13792   */\n      swap1\n      pop\n        /* \"#utility.yul\":13432:13798   */\n      swap2\n      swap1\n      pop\n      jump\t// out\n        /* \"#utility.yul\":13804:14223   */\n    tag_138:\n        /* \"#utility.yul\":13970:13974   */\n      0x00\n        /* \"#utility.yul\":14008:14010   */\n      0x20\n        /* \"#utility.yul\":13997:14006   */\n      dup3\n        /* \"#utility.yul\":13993:14011   */\n      add\n        /* \"#utility.yul\":13985:14011   */\n      swap1\n      pop\n        /* \"#utility.yul\":14057:14066   */\n      dup2\n        /* \"#utility.yul\":14051:14055   */\n      dup2\n        /* \"#utility.yul\":14047:14067   */\n      sub\n        /* \"#utility.yul\":14043:14044   */\n      0x00\n        /* \"#utility.yul\":14032:14041   */\n      dup4\n        /* \"#utility.yul\":14028:14045   */\n      add\n        /* \"#utility.yul\":14021:14068   */\n      mstore\n        /* \"#utility.yul\":14085:14216   */\n      tag_546\n        /* \"#utility.yul\":14211:14215   */\n      dup2\n        /* \"#utility.yul\":14085:14216   */\n      tag_358\n      jump\t// in\n    tag_546:\n        /* \"#utility.yul\":14077:14216   */\n      swap1\n      pop\n        /* \"#utility.yul\":13804:14223   */\n      swap2\n      swap1\n      pop\n      jump\t// out\n        /* \"#utility.yul\":14229:14308   */\n    tag_359:\n        /* \"#utility.yul\":14268:14275   */\n      0x00\n        /* \"#utility.yul\":14297:14302   */\n      dup2\n        /* \"#utility.yul\":14286:14302   */\n      swap1\n      pop\n        /* \"#utility.yul\":14229:14308   */\n      swap2\n      swap1\n      pop\n      jump\t// out\n        /* \"#utility.yul\":14314:14471   */\n    tag_360:\n        /* \"#utility.yul\":14419:14464   */\n      tag_549\n        /* \"#utility.yul\":14439:14463   */\n      tag_550\n        /* \"#utility.yul\":14457:14462   */\n      dup3\n        /* \"#utility.yul\":14439:14463   */\n      tag_328\n      jump\t// in\n    tag_550:\n        /* \"#utility.yul\":14419:14464   */\n      tag_359\n      jump\t// in\n    tag_549:\n        /* \"#utility.yul\":14414:14417   */\n      dup3\n        /* \"#utility.yul\":14407:14465   */\n      mstore\n        /* \"#utility.yul\":14314:14471   */\n      pop\n      pop\n      jump\t// out\n        /* \"#utility.yul\":14477:14571   */\n    tag_361:\n        /* \"#utility.yul\":14510:14518   */\n      0x00\n        /* \"#utility.yul\":14558:14563   */\n      dup2\n        /* \"#utility.yul\":14554:14556   */\n      0x60\n        /* \"#utility.yul\":14550:14564   */\n      shl\n        /* \"#utility.yul\":14529:14564   */\n      swap1\n      pop\n        /* \"#utility.yul\":14477:14571   */\n      swap2\n      swap1\n      pop\n      jump\t// out\n        /* \"#utility.yul\":14577:14671   */\n    tag_362:\n        /* \"#utility.yul\":14616:14623   */\n      0x00\n        /* \"#utility.yul\":14645:14665   */\n      tag_553\n        /* \"#utility.yul\":14659:14664   */\n      dup3\n        /* \"#utility.yul\":14645:14665   */\n      tag_361\n      jump\t// in\n    tag_553:\n        /* \"#utility.yul\":14634:14665   */\n      swap1\n      pop\n        /* \"#utility.yul\":14577:14671   */\n      swap2\n      swap1\n      pop\n      jump\t// out\n        /* \"#utility.yul\":14677:14777   */\n    tag_363:\n        /* \"#utility.yul\":14716:14723   */\n      0x00\n        /* \"#utility.yul\":14745:14771   */\n      tag_555\n        /* \"#utility.yul\":14765:14770   */\n      dup3\n        /* \"#utility.yul\":14745:14771   */\n      tag_362\n      jump\t// in\n    tag_555:\n        /* \"#utility.yul\":14734:14771   */\n      swap1\n      pop\n        /* \"#utility.yul\":14677:14777   */\n      swap2\n      swap1\n      pop\n      jump\t// out\n        /* \"#utility.yul\":14783:14940   */\n    tag_364:\n        /* \"#utility.yul\":14888:14933   */\n      tag_557\n        /* \"#utility.yul\":14908:14932   */\n      tag_558\n        /* \"#utility.yul\":14926:14931   */\n      dup3\n        /* \"#utility.yul\":14908:14932   */\n      tag_325\n      jump\t// in\n    tag_558:\n        /* \"#utility.yul\":14888:14933   */\n      tag_363\n      jump\t// in\n    tag_557:\n        /* \"#utility.yul\":14883:14886   */\n      dup3\n        /* \"#utility.yul\":14876:14934   */\n      mstore\n        /* \"#utility.yul\":14783:14940   */\n      pop\n      pop\n      jump\t// out\n        /* \"#utility.yul\":14946:15343   */\n    tag_140:\n        /* \"#utility.yul\":15086:15089   */\n      0x00\n        /* \"#utility.yul\":15101:15176   */\n      tag_560\n        /* \"#utility.yul\":15172:15175   */\n      dup3\n        /* \"#utility.yul\":15163:15169   */\n      dup6\n        /* \"#utility.yul\":15101:15176   */\n      tag_360\n      jump\t// in\n    tag_560:\n        /* \"#utility.yul\":15201:15203   */\n      0x20\n        /* \"#utility.yul\":15196:15199   */\n      dup3\n        /* \"#utility.yul\":15192:15204   */\n      add\n        /* \"#utility.yul\":15185:15204   */\n      swap2\n      pop\n        /* \"#utility.yul\":15214:15289   */\n      tag_561\n        /* \"#utility.yul\":15285:15288   */\n      dup3\n        /* \"#utility.yul\":15276:15282   */\n      dup5\n        /* \"#utility.yul\":15214:15289   */\n      tag_364\n      jump\t// in\n    tag_561:\n        /* \"#utility.yul\":15314:15316   */\n      0x14\n        /* \"#utility.yul\":15309:15312   */\n      dup3\n        /* \"#utility.yul\":15305:15317   */\n      add\n        /* \"#utility.yul\":15298:15317   */\n      swap2\n      pop\n        /* \"#utility.yul\":15334:15337   */\n      dup2\n        /* \"#utility.yul\":15327:15337   */\n      swap1\n      pop\n        /* \"#utility.yul\":14946:15343   */\n      swap4\n      swap3\n      pop\n      pop\n      pop\n      jump\t// out\n        /* \"#utility.yul\":15349:15529   */\n    tag_365:\n        /* \"#utility.yul\":15397:15474   */\n      0x4e487b7100000000000000000000000000000000000000000000000000000000\n        /* \"#utility.yul\":15394:15395   */\n      0x00\n        /* \"#utility.yul\":15387:15475   */\n      mstore\n        /* \"#utility.yul\":15494:15498   */\n      0x12\n        /* \"#utility.yul\":15491:15492   */\n      0x04\n        /* \"#utility.yul\":15484:15499   */\n      mstore\n        /* \"#utility.yul\":15518:15522   */\n      0x24\n        /* \"#utility.yul\":15515:15516   */\n      0x00\n        /* \"#utility.yul\":15508:15523   */\n      revert\n        /* \"#utility.yul\":15535:15711   */\n    tag_142:\n        /* \"#utility.yul\":15567:15568   */\n      0x00\n        /* \"#utility.yul\":15584:15604   */\n      tag_564\n        /* \"#utility.yul\":15602:15603   */\n      dup3\n        /* \"#utility.yul\":15584:15604   */\n      tag_328\n      jump\t// in\n    tag_564:\n        /* \"#utility.yul\":15579:15604   */\n      swap2\n      pop\n        /* \"#utility.yul\":15618:15638   */\n      tag_565\n        /* \"#utility.yul\":15636:15637   */\n      dup4\n        /* \"#utility.yul\":15618:15638   */\n      tag_328\n      jump\t// in\n    tag_565:\n        /* \"#utility.yul\":15613:15638   */\n      swap3\n      pop\n        /* \"#utility.yul\":15657:15658   */\n      dup3\n        /* \"#utility.yul\":15647:15682   */\n      tag_566\n      jumpi\n        /* \"#utility.yul\":15662:15680   */\n      tag_567\n      tag_365\n      jump\t// in\n    tag_567:\n        /* \"#utility.yul\":15647:15682   */\n    tag_566:\n        /* \"#utility.yul\":15703:15704   */\n      dup3\n        /* \"#utility.yul\":15700:15701   */\n      dup3\n        /* \"#utility.yul\":15696:15705   */\n      mod\n        /* \"#utility.yul\":15691:15705   */\n      swap1\n      pop\n        /* \"#utility.yul\":15535:15711   */\n      swap3\n      swap2\n      pop\n      pop\n      jump\t// out\n        /* \"#utility.yul\":15717:15897   */\n    tag_366:\n        /* \"#utility.yul\":15765:15842   */\n      0x4e487b7100000000000000000000000000000000000000000000000000000000\n        /* \"#utility.yul\":15762:15763   */\n      0x00\n        /* \"#utility.yul\":15755:15843   */\n      mstore\n        /* \"#utility.yul\":15862:15866   */\n      0x11\n        /* \"#utility.yul\":15859:15860   */\n      0x04\n        /* \"#utility.yul\":15852:15867   */\n      mstore\n        /* \"#utility.yul\":15886:15890   */\n      0x24\n        /* \"#utility.yul\":15883:15884   */\n      0x00\n        /* \"#utility.yul\":15876:15891   */\n      revert\n        /* \"#utility.yul\":15903:16313   */\n    tag_146:\n        /* \"#utility.yul\":15943:15950   */\n      0x00\n        /* \"#utility.yul\":15966:15986   */\n      tag_570\n        /* \"#utility.yul\":15984:15985   */\n      dup3\n        /* \"#utility.yul\":15966:15986   */\n      tag_328\n      jump\t// in\n    tag_570:\n        /* \"#utility.yul\":15961:15986   */\n      swap2\n      pop\n        /* \"#utility.yul\":16000:16020   */\n      tag_571\n        /* \"#utility.yul\":16018:16019   */\n      dup4\n        /* \"#utility.yul\":16000:16020   */\n      tag_328\n      jump\t// in\n    tag_571:\n        /* \"#utility.yul\":15995:16020   */\n      swap3\n      pop\n        /* \"#utility.yul\":16055:16056   */\n      dup3\n        /* \"#utility.yul\":16052:16053   */\n      dup3\n        /* \"#utility.yul\":16048:16057   */\n      mul\n        /* \"#utility.yul\":16077:16107   */\n      tag_572\n        /* \"#utility.yul\":16095:16106   */\n      dup2\n        /* \"#utility.yul\":16077:16107   */\n      tag_328\n      jump\t// in\n    tag_572:\n        /* \"#utility.yul\":16066:16107   */\n      swap2\n      pop\n        /* \"#utility.yul\":16256:16257   */\n      dup3\n        /* \"#utility.yul\":16247:16254   */\n      dup3\n        /* \"#utility.yul\":16243:16258   */\n      div\n        /* \"#utility.yul\":16240:16241   */\n      dup5\n        /* \"#utility.yul\":16237:16259   */\n      eq\n        /* \"#utility.yul\":16217:16218   */\n      dup4\n        /* \"#utility.yul\":16210:16219   */\n      iszero\n        /* \"#utility.yul\":16190:16273   */\n      or\n        /* \"#utility.yul\":16167:16306   */\n      tag_573\n      jumpi\n        /* \"#utility.yul\":16286:16304   */\n      tag_574\n      tag_366\n      jump\t// in\n    tag_574:\n        /* \"#utility.yul\":16167:16306   */\n    tag_573:\n        /* \"#utility.yul\":15951:16313   */\n      pop\n        /* \"#utility.yul\":15903:16313   */\n      swap3\n      swap2\n      pop\n      pop\n      jump\t// out\n        /* \"#utility.yul\":16319:16477   */\n    tag_367:\n        /* \"#utility.yul\":16459:16469   */\n      0x596f7520776f6e21000000000000000000000000000000000000000000000000\n        /* \"#utility.yul\":16455:16456   */\n      0x00\n        /* \"#utility.yul\":16447:16453   */\n      dup3\n        /* \"#utility.yul\":16443:16457   */\n      add\n        /* \"#utility.yul\":16436:16470   */\n      mstore\n        /* \"#utility.yul\":16319:16477   */\n      pop\n      jump\t// out\n        /* \"#utility.yul\":16483:16848   */\n    tag_368:\n        /* \"#utility.yul\":16625:16628   */\n      0x00\n        /* \"#utility.yul\":16646:16712   */\n      tag_577\n        /* \"#utility.yul\":16710:16711   */\n      0x08\n        /* \"#utility.yul\":16705:16708   */\n      dup4\n        /* \"#utility.yul\":16646:16712   */\n      tag_317\n      jump\t// in\n    tag_577:\n        /* \"#utility.yul\":16639:16712   */\n      swap2\n      pop\n        /* \"#utility.yul\":16721:16814   */\n      tag_578\n        /* \"#utility.yul\":16810:16813   */\n      dup3\n        /* \"#utility.yul\":16721:16814   */\n      tag_367\n      jump\t// in\n    tag_578:\n        /* \"#utility.yul\":16839:16841   */\n      0x20\n        /* \"#utility.yul\":16834:16837   */\n      dup3\n        /* \"#utility.yul\":16830:16842   */\n      add\n        /* \"#utility.yul\":16823:16842   */\n      swap1\n      pop\n        /* \"#utility.yul\":16483:16848   */\n      swap2\n      swap1\n      pop\n      jump\t// out\n        /* \"#utility.yul\":16854:17481   */\n    tag_149:\n        /* \"#utility.yul\":17070:17074   */\n      0x00\n        /* \"#utility.yul\":17108:17110   */\n      0x60\n        /* \"#utility.yul\":17097:17106   */\n      dup3\n        /* \"#utility.yul\":17093:17111   */\n      add\n        /* \"#utility.yul\":17085:17111   */\n      swap1\n      pop\n        /* \"#utility.yul\":17121:17192   */\n      tag_580\n        /* \"#utility.yul\":17189:17190   */\n      0x00\n        /* \"#utility.yul\":17178:17187   */\n      dup4\n        /* \"#utility.yul\":17174:17191   */\n      add\n        /* \"#utility.yul\":17165:17171   */\n      dup6\n        /* \"#utility.yul\":17121:17192   */\n      tag_335\n      jump\t// in\n    tag_580:\n        /* \"#utility.yul\":17202:17268   */\n      tag_581\n        /* \"#utility.yul\":17264:17266   */\n      0x20\n        /* \"#utility.yul\":17253:17262   */\n      dup4\n        /* \"#utility.yul\":17249:17267   */\n      add\n        /* \"#utility.yul\":17240:17246   */\n      dup5\n        /* \"#utility.yul\":17202:17268   */\n      tag_332\n      jump\t// in\n    tag_581:\n        /* \"#utility.yul\":17315:17324   */\n      dup2\n        /* \"#utility.yul\":17309:17313   */\n      dup2\n        /* \"#utility.yul\":17305:17325   */\n      sub\n        /* \"#utility.yul\":17300:17302   */\n      0x40\n        /* \"#utility.yul\":17289:17298   */\n      dup4\n        /* \"#utility.yul\":17285:17303   */\n      add\n        /* \"#utility.yul\":17278:17326   */\n      mstore\n        /* \"#utility.yul\":17343:17474   */\n      tag_582\n        /* \"#utility.yul\":17469:17473   */\n      dup2\n        /* \"#utility.yul\":17343:17474   */\n      tag_368\n      jump\t// in\n    tag_582:\n        /* \"#utility.yul\":17335:17474   */\n      swap1\n      pop\n        /* \"#utility.yul\":16854:17481   */\n      swap4\n      swap3\n      pop\n      pop\n      pop\n      jump\t// out\n        /* \"#utility.yul\":17487:17646   */\n    tag_369:\n        /* \"#utility.yul\":17627:17638   */\n      0x596f75206c6f7374210000000000000000000000000000000000000000000000\n        /* \"#utility.yul\":17623:17624   */\n      0x00\n        /* \"#utility.yul\":17615:17621   */\n      dup3\n        /* \"#utility.yul\":17611:17625   */\n      add\n        /* \"#utility.yul\":17604:17639   */\n      mstore\n        /* \"#utility.yul\":17487:17646   */\n      pop\n      jump\t// out\n        /* \"#utility.yul\":17652:18017   */\n    tag_370:\n        /* \"#utility.yul\":17794:17797   */\n      0x00\n        /* \"#utility.yul\":17815:17881   */\n      tag_585\n        /* \"#utility.yul\":17879:17880   */\n      0x09\n        /* \"#utility.yul\":17874:17877   */\n      dup4\n        /* \"#utility.yul\":17815:17881   */\n      tag_317\n      jump\t// in\n    tag_585:\n        /* \"#utility.yul\":17808:17881   */\n      swap2\n      pop\n        /* \"#utility.yul\":17890:17983   */\n      tag_586\n        /* \"#utility.yul\":17979:17982   */\n      dup3\n        /* \"#utility.yul\":17890:17983   */\n      tag_369\n      jump\t// in\n    tag_586:\n        /* \"#utility.yul\":18008:18010   */\n      0x20\n        /* \"#utility.yul\":18003:18006   */\n      dup3\n        /* \"#utility.yul\":17999:18011   */\n      add\n        /* \"#utility.yul\":17992:18011   */\n      swap1\n      pop\n        /* \"#utility.yul\":17652:18017   */\n      swap2\n      swap1\n      pop\n      jump\t// out\n        /* \"#utility.yul\":18023:18650   */\n    tag_153:\n        /* \"#utility.yul\":18239:18243   */\n      0x00\n        /* \"#utility.yul\":18277:18279   */\n      0x60\n        /* \"#utility.yul\":18266:18275   */\n      dup3\n        /* \"#utility.yul\":18262:18280   */\n      add\n        /* \"#utility.yul\":18254:18280   */\n      swap1\n      pop\n        /* \"#utility.yul\":18290:18361   */\n      tag_588\n        /* \"#utility.yul\":18358:18359   */\n      0x00\n        /* \"#utility.yul\":18347:18356   */\n      dup4\n        /* \"#utility.yul\":18343:18360   */\n      add\n        /* \"#utility.yul\":18334:18340   */\n      dup6\n        /* \"#utility.yul\":18290:18361   */\n      tag_335\n      jump\t// in\n    tag_588:\n        /* \"#utility.yul\":18371:18437   */\n      tag_589\n        /* \"#utility.yul\":18433:18435   */\n      0x20\n        /* \"#utility.yul\":18422:18431   */\n      dup4\n        /* \"#utility.yul\":18418:18436   */\n      add\n        /* \"#utility.yul\":18409:18415   */\n      dup5\n        /* \"#utility.yul\":18371:18437   */\n      tag_332\n      jump\t// in\n    tag_589:\n        /* \"#utility.yul\":18484:18493   */\n      dup2\n        /* \"#utility.yul\":18478:18482   */\n      dup2\n        /* \"#utility.yul\":18474:18494   */\n      sub\n        /* \"#utility.yul\":18469:18471   */\n      0x40\n        /* \"#utility.yul\":18458:18467   */\n      dup4\n        /* \"#utility.yul\":18454:18472   */\n      add\n        /* \"#utility.yul\":18447:18495   */\n      mstore\n        /* \"#utility.yul\":18512:18643   */\n      tag_590\n        /* \"#utility.yul\":18638:18642   */\n      dup2\n        /* \"#utility.yul\":18512:18643   */\n      tag_370\n      jump\t// in\n    tag_590:\n        /* \"#utility.yul\":18504:18643   */\n      swap1\n      pop\n        /* \"#utility.yul\":18023:18650   */\n      swap4\n      swap3\n      pop\n      pop\n      pop\n      jump\t// out\n        /* \"#utility.yul\":18656:18820   */\n    tag_371:\n        /* \"#utility.yul\":18796:18812   */\n      0x4974656d206e6f7420666f756e64000000000000000000000000000000000000\n        /* \"#utility.yul\":18792:18793   */\n      0x00\n        /* \"#utility.yul\":18784:18790   */\n      dup3\n        /* \"#utility.yul\":18780:18794   */\n      add\n        /* \"#utility.yul\":18773:18813   */\n      mstore\n        /* \"#utility.yul\":18656:18820   */\n      pop\n      jump\t// out\n        /* \"#utility.yul\":18826:19192   */\n    tag_372:\n        /* \"#utility.yul\":18968:18971   */\n      0x00\n        /* \"#utility.yul\":18989:19056   */\n      tag_593\n        /* \"#utility.yul\":19053:19055   */\n      0x0e\n        /* \"#utility.yul\":19048:19051   */\n      dup4\n        /* \"#utility.yul\":18989:19056   */\n      tag_317\n      jump\t// in\n    tag_593:\n        /* \"#utility.yul\":18982:19056   */\n      swap2\n      pop\n        /* \"#utility.yul\":19065:19158   */\n      tag_594\n        /* \"#utility.yul\":19154:19157   */\n      dup3\n        /* \"#utility.yul\":19065:19158   */\n      tag_371\n      jump\t// in\n    tag_594:\n        /* \"#utility.yul\":19183:19185   */\n      0x20\n        /* \"#utility.yul\":19178:19181   */\n      dup3\n        /* \"#utility.yul\":19174:19186   */\n      add\n        /* \"#utility.yul\":19167:19186   */\n      swap1\n      pop\n        /* \"#utility.yul\":18826:19192   */\n      swap2\n      swap1\n      pop\n      jump\t// out\n        /* \"#utility.yul\":19198:19617   */\n    tag_206:\n        /* \"#utility.yul\":19364:19368   */\n      0x00\n        /* \"#utility.yul\":19402:19404   */\n      0x20\n        /* \"#utility.yul\":19391:19400   */\n      dup3\n        /* \"#utility.yul\":19387:19405   */\n      add\n        /* \"#utility.yul\":19379:19405   */\n      swap1\n      pop\n        /* \"#utility.yul\":19451:19460   */\n      dup2\n        /* \"#utility.yul\":19445:19449   */\n      dup2\n        /* \"#utility.yul\":19441:19461   */\n      sub\n        /* \"#utility.yul\":19437:19438   */\n      0x00\n        /* \"#utility.yul\":19426:19435   */\n      dup4\n        /* \"#utility.yul\":19422:19439   */\n      add\n        /* \"#utility.yul\":19415:19462   */\n      mstore\n        /* \"#utility.yul\":19479:19610   */\n      tag_596\n        /* \"#utility.yul\":19605:19609   */\n      dup2\n        /* \"#utility.yul\":19479:19610   */\n      tag_372\n      jump\t// in\n    tag_596:\n        /* \"#utility.yul\":19471:19610   */\n      swap1\n      pop\n        /* \"#utility.yul\":19198:19617   */\n      swap2\n      swap1\n      pop\n      jump\t// out\n        /* \"#utility.yul\":19623:19772   */\n    tag_373:\n        /* \"#utility.yul\":19672:19678   */\n      0x00\n        /* \"#utility.yul\":19706:19711   */\n      dup2\n        /* \"#utility.yul\":19700:19712   */\n      sload\n        /* \"#utility.yul\":19690:19712   */\n      swap1\n      pop\n        /* \"#utility.yul\":19732:19765   */\n      tag_598\n        /* \"#utility.yul\":19758:19764   */\n      dup2\n        /* \"#utility.yul\":19732:19765   */\n      tag_124\n      jump\t// in\n    tag_598:\n        /* \"#utility.yul\":19722:19765   */\n      swap1\n      pop\n        /* \"#utility.yul\":19623:19772   */\n      swap2\n      swap1\n      pop\n      jump\t// out\n        /* \"#utility.yul\":19778:19919   */\n    tag_374:\n        /* \"#utility.yul\":19827:19831   */\n      0x00\n        /* \"#utility.yul\":19850:19853   */\n      dup2\n        /* \"#utility.yul\":19842:19853   */\n      swap1\n      pop\n        /* \"#utility.yul\":19873:19876   */\n      dup2\n        /* \"#utility.yul\":19870:19871   */\n      0x00\n        /* \"#utility.yul\":19863:19877   */\n      mstore\n        /* \"#utility.yul\":19907:19911   */\n      0x20\n        /* \"#utility.yul\":19904:19905   */\n      0x00\n        /* \"#utility.yul\":19894:19912   */\n      keccak256\n        /* \"#utility.yul\":19886:19912   */\n      swap1\n      pop\n        /* \"#utility.yul\":19778:19919   */\n      swap2\n      swap1\n      pop\n      jump\t// out\n        /* \"#utility.yul\":19925:20018   */\n    tag_375:\n        /* \"#utility.yul\":19962:19968   */\n      0x00\n        /* \"#utility.yul\":20009:20011   */\n      0x20\n        /* \"#utility.yul\":20004:20006   */\n      0x1f\n        /* \"#utility.yul\":19997:20002   */\n      dup4\n        /* \"#utility.yul\":19993:20007   */\n      add\n        /* \"#utility.yul\":19989:20012   */\n      div\n        /* \"#utility.yul\":19979:20012   */\n      swap1\n      pop\n        /* \"#utility.yul\":19925:20018   */\n      swap2\n      swap1\n      pop\n      jump\t// out\n        /* \"#utility.yul\":20024:20131   */\n    tag_376:\n        /* \"#utility.yul\":20068:20076   */\n      0x00\n        /* \"#utility.yul\":20118:20123   */\n      dup3\n        /* \"#utility.yul\":20112:20116   */\n      dup3\n        /* \"#utility.yul\":20108:20124   */\n      shl\n        /* \"#utility.yul\":20087:20124   */\n      swap1\n      pop\n        /* \"#utility.yul\":20024:20131   */\n      swap3\n      swap2\n      pop\n      pop\n      jump\t// out\n        /* \"#utility.yul\":20137:20530   */\n    tag_377:\n        /* \"#utility.yul\":20206:20212   */\n      0x00\n        /* \"#utility.yul\":20256:20257   */\n      0x08\n        /* \"#utility.yul\":20244:20254   */\n      dup4\n        /* \"#utility.yul\":20240:20258   */\n      mul\n        /* \"#utility.yul\":20279:20376   */\n      tag_603\n        /* \"#utility.yul\":20309:20375   */\n      0xffffffffffffffffffffffffffffffffffffffffffffffffffffffffffffffff\n        /* \"#utility.yul\":20298:20307   */\n      dup3\n        /* \"#utility.yul\":20279:20376   */\n      tag_376\n      jump\t// in\n    tag_603:\n        /* \"#utility.yul\":20397:20436   */\n      tag_604\n        /* \"#utility.yul\":20427:20435   */\n      dup7\n        /* \"#utility.yul\":20416:20425   */\n      dup4\n        /* \"#utility.yul\":20397:20436   */\n      tag_376\n      jump\t// in\n    tag_604:\n        /* \"#utility.yul\":20385:20436   */\n      swap6\n      pop\n        /* \"#utility.yul\":20469:20473   */\n      dup1\n        /* \"#utility.yul\":20465:20474   */\n      not\n        /* \"#utility.yul\":20458:20463   */\n      dup5\n        /* \"#utility.yul\":20454:20475   */\n      and\n        /* \"#utility.yul\":20445:20475   */\n      swap4\n      pop\n        /* \"#utility.yul\":20518:20522   */\n      dup1\n        /* \"#utility.yul\":20508:20516   */\n      dup7\n        /* \"#utility.yul\":20504:20523   */\n      and\n        /* \"#utility.yul\":20497:20502   */\n      dup5\n        /* \"#utility.yul\":20494:20524   */\n      or\n        /* \"#utility.yul\":20484:20524   */\n      swap3\n      pop\n        /* \"#utility.yul\":20213:20530   */\n      pop\n      pop\n        /* \"#utility.yul\":20137:20530   */\n      swap4\n      swap3\n      pop\n      pop\n      pop\n      jump\t// out\n        /* \"#utility.yul\":20536:20596   */\n    tag_378:\n        /* \"#utility.yul\":20564:20567   */\n      0x00\n        /* \"#utility.yul\":20585:20590   */\n      dup2\n        /* \"#utility.yul\":20578:20590   */\n      swap1\n      pop\n        /* \"#utility.yul\":20536:20596   */\n      swap2\n      swap1\n      pop\n      jump\t// out\n        /* \"#utility.yul\":20602:20744   */\n    tag_379:\n        /* \"#utility.yul\":20652:20661   */\n      0x00\n        /* \"#utility.yul\":20685:20738   */\n      tag_607\n        /* \"#utility.yul\":20703:20737   */\n      tag_608\n        /* \"#utility.yul\":20712:20736   */\n      tag_609\n        /* \"#utility.yul\":20730:20735   */\n      dup5\n        /* \"#utility.yul\":20712:20736   */\n      tag_328\n      jump\t// in\n    tag_609:\n        /* \"#utility.yul\":20703:20737   */\n      tag_378\n      jump\t// in\n    tag_608:\n        /* \"#utility.yul\":20685:20738   */\n      tag_328\n      jump\t// in\n    tag_607:\n        /* \"#utility.yul\":20672:20738   */\n      swap1\n      pop\n        /* \"#utility.yul\":20602:20744   */\n      swap2\n      swap1\n      pop\n      jump\t// out\n        /* \"#utility.yul\":20750:20825   */\n    tag_380:\n        /* \"#utility.yul\":20793:20796   */\n      0x00\n        /* \"#utility.yul\":20814:20819   */\n      dup2\n        /* \"#utility.yul\":20807:20819   */\n      swap1\n      pop\n        /* \"#utility.yul\":20750:20825   */\n      swap2\n      swap1\n      pop\n      jump\t// out\n        /* \"#utility.yul\":20831:21100   */\n    tag_381:\n        /* \"#utility.yul\":20941:20980   */\n      tag_612\n        /* \"#utility.yul\":20972:20979   */\n      dup4\n        /* \"#utility.yul\":20941:20980   */\n      tag_379\n      jump\t// in\n    tag_612:\n        /* \"#utility.yul\":21002:21093   */\n      tag_613\n        /* \"#utility.yul\":21051:21092   */\n      tag_614\n        /* \"#utility.yul\":21075:21091   */\n      dup3\n        /* \"#utility.yul\":21051:21092   */\n      tag_380\n      jump\t// in\n    tag_614:\n        /* \"#utility.yul\":21043:21049   */\n      dup5\n        /* \"#utility.yul\":21036:21040   */\n      dup5\n        /* \"#utility.yul\":21030:21041   */\n      sload\n        /* \"#utility.yul\":21002:21093   */\n      tag_377\n      jump\t// in\n    tag_613:\n        /* \"#utility.yul\":20996:21000   */\n      dup3\n        /* \"#utility.yul\":20989:21094   */\n      sstore\n        /* \"#utility.yul\":20907:21100   */\n      pop\n        /* \"#utility.yul\":20831:21100   */\n      pop\n      pop\n      pop\n      jump\t// out\n        /* \"#utility.yul\":21106:21179   */\n    tag_382:\n        /* \"#utility.yul\":21151:21154   */\n      0x00\n        /* \"#utility.yul\":21106:21179   */\n      swap1\n      jump\t// out\n        /* \"#utility.yul\":21185:21374   */\n    tag_383:\n        /* \"#utility.yul\":21262:21294   */\n      tag_617\n      tag_382\n      jump\t// in\n    tag_617:\n        /* \"#utility.yul\":21303:21368   */\n      tag_618\n        /* \"#utility.yul\":21361:21367   */\n      dup2\n        /* \"#utility.yul\":21353:21359   */\n      dup5\n        /* \"#utility.yul\":21347:21351   */\n      dup5\n        /* \"#utility.yul\":21303:21368   */\n      tag_381\n      jump\t// in\n    tag_618:\n        /* \"#utility.yul\":21238:21374   */\n      pop\n        /* \"#utility.yul\":21185:21374   */\n      pop\n      pop\n      jump\t// out\n        /* \"#utility.yul\":21380:21566   */\n    tag_384:\n        /* \"#utility.yul\":21440:21560   */\n    tag_620:\n        /* \"#utility.yul\":21457:21460   */\n      dup2\n        /* \"#utility.yul\":21450:21455   */\n      dup2\n        /* \"#utility.yul\":21447:21461   */\n      lt\n        /* \"#utility.yul\":21440:21560   */\n      iszero\n      tag_622\n      jumpi\n        /* \"#utility.yul\":21511:21550   */\n      tag_623\n        /* \"#utility.yul\":21548:21549   */\n      0x00\n        /* \"#utility.yul\":21541:21546   */\n      dup3\n        /* \"#utility.yul\":21511:21550   */\n      tag_383\n      jump\t// in\n    tag_623:\n        /* \"#utility.yul\":21484:21485   */\n      0x01\n        /* \"#utility.yul\":21477:21482   */\n      dup2\n        /* \"#utility.yul\":21473:21486   */\n      add\n        /* \"#utility.yul\":21464:21486   */\n      swap1\n      pop\n        /* \"#utility.yul\":21440:21560   */\n      jump(tag_620)\n    tag_622:\n        /* \"#utility.yul\":21380:21566   */\n      pop\n      pop\n      jump\t// out\n        /* \"#utility.yul\":21572:22115   */\n    tag_385:\n        /* \"#utility.yul\":21673:21675   */\n      0x1f\n        /* \"#utility.yul\":21668:21671   */\n      dup3\n        /* \"#utility.yul\":21665:21676   */\n      gt\n        /* \"#utility.yul\":21662:22108   */\n      iszero\n      tag_625\n      jumpi\n        /* \"#utility.yul\":21707:21745   */\n      tag_626\n        /* \"#utility.yul\":21739:21744   */\n      dup2\n        /* \"#utility.yul\":21707:21745   */\n      tag_374\n      jump\t// in\n    tag_626:\n        /* \"#utility.yul\":21791:21820   */\n      tag_627\n        /* \"#utility.yul\":21809:21819   */\n      dup5\n        /* \"#utility.yul\":21791:21820   */\n      tag_375\n      jump\t// in\n    tag_627:\n        /* \"#utility.yul\":21781:21789   */\n      dup2\n        /* \"#utility.yul\":21777:21821   */\n      add\n        /* \"#utility.yul\":21974:21976   */\n      0x20\n        /* \"#utility.yul\":21962:21972   */\n      dup6\n        /* \"#utility.yul\":21959:21977   */\n      lt\n        /* \"#utility.yul\":21956:22005   */\n      iszero\n      tag_628\n      jumpi\n        /* \"#utility.yul\":21995:22003   */\n      dup2\n        /* \"#utility.yul\":21980:22003   */\n      swap1\n      pop\n        /* \"#utility.yul\":21956:22005   */\n    tag_628:\n        /* \"#utility.yul\":22018:22098   */\n      tag_629\n        /* \"#utility.yul\":22074:22096   */\n      tag_630\n        /* \"#utility.yul\":22092:22095   */\n      dup6\n        /* \"#utility.yul\":22074:22096   */\n      tag_375\n      jump\t// in\n    tag_630:\n        /* \"#utility.yul\":22064:22072   */\n      dup4\n        /* \"#utility.yul\":22060:22097   */\n      add\n        /* \"#utility.yul\":22047:22058   */\n      dup3\n        /* \"#utility.yul\":22018:22098   */\n      tag_384\n      jump\t// in\n    tag_629:\n        /* \"#utility.yul\":21677:22108   */\n      pop\n      pop\n        /* \"#utility.yul\":21662:22108   */\n    tag_625:\n        /* \"#utility.yul\":21572:22115   */\n      pop\n      pop\n      pop\n      jump\t// out\n        /* \"#utility.yul\":22121:22238   */\n    tag_386:\n        /* \"#utility.yul\":22175:22183   */\n      0x00\n        /* \"#utility.yul\":22225:22230   */\n      dup3\n        /* \"#utility.yul\":22219:22223   */\n      dup3\n        /* \"#utility.yul\":22215:22231   */\n      shr\n        /* \"#utility.yul\":22194:22231   */\n      swap1\n      pop\n        /* \"#utility.yul\":22121:22238   */\n      swap3\n      swap2\n      pop\n      pop\n      jump\t// out\n        /* \"#utility.yul\":22244:22413   */\n    tag_387:\n        /* \"#utility.yul\":22288:22294   */\n      0x00\n        /* \"#utility.yul\":22321:22372   */\n      tag_633\n        /* \"#utility.yul\":22369:22370   */\n      0x00\n        /* \"#utility.yul\":22365:22371   */\n      not\n        /* \"#utility.yul\":22357:22362   */\n      dup5\n        /* \"#utility.yul\":22354:22355   */\n      0x08\n        /* \"#utility.yul\":22350:22363   */\n      mul\n        /* \"#utility.yul\":22321:22372   */\n      tag_386\n      jump\t// in\n    tag_633:\n        /* \"#utility.yul\":22317:22373   */\n      not\n        /* \"#utility.yul\":22402:22406   */\n      dup1\n        /* \"#utility.yul\":22396:22400   */\n      dup4\n        /* \"#utility.yul\":22392:22407   */\n      and\n        /* \"#utility.yul\":22382:22407   */\n      swap2\n      pop\n        /* \"#utility.yul\":22295:22413   */\n      pop\n        /* \"#utility.yul\":22244:22413   */\n      swap3\n      swap2\n      pop\n      pop\n      jump\t// out\n        /* \"#utility.yul\":22418:22713   */\n    tag_388:\n        /* \"#utility.yul\":22494:22498   */\n      0x00\n        /* \"#utility.yul\":22640:22669   */\n      tag_635\n        /* \"#utility.yul\":22665:22668   */\n      dup4\n        /* \"#utility.yul\":22659:22663   */\n      dup4\n        /* \"#utility.yul\":22640:22669   */\n      tag_387\n      jump\t// in\n    tag_635:\n        /* \"#utility.yul\":22632:22669   */\n      swap2\n      pop\n        /* \"#utility.yul\":22702:22705   */\n      dup3\n        /* \"#utility.yul\":22699:22700   */\n      0x02\n        /* \"#utility.yul\":22695:22706   */\n      mul\n        /* \"#utility.yul\":22689:22693   */\n      dup3\n        /* \"#utility.yul\":22686:22707   */\n      or\n        /* \"#utility.yul\":22678:22707   */\n      swap1\n      pop\n        /* \"#utility.yul\":22418:22713   */\n      swap3\n      swap2\n      pop\n      pop\n      jump\t// out\n        /* \"#utility.yul\":22718:24169   */\n    tag_213:\n        /* \"#utility.yul\":22829:22832   */\n      dup2\n        /* \"#utility.yul\":22823:22827   */\n      dup2\n        /* \"#utility.yul\":22820:22833   */\n      sub\n        /* \"#utility.yul\":22817:22843   */\n      tag_637\n      jumpi\n        /* \"#utility.yul\":22836:22841   */\n      pop\n      pop\n      jump(tag_636)\n        /* \"#utility.yul\":22817:22843   */\n    tag_637:\n        /* \"#utility.yul\":22867:22901   */\n      tag_638\n        /* \"#utility.yul\":22897:22900   */\n      dup3\n        /* \"#utility.yul\":22867:22901   */\n      tag_373\n      jump\t// in\n    tag_638:\n        /* \"#utility.yul\":22966:22984   */\n      0xffffffffffffffff\n        /* \"#utility.yul\":22958:22964   */\n      dup2\n        /* \"#utility.yul\":22955:22985   */\n      gt\n        /* \"#utility.yul\":22952:23008   */\n      iszero\n      tag_639\n      jumpi\n        /* \"#utility.yul\":22988:23006   */\n      tag_640\n      tag_233\n      jump\t// in\n    tag_640:\n        /* \"#utility.yul\":22952:23008   */\n    tag_639:\n        /* \"#utility.yul\":23032:23070   */\n      tag_641\n        /* \"#utility.yul\":23064:23068   */\n      dup3\n        /* \"#utility.yul\":23058:23069   */\n      sload\n        /* \"#utility.yul\":23032:23070   */\n      tag_124\n      jump\t// in\n    tag_641:\n        /* \"#utility.yul\":23117:23184   */\n      tag_642\n        /* \"#utility.yul\":23177:23183   */\n      dup3\n        /* \"#utility.yul\":23169:23175   */\n      dup3\n        /* \"#utility.yul\":23163:23167   */\n      dup6\n        /* \"#utility.yul\":23117:23184   */\n      tag_385\n      jump\t// in\n    tag_642:\n        /* \"#utility.yul\":23211:23212   */\n      0x00\n        /* \"#utility.yul\":23240:23242   */\n      0x1f\n        /* \"#utility.yul\":23232:23238   */\n      dup4\n        /* \"#utility.yul\":23229:23243   */\n      gt\n        /* \"#utility.yul\":23257:23258   */\n      0x01\n        /* \"#utility.yul\":23252:23924   */\n      dup2\n      eq\n      tag_644\n      jumpi\n        /* \"#utility.yul\":23968:23969   */\n      0x00\n        /* \"#utility.yul\":23985:23991   */\n      dup5\n        /* \"#utility.yul\":23982:24059   */\n      iszero\n      tag_645\n      jumpi\n        /* \"#utility.yul\":24034:24043   */\n      dup3\n        /* \"#utility.yul\":24029:24032   */\n      dup8\n        /* \"#utility.yul\":24025:24044   */\n      add\n        /* \"#utility.yul\":24019:24045   */\n      sload\n        /* \"#utility.yul\":24010:24045   */\n      swap1\n      pop\n        /* \"#utility.yul\":23982:24059   */\n    tag_645:\n        /* \"#utility.yul\":24085:24152   */\n      tag_646\n        /* \"#utility.yul\":24145:24151   */\n      dup6\n        /* \"#utility.yul\":24138:24143   */\n      dup3\n        /* \"#utility.yul\":24085:24152   */\n      tag_388\n      jump\t// in\n    tag_646:\n        /* \"#utility.yul\":24079:24083   */\n      dup7\n        /* \"#utility.yul\":24072:24153   */\n      sstore\n        /* \"#utility.yul\":23941:24163   */\n      pop\n        /* \"#utility.yul\":23222:24163   */\n      jump(tag_643)\n        /* \"#utility.yul\":23252:23924   */\n    tag_644:\n        /* \"#utility.yul\":23304:23308   */\n      0x1f\n        /* \"#utility.yul\":23300:23309   */\n      not\n        /* \"#utility.yul\":23292:23298   */\n      dup5\n        /* \"#utility.yul\":23288:23310   */\n      and\n        /* \"#utility.yul\":23330:23366   */\n      tag_647\n        /* \"#utility.yul\":23362:23365   */\n      dup8\n        /* \"#utility.yul\":23330:23366   */\n      tag_374\n      jump\t// in\n    tag_647:\n        /* \"#utility.yul\":23323:23366   */\n      swap7\n      pop\n        /* \"#utility.yul\":23393:23430   */\n      tag_648\n        /* \"#utility.yul\":23425:23429   */\n      dup7\n        /* \"#utility.yul\":23393:23430   */\n      tag_374\n      jump\t// in\n    tag_648:\n        /* \"#utility.yul\":23452:23453   */\n      0x00\n        /* \"#utility.yul\":23466:23673   */\n    tag_649:\n        /* \"#utility.yul\":23480:23487   */\n      dup3\n        /* \"#utility.yul\":23477:23478   */\n      dup2\n        /* \"#utility.yul\":23474:23488   */\n      lt\n        /* \"#utility.yul\":23466:23673   */\n      iszero\n      tag_651\n      jumpi\n        /* \"#utility.yul\":23559:23568   */\n      dup5\n        /* \"#utility.yul\":23554:23557   */\n      dup10\n        /* \"#utility.yul\":23550:23569   */\n      add\n        /* \"#utility.yul\":23544:23570   */\n      sload\n        /* \"#utility.yul\":23536:23542   */\n      dup3\n        /* \"#utility.yul\":23529:23571   */\n      sstore\n        /* \"#utility.yul\":23610:23611   */\n      0x01\n        /* \"#utility.yul\":23602:23608   */\n      dup3\n        /* \"#utility.yul\":23598:23612   */\n      add\n        /* \"#utility.yul\":23588:23612   */\n      swap2\n      pop\n        /* \"#utility.yul\":23657:23658   */\n      0x01\n        /* \"#utility.yul\":23646:23655   */\n      dup6\n        /* \"#utility.yul\":23642:23659   */\n      add\n        /* \"#utility.yul\":23629:23659   */\n      swap5\n      pop\n        /* \"#utility.yul\":23503:23507   */\n      0x20\n        /* \"#utility.yul\":23500:23501   */\n      dup2\n        /* \"#utility.yul\":23496:23508   */\n      add\n        /* \"#utility.yul\":23491:23508   */\n      swap1\n      pop\n        /* \"#utility.yul\":23466:23673   */\n      jump(tag_649)\n    tag_651:\n        /* \"#utility.yul\":23701:23707   */\n      dup7\n        /* \"#utility.yul\":23692:23699   */\n      dup4\n        /* \"#utility.yul\":23689:23708   */\n      lt\n        /* \"#utility.yul\":23686:23865   */\n      iszero\n      tag_652\n      jumpi\n        /* \"#utility.yul\":23759:23768   */\n      dup5\n        /* \"#utility.yul\":23754:23757   */\n      dup10\n        /* \"#utility.yul\":23750:23769   */\n      add\n        /* \"#utility.yul\":23744:23770   */\n      sload\n        /* \"#utility.yul\":23802:23850   */\n      tag_653\n        /* \"#utility.yul\":23844:23848   */\n      0x1f\n        /* \"#utility.yul\":23836:23842   */\n      dup10\n        /* \"#utility.yul\":23832:23849   */\n      and\n        /* \"#utility.yul\":23821:23830   */\n      dup3\n        /* \"#utility.yul\":23802:23850   */\n      tag_387\n      jump\t// in\n    tag_653:\n        /* \"#utility.yul\":23794:23800   */\n      dup4\n        /* \"#utility.yul\":23787:23851   */\n      sstore\n        /* \"#utility.yul\":23709:23865   */\n      pop\n        /* \"#utility.yul\":23686:23865   */\n    tag_652:\n        /* \"#utility.yul\":23911:23912   */\n      0x01\n        /* \"#utility.yul\":23907:23908   */\n      0x02\n        /* \"#utility.yul\":23899:23905   */\n      dup9\n        /* \"#utility.yul\":23895:23909   */\n      mul\n        /* \"#utility.yul\":23891:23913   */\n      add\n        /* \"#utility.yul\":23885:23889   */\n      dup9\n        /* \"#utility.yul\":23878:23914   */\n      sstore\n        /* \"#utility.yul\":23259:23924   */\n      pop\n      pop\n      pop\n        /* \"#utility.yul\":23222:24163   */\n    tag_643:\n      pop\n        /* \"#utility.yul\":22807:24169   */\n      pop\n      pop\n      pop\n        /* \"#utility.yul\":22718:24169   */\n      pop\n      pop\n    tag_636:\n      jump\t// out\n        /* \"#utility.yul\":24199:25030   */\n    tag_389:\n        /* \"#utility.yul\":24284:24287   */\n      0x00\n        /* \"#utility.yul\":24321:24326   */\n      dup2\n        /* \"#utility.yul\":24315:24327   */\n      sload\n        /* \"#utility.yul\":24350:24386   */\n      tag_655\n        /* \"#utility.yul\":24376:24385   */\n      dup2\n        /* \"#utility.yul\":24350:24386   */\n      tag_124\n      jump\t// in\n    tag_655:\n        /* \"#utility.yul\":24402:24473   */\n      tag_656\n        /* \"#utility.yul\":24466:24472   */\n      dup2\n        /* \"#utility.yul\":24461:24464   */\n      dup7\n        /* \"#utility.yul\":24402:24473   */\n      tag_317\n      jump\t// in\n    tag_656:\n        /* \"#utility.yul\":24395:24473   */\n      swap5\n      pop\n        /* \"#utility.yul\":24504:24505   */\n      0x01\n        /* \"#utility.yul\":24493:24502   */\n      dup3\n        /* \"#utility.yul\":24489:24506   */\n      and\n        /* \"#utility.yul\":24520:24521   */\n      0x00\n        /* \"#utility.yul\":24515:24679   */\n      dup2\n      eq\n      tag_658\n      jumpi\n        /* \"#utility.yul\":24693:24694   */\n      0x01\n        /* \"#utility.yul\":24688:25024   */\n      dup2\n      eq\n      tag_659\n      jumpi\n        /* \"#utility.yul\":24482:25024   */\n      jump(tag_657)\n        /* \"#utility.yul\":24515:24679   */\n    tag_658:\n        /* \"#utility.yul\":24599:24603   */\n      0xff\n        /* \"#utility.yul\":24595:24604   */\n      not\n        /* \"#utility.yul\":24584:24593   */\n      dup4\n        /* \"#utility.yul\":24580:24605   */\n      and\n        /* \"#utility.yul\":24575:24578   */\n      dup7\n        /* \"#utility.yul\":24568:24606   */\n      mstore\n        /* \"#utility.yul\":24659:24665   */\n      dup2\n        /* \"#utility.yul\":24652:24666   */\n      iszero\n        /* \"#utility.yul\":24645:24667   */\n      iszero\n        /* \"#utility.yul\":24639:24643   */\n      0x20\n        /* \"#utility.yul\":24635:24668   */\n      mul\n        /* \"#utility.yul\":24630:24633   */\n      dup7\n        /* \"#utility.yul\":24626:24669   */\n      add\n        /* \"#utility.yul\":24619:24669   */\n      swap4\n      pop\n        /* \"#utility.yul\":24515:24679   */\n      jump(tag_657)\n        /* \"#utility.yul\":24688:25024   */\n    tag_659:\n        /* \"#utility.yul\":24755:24793   */\n      tag_660\n        /* \"#utility.yul\":24787:24792   */\n      dup6\n        /* \"#utility.yul\":24755:24793   */\n      tag_374\n      jump\t// in\n    tag_660:\n        /* \"#utility.yul\":24815:24816   */\n      0x00\n        /* \"#utility.yul\":24829:24983   */\n    tag_661:\n        /* \"#utility.yul\":24843:24849   */\n      dup4\n        /* \"#utility.yul\":24840:24841   */\n      dup2\n        /* \"#utility.yul\":24837:24850   */\n      lt\n        /* \"#utility.yul\":24829:24983   */\n      iszero\n      tag_663\n      jumpi\n        /* \"#utility.yul\":24917:24924   */\n      dup2\n        /* \"#utility.yul\":24911:24925   */\n      sload\n        /* \"#utility.yul\":24907:24908   */\n      dup2\n        /* \"#utility.yul\":24902:24905   */\n      dup10\n        /* \"#utility.yul\":24898:24909   */\n      add\n        /* \"#utility.yul\":24891:24926   */\n      mstore\n        /* \"#utility.yul\":24967:24968   */\n      0x01\n        /* \"#utility.yul\":24958:24965   */\n      dup3\n        /* \"#utility.yul\":24954:24969   */\n      add\n        /* \"#utility.yul\":24943:24969   */\n      swap2\n      pop\n        /* \"#utility.yul\":24865:24869   */\n      0x20\n        /* \"#utility.yul\":24862:24863   */\n      dup2\n        /* \"#utility.yul\":24858:24870   */\n      add\n        /* \"#utility.yul\":24853:24870   */\n      swap1\n      pop\n        /* \"#utility.yul\":24829:24983   */\n      jump(tag_661)\n    tag_663:\n        /* \"#utility.yul\":25012:25013   */\n      dup1\n        /* \"#utility.yul\":25007:25010   */\n      dup9\n        /* \"#utility.yul\":25003:25014   */\n      add\n        /* \"#utility.yul\":24996:25014   */\n      swap6\n      pop\n        /* \"#utility.yul\":24695:25024   */\n      pop\n      pop\n        /* \"#utility.yul\":24482:25024   */\n    tag_657:\n      pop\n        /* \"#utility.yul\":24288:25030   */\n      pop\n      pop\n        /* \"#utility.yul\":24199:25030   */\n      swap3\n      swap2\n      pop\n      pop\n      jump\t// out\n        /* \"#utility.yul\":25036:25555   */\n    tag_215:\n        /* \"#utility.yul\":25198:25202   */\n      0x00\n        /* \"#utility.yul\":25236:25238   */\n      0x60\n        /* \"#utility.yul\":25225:25234   */\n      dup3\n        /* \"#utility.yul\":25221:25239   */\n      add\n        /* \"#utility.yul\":25213:25239   */\n      swap1\n      pop\n        /* \"#utility.yul\":25249:25316   */\n      tag_665\n        /* \"#utility.yul\":25313:25314   */\n      0x00\n        /* \"#utility.yul\":25302:25311   */\n      dup4\n        /* \"#utility.yul\":25298:25315   */\n      add\n        /* \"#utility.yul\":25289:25295   */\n      dup7\n        /* \"#utility.yul\":25249:25316   */\n      tag_337\n      jump\t// in\n    tag_665:\n        /* \"#utility.yul\":25363:25372   */\n      dup2\n        /* \"#utility.yul\":25357:25361   */\n      dup2\n        /* \"#utility.yul\":25353:25373   */\n      sub\n        /* \"#utility.yul\":25348:25350   */\n      0x20\n        /* \"#utility.yul\":25337:25346   */\n      dup4\n        /* \"#utility.yul\":25333:25351   */\n      add\n        /* \"#utility.yul\":25326:25374   */\n      mstore\n        /* \"#utility.yul\":25391:25466   */\n      tag_666\n        /* \"#utility.yul\":25461:25465   */\n      dup2\n        /* \"#utility.yul\":25452:25458   */\n      dup6\n        /* \"#utility.yul\":25391:25466   */\n      tag_389\n      jump\t// in\n    tag_666:\n        /* \"#utility.yul\":25383:25466   */\n      swap1\n      pop\n        /* \"#utility.yul\":25476:25548   */\n      tag_667\n        /* \"#utility.yul\":25544:25546   */\n      0x40\n        /* \"#utility.yul\":25533:25542   */\n      dup4\n        /* \"#utility.yul\":25529:25547   */\n      add\n        /* \"#utility.yul\":25520:25526   */\n      dup5\n        /* \"#utility.yul\":25476:25548   */\n      tag_335\n      jump\t// in\n    tag_667:\n        /* \"#utility.yul\":25036:25555   */\n      swap5\n      swap4\n      pop\n      pop\n      pop\n      pop\n      jump\t// out\n        /* \"#utility.yul\":25561:25732   */\n    tag_390:\n        /* \"#utility.yul\":25701:25724   */\n      0x426f6e757320616c726561647920636c61696d65640000000000000000000000\n        /* \"#utility.yul\":25697:25698   */\n      0x00\n        /* \"#utility.yul\":25689:25695   */\n      dup3\n        /* \"#utility.yul\":25685:25699   */\n      add\n        /* \"#utility.yul\":25678:25725   */\n      mstore\n        /* \"#utility.yul\":25561:25732   */\n      pop\n      jump\t// out\n        /* \"#utility.yul\":25738:26104   */\n    tag_391:\n        /* \"#utility.yul\":25880:25883   */\n      0x00\n        /* \"#utility.yul\":25901:25968   */\n      tag_670\n        /* \"#utility.yul\":25965:25967   */\n      0x15\n        /* \"#utility.yul\":25960:25963   */\n      dup4\n        /* \"#utility.yul\":25901:25968   */\n      tag_317\n      jump\t// in\n    tag_670:\n        /* \"#utility.yul\":25894:25968   */\n      swap2\n      pop\n        /* \"#utility.yul\":25977:26070   */\n      tag_671\n        /* \"#utility.yul\":26066:26069   */\n      dup3\n        /* \"#utility.yul\":25977:26070   */\n      tag_390\n      jump\t// in\n    tag_671:\n        /* \"#utility.yul\":26095:26097   */\n      0x20\n        /* \"#utility.yul\":26090:26093   */\n      dup3\n        /* \"#utility.yul\":26086:26098   */\n      add\n        /* \"#utility.yul\":26079:26098   */\n      swap1\n      pop\n        /* \"#utility.yul\":25738:26104   */\n      swap2\n      swap1\n      pop\n      jump\t// out\n        /* \"#utility.yul\":26110:26529   */\n    tag_220:\n        /* \"#utility.yul\":26276:26280   */\n      0x00\n        /* \"#utility.yul\":26314:26316   */\n      0x20\n        /* \"#utility.yul\":26303:26312   */\n      dup3\n        /* \"#utility.yul\":26299:26317   */\n      add\n        /* \"#utility.yul\":26291:26317   */\n      swap1\n      pop\n        /* \"#utility.yul\":26363:26372   */\n      dup2\n        /* \"#utility.yul\":26357:26361   */\n      dup2\n        /* \"#utility.yul\":26353:26373   */\n      sub\n        /* \"#utility.yul\":26349:26350   */\n      0x00\n        /* \"#utility.yul\":26338:26347   */\n      dup4\n        /* \"#utility.yul\":26334:26351   */\n      add\n        /* \"#utility.yul\":26327:26374   */\n      mstore\n        /* \"#utility.yul\":26391:26522   */\n      tag_673\n        /* \"#utility.yul\":26517:26521   */\n      dup2\n        /* \"#utility.yul\":26391:26522   */\n      tag_391\n      jump\t// in\n    tag_673:\n        /* \"#utility.yul\":26383:26522   */\n      swap1\n      pop\n        /* \"#utility.yul\":26110:26529   */\n      swap2\n      swap1\n      pop\n      jump\t// out\n        /* \"#utility.yul\":26535:26715   */\n    tag_240:\n        /* \"#utility.yul\":26583:26660   */\n      0x4e487b7100000000000000000000000000000000000000000000000000000000\n        /* \"#utility.yul\":26580:26581   */\n      0x00\n        /* \"#utility.yul\":26573:26661   */\n      mstore\n        /* \"#utility.yul\":26680:26684   */\n      0x32\n        /* \"#utility.yul\":26677:26678   */\n      0x04\n        /* \"#utility.yul\":26670:26685   */\n      mstore\n        /* \"#utility.yul\":26704:26708   */\n      0x24\n        /* \"#utility.yul\":26701:26702   */\n      0x00\n        /* \"#utility.yul\":26694:26709   */\n      revert\n        /* \"#utility.yul\":26721:27163   */\n    tag_281:\n        /* \"#utility.yul\":26870:26874   */\n      0x00\n        /* \"#utility.yul\":26908:26910   */\n      0x60\n        /* \"#utility.yul\":26897:26906   */\n      dup3\n        /* \"#utility.yul\":26893:26911   */\n      add\n        /* \"#utility.yul\":26885:26911   */\n      swap1\n      pop\n        /* \"#utility.yul\":26921:26992   */\n      tag_676\n        /* \"#utility.yul\":26989:26990   */\n      0x00\n        /* \"#utility.yul\":26978:26987   */\n      dup4\n        /* \"#utility.yul\":26974:26991   */\n      add\n        /* \"#utility.yul\":26965:26971   */\n      dup7\n        /* \"#utility.yul\":26921:26992   */\n      tag_338\n      jump\t// in\n    tag_676:\n        /* \"#utility.yul\":27002:27074   */\n      tag_677\n        /* \"#utility.yul\":27070:27072   */\n      0x20\n        /* \"#utility.yul\":27059:27068   */\n      dup4\n        /* \"#utility.yul\":27055:27073   */\n      add\n        /* \"#utility.yul\":27046:27052   */\n      dup6\n        /* \"#utility.yul\":27002:27074   */\n      tag_335\n      jump\t// in\n    tag_677:\n        /* \"#utility.yul\":27084:27156   */\n      tag_678\n        /* \"#utility.yul\":27152:27154   */\n      0x40\n        /* \"#utility.yul\":27141:27150   */\n      dup4\n        /* \"#utility.yul\":27137:27155   */\n      add\n        /* \"#utility.yul\":27128:27134   */\n      dup5\n        /* \"#utility.yul\":27084:27156   */\n      tag_335\n      jump\t// in\n    tag_678:\n        /* \"#utility.yul\":26721:27163   */\n      swap5\n      swap4\n      pop\n      pop\n      pop\n      pop\n      jump\t// out\n        /* \"#utility.yul\":27169:28564   */\n    tag_296:\n        /* \"#utility.yul\":27286:27323   */\n      tag_680\n        /* \"#utility.yul\":27319:27322   */\n      dup3\n        /* \"#utility.yul\":27286:27323   */\n      tag_316\n      jump\t// in\n    tag_680:\n        /* \"#utility.yul\":27388:27406   */\n      0xffffffffffffffff\n        /* \"#utility.yul\":27380:27386   */\n      dup2\n        /* \"#utility.yul\":27377:27407   */\n      gt\n        /* \"#utility.yul\":27374:27430   */\n      iszero\n      tag_681\n      jumpi\n        /* \"#utility.yul\":27410:27428   */\n      tag_682\n      tag_233\n      jump\t// in\n    tag_682:\n        /* \"#utility.yul\":27374:27430   */\n    tag_681:\n        /* \"#utility.yul\":27454:27492   */\n      tag_683\n        /* \"#utility.yul\":27486:27490   */\n      dup3\n        /* \"#utility.yul\":27480:27491   */\n      sload\n        /* \"#utility.yul\":27454:27492   */\n      tag_124\n      jump\t// in\n    tag_683:\n        /* \"#utility.yul\":27539:27606   */\n      tag_684\n        /* \"#utility.yul\":27599:27605   */\n      dup3\n        /* \"#utility.yul\":27591:27597   */\n      dup3\n        /* \"#utility.yul\":27585:27589   */\n      dup6\n        /* \"#utility.yul\":27539:27606   */\n      tag_385\n      jump\t// in\n    tag_684:\n        /* \"#utility.yul\":27633:27634   */\n      0x00\n        /* \"#utility.yul\":27657:27661   */\n      0x20\n        /* \"#utility.yul\":27644:27661   */\n      swap1\n      pop\n        /* \"#utility.yul\":27689:27691   */\n      0x1f\n        /* \"#utility.yul\":27681:27687   */\n      dup4\n        /* \"#utility.yul\":27678:27692   */\n      gt\n        /* \"#utility.yul\":27706:27707   */\n      0x01\n        /* \"#utility.yul\":27701:28319   */\n      dup2\n      eq\n      tag_686\n      jumpi\n        /* \"#utility.yul\":28363:28364   */\n      0x00\n        /* \"#utility.yul\":28380:28386   */\n      dup5\n        /* \"#utility.yul\":28377:28454   */\n      iszero\n      tag_687\n      jumpi\n        /* \"#utility.yul\":28429:28438   */\n      dup3\n        /* \"#utility.yul\":28424:28427   */\n      dup8\n        /* \"#utility.yul\":28420:28439   */\n      add\n        /* \"#utility.yul\":28414:28440   */\n      mload\n        /* \"#utility.yul\":28405:28440   */\n      swap1\n      pop\n        /* \"#utility.yul\":28377:28454   */\n    tag_687:\n        /* \"#utility.yul\":28480:28547   */\n      tag_688\n        /* \"#utility.yul\":28540:28546   */\n      dup6\n        /* \"#utility.yul\":28533:28538   */\n      dup3\n        /* \"#utility.yul\":28480:28547   */\n      tag_388\n      jump\t// in\n    tag_688:\n        /* \"#utility.yul\":28474:28478   */\n      dup7\n        /* \"#utility.yul\":28467:28548   */\n      sstore\n        /* \"#utility.yul\":28336:28558   */\n      pop\n        /* \"#utility.yul\":27671:28558   */\n      jump(tag_685)\n        /* \"#utility.yul\":27701:28319   */\n    tag_686:\n        /* \"#utility.yul\":27753:27757   */\n      0x1f\n        /* \"#utility.yul\":27749:27758   */\n      not\n        /* \"#utility.yul\":27741:27747   */\n      dup5\n        /* \"#utility.yul\":27737:27759   */\n      and\n        /* \"#utility.yul\":27787:27824   */\n      tag_689\n        /* \"#utility.yul\":27819:27823   */\n      dup7\n        /* \"#utility.yul\":27787:27824   */\n      tag_374\n      jump\t// in\n    tag_689:\n        /* \"#utility.yul\":27846:27847   */\n      0x00\n        /* \"#utility.yul\":27860:28068   */\n    tag_690:\n        /* \"#utility.yul\":27874:27881   */\n      dup3\n        /* \"#utility.yul\":27871:27872   */\n      dup2\n        /* \"#utility.yul\":27868:27882   */\n      lt\n        /* \"#utility.yul\":27860:28068   */\n      iszero\n      tag_692\n      jumpi\n        /* \"#utility.yul\":27953:27962   */\n      dup5\n        /* \"#utility.yul\":27948:27951   */\n      dup10\n        /* \"#utility.yul\":27944:27963   */\n      add\n        /* \"#utility.yul\":27938:27964   */\n      mload\n        /* \"#utility.yul\":27930:27936   */\n      dup3\n        /* \"#utility.yul\":27923:27965   */\n      sstore\n        /* \"#utility.yul\":28004:28005   */\n      0x01\n        /* \"#utility.yul\":27996:28002   */\n      dup3\n        /* \"#utility.yul\":27992:28006   */\n      add\n        /* \"#utility.yul\":27982:28006   */\n      swap2\n      pop\n        /* \"#utility.yul\":28051:28053   */\n      0x20\n        /* \"#utility.yul\":28040:28049   */\n      dup6\n        /* \"#utility.yul\":28036:28054   */\n      add\n        /* \"#utility.yul\":28023:28054   */\n      swap5\n      pop\n        /* \"#utility.yul\":27897:27901   */\n      0x20\n        /* \"#utility.yul\":27894:27895   */\n      dup2\n        /* \"#utility.yul\":27890:27902   */\n      add\n        /* \"#utility.yul\":27885:27902   */\n      swap1\n      pop\n        /* \"#utility.yul\":27860:28068   */\n      jump(tag_690)\n    tag_692:\n        /* \"#utility.yul\":28096:28102   */\n      dup7\n        /* \"#utility.yul\":28087:28094   */\n      dup4\n        /* \"#utility.yul\":28084:28103   */\n      lt\n        /* \"#utility.yul\":28081:28260   */\n      iszero\n      tag_693\n      jumpi\n        /* \"#utility.yul\":28154:28163   */\n      dup5\n        /* \"#utility.yul\":28149:28152   */\n      dup10\n        /* \"#utility.yul\":28145:28164   */\n      add\n        /* \"#utility.yul\":28139:28165   */\n      mload\n        /* \"#utility.yul\":28197:28245   */\n      tag_694\n        /* \"#utility.yul\":28239:28243   */\n      0x1f\n        /* \"#utility.yul\":28231:28237   */\n      dup10\n        /* \"#utility.yul\":28227:28244   */\n      and\n        /* \"#utility.yul\":28216:28225   */\n      dup3\n        /* \"#utility.yul\":28197:28245   */\n      tag_387\n      jump\t// in\n    tag_694:\n        /* \"#utility.yul\":28189:28195   */\n      dup4\n        /* \"#utility.yul\":28182:28246   */\n      sstore\n        /* \"#utility.yul\":28104:28260   */\n      pop\n        /* \"#utility.yul\":28081:28260   */\n    tag_693:\n        /* \"#utility.yul\":28306:28307   */\n      0x01\n        /* \"#utility.yul\":28302:28303   */\n      0x02\n        /* \"#utility.yul\":28294:28300   */\n      dup9\n        /* \"#utility.yul\":28290:28304   */\n      mul\n        /* \"#utility.yul\":28286:28308   */\n      add\n        /* \"#utility.yul\":28280:28284   */\n      dup9\n        /* \"#utility.yul\":28273:28309   */\n      sstore\n        /* \"#utility.yul\":27708:28319   */\n      pop\n      pop\n      pop\n        /* \"#utility.yul\":27671:28558   */\n    tag_685:\n      pop\n        /* \"#utility.yul\":27261:28564   */\n      pop\n      pop\n      pop\n        /* \"#utility.yul\":27169:28564   */\n      pop\n      pop\n      jump\t// out\n        /* \"#utility.yul\":28570:28737   */\n    tag_298:\n        /* \"#utility.yul\":28607:28610   */\n      0x00\n        /* \"#utility.yul\":28630:28652   */\n      tag_696\n        /* \"#utility.yul\":28646:28651   */\n      dup3\n        /* \"#utility.yul\":28630:28652   */\n      tag_336\n      jump\t// in\n    tag_696:\n        /* \"#utility.yul\":28621:28652   */\n      swap2\n      pop\n        /* \"#utility.yul\":28674:28678   */\n      0xff\n        /* \"#utility.yul\":28667:28672   */\n      dup3\n        /* \"#utility.yul\":28664:28679   */\n      sub\n        /* \"#utility.yul\":28661:28702   */\n      tag_697\n      jumpi\n        /* \"#utility.yul\":28682:28700   */\n      tag_698\n      tag_366\n      jump\t// in\n    tag_698:\n        /* \"#utility.yul\":28661:28702   */\n    tag_697:\n        /* \"#utility.yul\":28729:28730   */\n      0x01\n        /* \"#utility.yul\":28722:28727   */\n      dup3\n        /* \"#utility.yul\":28718:28731   */\n      add\n        /* \"#utility.yul\":28711:28731   */\n      swap1\n      pop\n        /* \"#utility.yul\":28570:28737   */\n      swap2\n      swap1\n      pop\n      jump\t// out\n        /* \"#utility.yul\":28743:28934   */\n    tag_309:\n        /* \"#utility.yul\":28783:28786   */\n      0x00\n        /* \"#utility.yul\":28802:28822   */\n      tag_700\n        /* \"#utility.yul\":28820:28821   */\n      dup3\n        /* \"#utility.yul\":28802:28822   */\n      tag_328\n      jump\t// in\n    tag_700:\n        /* \"#utility.yul\":28797:28822   */\n      swap2\n      pop\n        /* \"#utility.yul\":28836:28856   */\n      tag_701\n        /* \"#utility.yul\":28854:28855   */\n      dup4\n        /* \"#utility.yul\":28836:28856   */\n      tag_328\n      jump\t// in\n    tag_701:\n        /* \"#utility.yul\":28831:28856   */\n      swap3\n      pop\n        /* \"#utility.yul\":28879:28880   */\n      dup3\n        /* \"#utility.yul\":28876:28877   */\n      dup3\n        /* \"#utility.yul\":28872:28881   */\n      add\n        /* \"#utility.yul\":28865:28881   */\n      swap1\n      pop\n        /* \"#utility.yul\":28900:28903   */\n      dup1\n        /* \"#utility.yul\":28897:28898   */\n      dup3\n        /* \"#utility.yul\":28894:28904   */\n      gt\n        /* \"#utility.yul\":28891:28927   */\n      iszero\n      tag_702\n      jumpi\n        /* \"#utility.yul\":28907:28925   */\n      tag_703\n      tag_366\n      jump\t// in\n    tag_703:\n        /* \"#utility.yul\":28891:28927   */\n    tag_702:\n        /* \"#utility.yul\":28743:28934   */\n      swap3\n      swap2\n      pop\n      pop\n      jump\t// out\n\n    auxdata: 0xa2646970667358221220875994130a6625aee2e303869d3548a2c8d70075d41367daad7272bff048ce0e64736f6c634300081a0033\n}\n",
				"bytecode": {
					"linkReferences": {},
					"object": "608060405234801561000f575f80fd5b506040516134fb3803806134fb83398181016040528101906100319190610911565b816040518060400160405280600581526020017f446567656e0000000000000000000000000000000000000000000000000000008152506040518060400160405280600381526020017f44474e000000000000000000000000000000000000000000000000000000000081525081600390816100ad9190610b80565b5080600490816100bd9190610b80565b5050505f73ffffffffffffffffffffffffffffffffffffffff168173ffffffffffffffffffffffffffffffffffffffff1603610130575f6040517f1e4fbdf70000000000000000000000000000000000000000000000000000000081526004016101279190610c5e565b60405180910390fd5b61013f8161017460201b60201c565b5061014f8261023760201b60201c565b61015f82826102c760201b60201c565b61016d6102e960201b60201c565b5050610d68565b5f60055f9054906101000a900473ffffffffffffffffffffffffffffffffffffffff1690508160055f6101000a81548173ffffffffffffffffffffffffffffffffffffffff021916908373ffffffffffffffffffffffffffffffffffffffff1602179055508173ffffffffffffffffffffffffffffffffffffffff168173ffffffffffffffffffffffffffffffffffffffff167f8be0079c531659141344cd1fd0a4f28419497f9722a3daafe3b4186f6b6457e060405160405180910390a35050565b61024561044d60201b60201c565b5f73ffffffffffffffffffffffffffffffffffffffff168173ffffffffffffffffffffffffffffffffffffffff16036102b5575f6040517f1e4fbdf70000000000000000000000000000000000000000000000000000000081526004016102ac9190610c5e565b60405180910390fd5b6102c48161017460201b60201c565b50565b6102d561044d60201b60201c565b6102e582826104e660201b60201c565b5050565b61032f6040518060400160405280601081526020017f4e6f76696365204e6176696761746f7200000000000000000000000000000000815250606461056b60201b60201c565b6103766040518060400160405280600f81526020017f4d7974686963204d6176657269636b00000000000000000000000000000000008152506102bc61056b60201b60201c565b6103bd6040518060400160405280601181526020017f43656c65737469616c20437275736865720000000000000000000000000000008152506104b061056b60201b60201c565b6104046040518060400160405280600a81526020017f41737472616c204163650000000000000000000000000000000000000000000081525061089861056b60201b60201c565b61044b6040518060400160405280601081526020017f446976696e6520446f6d696e61746f720000000000000000000000000000000081525061096061056b60201b60201c565b565b61045b61063860201b60201c565b73ffffffffffffffffffffffffffffffffffffffff1661047f61063f60201b60201c565b73ffffffffffffffffffffffffffffffffffffffff16146104e4576104a861063860201b60201c565b6040517f118cdaa70000000000000000000000000000000000000000000000000000000081526004016104db9190610c5e565b60405180910390fd5b565b5f73ffffffffffffffffffffffffffffffffffffffff168273ffffffffffffffffffffffffffffffffffffffff1603610556575f6040517fec442f0500000000000000000000000000000000000000000000000000000000815260040161054d9190610c5e565b60405180910390fd5b6105675f838361066760201b60201c565b5050565b604051806060016040528083815260200160085f9054906101000a900460ff1660ff1681526020018281525060065f60085f9054906101000a900460ff1660ff1660ff1681526020019081526020015f205f820151815f0190816105cf9190610b80565b506020820151816001015f6101000a81548160ff021916908360ff1602179055506040820151816002015590505060085f81819054906101000a900460ff168092919061061b90610cb0565b91906101000a81548160ff021916908360ff160217905550505050565b5f33905090565b5f60055f9054906101000a900473ffffffffffffffffffffffffffffffffffffffff16905090565b5f73ffffffffffffffffffffffffffffffffffffffff168373ffffffffffffffffffffffffffffffffffffffff16036106b7578060025f8282546106ab9190610cd8565b92505081905550610785565b5f805f8573ffffffffffffffffffffffffffffffffffffffff1673ffffffffffffffffffffffffffffffffffffffff1681526020019081526020015f2054905081811015610740578381836040517fe450d38c00000000000000000000000000000000000000000000000000000000815260040161073793929190610d1a565b60405180910390fd5b8181035f808673ffffffffffffffffffffffffffffffffffffffff1673ffffffffffffffffffffffffffffffffffffffff1681526020019081526020015f2081905550505b5f73ffffffffffffffffffffffffffffffffffffffff168273ffffffffffffffffffffffffffffffffffffffff16036107cc578060025f8282540392505081905550610816565b805f808473ffffffffffffffffffffffffffffffffffffffff1673ffffffffffffffffffffffffffffffffffffffff1681526020019081526020015f205f82825401925050819055505b8173ffffffffffffffffffffffffffffffffffffffff168373ffffffffffffffffffffffffffffffffffffffff167fddf252ad1be2c89b69c2b068fc378daa952ba7f163c4a11628f55a4df523b3ef836040516108739190610d4f565b60405180910390a3505050565b5f80fd5b5f73ffffffffffffffffffffffffffffffffffffffff82169050919050565b5f6108ad82610884565b9050919050565b6108bd816108a3565b81146108c7575f80fd5b50565b5f815190506108d8816108b4565b92915050565b5f819050919050565b6108f0816108de565b81146108fa575f80fd5b50565b5f8151905061090b816108e7565b92915050565b5f806040838503121561092757610926610880565b5b5f610934858286016108ca565b9250506020610945858286016108fd565b9150509250929050565b5f81519050919050565b7f4e487b71000000000000000000000000000000000000000000000000000000005f52604160045260245ffd5b7f4e487b71000000000000000000000000000000000000000000000000000000005f52602260045260245ffd5b5f60028204905060018216806109ca57607f821691505b6020821081036109dd576109dc610986565b5b50919050565b5f819050815f5260205f209050919050565b5f6020601f8301049050919050565b5f82821b905092915050565b5f60088302610a3f7fffffffffffffffffffffffffffffffffffffffffffffffffffffffffffffffff82610a04565b610a498683610a04565b95508019841693508086168417925050509392505050565b5f819050919050565b5f610a84610a7f610a7a846108de565b610a61565b6108de565b9050919050565b5f819050919050565b610a9d83610a6a565b610ab1610aa982610a8b565b848454610a10565b825550505050565b5f90565b610ac5610ab9565b610ad0818484610a94565b505050565b5b81811015610af357610ae85f82610abd565b600181019050610ad6565b5050565b601f821115610b3857610b09816109e3565b610b12846109f5565b81016020851015610b21578190505b610b35610b2d856109f5565b830182610ad5565b50505b505050565b5f82821c905092915050565b5f610b585f1984600802610b3d565b1980831691505092915050565b5f610b708383610b49565b9150826002028217905092915050565b610b898261094f565b67ffffffffffffffff811115610ba257610ba1610959565b5b610bac82546109b3565b610bb7828285610af7565b5f60209050601f831160018114610be8575f8415610bd6578287015190505b610be08582610b65565b865550610c47565b601f198416610bf6866109e3565b5f5b82811015610c1d57848901518255600182019150602085019450602081019050610bf8565b86831015610c3a5784890151610c36601f891682610b49565b8355505b6001600288020188555050505b505050505050565b610c58816108a3565b82525050565b5f602082019050610c715f830184610c4f565b92915050565b7f4e487b71000000000000000000000000000000000000000000000000000000005f52601160045260245ffd5b5f60ff82169050919050565b5f610cba82610ca4565b915060ff8203610ccd57610ccc610c77565b5b600182019050919050565b5f610ce2826108de565b9150610ced836108de565b9250828201905080821115610d0557610d04610c77565b5b92915050565b610d14816108de565b82525050565b5f606082019050610d2d5f830186610c4f565b610d3a6020830185610d0b565b610d476040830184610d0b565b949350505050565b5f602082019050610d625f830184610d0b565b92915050565b61278680610d755f395ff3fe608060405234801561000f575f80fd5b5060043610610156575f3560e01c8063715018a6116100c1578063c81d76041161007a578063c81d76041461039c578063ce6019b4146103a6578063d917bd27146103d6578063dd62ed3e14610407578063e3af42e114610437578063f2fde38b1461045357610156565b8063715018a6146102ee57806379cc6790146102f85780638da5cb5b1461031457806395d89b4114610332578063a9059cbb14610350578063af3bcb7d1461038057610156565b8063313ce56711610113578063313ce5671461022e57806340c10f191461024c57806342966c68146102685780634c738909146102845780636d1b229d146102a257806370a08231146102be57610156565b806306fdde031461015a578063095ea7b31461017857806309ceb537146101a85780631072cbea146101c457806318160ddd146101e057806323b872dd146101fe575b5f80fd5b61016261046f565b60405161016f9190611899565b60405180910390f35b610192600480360381019061018d9190611957565b6104ff565b60405161019f91906119af565b60405180910390f35b6101c260048036038101906101bd91906119f2565b610521565b005b6101de60048036038101906101d99190611957565b61067f565b005b6101e86106d9565b6040516101f59190611a3f565b60405180910390f35b61021860048036038101906102139190611a58565b6106e2565b60405161022591906119af565b60405180910390f35b610236610710565b6040516102439190611ac3565b60405180910390f35b61026660048036038101906102619190611957565b610718565b005b610282600480360381019061027d9190611adc565b61072e565b005b61028c610742565b6040516102999190611a3f565b60405180910390f35b6102bc60048036038101906102b79190611adc565b610751565b005b6102d860048036038101906102d39190611b07565b6107a8565b6040516102e59190611a3f565b60405180910390f35b6102f66107ed565b005b610312600480360381019061030d9190611957565b610800565b005b61031c610820565b6040516103299190611b41565b60405180910390f35b61033a610848565b6040516103479190611899565b60405180910390f35b61036a60048036038101906103659190611957565b6108d8565b60405161037791906119af565b60405180910390f35b61039a60048036038101906103959190611b84565b6108fa565b005b6103a4610b2a565b005b6103c060048036038101906103bb9190611b07565b610b81565b6040516103cd9190611c66565b60405180910390f35b6103f060048036038101906103eb9190611b84565b610d85565b6040516103fe929190611c86565b60405180910390f35b610421600480360381019061041c9190611cb4565b610e75565b60405161042e9190611a3f565b60405180910390f35b610451600480360381019061044c9190611e1e565b610ef7565b005b61046d60048036038101906104689190611b07565b610f0d565b005b60606003805461047e90611ea5565b80601f01602080910402602001604051908101604052809291908181526020018280546104aa90611ea5565b80156104f55780601f106104cc576101008083540402835291602001916104f5565b820191905f5260205f20905b8154815290600101906020018083116104d857829003601f168201915b5050505050905090565b5f80610509610f91565b9050610516818585610f98565b600191505092915050565b8061052b336107a8565b101561056c576040517f08c379a000000000000000000000000000000000000000000000000000000000815260040161056390611f1f565b60405180910390fd5b5f600a4233604051602001610582929190611fa2565b604051602081830303815290604052805190602001205f1c6105a49190611ffa565b905060058110151583151503610620576105ca336002846105c59190612057565b610faa565b3373ffffffffffffffffffffffffffffffffffffffff167fd04d9689d8e43bc0bacea67661ef472dcf321f34f08af72f651af30c4c8665878260016040516106139291906120e2565b60405180910390a261067a565b6106298261072e565b3373ffffffffffffffffffffffffffffffffffffffff167fd04d9689d8e43bc0bacea67661ef472dcf321f34f08af72f651af30c4c866587825f604051610671929190612166565b60405180910390a25b505050565b80610689336107a8565b10156106ca576040517f08c379a00000000000000000000000000000000000000000000000000000000081526004016106c190611f1f565b60405180910390fd5b6106d5338383611029565b5050565b5f600254905090565b5f806106ec610f91565b90506106f9858285611119565b610704858585611029565b60019150509392505050565b5f6012905090565b6107206111ab565b61072a8282610faa565b5050565b61073f610739610f91565b82611232565b50565b5f61074c336107a8565b905090565b8061075b336107a8565b101561079c576040517f08c379a000000000000000000000000000000000000000000000000000000000815260040161079390611f1f565b60405180910390fd5b6107a58161072e565b50565b5f805f8373ffffffffffffffffffffffffffffffffffffffff1673ffffffffffffffffffffffffffffffffffffffff1681526020019081526020015f20549050919050565b6107f56111ab565b6107fe5f6112b1565b565b6108128261080c610f91565b83611119565b61081c8282611232565b5050565b5f60055f9054906101000a900473ffffffffffffffffffffffffffffffffffffffff16905090565b60606004805461085790611ea5565b80601f016020809104026020016040519081016040528092919081815260200182805461088390611ea5565b80156108ce5780601f106108a5576101008083540402835291602001916108ce565b820191905f5260205f20905b8154815290600101906020018083116108b157829003601f168201915b5050505050905090565b5f806108e2610f91565b90506108ef818585611029565b600191505092915050565b5f60065f8360ff1660ff1681526020019081526020015f206002015411610956576040517f08c379a000000000000000000000000000000000000000000000000000000000815260040161094d906121ea565b60405180910390fd5b60065f8260ff1660ff1681526020019081526020015f206002015461097a336107a8565b10156109bb576040517f08c379a00000000000000000000000000000000000000000000000000000000081526004016109b290611f1f565b60405180910390fd5b6109de60065f8360ff1660ff1681526020019081526020015f206002015461072e565b60075f3373ffffffffffffffffffffffffffffffffffffffff1673ffffffffffffffffffffffffffffffffffffffff1681526020019081526020015f2060065f8360ff1660ff1681526020019081526020015f20908060018154018082558091505060019003905f5260205f2090600302015f909190919091505f8201815f019081610a6a91906123ba565b50600182015f9054906101000a900460ff16816001015f6101000a81548160ff021916908360ff1602179055506002820154816002015550503373ffffffffffffffffffffffffffffffffffffffff167f8bedd141782c49139782bd92bd7a760a0bcb544ffecfd2b25f00366fae06598e8260065f8560ff1660ff1681526020019081526020015f205f0160065f8660ff1660ff1681526020019081526020015f2060020154604051610b1f93929190612520565b60405180910390a250565b5f610b34336107a8565b14610b74576040517f08c379a0000000000000000000000000000000000000000000000000000000008152600401610b6b906125a6565b60405180910390fd5b610b7f336032610faa565b565b60605f60075f8473ffffffffffffffffffffffffffffffffffffffff1673ffffffffffffffffffffffffffffffffffffffff1681526020019081526020015f20805480602002602001604051908101604052809291908181526020015f905b82821015610cc5578382905f5260205f2090600302016040518060600160405290815f82018054610c1090611ea5565b80601f0160208091040260200160405190810160405280929190818152602001828054610c3c90611ea5565b8015610c875780601f10610c5e57610100808354040283529160200191610c87565b820191905f5260205f20905b815481529060010190602001808311610c6a57829003601f168201915b50505050508152602001600182015f9054906101000a900460ff1660ff1660ff16815260200160028201548152505081526020019060010190610be0565b5050505090505f815190505f8167ffffffffffffffff811115610ceb57610cea611cfa565b5b604051908082528060200260200182016040528015610d195781602001602082028036833780820191505090505b5090505f5b82811015610d7957838181518110610d3957610d386125c4565b5b602002602001015160200151828281518110610d5857610d576125c4565b5b602002602001019060ff16908160ff16815250508080600101915050610d1e565b50809350505050919050565b60605f8060065f8560ff1660ff1681526020019081526020015f206040518060600160405290815f82018054610dba90611ea5565b80601f0160208091040260200160405190810160405280929190818152602001828054610de690611ea5565b8015610e315780601f10610e0857610100808354040283529160200191610e31565b820191905f5260205f20905b815481529060010190602001808311610e1457829003601f168201915b50505050508152602001600182015f9054906101000a900460ff1660ff1660ff1681526020016002820154815250509050805f015181604001519250925050915091565b5f60015f8473ffffffffffffffffffffffffffffffffffffffff1673ffffffffffffffffffffffffffffffffffffffff1681526020019081526020015f205f8373ffffffffffffffffffffffffffffffffffffffff1673ffffffffffffffffffffffffffffffffffffffff1681526020019081526020015f2054905092915050565b610eff6111ab565b610f098282611374565b5050565b610f156111ab565b5f73ffffffffffffffffffffffffffffffffffffffff168173ffffffffffffffffffffffffffffffffffffffff1603610f85575f6040517f1e4fbdf7000000000000000000000000000000000000000000000000000000008152600401610f7c9190611b41565b60405180910390fd5b610f8e816112b1565b50565b5f33905090565b610fa58383836001611441565b505050565b5f73ffffffffffffffffffffffffffffffffffffffff168273ffffffffffffffffffffffffffffffffffffffff160361101a575f6040517fec442f050000000000000000000000000000000000000000000000000000000081526004016110119190611b41565b60405180910390fd5b6110255f8383611610565b5050565b5f73ffffffffffffffffffffffffffffffffffffffff168373ffffffffffffffffffffffffffffffffffffffff1603611099575f6040517f96c6fd1e0000000000000000000000000000000000000000000000000000000081526004016110909190611b41565b60405180910390fd5b5f73ffffffffffffffffffffffffffffffffffffffff168273ffffffffffffffffffffffffffffffffffffffff1603611109575f6040517fec442f050000000000000000000000000000000000000000000000000000000081526004016111009190611b41565b60405180910390fd5b611114838383611610565b505050565b5f6111248484610e75565b90507fffffffffffffffffffffffffffffffffffffffffffffffffffffffffffffffff81146111a55781811015611196578281836040517ffb8f41b200000000000000000000000000000000000000000000000000000000815260040161118d939291906125f1565b60405180910390fd5b6111a484848484035f611441565b5b50505050565b6111b3610f91565b73ffffffffffffffffffffffffffffffffffffffff166111d1610820565b73ffffffffffffffffffffffffffffffffffffffff1614611230576111f4610f91565b6040517f118cdaa70000000000000000000000000000000000000000000000000000000081526004016112279190611b41565b60405180910390fd5b565b5f73ffffffffffffffffffffffffffffffffffffffff168273ffffffffffffffffffffffffffffffffffffffff16036112a2575f6040517f96c6fd1e0000000000000000000000000000000000000000000000000000000081526004016112999190611b41565b60405180910390fd5b6112ad825f83611610565b5050565b5f60055f9054906101000a900473ffffffffffffffffffffffffffffffffffffffff1690508160055f6101000a81548173ffffffffffffffffffffffffffffffffffffffff021916908373ffffffffffffffffffffffffffffffffffffffff1602179055508173ffffffffffffffffffffffffffffffffffffffff168173ffffffffffffffffffffffffffffffffffffffff167f8be0079c531659141344cd1fd0a4f28419497f9722a3daafe3b4186f6b6457e060405160405180910390a35050565b604051806060016040528083815260200160085f9054906101000a900460ff1660ff1681526020018281525060065f60085f9054906101000a900460ff1660ff1660ff1681526020019081526020015f205f820151815f0190816113d89190612626565b506020820151816001015f6101000a81548160ff021916908360ff1602179055506040820151816002015590505060085f81819054906101000a900460ff1680929190611424906126f5565b91906101000a81548160ff021916908360ff160217905550505050565b5f73ffffffffffffffffffffffffffffffffffffffff168473ffffffffffffffffffffffffffffffffffffffff16036114b1575f6040517fe602df050000000000000000000000000000000000000000000000000000000081526004016114a89190611b41565b60405180910390fd5b5f73ffffffffffffffffffffffffffffffffffffffff168373ffffffffffffffffffffffffffffffffffffffff1603611521575f6040517f94280d620000000000000000000000000000000000000000000000000000000081526004016115189190611b41565b60405180910390fd5b8160015f8673ffffffffffffffffffffffffffffffffffffffff1673ffffffffffffffffffffffffffffffffffffffff1681526020019081526020015f205f8573ffffffffffffffffffffffffffffffffffffffff1673ffffffffffffffffffffffffffffffffffffffff1681526020019081526020015f2081905550801561160a578273ffffffffffffffffffffffffffffffffffffffff168473ffffffffffffffffffffffffffffffffffffffff167f8c5be1e5ebec7d5bd14f71427d1e84f3dd0314c0f7b2291e5b200ac8c7c3b925846040516116019190611a3f565b60405180910390a35b50505050565b5f73ffffffffffffffffffffffffffffffffffffffff168373ffffffffffffffffffffffffffffffffffffffff1603611660578060025f828254611654919061271d565b9250508190555061172e565b5f805f8573ffffffffffffffffffffffffffffffffffffffff1673ffffffffffffffffffffffffffffffffffffffff1681526020019081526020015f20549050818110156116e9578381836040517fe450d38c0000000000000000000000000000000000000000000000000000000081526004016116e0939291906125f1565b60405180910390fd5b8181035f808673ffffffffffffffffffffffffffffffffffffffff1673ffffffffffffffffffffffffffffffffffffffff1681526020019081526020015f2081905550505b5f73ffffffffffffffffffffffffffffffffffffffff168273ffffffffffffffffffffffffffffffffffffffff1603611775578060025f82825403925050819055506117bf565b805f808473ffffffffffffffffffffffffffffffffffffffff1673ffffffffffffffffffffffffffffffffffffffff1681526020019081526020015f205f82825401925050819055505b8173ffffffffffffffffffffffffffffffffffffffff168373ffffffffffffffffffffffffffffffffffffffff167fddf252ad1be2c89b69c2b068fc378daa952ba7f163c4a11628f55a4df523b3ef8360405161181c9190611a3f565b60405180910390a3505050565b5f81519050919050565b5f82825260208201905092915050565b8281835e5f83830152505050565b5f601f19601f8301169050919050565b5f61186b82611829565b6118758185611833565b9350611885818560208601611843565b61188e81611851565b840191505092915050565b5f6020820190508181035f8301526118b18184611861565b905092915050565b5f604051905090565b5f80fd5b5f80fd5b5f73ffffffffffffffffffffffffffffffffffffffff82169050919050565b5f6118f3826118ca565b9050919050565b611903816118e9565b811461190d575f80fd5b50565b5f8135905061191e816118fa565b92915050565b5f819050919050565b61193681611924565b8114611940575f80fd5b50565b5f813590506119518161192d565b92915050565b5f806040838503121561196d5761196c6118c2565b5b5f61197a85828601611910565b925050602061198b85828601611943565b9150509250929050565b5f8115159050919050565b6119a981611995565b82525050565b5f6020820190506119c25f8301846119a0565b92915050565b6119d181611995565b81146119db575f80fd5b50565b5f813590506119ec816119c8565b92915050565b5f8060408385031215611a0857611a076118c2565b5b5f611a15858286016119de565b9250506020611a2685828601611943565b9150509250929050565b611a3981611924565b82525050565b5f602082019050611a525f830184611a30565b92915050565b5f805f60608486031215611a6f57611a6e6118c2565b5b5f611a7c86828701611910565b9350506020611a8d86828701611910565b9250506040611a9e86828701611943565b9150509250925092565b5f60ff82169050919050565b611abd81611aa8565b82525050565b5f602082019050611ad65f830184611ab4565b92915050565b5f60208284031215611af157611af06118c2565b5b5f611afe84828501611943565b91505092915050565b5f60208284031215611b1c57611b1b6118c2565b5b5f611b2984828501611910565b91505092915050565b611b3b816118e9565b82525050565b5f602082019050611b545f830184611b32565b92915050565b611b6381611aa8565b8114611b6d575f80fd5b50565b5f81359050611b7e81611b5a565b92915050565b5f60208284031215611b9957611b986118c2565b5b5f611ba684828501611b70565b91505092915050565b5f81519050919050565b5f82825260208201905092915050565b5f819050602082019050919050565b611be181611aa8565b82525050565b5f611bf28383611bd8565b60208301905092915050565b5f602082019050919050565b5f611c1482611baf565b611c1e8185611bb9565b9350611c2983611bc9565b805f5b83811015611c59578151611c408882611be7565b9750611c4b83611bfe565b925050600181019050611c2c565b5085935050505092915050565b5f6020820190508181035f830152611c7e8184611c0a565b905092915050565b5f6040820190508181035f830152611c9e8185611861565b9050611cad6020830184611a30565b9392505050565b5f8060408385031215611cca57611cc96118c2565b5b5f611cd785828601611910565b9250506020611ce885828601611910565b9150509250929050565b5f80fd5b5f80fd5b7f4e487b71000000000000000000000000000000000000000000000000000000005f52604160045260245ffd5b611d3082611851565b810181811067ffffffffffffffff82111715611d4f57611d4e611cfa565b5b80604052505050565b5f611d616118b9565b9050611d6d8282611d27565b919050565b5f67ffffffffffffffff821115611d8c57611d8b611cfa565b5b611d9582611851565b9050602081019050919050565b828183375f83830152505050565b5f611dc2611dbd84611d72565b611d58565b905082815260208101848484011115611dde57611ddd611cf6565b5b611de9848285611da2565b509392505050565b5f82601f830112611e0557611e04611cf2565b5b8135611e15848260208601611db0565b91505092915050565b5f8060408385031215611e3457611e336118c2565b5b5f83013567ffffffffffffffff811115611e5157611e506118c6565b5b611e5d85828601611df1565b9250506020611e6e85828601611943565b9150509250929050565b7f4e487b71000000000000000000000000000000000000000000000000000000005f52602260045260245ffd5b5f6002820490506001821680611ebc57607f821691505b602082108103611ecf57611ece611e78565b5b50919050565b7f496e73756666696369656e742062616c616e63650000000000000000000000005f82015250565b5f611f09601483611833565b9150611f1482611ed5565b602082019050919050565b5f6020820190508181035f830152611f3681611efd565b9050919050565b5f819050919050565b611f57611f5282611924565b611f3d565b82525050565b5f8160601b9050919050565b5f611f7382611f5d565b9050919050565b5f611f8482611f69565b9050919050565b611f9c611f97826118e9565b611f7a565b82525050565b5f611fad8285611f46565b602082019150611fbd8284611f8b565b6014820191508190509392505050565b7f4e487b71000000000000000000000000000000000000000000000000000000005f52601260045260245ffd5b5f61200482611924565b915061200f83611924565b92508261201f5761201e611fcd565b5b828206905092915050565b7f4e487b71000000000000000000000000000000000000000000000000000000005f52601160045260245ffd5b5f61206182611924565b915061206c83611924565b925082820261207a81611924565b915082820484148315176120915761209061202a565b5b5092915050565b7f596f7520776f6e210000000000000000000000000000000000000000000000005f82015250565b5f6120cc600883611833565b91506120d782612098565b602082019050919050565b5f6060820190506120f55f830185611a30565b61210260208301846119a0565b8181036040830152612113816120c0565b90509392505050565b7f596f75206c6f73742100000000000000000000000000000000000000000000005f82015250565b5f612150600983611833565b915061215b8261211c565b602082019050919050565b5f6060820190506121795f830185611a30565b61218660208301846119a0565b818103604083015261219781612144565b90509392505050565b7f4974656d206e6f7420666f756e640000000000000000000000000000000000005f82015250565b5f6121d4600e83611833565b91506121df826121a0565b602082019050919050565b5f6020820190508181035f830152612201816121c8565b9050919050565b5f8154905061221681611ea5565b9050919050565b5f819050815f5260205f209050919050565b5f6020601f8301049050919050565b5f82821b905092915050565b5f600883026122797fffffffffffffffffffffffffffffffffffffffffffffffffffffffffffffffff8261223e565b612283868361223e565b95508019841693508086168417925050509392505050565b5f819050919050565b5f6122be6122b96122b484611924565b61229b565b611924565b9050919050565b5f819050919050565b6122d7836122a4565b6122eb6122e3826122c5565b84845461224a565b825550505050565b5f90565b6122ff6122f3565b61230a8184846122ce565b505050565b5b8181101561232d576123225f826122f7565b600181019050612310565b5050565b601f821115612372576123438161221d565b61234c8461222f565b8101602085101561235b578190505b61236f6123678561222f565b83018261230f565b50505b505050565b5f82821c905092915050565b5f6123925f1984600802612377565b1980831691505092915050565b5f6123aa8383612383565b9150826002028217905092915050565b8181036123c857505061249d565b6123d182612208565b67ffffffffffffffff8111156123ea576123e9611cfa565b5b6123f48254611ea5565b6123ff828285612331565b5f601f83116001811461242c575f841561241a578287015490505b612424858261239f565b865550612496565b601f19841661243a8761221d565b96506124458661221d565b5f5b8281101561246c57848901548255600182019150600185019450602081019050612447565b868310156124895784890154612485601f891682612383565b8355505b6001600288020188555050505b5050505050505b565b5f81546124ab81611ea5565b6124b58186611833565b9450600182165f81146124cf57600181146124e557612517565b60ff198316865281151560200286019350612517565b6124ee8561221d565b5f5b8381101561250f578154818901526001820191506020810190506124f0565b808801955050505b50505092915050565b5f6060820190506125335f830186611ab4565b8181036020830152612545818561249f565b90506125546040830184611a30565b949350505050565b7f426f6e757320616c726561647920636c61696d656400000000000000000000005f82015250565b5f612590601583611833565b915061259b8261255c565b602082019050919050565b5f6020820190508181035f8301526125bd81612584565b9050919050565b7f4e487b71000000000000000000000000000000000000000000000000000000005f52603260045260245ffd5b5f6060820190506126045f830186611b32565b6126116020830185611a30565b61261e6040830184611a30565b949350505050565b61262f82611829565b67ffffffffffffffff81111561264857612647611cfa565b5b6126528254611ea5565b61265d828285612331565b5f60209050601f83116001811461268e575f841561267c578287015190505b612686858261239f565b8655506126ed565b601f19841661269c8661221d565b5f5b828110156126c35784890151825560018201915060208501945060208101905061269e565b868310156126e057848901516126dc601f891682612383565b8355505b6001600288020188555050505b505050505050565b5f6126ff82611aa8565b915060ff82036127125761271161202a565b5b600182019050919050565b5f61272782611924565b915061273283611924565b925082820190508082111561274a5761274961202a565b5b9291505056fea2646970667358221220875994130a6625aee2e303869d3548a2c8d70075d41367daad7272bff048ce0e64736f6c634300081a0033",
					"opcodes": "PUSH1 0x80 PUSH1 0x40 MSTORE CALLVALUE DUP1 ISZERO PUSH2 0xF JUMPI PUSH0 DUP1 REVERT JUMPDEST POP PUSH1 0x40 MLOAD PUSH2 0x34FB CODESIZE SUB DUP1 PUSH2 0x34FB DUP4 CODECOPY DUP2 DUP2 ADD PUSH1 0x40 MSTORE DUP2 ADD SWAP1 PUSH2 0x31 SWAP2 SWAP1 PUSH2 0x911 JUMP JUMPDEST DUP2 PUSH1 0x40 MLOAD DUP1 PUSH1 0x40 ADD PUSH1 0x40 MSTORE DUP1 PUSH1 0x5 DUP2 MSTORE PUSH1 0x20 ADD PUSH32 0x446567656E000000000000000000000000000000000000000000000000000000 DUP2 MSTORE POP PUSH1 0x40 MLOAD DUP1 PUSH1 0x40 ADD PUSH1 0x40 MSTORE DUP1 PUSH1 0x3 DUP2 MSTORE PUSH1 0x20 ADD PUSH32 0x44474E0000000000000000000000000000000000000000000000000000000000 DUP2 MSTORE POP DUP2 PUSH1 0x3 SWAP1 DUP2 PUSH2 0xAD SWAP2 SWAP1 PUSH2 0xB80 JUMP JUMPDEST POP DUP1 PUSH1 0x4 SWAP1 DUP2 PUSH2 0xBD SWAP2 SWAP1 PUSH2 0xB80 JUMP JUMPDEST POP POP POP PUSH0 PUSH20 0xFFFFFFFFFFFFFFFFFFFFFFFFFFFFFFFFFFFFFFFF AND DUP2 PUSH20 0xFFFFFFFFFFFFFFFFFFFFFFFFFFFFFFFFFFFFFFFF AND SUB PUSH2 0x130 JUMPI PUSH0 PUSH1 0x40 MLOAD PUSH32 0x1E4FBDF700000000000000000000000000000000000000000000000000000000 DUP2 MSTORE PUSH1 0x4 ADD PUSH2 0x127 SWAP2 SWAP1 PUSH2 0xC5E JUMP JUMPDEST PUSH1 0x40 MLOAD DUP1 SWAP2 SUB SWAP1 REVERT JUMPDEST PUSH2 0x13F DUP2 PUSH2 0x174 PUSH1 0x20 SHL PUSH1 0x20 SHR JUMP JUMPDEST POP PUSH2 0x14F DUP3 PUSH2 0x237 PUSH1 0x20 SHL PUSH1 0x20 SHR JUMP JUMPDEST PUSH2 0x15F DUP3 DUP3 PUSH2 0x2C7 PUSH1 0x20 SHL PUSH1 0x20 SHR JUMP JUMPDEST PUSH2 0x16D PUSH2 0x2E9 PUSH1 0x20 SHL PUSH1 0x20 SHR JUMP JUMPDEST POP POP PUSH2 0xD68 JUMP JUMPDEST PUSH0 PUSH1 0x5 PUSH0 SWAP1 SLOAD SWAP1 PUSH2 0x100 EXP SWAP1 DIV PUSH20 0xFFFFFFFFFFFFFFFFFFFFFFFFFFFFFFFFFFFFFFFF AND SWAP1 POP DUP2 PUSH1 0x5 PUSH0 PUSH2 0x100 EXP DUP2 SLOAD DUP2 PUSH20 0xFFFFFFFFFFFFFFFFFFFFFFFFFFFFFFFFFFFFFFFF MUL NOT AND SWAP1 DUP4 PUSH20 0xFFFFFFFFFFFFFFFFFFFFFFFFFFFFFFFFFFFFFFFF AND MUL OR SWAP1 SSTORE POP DUP2 PUSH20 0xFFFFFFFFFFFFFFFFFFFFFFFFFFFFFFFFFFFFFFFF AND DUP2 PUSH20 0xFFFFFFFFFFFFFFFFFFFFFFFFFFFFFFFFFFFFFFFF AND PUSH32 0x8BE0079C531659141344CD1FD0A4F28419497F9722A3DAAFE3B4186F6B6457E0 PUSH1 0x40 MLOAD PUSH1 0x40 MLOAD DUP1 SWAP2 SUB SWAP1 LOG3 POP POP JUMP JUMPDEST PUSH2 0x245 PUSH2 0x44D PUSH1 0x20 SHL PUSH1 0x20 SHR JUMP JUMPDEST PUSH0 PUSH20 0xFFFFFFFFFFFFFFFFFFFFFFFFFFFFFFFFFFFFFFFF AND DUP2 PUSH20 0xFFFFFFFFFFFFFFFFFFFFFFFFFFFFFFFFFFFFFFFF AND SUB PUSH2 0x2B5 JUMPI PUSH0 PUSH1 0x40 MLOAD PUSH32 0x1E4FBDF700000000000000000000000000000000000000000000000000000000 DUP2 MSTORE PUSH1 0x4 ADD PUSH2 0x2AC SWAP2 SWAP1 PUSH2 0xC5E JUMP JUMPDEST PUSH1 0x40 MLOAD DUP1 SWAP2 SUB SWAP1 REVERT JUMPDEST PUSH2 0x2C4 DUP2 PUSH2 0x174 PUSH1 0x20 SHL PUSH1 0x20 SHR JUMP JUMPDEST POP JUMP JUMPDEST PUSH2 0x2D5 PUSH2 0x44D PUSH1 0x20 SHL PUSH1 0x20 SHR JUMP JUMPDEST PUSH2 0x2E5 DUP3 DUP3 PUSH2 0x4E6 PUSH1 0x20 SHL PUSH1 0x20 SHR JUMP JUMPDEST POP POP JUMP JUMPDEST PUSH2 0x32F PUSH1 0x40 MLOAD DUP1 PUSH1 0x40 ADD PUSH1 0x40 MSTORE DUP1 PUSH1 0x10 DUP2 MSTORE PUSH1 0x20 ADD PUSH32 0x4E6F76696365204E6176696761746F7200000000000000000000000000000000 DUP2 MSTORE POP PUSH1 0x64 PUSH2 0x56B PUSH1 0x20 SHL PUSH1 0x20 SHR JUMP JUMPDEST PUSH2 0x376 PUSH1 0x40 MLOAD DUP1 PUSH1 0x40 ADD PUSH1 0x40 MSTORE DUP1 PUSH1 0xF DUP2 MSTORE PUSH1 0x20 ADD PUSH32 0x4D7974686963204D6176657269636B0000000000000000000000000000000000 DUP2 MSTORE POP PUSH2 0x2BC PUSH2 0x56B PUSH1 0x20 SHL PUSH1 0x20 SHR JUMP JUMPDEST PUSH2 0x3BD PUSH1 0x40 MLOAD DUP1 PUSH1 0x40 ADD PUSH1 0x40 MSTORE DUP1 PUSH1 0x11 DUP2 MSTORE PUSH1 0x20 ADD PUSH32 0x43656C65737469616C2043727573686572000000000000000000000000000000 DUP2 MSTORE POP PUSH2 0x4B0 PUSH2 0x56B PUSH1 0x20 SHL PUSH1 0x20 SHR JUMP JUMPDEST PUSH2 0x404 PUSH1 0x40 MLOAD DUP1 PUSH1 0x40 ADD PUSH1 0x40 MSTORE DUP1 PUSH1 0xA DUP2 MSTORE PUSH1 0x20 ADD PUSH32 0x41737472616C2041636500000000000000000000000000000000000000000000 DUP2 MSTORE POP PUSH2 0x898 PUSH2 0x56B PUSH1 0x20 SHL PUSH1 0x20 SHR JUMP JUMPDEST PUSH2 0x44B PUSH1 0x40 MLOAD DUP1 PUSH1 0x40 ADD PUSH1 0x40 MSTORE DUP1 PUSH1 0x10 DUP2 MSTORE PUSH1 0x20 ADD PUSH32 0x446976696E6520446F6D696E61746F7200000000000000000000000000000000 DUP2 MSTORE POP PUSH2 0x960 PUSH2 0x56B PUSH1 0x20 SHL PUSH1 0x20 SHR JUMP JUMPDEST JUMP JUMPDEST PUSH2 0x45B PUSH2 0x638 PUSH1 0x20 SHL PUSH1 0x20 SHR JUMP JUMPDEST PUSH20 0xFFFFFFFFFFFFFFFFFFFFFFFFFFFFFFFFFFFFFFFF AND PUSH2 0x47F PUSH2 0x63F PUSH1 0x20 SHL PUSH1 0x20 SHR JUMP JUMPDEST PUSH20 0xFFFFFFFFFFFFFFFFFFFFFFFFFFFFFFFFFFFFFFFF AND EQ PUSH2 0x4E4 JUMPI PUSH2 0x4A8 PUSH2 0x638 PUSH1 0x20 SHL PUSH1 0x20 SHR JUMP JUMPDEST PUSH1 0x40 MLOAD PUSH32 0x118CDAA700000000000000000000000000000000000000000000000000000000 DUP2 MSTORE PUSH1 0x4 ADD PUSH2 0x4DB SWAP2 SWAP1 PUSH2 0xC5E JUMP JUMPDEST PUSH1 0x40 MLOAD DUP1 SWAP2 SUB SWAP1 REVERT JUMPDEST JUMP JUMPDEST PUSH0 PUSH20 0xFFFFFFFFFFFFFFFFFFFFFFFFFFFFFFFFFFFFFFFF AND DUP3 PUSH20 0xFFFFFFFFFFFFFFFFFFFFFFFFFFFFFFFFFFFFFFFF AND SUB PUSH2 0x556 JUMPI PUSH0 PUSH1 0x40 MLOAD PUSH32 0xEC442F0500000000000000000000000000000000000000000000000000000000 DUP2 MSTORE PUSH1 0x4 ADD PUSH2 0x54D SWAP2 SWAP1 PUSH2 0xC5E JUMP JUMPDEST PUSH1 0x40 MLOAD DUP1 SWAP2 SUB SWAP1 REVERT JUMPDEST PUSH2 0x567 PUSH0 DUP4 DUP4 PUSH2 0x667 PUSH1 0x20 SHL PUSH1 0x20 SHR JUMP JUMPDEST POP POP JUMP JUMPDEST PUSH1 0x40 MLOAD DUP1 PUSH1 0x60 ADD PUSH1 0x40 MSTORE DUP1 DUP4 DUP2 MSTORE PUSH1 0x20 ADD PUSH1 0x8 PUSH0 SWAP1 SLOAD SWAP1 PUSH2 0x100 EXP SWAP1 DIV PUSH1 0xFF AND PUSH1 0xFF AND DUP2 MSTORE PUSH1 0x20 ADD DUP3 DUP2 MSTORE POP PUSH1 0x6 PUSH0 PUSH1 0x8 PUSH0 SWAP1 SLOAD SWAP1 PUSH2 0x100 EXP SWAP1 DIV PUSH1 0xFF AND PUSH1 0xFF AND PUSH1 0xFF AND DUP2 MSTORE PUSH1 0x20 ADD SWAP1 DUP2 MSTORE PUSH1 0x20 ADD PUSH0 KECCAK256 PUSH0 DUP3 ADD MLOAD DUP2 PUSH0 ADD SWAP1 DUP2 PUSH2 0x5CF SWAP2 SWAP1 PUSH2 0xB80 JUMP JUMPDEST POP PUSH1 0x20 DUP3 ADD MLOAD DUP2 PUSH1 0x1 ADD PUSH0 PUSH2 0x100 EXP DUP2 SLOAD DUP2 PUSH1 0xFF MUL NOT AND SWAP1 DUP4 PUSH1 0xFF AND MUL OR SWAP1 SSTORE POP PUSH1 0x40 DUP3 ADD MLOAD DUP2 PUSH1 0x2 ADD SSTORE SWAP1 POP POP PUSH1 0x8 PUSH0 DUP2 DUP2 SWAP1 SLOAD SWAP1 PUSH2 0x100 EXP SWAP1 DIV PUSH1 0xFF AND DUP1 SWAP3 SWAP2 SWAP1 PUSH2 0x61B SWAP1 PUSH2 0xCB0 JUMP JUMPDEST SWAP2 SWAP1 PUSH2 0x100 EXP DUP2 SLOAD DUP2 PUSH1 0xFF MUL NOT AND SWAP1 DUP4 PUSH1 0xFF AND MUL OR SWAP1 SSTORE POP POP POP POP JUMP JUMPDEST PUSH0 CALLER SWAP1 POP SWAP1 JUMP JUMPDEST PUSH0 PUSH1 0x5 PUSH0 SWAP1 SLOAD SWAP1 PUSH2 0x100 EXP SWAP1 DIV PUSH20 0xFFFFFFFFFFFFFFFFFFFFFFFFFFFFFFFFFFFFFFFF AND SWAP1 POP SWAP1 JUMP JUMPDEST PUSH0 PUSH20 0xFFFFFFFFFFFFFFFFFFFFFFFFFFFFFFFFFFFFFFFF AND DUP4 PUSH20 0xFFFFFFFFFFFFFFFFFFFFFFFFFFFFFFFFFFFFFFFF AND SUB PUSH2 0x6B7 JUMPI DUP1 PUSH1 0x2 PUSH0 DUP3 DUP3 SLOAD PUSH2 0x6AB SWAP2 SWAP1 PUSH2 0xCD8 JUMP JUMPDEST SWAP3 POP POP DUP2 SWAP1 SSTORE POP PUSH2 0x785 JUMP JUMPDEST PUSH0 DUP1 PUSH0 DUP6 PUSH20 0xFFFFFFFFFFFFFFFFFFFFFFFFFFFFFFFFFFFFFFFF AND PUSH20 0xFFFFFFFFFFFFFFFFFFFFFFFFFFFFFFFFFFFFFFFF AND DUP2 MSTORE PUSH1 0x20 ADD SWAP1 DUP2 MSTORE PUSH1 0x20 ADD PUSH0 KECCAK256 SLOAD SWAP1 POP DUP2 DUP2 LT ISZERO PUSH2 0x740 JUMPI DUP4 DUP2 DUP4 PUSH1 0x40 MLOAD PUSH32 0xE450D38C00000000000000000000000000000000000000000000000000000000 DUP2 MSTORE PUSH1 0x4 ADD PUSH2 0x737 SWAP4 SWAP3 SWAP2 SWAP1 PUSH2 0xD1A JUMP JUMPDEST PUSH1 0x40 MLOAD DUP1 SWAP2 SUB SWAP1 REVERT JUMPDEST DUP2 DUP2 SUB PUSH0 DUP1 DUP7 PUSH20 0xFFFFFFFFFFFFFFFFFFFFFFFFFFFFFFFFFFFFFFFF AND PUSH20 0xFFFFFFFFFFFFFFFFFFFFFFFFFFFFFFFFFFFFFFFF AND DUP2 MSTORE PUSH1 0x20 ADD SWAP1 DUP2 MSTORE PUSH1 0x20 ADD PUSH0 KECCAK256 DUP2 SWAP1 SSTORE POP POP JUMPDEST PUSH0 PUSH20 0xFFFFFFFFFFFFFFFFFFFFFFFFFFFFFFFFFFFFFFFF AND DUP3 PUSH20 0xFFFFFFFFFFFFFFFFFFFFFFFFFFFFFFFFFFFFFFFF AND SUB PUSH2 0x7CC JUMPI DUP1 PUSH1 0x2 PUSH0 DUP3 DUP3 SLOAD SUB SWAP3 POP POP DUP2 SWAP1 SSTORE POP PUSH2 0x816 JUMP JUMPDEST DUP1 PUSH0 DUP1 DUP5 PUSH20 0xFFFFFFFFFFFFFFFFFFFFFFFFFFFFFFFFFFFFFFFF AND PUSH20 0xFFFFFFFFFFFFFFFFFFFFFFFFFFFFFFFFFFFFFFFF AND DUP2 MSTORE PUSH1 0x20 ADD SWAP1 DUP2 MSTORE PUSH1 0x20 ADD PUSH0 KECCAK256 PUSH0 DUP3 DUP3 SLOAD ADD SWAP3 POP POP DUP2 SWAP1 SSTORE POP JUMPDEST DUP2 PUSH20 0xFFFFFFFFFFFFFFFFFFFFFFFFFFFFFFFFFFFFFFFF AND DUP4 PUSH20 0xFFFFFFFFFFFFFFFFFFFFFFFFFFFFFFFFFFFFFFFF AND PUSH32 0xDDF252AD1BE2C89B69C2B068FC378DAA952BA7F163C4A11628F55A4DF523B3EF DUP4 PUSH1 0x40 MLOAD PUSH2 0x873 SWAP2 SWAP1 PUSH2 0xD4F JUMP JUMPDEST PUSH1 0x40 MLOAD DUP1 SWAP2 SUB SWAP1 LOG3 POP POP POP JUMP JUMPDEST PUSH0 DUP1 REVERT JUMPDEST PUSH0 PUSH20 0xFFFFFFFFFFFFFFFFFFFFFFFFFFFFFFFFFFFFFFFF DUP3 AND SWAP1 POP SWAP2 SWAP1 POP JUMP JUMPDEST PUSH0 PUSH2 0x8AD DUP3 PUSH2 0x884 JUMP JUMPDEST SWAP1 POP SWAP2 SWAP1 POP JUMP JUMPDEST PUSH2 0x8BD DUP2 PUSH2 0x8A3 JUMP JUMPDEST DUP2 EQ PUSH2 0x8C7 JUMPI PUSH0 DUP1 REVERT JUMPDEST POP JUMP JUMPDEST PUSH0 DUP2 MLOAD SWAP1 POP PUSH2 0x8D8 DUP2 PUSH2 0x8B4 JUMP JUMPDEST SWAP3 SWAP2 POP POP JUMP JUMPDEST PUSH0 DUP2 SWAP1 POP SWAP2 SWAP1 POP JUMP JUMPDEST PUSH2 0x8F0 DUP2 PUSH2 0x8DE JUMP JUMPDEST DUP2 EQ PUSH2 0x8FA JUMPI PUSH0 DUP1 REVERT JUMPDEST POP JUMP JUMPDEST PUSH0 DUP2 MLOAD SWAP1 POP PUSH2 0x90B DUP2 PUSH2 0x8E7 JUMP JUMPDEST SWAP3 SWAP2 POP POP JUMP JUMPDEST PUSH0 DUP1 PUSH1 0x40 DUP4 DUP6 SUB SLT ISZERO PUSH2 0x927 JUMPI PUSH2 0x926 PUSH2 0x880 JUMP JUMPDEST JUMPDEST PUSH0 PUSH2 0x934 DUP6 DUP3 DUP7 ADD PUSH2 0x8CA JUMP JUMPDEST SWAP3 POP POP PUSH1 0x20 PUSH2 0x945 DUP6 DUP3 DUP7 ADD PUSH2 0x8FD JUMP JUMPDEST SWAP2 POP POP SWAP3 POP SWAP3 SWAP1 POP JUMP JUMPDEST PUSH0 DUP2 MLOAD SWAP1 POP SWAP2 SWAP1 POP JUMP JUMPDEST PUSH32 0x4E487B7100000000000000000000000000000000000000000000000000000000 PUSH0 MSTORE PUSH1 0x41 PUSH1 0x4 MSTORE PUSH1 0x24 PUSH0 REVERT JUMPDEST PUSH32 0x4E487B7100000000000000000000000000000000000000000000000000000000 PUSH0 MSTORE PUSH1 0x22 PUSH1 0x4 MSTORE PUSH1 0x24 PUSH0 REVERT JUMPDEST PUSH0 PUSH1 0x2 DUP3 DIV SWAP1 POP PUSH1 0x1 DUP3 AND DUP1 PUSH2 0x9CA JUMPI PUSH1 0x7F DUP3 AND SWAP2 POP JUMPDEST PUSH1 0x20 DUP3 LT DUP2 SUB PUSH2 0x9DD JUMPI PUSH2 0x9DC PUSH2 0x986 JUMP JUMPDEST JUMPDEST POP SWAP2 SWAP1 POP JUMP JUMPDEST PUSH0 DUP2 SWAP1 POP DUP2 PUSH0 MSTORE PUSH1 0x20 PUSH0 KECCAK256 SWAP1 POP SWAP2 SWAP1 POP JUMP JUMPDEST PUSH0 PUSH1 0x20 PUSH1 0x1F DUP4 ADD DIV SWAP1 POP SWAP2 SWAP1 POP JUMP JUMPDEST PUSH0 DUP3 DUP3 SHL SWAP1 POP SWAP3 SWAP2 POP POP JUMP JUMPDEST PUSH0 PUSH1 0x8 DUP4 MUL PUSH2 0xA3F PUSH32 0xFFFFFFFFFFFFFFFFFFFFFFFFFFFFFFFFFFFFFFFFFFFFFFFFFFFFFFFFFFFFFFFF DUP3 PUSH2 0xA04 JUMP JUMPDEST PUSH2 0xA49 DUP7 DUP4 PUSH2 0xA04 JUMP JUMPDEST SWAP6 POP DUP1 NOT DUP5 AND SWAP4 POP DUP1 DUP7 AND DUP5 OR SWAP3 POP POP POP SWAP4 SWAP3 POP POP POP JUMP JUMPDEST PUSH0 DUP2 SWAP1 POP SWAP2 SWAP1 POP JUMP JUMPDEST PUSH0 PUSH2 0xA84 PUSH2 0xA7F PUSH2 0xA7A DUP5 PUSH2 0x8DE JUMP JUMPDEST PUSH2 0xA61 JUMP JUMPDEST PUSH2 0x8DE JUMP JUMPDEST SWAP1 POP SWAP2 SWAP1 POP JUMP JUMPDEST PUSH0 DUP2 SWAP1 POP SWAP2 SWAP1 POP JUMP JUMPDEST PUSH2 0xA9D DUP4 PUSH2 0xA6A JUMP JUMPDEST PUSH2 0xAB1 PUSH2 0xAA9 DUP3 PUSH2 0xA8B JUMP JUMPDEST DUP5 DUP5 SLOAD PUSH2 0xA10 JUMP JUMPDEST DUP3 SSTORE POP POP POP POP JUMP JUMPDEST PUSH0 SWAP1 JUMP JUMPDEST PUSH2 0xAC5 PUSH2 0xAB9 JUMP JUMPDEST PUSH2 0xAD0 DUP2 DUP5 DUP5 PUSH2 0xA94 JUMP JUMPDEST POP POP POP JUMP JUMPDEST JUMPDEST DUP2 DUP2 LT ISZERO PUSH2 0xAF3 JUMPI PUSH2 0xAE8 PUSH0 DUP3 PUSH2 0xABD JUMP JUMPDEST PUSH1 0x1 DUP2 ADD SWAP1 POP PUSH2 0xAD6 JUMP JUMPDEST POP POP JUMP JUMPDEST PUSH1 0x1F DUP3 GT ISZERO PUSH2 0xB38 JUMPI PUSH2 0xB09 DUP2 PUSH2 0x9E3 JUMP JUMPDEST PUSH2 0xB12 DUP5 PUSH2 0x9F5 JUMP JUMPDEST DUP2 ADD PUSH1 0x20 DUP6 LT ISZERO PUSH2 0xB21 JUMPI DUP2 SWAP1 POP JUMPDEST PUSH2 0xB35 PUSH2 0xB2D DUP6 PUSH2 0x9F5 JUMP JUMPDEST DUP4 ADD DUP3 PUSH2 0xAD5 JUMP JUMPDEST POP POP JUMPDEST POP POP POP JUMP JUMPDEST PUSH0 DUP3 DUP3 SHR SWAP1 POP SWAP3 SWAP2 POP POP JUMP JUMPDEST PUSH0 PUSH2 0xB58 PUSH0 NOT DUP5 PUSH1 0x8 MUL PUSH2 0xB3D JUMP JUMPDEST NOT DUP1 DUP4 AND SWAP2 POP POP SWAP3 SWAP2 POP POP JUMP JUMPDEST PUSH0 PUSH2 0xB70 DUP4 DUP4 PUSH2 0xB49 JUMP JUMPDEST SWAP2 POP DUP3 PUSH1 0x2 MUL DUP3 OR SWAP1 POP SWAP3 SWAP2 POP POP JUMP JUMPDEST PUSH2 0xB89 DUP3 PUSH2 0x94F JUMP JUMPDEST PUSH8 0xFFFFFFFFFFFFFFFF DUP2 GT ISZERO PUSH2 0xBA2 JUMPI PUSH2 0xBA1 PUSH2 0x959 JUMP JUMPDEST JUMPDEST PUSH2 0xBAC DUP3 SLOAD PUSH2 0x9B3 JUMP JUMPDEST PUSH2 0xBB7 DUP3 DUP3 DUP6 PUSH2 0xAF7 JUMP JUMPDEST PUSH0 PUSH1 0x20 SWAP1 POP PUSH1 0x1F DUP4 GT PUSH1 0x1 DUP2 EQ PUSH2 0xBE8 JUMPI PUSH0 DUP5 ISZERO PUSH2 0xBD6 JUMPI DUP3 DUP8 ADD MLOAD SWAP1 POP JUMPDEST PUSH2 0xBE0 DUP6 DUP3 PUSH2 0xB65 JUMP JUMPDEST DUP7 SSTORE POP PUSH2 0xC47 JUMP JUMPDEST PUSH1 0x1F NOT DUP5 AND PUSH2 0xBF6 DUP7 PUSH2 0x9E3 JUMP JUMPDEST PUSH0 JUMPDEST DUP3 DUP2 LT ISZERO PUSH2 0xC1D JUMPI DUP5 DUP10 ADD MLOAD DUP3 SSTORE PUSH1 0x1 DUP3 ADD SWAP2 POP PUSH1 0x20 DUP6 ADD SWAP5 POP PUSH1 0x20 DUP2 ADD SWAP1 POP PUSH2 0xBF8 JUMP JUMPDEST DUP7 DUP4 LT ISZERO PUSH2 0xC3A JUMPI DUP5 DUP10 ADD MLOAD PUSH2 0xC36 PUSH1 0x1F DUP10 AND DUP3 PUSH2 0xB49 JUMP JUMPDEST DUP4 SSTORE POP JUMPDEST PUSH1 0x1 PUSH1 0x2 DUP9 MUL ADD DUP9 SSTORE POP POP POP JUMPDEST POP POP POP POP POP POP JUMP JUMPDEST PUSH2 0xC58 DUP2 PUSH2 0x8A3 JUMP JUMPDEST DUP3 MSTORE POP POP JUMP JUMPDEST PUSH0 PUSH1 0x20 DUP3 ADD SWAP1 POP PUSH2 0xC71 PUSH0 DUP4 ADD DUP5 PUSH2 0xC4F JUMP JUMPDEST SWAP3 SWAP2 POP POP JUMP JUMPDEST PUSH32 0x4E487B7100000000000000000000000000000000000000000000000000000000 PUSH0 MSTORE PUSH1 0x11 PUSH1 0x4 MSTORE PUSH1 0x24 PUSH0 REVERT JUMPDEST PUSH0 PUSH1 0xFF DUP3 AND SWAP1 POP SWAP2 SWAP1 POP JUMP JUMPDEST PUSH0 PUSH2 0xCBA DUP3 PUSH2 0xCA4 JUMP JUMPDEST SWAP2 POP PUSH1 0xFF DUP3 SUB PUSH2 0xCCD JUMPI PUSH2 0xCCC PUSH2 0xC77 JUMP JUMPDEST JUMPDEST PUSH1 0x1 DUP3 ADD SWAP1 POP SWAP2 SWAP1 POP JUMP JUMPDEST PUSH0 PUSH2 0xCE2 DUP3 PUSH2 0x8DE JUMP JUMPDEST SWAP2 POP PUSH2 0xCED DUP4 PUSH2 0x8DE JUMP JUMPDEST SWAP3 POP DUP3 DUP3 ADD SWAP1 POP DUP1 DUP3 GT ISZERO PUSH2 0xD05 JUMPI PUSH2 0xD04 PUSH2 0xC77 JUMP JUMPDEST JUMPDEST SWAP3 SWAP2 POP POP JUMP JUMPDEST PUSH2 0xD14 DUP2 PUSH2 0x8DE JUMP JUMPDEST DUP3 MSTORE POP POP JUMP JUMPDEST PUSH0 PUSH1 0x60 DUP3 ADD SWAP1 POP PUSH2 0xD2D PUSH0 DUP4 ADD DUP7 PUSH2 0xC4F JUMP JUMPDEST PUSH2 0xD3A PUSH1 0x20 DUP4 ADD DUP6 PUSH2 0xD0B JUMP JUMPDEST PUSH2 0xD47 PUSH1 0x40 DUP4 ADD DUP5 PUSH2 0xD0B JUMP JUMPDEST SWAP5 SWAP4 POP POP POP POP JUMP JUMPDEST PUSH0 PUSH1 0x20 DUP3 ADD SWAP1 POP PUSH2 0xD62 PUSH0 DUP4 ADD DUP5 PUSH2 0xD0B JUMP JUMPDEST SWAP3 SWAP2 POP POP JUMP JUMPDEST PUSH2 0x2786 DUP1 PUSH2 0xD75 PUSH0 CODECOPY PUSH0 RETURN INVALID PUSH1 0x80 PUSH1 0x40 MSTORE CALLVALUE DUP1 ISZERO PUSH2 0xF JUMPI PUSH0 DUP1 REVERT JUMPDEST POP PUSH1 0x4 CALLDATASIZE LT PUSH2 0x156 JUMPI PUSH0 CALLDATALOAD PUSH1 0xE0 SHR DUP1 PUSH4 0x715018A6 GT PUSH2 0xC1 JUMPI DUP1 PUSH4 0xC81D7604 GT PUSH2 0x7A JUMPI DUP1 PUSH4 0xC81D7604 EQ PUSH2 0x39C JUMPI DUP1 PUSH4 0xCE6019B4 EQ PUSH2 0x3A6 JUMPI DUP1 PUSH4 0xD917BD27 EQ PUSH2 0x3D6 JUMPI DUP1 PUSH4 0xDD62ED3E EQ PUSH2 0x407 JUMPI DUP1 PUSH4 0xE3AF42E1 EQ PUSH2 0x437 JUMPI DUP1 PUSH4 0xF2FDE38B EQ PUSH2 0x453 JUMPI PUSH2 0x156 JUMP JUMPDEST DUP1 PUSH4 0x715018A6 EQ PUSH2 0x2EE JUMPI DUP1 PUSH4 0x79CC6790 EQ PUSH2 0x2F8 JUMPI DUP1 PUSH4 0x8DA5CB5B EQ PUSH2 0x314 JUMPI DUP1 PUSH4 0x95D89B41 EQ PUSH2 0x332 JUMPI DUP1 PUSH4 0xA9059CBB EQ PUSH2 0x350 JUMPI DUP1 PUSH4 0xAF3BCB7D EQ PUSH2 0x380 JUMPI PUSH2 0x156 JUMP JUMPDEST DUP1 PUSH4 0x313CE567 GT PUSH2 0x113 JUMPI DUP1 PUSH4 0x313CE567 EQ PUSH2 0x22E JUMPI DUP1 PUSH4 0x40C10F19 EQ PUSH2 0x24C JUMPI DUP1 PUSH4 0x42966C68 EQ PUSH2 0x268 JUMPI DUP1 PUSH4 0x4C738909 EQ PUSH2 0x284 JUMPI DUP1 PUSH4 0x6D1B229D EQ PUSH2 0x2A2 JUMPI DUP1 PUSH4 0x70A08231 EQ PUSH2 0x2BE JUMPI PUSH2 0x156 JUMP JUMPDEST DUP1 PUSH4 0x6FDDE03 EQ PUSH2 0x15A JUMPI DUP1 PUSH4 0x95EA7B3 EQ PUSH2 0x178 JUMPI DUP1 PUSH4 0x9CEB537 EQ PUSH2 0x1A8 JUMPI DUP1 PUSH4 0x1072CBEA EQ PUSH2 0x1C4 JUMPI DUP1 PUSH4 0x18160DDD EQ PUSH2 0x1E0 JUMPI DUP1 PUSH4 0x23B872DD EQ PUSH2 0x1FE JUMPI JUMPDEST PUSH0 DUP1 REVERT JUMPDEST PUSH2 0x162 PUSH2 0x46F JUMP JUMPDEST PUSH1 0x40 MLOAD PUSH2 0x16F SWAP2 SWAP1 PUSH2 0x1899 JUMP JUMPDEST PUSH1 0x40 MLOAD DUP1 SWAP2 SUB SWAP1 RETURN JUMPDEST PUSH2 0x192 PUSH1 0x4 DUP1 CALLDATASIZE SUB DUP2 ADD SWAP1 PUSH2 0x18D SWAP2 SWAP1 PUSH2 0x1957 JUMP JUMPDEST PUSH2 0x4FF JUMP JUMPDEST PUSH1 0x40 MLOAD PUSH2 0x19F SWAP2 SWAP1 PUSH2 0x19AF JUMP JUMPDEST PUSH1 0x40 MLOAD DUP1 SWAP2 SUB SWAP1 RETURN JUMPDEST PUSH2 0x1C2 PUSH1 0x4 DUP1 CALLDATASIZE SUB DUP2 ADD SWAP1 PUSH2 0x1BD SWAP2 SWAP1 PUSH2 0x19F2 JUMP JUMPDEST PUSH2 0x521 JUMP JUMPDEST STOP JUMPDEST PUSH2 0x1DE PUSH1 0x4 DUP1 CALLDATASIZE SUB DUP2 ADD SWAP1 PUSH2 0x1D9 SWAP2 SWAP1 PUSH2 0x1957 JUMP JUMPDEST PUSH2 0x67F JUMP JUMPDEST STOP JUMPDEST PUSH2 0x1E8 PUSH2 0x6D9 JUMP JUMPDEST PUSH1 0x40 MLOAD PUSH2 0x1F5 SWAP2 SWAP1 PUSH2 0x1A3F JUMP JUMPDEST PUSH1 0x40 MLOAD DUP1 SWAP2 SUB SWAP1 RETURN JUMPDEST PUSH2 0x218 PUSH1 0x4 DUP1 CALLDATASIZE SUB DUP2 ADD SWAP1 PUSH2 0x213 SWAP2 SWAP1 PUSH2 0x1A58 JUMP JUMPDEST PUSH2 0x6E2 JUMP JUMPDEST PUSH1 0x40 MLOAD PUSH2 0x225 SWAP2 SWAP1 PUSH2 0x19AF JUMP JUMPDEST PUSH1 0x40 MLOAD DUP1 SWAP2 SUB SWAP1 RETURN JUMPDEST PUSH2 0x236 PUSH2 0x710 JUMP JUMPDEST PUSH1 0x40 MLOAD PUSH2 0x243 SWAP2 SWAP1 PUSH2 0x1AC3 JUMP JUMPDEST PUSH1 0x40 MLOAD DUP1 SWAP2 SUB SWAP1 RETURN JUMPDEST PUSH2 0x266 PUSH1 0x4 DUP1 CALLDATASIZE SUB DUP2 ADD SWAP1 PUSH2 0x261 SWAP2 SWAP1 PUSH2 0x1957 JUMP JUMPDEST PUSH2 0x718 JUMP JUMPDEST STOP JUMPDEST PUSH2 0x282 PUSH1 0x4 DUP1 CALLDATASIZE SUB DUP2 ADD SWAP1 PUSH2 0x27D SWAP2 SWAP1 PUSH2 0x1ADC JUMP JUMPDEST PUSH2 0x72E JUMP JUMPDEST STOP JUMPDEST PUSH2 0x28C PUSH2 0x742 JUMP JUMPDEST PUSH1 0x40 MLOAD PUSH2 0x299 SWAP2 SWAP1 PUSH2 0x1A3F JUMP JUMPDEST PUSH1 0x40 MLOAD DUP1 SWAP2 SUB SWAP1 RETURN JUMPDEST PUSH2 0x2BC PUSH1 0x4 DUP1 CALLDATASIZE SUB DUP2 ADD SWAP1 PUSH2 0x2B7 SWAP2 SWAP1 PUSH2 0x1ADC JUMP JUMPDEST PUSH2 0x751 JUMP JUMPDEST STOP JUMPDEST PUSH2 0x2D8 PUSH1 0x4 DUP1 CALLDATASIZE SUB DUP2 ADD SWAP1 PUSH2 0x2D3 SWAP2 SWAP1 PUSH2 0x1B07 JUMP JUMPDEST PUSH2 0x7A8 JUMP JUMPDEST PUSH1 0x40 MLOAD PUSH2 0x2E5 SWAP2 SWAP1 PUSH2 0x1A3F JUMP JUMPDEST PUSH1 0x40 MLOAD DUP1 SWAP2 SUB SWAP1 RETURN JUMPDEST PUSH2 0x2F6 PUSH2 0x7ED JUMP JUMPDEST STOP JUMPDEST PUSH2 0x312 PUSH1 0x4 DUP1 CALLDATASIZE SUB DUP2 ADD SWAP1 PUSH2 0x30D SWAP2 SWAP1 PUSH2 0x1957 JUMP JUMPDEST PUSH2 0x800 JUMP JUMPDEST STOP JUMPDEST PUSH2 0x31C PUSH2 0x820 JUMP JUMPDEST PUSH1 0x40 MLOAD PUSH2 0x329 SWAP2 SWAP1 PUSH2 0x1B41 JUMP JUMPDEST PUSH1 0x40 MLOAD DUP1 SWAP2 SUB SWAP1 RETURN JUMPDEST PUSH2 0x33A PUSH2 0x848 JUMP JUMPDEST PUSH1 0x40 MLOAD PUSH2 0x347 SWAP2 SWAP1 PUSH2 0x1899 JUMP JUMPDEST PUSH1 0x40 MLOAD DUP1 SWAP2 SUB SWAP1 RETURN JUMPDEST PUSH2 0x36A PUSH1 0x4 DUP1 CALLDATASIZE SUB DUP2 ADD SWAP1 PUSH2 0x365 SWAP2 SWAP1 PUSH2 0x1957 JUMP JUMPDEST PUSH2 0x8D8 JUMP JUMPDEST PUSH1 0x40 MLOAD PUSH2 0x377 SWAP2 SWAP1 PUSH2 0x19AF JUMP JUMPDEST PUSH1 0x40 MLOAD DUP1 SWAP2 SUB SWAP1 RETURN JUMPDEST PUSH2 0x39A PUSH1 0x4 DUP1 CALLDATASIZE SUB DUP2 ADD SWAP1 PUSH2 0x395 SWAP2 SWAP1 PUSH2 0x1B84 JUMP JUMPDEST PUSH2 0x8FA JUMP JUMPDEST STOP JUMPDEST PUSH2 0x3A4 PUSH2 0xB2A JUMP JUMPDEST STOP JUMPDEST PUSH2 0x3C0 PUSH1 0x4 DUP1 CALLDATASIZE SUB DUP2 ADD SWAP1 PUSH2 0x3BB SWAP2 SWAP1 PUSH2 0x1B07 JUMP JUMPDEST PUSH2 0xB81 JUMP JUMPDEST PUSH1 0x40 MLOAD PUSH2 0x3CD SWAP2 SWAP1 PUSH2 0x1C66 JUMP JUMPDEST PUSH1 0x40 MLOAD DUP1 SWAP2 SUB SWAP1 RETURN JUMPDEST PUSH2 0x3F0 PUSH1 0x4 DUP1 CALLDATASIZE SUB DUP2 ADD SWAP1 PUSH2 0x3EB SWAP2 SWAP1 PUSH2 0x1B84 JUMP JUMPDEST PUSH2 0xD85 JUMP JUMPDEST PUSH1 0x40 MLOAD PUSH2 0x3FE SWAP3 SWAP2 SWAP1 PUSH2 0x1C86 JUMP JUMPDEST PUSH1 0x40 MLOAD DUP1 SWAP2 SUB SWAP1 RETURN JUMPDEST PUSH2 0x421 PUSH1 0x4 DUP1 CALLDATASIZE SUB DUP2 ADD SWAP1 PUSH2 0x41C SWAP2 SWAP1 PUSH2 0x1CB4 JUMP JUMPDEST PUSH2 0xE75 JUMP JUMPDEST PUSH1 0x40 MLOAD PUSH2 0x42E SWAP2 SWAP1 PUSH2 0x1A3F JUMP JUMPDEST PUSH1 0x40 MLOAD DUP1 SWAP2 SUB SWAP1 RETURN JUMPDEST PUSH2 0x451 PUSH1 0x4 DUP1 CALLDATASIZE SUB DUP2 ADD SWAP1 PUSH2 0x44C SWAP2 SWAP1 PUSH2 0x1E1E JUMP JUMPDEST PUSH2 0xEF7 JUMP JUMPDEST STOP JUMPDEST PUSH2 0x46D PUSH1 0x4 DUP1 CALLDATASIZE SUB DUP2 ADD SWAP1 PUSH2 0x468 SWAP2 SWAP1 PUSH2 0x1B07 JUMP JUMPDEST PUSH2 0xF0D JUMP JUMPDEST STOP JUMPDEST PUSH1 0x60 PUSH1 0x3 DUP1 SLOAD PUSH2 0x47E SWAP1 PUSH2 0x1EA5 JUMP JUMPDEST DUP1 PUSH1 0x1F ADD PUSH1 0x20 DUP1 SWAP2 DIV MUL PUSH1 0x20 ADD PUSH1 0x40 MLOAD SWAP1 DUP2 ADD PUSH1 0x40 MSTORE DUP1 SWAP3 SWAP2 SWAP1 DUP2 DUP2 MSTORE PUSH1 0x20 ADD DUP3 DUP1 SLOAD PUSH2 0x4AA SWAP1 PUSH2 0x1EA5 JUMP JUMPDEST DUP1 ISZERO PUSH2 0x4F5 JUMPI DUP1 PUSH1 0x1F LT PUSH2 0x4CC JUMPI PUSH2 0x100 DUP1 DUP4 SLOAD DIV MUL DUP4 MSTORE SWAP2 PUSH1 0x20 ADD SWAP2 PUSH2 0x4F5 JUMP JUMPDEST DUP3 ADD SWAP2 SWAP1 PUSH0 MSTORE PUSH1 0x20 PUSH0 KECCAK256 SWAP1 JUMPDEST DUP2 SLOAD DUP2 MSTORE SWAP1 PUSH1 0x1 ADD SWAP1 PUSH1 0x20 ADD DUP1 DUP4 GT PUSH2 0x4D8 JUMPI DUP3 SWAP1 SUB PUSH1 0x1F AND DUP3 ADD SWAP2 JUMPDEST POP POP POP POP POP SWAP1 POP SWAP1 JUMP JUMPDEST PUSH0 DUP1 PUSH2 0x509 PUSH2 0xF91 JUMP JUMPDEST SWAP1 POP PUSH2 0x516 DUP2 DUP6 DUP6 PUSH2 0xF98 JUMP JUMPDEST PUSH1 0x1 SWAP2 POP POP SWAP3 SWAP2 POP POP JUMP JUMPDEST DUP1 PUSH2 0x52B CALLER PUSH2 0x7A8 JUMP JUMPDEST LT ISZERO PUSH2 0x56C JUMPI PUSH1 0x40 MLOAD PUSH32 0x8C379A000000000000000000000000000000000000000000000000000000000 DUP2 MSTORE PUSH1 0x4 ADD PUSH2 0x563 SWAP1 PUSH2 0x1F1F JUMP JUMPDEST PUSH1 0x40 MLOAD DUP1 SWAP2 SUB SWAP1 REVERT JUMPDEST PUSH0 PUSH1 0xA TIMESTAMP CALLER PUSH1 0x40 MLOAD PUSH1 0x20 ADD PUSH2 0x582 SWAP3 SWAP2 SWAP1 PUSH2 0x1FA2 JUMP JUMPDEST PUSH1 0x40 MLOAD PUSH1 0x20 DUP2 DUP4 SUB SUB DUP2 MSTORE SWAP1 PUSH1 0x40 MSTORE DUP1 MLOAD SWAP1 PUSH1 0x20 ADD KECCAK256 PUSH0 SHR PUSH2 0x5A4 SWAP2 SWAP1 PUSH2 0x1FFA JUMP JUMPDEST SWAP1 POP PUSH1 0x5 DUP2 LT ISZERO ISZERO DUP4 ISZERO ISZERO SUB PUSH2 0x620 JUMPI PUSH2 0x5CA CALLER PUSH1 0x2 DUP5 PUSH2 0x5C5 SWAP2 SWAP1 PUSH2 0x2057 JUMP JUMPDEST PUSH2 0xFAA JUMP JUMPDEST CALLER PUSH20 0xFFFFFFFFFFFFFFFFFFFFFFFFFFFFFFFFFFFFFFFF AND PUSH32 0xD04D9689D8E43BC0BACEA67661EF472DCF321F34F08AF72F651AF30C4C866587 DUP3 PUSH1 0x1 PUSH1 0x40 MLOAD PUSH2 0x613 SWAP3 SWAP2 SWAP1 PUSH2 0x20E2 JUMP JUMPDEST PUSH1 0x40 MLOAD DUP1 SWAP2 SUB SWAP1 LOG2 PUSH2 0x67A JUMP JUMPDEST PUSH2 0x629 DUP3 PUSH2 0x72E JUMP JUMPDEST CALLER PUSH20 0xFFFFFFFFFFFFFFFFFFFFFFFFFFFFFFFFFFFFFFFF AND PUSH32 0xD04D9689D8E43BC0BACEA67661EF472DCF321F34F08AF72F651AF30C4C866587 DUP3 PUSH0 PUSH1 0x40 MLOAD PUSH2 0x671 SWAP3 SWAP2 SWAP1 PUSH2 0x2166 JUMP JUMPDEST PUSH1 0x40 MLOAD DUP1 SWAP2 SUB SWAP1 LOG2 JUMPDEST POP POP POP JUMP JUMPDEST DUP1 PUSH2 0x689 CALLER PUSH2 0x7A8 JUMP JUMPDEST LT ISZERO PUSH2 0x6CA JUMPI PUSH1 0x40 MLOAD PUSH32 0x8C379A000000000000000000000000000000000000000000000000000000000 DUP2 MSTORE PUSH1 0x4 ADD PUSH2 0x6C1 SWAP1 PUSH2 0x1F1F JUMP JUMPDEST PUSH1 0x40 MLOAD DUP1 SWAP2 SUB SWAP1 REVERT JUMPDEST PUSH2 0x6D5 CALLER DUP4 DUP4 PUSH2 0x1029 JUMP JUMPDEST POP POP JUMP JUMPDEST PUSH0 PUSH1 0x2 SLOAD SWAP1 POP SWAP1 JUMP JUMPDEST PUSH0 DUP1 PUSH2 0x6EC PUSH2 0xF91 JUMP JUMPDEST SWAP1 POP PUSH2 0x6F9 DUP6 DUP3 DUP6 PUSH2 0x1119 JUMP JUMPDEST PUSH2 0x704 DUP6 DUP6 DUP6 PUSH2 0x1029 JUMP JUMPDEST PUSH1 0x1 SWAP2 POP POP SWAP4 SWAP3 POP POP POP JUMP JUMPDEST PUSH0 PUSH1 0x12 SWAP1 POP SWAP1 JUMP JUMPDEST PUSH2 0x720 PUSH2 0x11AB JUMP JUMPDEST PUSH2 0x72A DUP3 DUP3 PUSH2 0xFAA JUMP JUMPDEST POP POP JUMP JUMPDEST PUSH2 0x73F PUSH2 0x739 PUSH2 0xF91 JUMP JUMPDEST DUP3 PUSH2 0x1232 JUMP JUMPDEST POP JUMP JUMPDEST PUSH0 PUSH2 0x74C CALLER PUSH2 0x7A8 JUMP JUMPDEST SWAP1 POP SWAP1 JUMP JUMPDEST DUP1 PUSH2 0x75B CALLER PUSH2 0x7A8 JUMP JUMPDEST LT ISZERO PUSH2 0x79C JUMPI PUSH1 0x40 MLOAD PUSH32 0x8C379A000000000000000000000000000000000000000000000000000000000 DUP2 MSTORE PUSH1 0x4 ADD PUSH2 0x793 SWAP1 PUSH2 0x1F1F JUMP JUMPDEST PUSH1 0x40 MLOAD DUP1 SWAP2 SUB SWAP1 REVERT JUMPDEST PUSH2 0x7A5 DUP2 PUSH2 0x72E JUMP JUMPDEST POP JUMP JUMPDEST PUSH0 DUP1 PUSH0 DUP4 PUSH20 0xFFFFFFFFFFFFFFFFFFFFFFFFFFFFFFFFFFFFFFFF AND PUSH20 0xFFFFFFFFFFFFFFFFFFFFFFFFFFFFFFFFFFFFFFFF AND DUP2 MSTORE PUSH1 0x20 ADD SWAP1 DUP2 MSTORE PUSH1 0x20 ADD PUSH0 KECCAK256 SLOAD SWAP1 POP SWAP2 SWAP1 POP JUMP JUMPDEST PUSH2 0x7F5 PUSH2 0x11AB JUMP JUMPDEST PUSH2 0x7FE PUSH0 PUSH2 0x12B1 JUMP JUMPDEST JUMP JUMPDEST PUSH2 0x812 DUP3 PUSH2 0x80C PUSH2 0xF91 JUMP JUMPDEST DUP4 PUSH2 0x1119 JUMP JUMPDEST PUSH2 0x81C DUP3 DUP3 PUSH2 0x1232 JUMP JUMPDEST POP POP JUMP JUMPDEST PUSH0 PUSH1 0x5 PUSH0 SWAP1 SLOAD SWAP1 PUSH2 0x100 EXP SWAP1 DIV PUSH20 0xFFFFFFFFFFFFFFFFFFFFFFFFFFFFFFFFFFFFFFFF AND SWAP1 POP SWAP1 JUMP JUMPDEST PUSH1 0x60 PUSH1 0x4 DUP1 SLOAD PUSH2 0x857 SWAP1 PUSH2 0x1EA5 JUMP JUMPDEST DUP1 PUSH1 0x1F ADD PUSH1 0x20 DUP1 SWAP2 DIV MUL PUSH1 0x20 ADD PUSH1 0x40 MLOAD SWAP1 DUP2 ADD PUSH1 0x40 MSTORE DUP1 SWAP3 SWAP2 SWAP1 DUP2 DUP2 MSTORE PUSH1 0x20 ADD DUP3 DUP1 SLOAD PUSH2 0x883 SWAP1 PUSH2 0x1EA5 JUMP JUMPDEST DUP1 ISZERO PUSH2 0x8CE JUMPI DUP1 PUSH1 0x1F LT PUSH2 0x8A5 JUMPI PUSH2 0x100 DUP1 DUP4 SLOAD DIV MUL DUP4 MSTORE SWAP2 PUSH1 0x20 ADD SWAP2 PUSH2 0x8CE JUMP JUMPDEST DUP3 ADD SWAP2 SWAP1 PUSH0 MSTORE PUSH1 0x20 PUSH0 KECCAK256 SWAP1 JUMPDEST DUP2 SLOAD DUP2 MSTORE SWAP1 PUSH1 0x1 ADD SWAP1 PUSH1 0x20 ADD DUP1 DUP4 GT PUSH2 0x8B1 JUMPI DUP3 SWAP1 SUB PUSH1 0x1F AND DUP3 ADD SWAP2 JUMPDEST POP POP POP POP POP SWAP1 POP SWAP1 JUMP JUMPDEST PUSH0 DUP1 PUSH2 0x8E2 PUSH2 0xF91 JUMP JUMPDEST SWAP1 POP PUSH2 0x8EF DUP2 DUP6 DUP6 PUSH2 0x1029 JUMP JUMPDEST PUSH1 0x1 SWAP2 POP POP SWAP3 SWAP2 POP POP JUMP JUMPDEST PUSH0 PUSH1 0x6 PUSH0 DUP4 PUSH1 0xFF AND PUSH1 0xFF AND DUP2 MSTORE PUSH1 0x20 ADD SWAP1 DUP2 MSTORE PUSH1 0x20 ADD PUSH0 KECCAK256 PUSH1 0x2 ADD SLOAD GT PUSH2 0x956 JUMPI PUSH1 0x40 MLOAD PUSH32 0x8C379A000000000000000000000000000000000000000000000000000000000 DUP2 MSTORE PUSH1 0x4 ADD PUSH2 0x94D SWAP1 PUSH2 0x21EA JUMP JUMPDEST PUSH1 0x40 MLOAD DUP1 SWAP2 SUB SWAP1 REVERT JUMPDEST PUSH1 0x6 PUSH0 DUP3 PUSH1 0xFF AND PUSH1 0xFF AND DUP2 MSTORE PUSH1 0x20 ADD SWAP1 DUP2 MSTORE PUSH1 0x20 ADD PUSH0 KECCAK256 PUSH1 0x2 ADD SLOAD PUSH2 0x97A CALLER PUSH2 0x7A8 JUMP JUMPDEST LT ISZERO PUSH2 0x9BB JUMPI PUSH1 0x40 MLOAD PUSH32 0x8C379A000000000000000000000000000000000000000000000000000000000 DUP2 MSTORE PUSH1 0x4 ADD PUSH2 0x9B2 SWAP1 PUSH2 0x1F1F JUMP JUMPDEST PUSH1 0x40 MLOAD DUP1 SWAP2 SUB SWAP1 REVERT JUMPDEST PUSH2 0x9DE PUSH1 0x6 PUSH0 DUP4 PUSH1 0xFF AND PUSH1 0xFF AND DUP2 MSTORE PUSH1 0x20 ADD SWAP1 DUP2 MSTORE PUSH1 0x20 ADD PUSH0 KECCAK256 PUSH1 0x2 ADD SLOAD PUSH2 0x72E JUMP JUMPDEST PUSH1 0x7 PUSH0 CALLER PUSH20 0xFFFFFFFFFFFFFFFFFFFFFFFFFFFFFFFFFFFFFFFF AND PUSH20 0xFFFFFFFFFFFFFFFFFFFFFFFFFFFFFFFFFFFFFFFF AND DUP2 MSTORE PUSH1 0x20 ADD SWAP1 DUP2 MSTORE PUSH1 0x20 ADD PUSH0 KECCAK256 PUSH1 0x6 PUSH0 DUP4 PUSH1 0xFF AND PUSH1 0xFF AND DUP2 MSTORE PUSH1 0x20 ADD SWAP1 DUP2 MSTORE PUSH1 0x20 ADD PUSH0 KECCAK256 SWAP1 DUP1 PUSH1 0x1 DUP2 SLOAD ADD DUP1 DUP3 SSTORE DUP1 SWAP2 POP POP PUSH1 0x1 SWAP1 SUB SWAP1 PUSH0 MSTORE PUSH1 0x20 PUSH0 KECCAK256 SWAP1 PUSH1 0x3 MUL ADD PUSH0 SWAP1 SWAP2 SWAP1 SWAP2 SWAP1 SWAP2 POP PUSH0 DUP3 ADD DUP2 PUSH0 ADD SWAP1 DUP2 PUSH2 0xA6A SWAP2 SWAP1 PUSH2 0x23BA JUMP JUMPDEST POP PUSH1 0x1 DUP3 ADD PUSH0 SWAP1 SLOAD SWAP1 PUSH2 0x100 EXP SWAP1 DIV PUSH1 0xFF AND DUP2 PUSH1 0x1 ADD PUSH0 PUSH2 0x100 EXP DUP2 SLOAD DUP2 PUSH1 0xFF MUL NOT AND SWAP1 DUP4 PUSH1 0xFF AND MUL OR SWAP1 SSTORE POP PUSH1 0x2 DUP3 ADD SLOAD DUP2 PUSH1 0x2 ADD SSTORE POP POP CALLER PUSH20 0xFFFFFFFFFFFFFFFFFFFFFFFFFFFFFFFFFFFFFFFF AND PUSH32 0x8BEDD141782C49139782BD92BD7A760A0BCB544FFECFD2B25F00366FAE06598E DUP3 PUSH1 0x6 PUSH0 DUP6 PUSH1 0xFF AND PUSH1 0xFF AND DUP2 MSTORE PUSH1 0x20 ADD SWAP1 DUP2 MSTORE PUSH1 0x20 ADD PUSH0 KECCAK256 PUSH0 ADD PUSH1 0x6 PUSH0 DUP7 PUSH1 0xFF AND PUSH1 0xFF AND DUP2 MSTORE PUSH1 0x20 ADD SWAP1 DUP2 MSTORE PUSH1 0x20 ADD PUSH0 KECCAK256 PUSH1 0x2 ADD SLOAD PUSH1 0x40 MLOAD PUSH2 0xB1F SWAP4 SWAP3 SWAP2 SWAP1 PUSH2 0x2520 JUMP JUMPDEST PUSH1 0x40 MLOAD DUP1 SWAP2 SUB SWAP1 LOG2 POP JUMP JUMPDEST PUSH0 PUSH2 0xB34 CALLER PUSH2 0x7A8 JUMP JUMPDEST EQ PUSH2 0xB74 JUMPI PUSH1 0x40 MLOAD PUSH32 0x8C379A000000000000000000000000000000000000000000000000000000000 DUP2 MSTORE PUSH1 0x4 ADD PUSH2 0xB6B SWAP1 PUSH2 0x25A6 JUMP JUMPDEST PUSH1 0x40 MLOAD DUP1 SWAP2 SUB SWAP1 REVERT JUMPDEST PUSH2 0xB7F CALLER PUSH1 0x32 PUSH2 0xFAA JUMP JUMPDEST JUMP JUMPDEST PUSH1 0x60 PUSH0 PUSH1 0x7 PUSH0 DUP5 PUSH20 0xFFFFFFFFFFFFFFFFFFFFFFFFFFFFFFFFFFFFFFFF AND PUSH20 0xFFFFFFFFFFFFFFFFFFFFFFFFFFFFFFFFFFFFFFFF AND DUP2 MSTORE PUSH1 0x20 ADD SWAP1 DUP2 MSTORE PUSH1 0x20 ADD PUSH0 KECCAK256 DUP1 SLOAD DUP1 PUSH1 0x20 MUL PUSH1 0x20 ADD PUSH1 0x40 MLOAD SWAP1 DUP2 ADD PUSH1 0x40 MSTORE DUP1 SWAP3 SWAP2 SWAP1 DUP2 DUP2 MSTORE PUSH1 0x20 ADD PUSH0 SWAP1 JUMPDEST DUP3 DUP3 LT ISZERO PUSH2 0xCC5 JUMPI DUP4 DUP3 SWAP1 PUSH0 MSTORE PUSH1 0x20 PUSH0 KECCAK256 SWAP1 PUSH1 0x3 MUL ADD PUSH1 0x40 MLOAD DUP1 PUSH1 0x60 ADD PUSH1 0x40 MSTORE SWAP1 DUP2 PUSH0 DUP3 ADD DUP1 SLOAD PUSH2 0xC10 SWAP1 PUSH2 0x1EA5 JUMP JUMPDEST DUP1 PUSH1 0x1F ADD PUSH1 0x20 DUP1 SWAP2 DIV MUL PUSH1 0x20 ADD PUSH1 0x40 MLOAD SWAP1 DUP2 ADD PUSH1 0x40 MSTORE DUP1 SWAP3 SWAP2 SWAP1 DUP2 DUP2 MSTORE PUSH1 0x20 ADD DUP3 DUP1 SLOAD PUSH2 0xC3C SWAP1 PUSH2 0x1EA5 JUMP JUMPDEST DUP1 ISZERO PUSH2 0xC87 JUMPI DUP1 PUSH1 0x1F LT PUSH2 0xC5E JUMPI PUSH2 0x100 DUP1 DUP4 SLOAD DIV MUL DUP4 MSTORE SWAP2 PUSH1 0x20 ADD SWAP2 PUSH2 0xC87 JUMP JUMPDEST DUP3 ADD SWAP2 SWAP1 PUSH0 MSTORE PUSH1 0x20 PUSH0 KECCAK256 SWAP1 JUMPDEST DUP2 SLOAD DUP2 MSTORE SWAP1 PUSH1 0x1 ADD SWAP1 PUSH1 0x20 ADD DUP1 DUP4 GT PUSH2 0xC6A JUMPI DUP3 SWAP1 SUB PUSH1 0x1F AND DUP3 ADD SWAP2 JUMPDEST POP POP POP POP POP DUP2 MSTORE PUSH1 0x20 ADD PUSH1 0x1 DUP3 ADD PUSH0 SWAP1 SLOAD SWAP1 PUSH2 0x100 EXP SWAP1 DIV PUSH1 0xFF AND PUSH1 0xFF AND PUSH1 0xFF AND DUP2 MSTORE PUSH1 0x20 ADD PUSH1 0x2 DUP3 ADD SLOAD DUP2 MSTORE POP POP DUP2 MSTORE PUSH1 0x20 ADD SWAP1 PUSH1 0x1 ADD SWAP1 PUSH2 0xBE0 JUMP JUMPDEST POP POP POP POP SWAP1 POP PUSH0 DUP2 MLOAD SWAP1 POP PUSH0 DUP2 PUSH8 0xFFFFFFFFFFFFFFFF DUP2 GT ISZERO PUSH2 0xCEB JUMPI PUSH2 0xCEA PUSH2 0x1CFA JUMP JUMPDEST JUMPDEST PUSH1 0x40 MLOAD SWAP1 DUP1 DUP3 MSTORE DUP1 PUSH1 0x20 MUL PUSH1 0x20 ADD DUP3 ADD PUSH1 0x40 MSTORE DUP1 ISZERO PUSH2 0xD19 JUMPI DUP2 PUSH1 0x20 ADD PUSH1 0x20 DUP3 MUL DUP1 CALLDATASIZE DUP4 CALLDATACOPY DUP1 DUP3 ADD SWAP2 POP POP SWAP1 POP JUMPDEST POP SWAP1 POP PUSH0 JUMPDEST DUP3 DUP2 LT ISZERO PUSH2 0xD79 JUMPI DUP4 DUP2 DUP2 MLOAD DUP2 LT PUSH2 0xD39 JUMPI PUSH2 0xD38 PUSH2 0x25C4 JUMP JUMPDEST JUMPDEST PUSH1 0x20 MUL PUSH1 0x20 ADD ADD MLOAD PUSH1 0x20 ADD MLOAD DUP3 DUP3 DUP2 MLOAD DUP2 LT PUSH2 0xD58 JUMPI PUSH2 0xD57 PUSH2 0x25C4 JUMP JUMPDEST JUMPDEST PUSH1 0x20 MUL PUSH1 0x20 ADD ADD SWAP1 PUSH1 0xFF AND SWAP1 DUP2 PUSH1 0xFF AND DUP2 MSTORE POP POP DUP1 DUP1 PUSH1 0x1 ADD SWAP2 POP POP PUSH2 0xD1E JUMP JUMPDEST POP DUP1 SWAP4 POP POP POP POP SWAP2 SWAP1 POP JUMP JUMPDEST PUSH1 0x60 PUSH0 DUP1 PUSH1 0x6 PUSH0 DUP6 PUSH1 0xFF AND PUSH1 0xFF AND DUP2 MSTORE PUSH1 0x20 ADD SWAP1 DUP2 MSTORE PUSH1 0x20 ADD PUSH0 KECCAK256 PUSH1 0x40 MLOAD DUP1 PUSH1 0x60 ADD PUSH1 0x40 MSTORE SWAP1 DUP2 PUSH0 DUP3 ADD DUP1 SLOAD PUSH2 0xDBA SWAP1 PUSH2 0x1EA5 JUMP JUMPDEST DUP1 PUSH1 0x1F ADD PUSH1 0x20 DUP1 SWAP2 DIV MUL PUSH1 0x20 ADD PUSH1 0x40 MLOAD SWAP1 DUP2 ADD PUSH1 0x40 MSTORE DUP1 SWAP3 SWAP2 SWAP1 DUP2 DUP2 MSTORE PUSH1 0x20 ADD DUP3 DUP1 SLOAD PUSH2 0xDE6 SWAP1 PUSH2 0x1EA5 JUMP JUMPDEST DUP1 ISZERO PUSH2 0xE31 JUMPI DUP1 PUSH1 0x1F LT PUSH2 0xE08 JUMPI PUSH2 0x100 DUP1 DUP4 SLOAD DIV MUL DUP4 MSTORE SWAP2 PUSH1 0x20 ADD SWAP2 PUSH2 0xE31 JUMP JUMPDEST DUP3 ADD SWAP2 SWAP1 PUSH0 MSTORE PUSH1 0x20 PUSH0 KECCAK256 SWAP1 JUMPDEST DUP2 SLOAD DUP2 MSTORE SWAP1 PUSH1 0x1 ADD SWAP1 PUSH1 0x20 ADD DUP1 DUP4 GT PUSH2 0xE14 JUMPI DUP3 SWAP1 SUB PUSH1 0x1F AND DUP3 ADD SWAP2 JUMPDEST POP POP POP POP POP DUP2 MSTORE PUSH1 0x20 ADD PUSH1 0x1 DUP3 ADD PUSH0 SWAP1 SLOAD SWAP1 PUSH2 0x100 EXP SWAP1 DIV PUSH1 0xFF AND PUSH1 0xFF AND PUSH1 0xFF AND DUP2 MSTORE PUSH1 0x20 ADD PUSH1 0x2 DUP3 ADD SLOAD DUP2 MSTORE POP POP SWAP1 POP DUP1 PUSH0 ADD MLOAD DUP2 PUSH1 0x40 ADD MLOAD SWAP3 POP SWAP3 POP POP SWAP2 POP SWAP2 JUMP JUMPDEST PUSH0 PUSH1 0x1 PUSH0 DUP5 PUSH20 0xFFFFFFFFFFFFFFFFFFFFFFFFFFFFFFFFFFFFFFFF AND PUSH20 0xFFFFFFFFFFFFFFFFFFFFFFFFFFFFFFFFFFFFFFFF AND DUP2 MSTORE PUSH1 0x20 ADD SWAP1 DUP2 MSTORE PUSH1 0x20 ADD PUSH0 KECCAK256 PUSH0 DUP4 PUSH20 0xFFFFFFFFFFFFFFFFFFFFFFFFFFFFFFFFFFFFFFFF AND PUSH20 0xFFFFFFFFFFFFFFFFFFFFFFFFFFFFFFFFFFFFFFFF AND DUP2 MSTORE PUSH1 0x20 ADD SWAP1 DUP2 MSTORE PUSH1 0x20 ADD PUSH0 KECCAK256 SLOAD SWAP1 POP SWAP3 SWAP2 POP POP JUMP JUMPDEST PUSH2 0xEFF PUSH2 0x11AB JUMP JUMPDEST PUSH2 0xF09 DUP3 DUP3 PUSH2 0x1374 JUMP JUMPDEST POP POP JUMP JUMPDEST PUSH2 0xF15 PUSH2 0x11AB JUMP JUMPDEST PUSH0 PUSH20 0xFFFFFFFFFFFFFFFFFFFFFFFFFFFFFFFFFFFFFFFF AND DUP2 PUSH20 0xFFFFFFFFFFFFFFFFFFFFFFFFFFFFFFFFFFFFFFFF AND SUB PUSH2 0xF85 JUMPI PUSH0 PUSH1 0x40 MLOAD PUSH32 0x1E4FBDF700000000000000000000000000000000000000000000000000000000 DUP2 MSTORE PUSH1 0x4 ADD PUSH2 0xF7C SWAP2 SWAP1 PUSH2 0x1B41 JUMP JUMPDEST PUSH1 0x40 MLOAD DUP1 SWAP2 SUB SWAP1 REVERT JUMPDEST PUSH2 0xF8E DUP2 PUSH2 0x12B1 JUMP JUMPDEST POP JUMP JUMPDEST PUSH0 CALLER SWAP1 POP SWAP1 JUMP JUMPDEST PUSH2 0xFA5 DUP4 DUP4 DUP4 PUSH1 0x1 PUSH2 0x1441 JUMP JUMPDEST POP POP POP JUMP JUMPDEST PUSH0 PUSH20 0xFFFFFFFFFFFFFFFFFFFFFFFFFFFFFFFFFFFFFFFF AND DUP3 PUSH20 0xFFFFFFFFFFFFFFFFFFFFFFFFFFFFFFFFFFFFFFFF AND SUB PUSH2 0x101A JUMPI PUSH0 PUSH1 0x40 MLOAD PUSH32 0xEC442F0500000000000000000000000000000000000000000000000000000000 DUP2 MSTORE PUSH1 0x4 ADD PUSH2 0x1011 SWAP2 SWAP1 PUSH2 0x1B41 JUMP JUMPDEST PUSH1 0x40 MLOAD DUP1 SWAP2 SUB SWAP1 REVERT JUMPDEST PUSH2 0x1025 PUSH0 DUP4 DUP4 PUSH2 0x1610 JUMP JUMPDEST POP POP JUMP JUMPDEST PUSH0 PUSH20 0xFFFFFFFFFFFFFFFFFFFFFFFFFFFFFFFFFFFFFFFF AND DUP4 PUSH20 0xFFFFFFFFFFFFFFFFFFFFFFFFFFFFFFFFFFFFFFFF AND SUB PUSH2 0x1099 JUMPI PUSH0 PUSH1 0x40 MLOAD PUSH32 0x96C6FD1E00000000000000000000000000000000000000000000000000000000 DUP2 MSTORE PUSH1 0x4 ADD PUSH2 0x1090 SWAP2 SWAP1 PUSH2 0x1B41 JUMP JUMPDEST PUSH1 0x40 MLOAD DUP1 SWAP2 SUB SWAP1 REVERT JUMPDEST PUSH0 PUSH20 0xFFFFFFFFFFFFFFFFFFFFFFFFFFFFFFFFFFFFFFFF AND DUP3 PUSH20 0xFFFFFFFFFFFFFFFFFFFFFFFFFFFFFFFFFFFFFFFF AND SUB PUSH2 0x1109 JUMPI PUSH0 PUSH1 0x40 MLOAD PUSH32 0xEC442F0500000000000000000000000000000000000000000000000000000000 DUP2 MSTORE PUSH1 0x4 ADD PUSH2 0x1100 SWAP2 SWAP1 PUSH2 0x1B41 JUMP JUMPDEST PUSH1 0x40 MLOAD DUP1 SWAP2 SUB SWAP1 REVERT JUMPDEST PUSH2 0x1114 DUP4 DUP4 DUP4 PUSH2 0x1610 JUMP JUMPDEST POP POP POP JUMP JUMPDEST PUSH0 PUSH2 0x1124 DUP5 DUP5 PUSH2 0xE75 JUMP JUMPDEST SWAP1 POP PUSH32 0xFFFFFFFFFFFFFFFFFFFFFFFFFFFFFFFFFFFFFFFFFFFFFFFFFFFFFFFFFFFFFFFF DUP2 EQ PUSH2 0x11A5 JUMPI DUP2 DUP2 LT ISZERO PUSH2 0x1196 JUMPI DUP3 DUP2 DUP4 PUSH1 0x40 MLOAD PUSH32 0xFB8F41B200000000000000000000000000000000000000000000000000000000 DUP2 MSTORE PUSH1 0x4 ADD PUSH2 0x118D SWAP4 SWAP3 SWAP2 SWAP1 PUSH2 0x25F1 JUMP JUMPDEST PUSH1 0x40 MLOAD DUP1 SWAP2 SUB SWAP1 REVERT JUMPDEST PUSH2 0x11A4 DUP5 DUP5 DUP5 DUP5 SUB PUSH0 PUSH2 0x1441 JUMP JUMPDEST JUMPDEST POP POP POP POP JUMP JUMPDEST PUSH2 0x11B3 PUSH2 0xF91 JUMP JUMPDEST PUSH20 0xFFFFFFFFFFFFFFFFFFFFFFFFFFFFFFFFFFFFFFFF AND PUSH2 0x11D1 PUSH2 0x820 JUMP JUMPDEST PUSH20 0xFFFFFFFFFFFFFFFFFFFFFFFFFFFFFFFFFFFFFFFF AND EQ PUSH2 0x1230 JUMPI PUSH2 0x11F4 PUSH2 0xF91 JUMP JUMPDEST PUSH1 0x40 MLOAD PUSH32 0x118CDAA700000000000000000000000000000000000000000000000000000000 DUP2 MSTORE PUSH1 0x4 ADD PUSH2 0x1227 SWAP2 SWAP1 PUSH2 0x1B41 JUMP JUMPDEST PUSH1 0x40 MLOAD DUP1 SWAP2 SUB SWAP1 REVERT JUMPDEST JUMP JUMPDEST PUSH0 PUSH20 0xFFFFFFFFFFFFFFFFFFFFFFFFFFFFFFFFFFFFFFFF AND DUP3 PUSH20 0xFFFFFFFFFFFFFFFFFFFFFFFFFFFFFFFFFFFFFFFF AND SUB PUSH2 0x12A2 JUMPI PUSH0 PUSH1 0x40 MLOAD PUSH32 0x96C6FD1E00000000000000000000000000000000000000000000000000000000 DUP2 MSTORE PUSH1 0x4 ADD PUSH2 0x1299 SWAP2 SWAP1 PUSH2 0x1B41 JUMP JUMPDEST PUSH1 0x40 MLOAD DUP1 SWAP2 SUB SWAP1 REVERT JUMPDEST PUSH2 0x12AD DUP3 PUSH0 DUP4 PUSH2 0x1610 JUMP JUMPDEST POP POP JUMP JUMPDEST PUSH0 PUSH1 0x5 PUSH0 SWAP1 SLOAD SWAP1 PUSH2 0x100 EXP SWAP1 DIV PUSH20 0xFFFFFFFFFFFFFFFFFFFFFFFFFFFFFFFFFFFFFFFF AND SWAP1 POP DUP2 PUSH1 0x5 PUSH0 PUSH2 0x100 EXP DUP2 SLOAD DUP2 PUSH20 0xFFFFFFFFFFFFFFFFFFFFFFFFFFFFFFFFFFFFFFFF MUL NOT AND SWAP1 DUP4 PUSH20 0xFFFFFFFFFFFFFFFFFFFFFFFFFFFFFFFFFFFFFFFF AND MUL OR SWAP1 SSTORE POP DUP2 PUSH20 0xFFFFFFFFFFFFFFFFFFFFFFFFFFFFFFFFFFFFFFFF AND DUP2 PUSH20 0xFFFFFFFFFFFFFFFFFFFFFFFFFFFFFFFFFFFFFFFF AND PUSH32 0x8BE0079C531659141344CD1FD0A4F28419497F9722A3DAAFE3B4186F6B6457E0 PUSH1 0x40 MLOAD PUSH1 0x40 MLOAD DUP1 SWAP2 SUB SWAP1 LOG3 POP POP JUMP JUMPDEST PUSH1 0x40 MLOAD DUP1 PUSH1 0x60 ADD PUSH1 0x40 MSTORE DUP1 DUP4 DUP2 MSTORE PUSH1 0x20 ADD PUSH1 0x8 PUSH0 SWAP1 SLOAD SWAP1 PUSH2 0x100 EXP SWAP1 DIV PUSH1 0xFF AND PUSH1 0xFF AND DUP2 MSTORE PUSH1 0x20 ADD DUP3 DUP2 MSTORE POP PUSH1 0x6 PUSH0 PUSH1 0x8 PUSH0 SWAP1 SLOAD SWAP1 PUSH2 0x100 EXP SWAP1 DIV PUSH1 0xFF AND PUSH1 0xFF AND PUSH1 0xFF AND DUP2 MSTORE PUSH1 0x20 ADD SWAP1 DUP2 MSTORE PUSH1 0x20 ADD PUSH0 KECCAK256 PUSH0 DUP3 ADD MLOAD DUP2 PUSH0 ADD SWAP1 DUP2 PUSH2 0x13D8 SWAP2 SWAP1 PUSH2 0x2626 JUMP JUMPDEST POP PUSH1 0x20 DUP3 ADD MLOAD DUP2 PUSH1 0x1 ADD PUSH0 PUSH2 0x100 EXP DUP2 SLOAD DUP2 PUSH1 0xFF MUL NOT AND SWAP1 DUP4 PUSH1 0xFF AND MUL OR SWAP1 SSTORE POP PUSH1 0x40 DUP3 ADD MLOAD DUP2 PUSH1 0x2 ADD SSTORE SWAP1 POP POP PUSH1 0x8 PUSH0 DUP2 DUP2 SWAP1 SLOAD SWAP1 PUSH2 0x100 EXP SWAP1 DIV PUSH1 0xFF AND DUP1 SWAP3 SWAP2 SWAP1 PUSH2 0x1424 SWAP1 PUSH2 0x26F5 JUMP JUMPDEST SWAP2 SWAP1 PUSH2 0x100 EXP DUP2 SLOAD DUP2 PUSH1 0xFF MUL NOT AND SWAP1 DUP4 PUSH1 0xFF AND MUL OR SWAP1 SSTORE POP POP POP POP JUMP JUMPDEST PUSH0 PUSH20 0xFFFFFFFFFFFFFFFFFFFFFFFFFFFFFFFFFFFFFFFF AND DUP5 PUSH20 0xFFFFFFFFFFFFFFFFFFFFFFFFFFFFFFFFFFFFFFFF AND SUB PUSH2 0x14B1 JUMPI PUSH0 PUSH1 0x40 MLOAD PUSH32 0xE602DF0500000000000000000000000000000000000000000000000000000000 DUP2 MSTORE PUSH1 0x4 ADD PUSH2 0x14A8 SWAP2 SWAP1 PUSH2 0x1B41 JUMP JUMPDEST PUSH1 0x40 MLOAD DUP1 SWAP2 SUB SWAP1 REVERT JUMPDEST PUSH0 PUSH20 0xFFFFFFFFFFFFFFFFFFFFFFFFFFFFFFFFFFFFFFFF AND DUP4 PUSH20 0xFFFFFFFFFFFFFFFFFFFFFFFFFFFFFFFFFFFFFFFF AND SUB PUSH2 0x1521 JUMPI PUSH0 PUSH1 0x40 MLOAD PUSH32 0x94280D6200000000000000000000000000000000000000000000000000000000 DUP2 MSTORE PUSH1 0x4 ADD PUSH2 0x1518 SWAP2 SWAP1 PUSH2 0x1B41 JUMP JUMPDEST PUSH1 0x40 MLOAD DUP1 SWAP2 SUB SWAP1 REVERT JUMPDEST DUP2 PUSH1 0x1 PUSH0 DUP7 PUSH20 0xFFFFFFFFFFFFFFFFFFFFFFFFFFFFFFFFFFFFFFFF AND PUSH20 0xFFFFFFFFFFFFFFFFFFFFFFFFFFFFFFFFFFFFFFFF AND DUP2 MSTORE PUSH1 0x20 ADD SWAP1 DUP2 MSTORE PUSH1 0x20 ADD PUSH0 KECCAK256 PUSH0 DUP6 PUSH20 0xFFFFFFFFFFFFFFFFFFFFFFFFFFFFFFFFFFFFFFFF AND PUSH20 0xFFFFFFFFFFFFFFFFFFFFFFFFFFFFFFFFFFFFFFFF AND DUP2 MSTORE PUSH1 0x20 ADD SWAP1 DUP2 MSTORE PUSH1 0x20 ADD PUSH0 KECCAK256 DUP2 SWAP1 SSTORE POP DUP1 ISZERO PUSH2 0x160A JUMPI DUP3 PUSH20 0xFFFFFFFFFFFFFFFFFFFFFFFFFFFFFFFFFFFFFFFF AND DUP5 PUSH20 0xFFFFFFFFFFFFFFFFFFFFFFFFFFFFFFFFFFFFFFFF AND PUSH32 0x8C5BE1E5EBEC7D5BD14F71427D1E84F3DD0314C0F7B2291E5B200AC8C7C3B925 DUP5 PUSH1 0x40 MLOAD PUSH2 0x1601 SWAP2 SWAP1 PUSH2 0x1A3F JUMP JUMPDEST PUSH1 0x40 MLOAD DUP1 SWAP2 SUB SWAP1 LOG3 JUMPDEST POP POP POP POP JUMP JUMPDEST PUSH0 PUSH20 0xFFFFFFFFFFFFFFFFFFFFFFFFFFFFFFFFFFFFFFFF AND DUP4 PUSH20 0xFFFFFFFFFFFFFFFFFFFFFFFFFFFFFFFFFFFFFFFF AND SUB PUSH2 0x1660 JUMPI DUP1 PUSH1 0x2 PUSH0 DUP3 DUP3 SLOAD PUSH2 0x1654 SWAP2 SWAP1 PUSH2 0x271D JUMP JUMPDEST SWAP3 POP POP DUP2 SWAP1 SSTORE POP PUSH2 0x172E JUMP JUMPDEST PUSH0 DUP1 PUSH0 DUP6 PUSH20 0xFFFFFFFFFFFFFFFFFFFFFFFFFFFFFFFFFFFFFFFF AND PUSH20 0xFFFFFFFFFFFFFFFFFFFFFFFFFFFFFFFFFFFFFFFF AND DUP2 MSTORE PUSH1 0x20 ADD SWAP1 DUP2 MSTORE PUSH1 0x20 ADD PUSH0 KECCAK256 SLOAD SWAP1 POP DUP2 DUP2 LT ISZERO PUSH2 0x16E9 JUMPI DUP4 DUP2 DUP4 PUSH1 0x40 MLOAD PUSH32 0xE450D38C00000000000000000000000000000000000000000000000000000000 DUP2 MSTORE PUSH1 0x4 ADD PUSH2 0x16E0 SWAP4 SWAP3 SWAP2 SWAP1 PUSH2 0x25F1 JUMP JUMPDEST PUSH1 0x40 MLOAD DUP1 SWAP2 SUB SWAP1 REVERT JUMPDEST DUP2 DUP2 SUB PUSH0 DUP1 DUP7 PUSH20 0xFFFFFFFFFFFFFFFFFFFFFFFFFFFFFFFFFFFFFFFF AND PUSH20 0xFFFFFFFFFFFFFFFFFFFFFFFFFFFFFFFFFFFFFFFF AND DUP2 MSTORE PUSH1 0x20 ADD SWAP1 DUP2 MSTORE PUSH1 0x20 ADD PUSH0 KECCAK256 DUP2 SWAP1 SSTORE POP POP JUMPDEST PUSH0 PUSH20 0xFFFFFFFFFFFFFFFFFFFFFFFFFFFFFFFFFFFFFFFF AND DUP3 PUSH20 0xFFFFFFFFFFFFFFFFFFFFFFFFFFFFFFFFFFFFFFFF AND SUB PUSH2 0x1775 JUMPI DUP1 PUSH1 0x2 PUSH0 DUP3 DUP3 SLOAD SUB SWAP3 POP POP DUP2 SWAP1 SSTORE POP PUSH2 0x17BF JUMP JUMPDEST DUP1 PUSH0 DUP1 DUP5 PUSH20 0xFFFFFFFFFFFFFFFFFFFFFFFFFFFFFFFFFFFFFFFF AND PUSH20 0xFFFFFFFFFFFFFFFFFFFFFFFFFFFFFFFFFFFFFFFF AND DUP2 MSTORE PUSH1 0x20 ADD SWAP1 DUP2 MSTORE PUSH1 0x20 ADD PUSH0 KECCAK256 PUSH0 DUP3 DUP3 SLOAD ADD SWAP3 POP POP DUP2 SWAP1 SSTORE POP JUMPDEST DUP2 PUSH20 0xFFFFFFFFFFFFFFFFFFFFFFFFFFFFFFFFFFFFFFFF AND DUP4 PUSH20 0xFFFFFFFFFFFFFFFFFFFFFFFFFFFFFFFFFFFFFFFF AND PUSH32 0xDDF252AD1BE2C89B69C2B068FC378DAA952BA7F163C4A11628F55A4DF523B3EF DUP4 PUSH1 0x40 MLOAD PUSH2 0x181C SWAP2 SWAP1 PUSH2 0x1A3F JUMP JUMPDEST PUSH1 0x40 MLOAD DUP1 SWAP2 SUB SWAP1 LOG3 POP POP POP JUMP JUMPDEST PUSH0 DUP2 MLOAD SWAP1 POP SWAP2 SWAP1 POP JUMP JUMPDEST PUSH0 DUP3 DUP3 MSTORE PUSH1 0x20 DUP3 ADD SWAP1 POP SWAP3 SWAP2 POP POP JUMP JUMPDEST DUP3 DUP2 DUP4 MCOPY PUSH0 DUP4 DUP4 ADD MSTORE POP POP POP JUMP JUMPDEST PUSH0 PUSH1 0x1F NOT PUSH1 0x1F DUP4 ADD AND SWAP1 POP SWAP2 SWAP1 POP JUMP JUMPDEST PUSH0 PUSH2 0x186B DUP3 PUSH2 0x1829 JUMP JUMPDEST PUSH2 0x1875 DUP2 DUP6 PUSH2 0x1833 JUMP JUMPDEST SWAP4 POP PUSH2 0x1885 DUP2 DUP6 PUSH1 0x20 DUP7 ADD PUSH2 0x1843 JUMP JUMPDEST PUSH2 0x188E DUP2 PUSH2 0x1851 JUMP JUMPDEST DUP5 ADD SWAP2 POP POP SWAP3 SWAP2 POP POP JUMP JUMPDEST PUSH0 PUSH1 0x20 DUP3 ADD SWAP1 POP DUP2 DUP2 SUB PUSH0 DUP4 ADD MSTORE PUSH2 0x18B1 DUP2 DUP5 PUSH2 0x1861 JUMP JUMPDEST SWAP1 POP SWAP3 SWAP2 POP POP JUMP JUMPDEST PUSH0 PUSH1 0x40 MLOAD SWAP1 POP SWAP1 JUMP JUMPDEST PUSH0 DUP1 REVERT JUMPDEST PUSH0 DUP1 REVERT JUMPDEST PUSH0 PUSH20 0xFFFFFFFFFFFFFFFFFFFFFFFFFFFFFFFFFFFFFFFF DUP3 AND SWAP1 POP SWAP2 SWAP1 POP JUMP JUMPDEST PUSH0 PUSH2 0x18F3 DUP3 PUSH2 0x18CA JUMP JUMPDEST SWAP1 POP SWAP2 SWAP1 POP JUMP JUMPDEST PUSH2 0x1903 DUP2 PUSH2 0x18E9 JUMP JUMPDEST DUP2 EQ PUSH2 0x190D JUMPI PUSH0 DUP1 REVERT JUMPDEST POP JUMP JUMPDEST PUSH0 DUP2 CALLDATALOAD SWAP1 POP PUSH2 0x191E DUP2 PUSH2 0x18FA JUMP JUMPDEST SWAP3 SWAP2 POP POP JUMP JUMPDEST PUSH0 DUP2 SWAP1 POP SWAP2 SWAP1 POP JUMP JUMPDEST PUSH2 0x1936 DUP2 PUSH2 0x1924 JUMP JUMPDEST DUP2 EQ PUSH2 0x1940 JUMPI PUSH0 DUP1 REVERT JUMPDEST POP JUMP JUMPDEST PUSH0 DUP2 CALLDATALOAD SWAP1 POP PUSH2 0x1951 DUP2 PUSH2 0x192D JUMP JUMPDEST SWAP3 SWAP2 POP POP JUMP JUMPDEST PUSH0 DUP1 PUSH1 0x40 DUP4 DUP6 SUB SLT ISZERO PUSH2 0x196D JUMPI PUSH2 0x196C PUSH2 0x18C2 JUMP JUMPDEST JUMPDEST PUSH0 PUSH2 0x197A DUP6 DUP3 DUP7 ADD PUSH2 0x1910 JUMP JUMPDEST SWAP3 POP POP PUSH1 0x20 PUSH2 0x198B DUP6 DUP3 DUP7 ADD PUSH2 0x1943 JUMP JUMPDEST SWAP2 POP POP SWAP3 POP SWAP3 SWAP1 POP JUMP JUMPDEST PUSH0 DUP2 ISZERO ISZERO SWAP1 POP SWAP2 SWAP1 POP JUMP JUMPDEST PUSH2 0x19A9 DUP2 PUSH2 0x1995 JUMP JUMPDEST DUP3 MSTORE POP POP JUMP JUMPDEST PUSH0 PUSH1 0x20 DUP3 ADD SWAP1 POP PUSH2 0x19C2 PUSH0 DUP4 ADD DUP5 PUSH2 0x19A0 JUMP JUMPDEST SWAP3 SWAP2 POP POP JUMP JUMPDEST PUSH2 0x19D1 DUP2 PUSH2 0x1995 JUMP JUMPDEST DUP2 EQ PUSH2 0x19DB JUMPI PUSH0 DUP1 REVERT JUMPDEST POP JUMP JUMPDEST PUSH0 DUP2 CALLDATALOAD SWAP1 POP PUSH2 0x19EC DUP2 PUSH2 0x19C8 JUMP JUMPDEST SWAP3 SWAP2 POP POP JUMP JUMPDEST PUSH0 DUP1 PUSH1 0x40 DUP4 DUP6 SUB SLT ISZERO PUSH2 0x1A08 JUMPI PUSH2 0x1A07 PUSH2 0x18C2 JUMP JUMPDEST JUMPDEST PUSH0 PUSH2 0x1A15 DUP6 DUP3 DUP7 ADD PUSH2 0x19DE JUMP JUMPDEST SWAP3 POP POP PUSH1 0x20 PUSH2 0x1A26 DUP6 DUP3 DUP7 ADD PUSH2 0x1943 JUMP JUMPDEST SWAP2 POP POP SWAP3 POP SWAP3 SWAP1 POP JUMP JUMPDEST PUSH2 0x1A39 DUP2 PUSH2 0x1924 JUMP JUMPDEST DUP3 MSTORE POP POP JUMP JUMPDEST PUSH0 PUSH1 0x20 DUP3 ADD SWAP1 POP PUSH2 0x1A52 PUSH0 DUP4 ADD DUP5 PUSH2 0x1A30 JUMP JUMPDEST SWAP3 SWAP2 POP POP JUMP JUMPDEST PUSH0 DUP1 PUSH0 PUSH1 0x60 DUP5 DUP7 SUB SLT ISZERO PUSH2 0x1A6F JUMPI PUSH2 0x1A6E PUSH2 0x18C2 JUMP JUMPDEST JUMPDEST PUSH0 PUSH2 0x1A7C DUP7 DUP3 DUP8 ADD PUSH2 0x1910 JUMP JUMPDEST SWAP4 POP POP PUSH1 0x20 PUSH2 0x1A8D DUP7 DUP3 DUP8 ADD PUSH2 0x1910 JUMP JUMPDEST SWAP3 POP POP PUSH1 0x40 PUSH2 0x1A9E DUP7 DUP3 DUP8 ADD PUSH2 0x1943 JUMP JUMPDEST SWAP2 POP POP SWAP3 POP SWAP3 POP SWAP3 JUMP JUMPDEST PUSH0 PUSH1 0xFF DUP3 AND SWAP1 POP SWAP2 SWAP1 POP JUMP JUMPDEST PUSH2 0x1ABD DUP2 PUSH2 0x1AA8 JUMP JUMPDEST DUP3 MSTORE POP POP JUMP JUMPDEST PUSH0 PUSH1 0x20 DUP3 ADD SWAP1 POP PUSH2 0x1AD6 PUSH0 DUP4 ADD DUP5 PUSH2 0x1AB4 JUMP JUMPDEST SWAP3 SWAP2 POP POP JUMP JUMPDEST PUSH0 PUSH1 0x20 DUP3 DUP5 SUB SLT ISZERO PUSH2 0x1AF1 JUMPI PUSH2 0x1AF0 PUSH2 0x18C2 JUMP JUMPDEST JUMPDEST PUSH0 PUSH2 0x1AFE DUP5 DUP3 DUP6 ADD PUSH2 0x1943 JUMP JUMPDEST SWAP2 POP POP SWAP3 SWAP2 POP POP JUMP JUMPDEST PUSH0 PUSH1 0x20 DUP3 DUP5 SUB SLT ISZERO PUSH2 0x1B1C JUMPI PUSH2 0x1B1B PUSH2 0x18C2 JUMP JUMPDEST JUMPDEST PUSH0 PUSH2 0x1B29 DUP5 DUP3 DUP6 ADD PUSH2 0x1910 JUMP JUMPDEST SWAP2 POP POP SWAP3 SWAP2 POP POP JUMP JUMPDEST PUSH2 0x1B3B DUP2 PUSH2 0x18E9 JUMP JUMPDEST DUP3 MSTORE POP POP JUMP JUMPDEST PUSH0 PUSH1 0x20 DUP3 ADD SWAP1 POP PUSH2 0x1B54 PUSH0 DUP4 ADD DUP5 PUSH2 0x1B32 JUMP JUMPDEST SWAP3 SWAP2 POP POP JUMP JUMPDEST PUSH2 0x1B63 DUP2 PUSH2 0x1AA8 JUMP JUMPDEST DUP2 EQ PUSH2 0x1B6D JUMPI PUSH0 DUP1 REVERT JUMPDEST POP JUMP JUMPDEST PUSH0 DUP2 CALLDATALOAD SWAP1 POP PUSH2 0x1B7E DUP2 PUSH2 0x1B5A JUMP JUMPDEST SWAP3 SWAP2 POP POP JUMP JUMPDEST PUSH0 PUSH1 0x20 DUP3 DUP5 SUB SLT ISZERO PUSH2 0x1B99 JUMPI PUSH2 0x1B98 PUSH2 0x18C2 JUMP JUMPDEST JUMPDEST PUSH0 PUSH2 0x1BA6 DUP5 DUP3 DUP6 ADD PUSH2 0x1B70 JUMP JUMPDEST SWAP2 POP POP SWAP3 SWAP2 POP POP JUMP JUMPDEST PUSH0 DUP2 MLOAD SWAP1 POP SWAP2 SWAP1 POP JUMP JUMPDEST PUSH0 DUP3 DUP3 MSTORE PUSH1 0x20 DUP3 ADD SWAP1 POP SWAP3 SWAP2 POP POP JUMP JUMPDEST PUSH0 DUP2 SWAP1 POP PUSH1 0x20 DUP3 ADD SWAP1 POP SWAP2 SWAP1 POP JUMP JUMPDEST PUSH2 0x1BE1 DUP2 PUSH2 0x1AA8 JUMP JUMPDEST DUP3 MSTORE POP POP JUMP JUMPDEST PUSH0 PUSH2 0x1BF2 DUP4 DUP4 PUSH2 0x1BD8 JUMP JUMPDEST PUSH1 0x20 DUP4 ADD SWAP1 POP SWAP3 SWAP2 POP POP JUMP JUMPDEST PUSH0 PUSH1 0x20 DUP3 ADD SWAP1 POP SWAP2 SWAP1 POP JUMP JUMPDEST PUSH0 PUSH2 0x1C14 DUP3 PUSH2 0x1BAF JUMP JUMPDEST PUSH2 0x1C1E DUP2 DUP6 PUSH2 0x1BB9 JUMP JUMPDEST SWAP4 POP PUSH2 0x1C29 DUP4 PUSH2 0x1BC9 JUMP JUMPDEST DUP1 PUSH0 JUMPDEST DUP4 DUP2 LT ISZERO PUSH2 0x1C59 JUMPI DUP2 MLOAD PUSH2 0x1C40 DUP9 DUP3 PUSH2 0x1BE7 JUMP JUMPDEST SWAP8 POP PUSH2 0x1C4B DUP4 PUSH2 0x1BFE JUMP JUMPDEST SWAP3 POP POP PUSH1 0x1 DUP2 ADD SWAP1 POP PUSH2 0x1C2C JUMP JUMPDEST POP DUP6 SWAP4 POP POP POP POP SWAP3 SWAP2 POP POP JUMP JUMPDEST PUSH0 PUSH1 0x20 DUP3 ADD SWAP1 POP DUP2 DUP2 SUB PUSH0 DUP4 ADD MSTORE PUSH2 0x1C7E DUP2 DUP5 PUSH2 0x1C0A JUMP JUMPDEST SWAP1 POP SWAP3 SWAP2 POP POP JUMP JUMPDEST PUSH0 PUSH1 0x40 DUP3 ADD SWAP1 POP DUP2 DUP2 SUB PUSH0 DUP4 ADD MSTORE PUSH2 0x1C9E DUP2 DUP6 PUSH2 0x1861 JUMP JUMPDEST SWAP1 POP PUSH2 0x1CAD PUSH1 0x20 DUP4 ADD DUP5 PUSH2 0x1A30 JUMP JUMPDEST SWAP4 SWAP3 POP POP POP JUMP JUMPDEST PUSH0 DUP1 PUSH1 0x40 DUP4 DUP6 SUB SLT ISZERO PUSH2 0x1CCA JUMPI PUSH2 0x1CC9 PUSH2 0x18C2 JUMP JUMPDEST JUMPDEST PUSH0 PUSH2 0x1CD7 DUP6 DUP3 DUP7 ADD PUSH2 0x1910 JUMP JUMPDEST SWAP3 POP POP PUSH1 0x20 PUSH2 0x1CE8 DUP6 DUP3 DUP7 ADD PUSH2 0x1910 JUMP JUMPDEST SWAP2 POP POP SWAP3 POP SWAP3 SWAP1 POP JUMP JUMPDEST PUSH0 DUP1 REVERT JUMPDEST PUSH0 DUP1 REVERT JUMPDEST PUSH32 0x4E487B7100000000000000000000000000000000000000000000000000000000 PUSH0 MSTORE PUSH1 0x41 PUSH1 0x4 MSTORE PUSH1 0x24 PUSH0 REVERT JUMPDEST PUSH2 0x1D30 DUP3 PUSH2 0x1851 JUMP JUMPDEST DUP2 ADD DUP2 DUP2 LT PUSH8 0xFFFFFFFFFFFFFFFF DUP3 GT OR ISZERO PUSH2 0x1D4F JUMPI PUSH2 0x1D4E PUSH2 0x1CFA JUMP JUMPDEST JUMPDEST DUP1 PUSH1 0x40 MSTORE POP POP POP JUMP JUMPDEST PUSH0 PUSH2 0x1D61 PUSH2 0x18B9 JUMP JUMPDEST SWAP1 POP PUSH2 0x1D6D DUP3 DUP3 PUSH2 0x1D27 JUMP JUMPDEST SWAP2 SWAP1 POP JUMP JUMPDEST PUSH0 PUSH8 0xFFFFFFFFFFFFFFFF DUP3 GT ISZERO PUSH2 0x1D8C JUMPI PUSH2 0x1D8B PUSH2 0x1CFA JUMP JUMPDEST JUMPDEST PUSH2 0x1D95 DUP3 PUSH2 0x1851 JUMP JUMPDEST SWAP1 POP PUSH1 0x20 DUP2 ADD SWAP1 POP SWAP2 SWAP1 POP JUMP JUMPDEST DUP3 DUP2 DUP4 CALLDATACOPY PUSH0 DUP4 DUP4 ADD MSTORE POP POP POP JUMP JUMPDEST PUSH0 PUSH2 0x1DC2 PUSH2 0x1DBD DUP5 PUSH2 0x1D72 JUMP JUMPDEST PUSH2 0x1D58 JUMP JUMPDEST SWAP1 POP DUP3 DUP2 MSTORE PUSH1 0x20 DUP2 ADD DUP5 DUP5 DUP5 ADD GT ISZERO PUSH2 0x1DDE JUMPI PUSH2 0x1DDD PUSH2 0x1CF6 JUMP JUMPDEST JUMPDEST PUSH2 0x1DE9 DUP5 DUP3 DUP6 PUSH2 0x1DA2 JUMP JUMPDEST POP SWAP4 SWAP3 POP POP POP JUMP JUMPDEST PUSH0 DUP3 PUSH1 0x1F DUP4 ADD SLT PUSH2 0x1E05 JUMPI PUSH2 0x1E04 PUSH2 0x1CF2 JUMP JUMPDEST JUMPDEST DUP2 CALLDATALOAD PUSH2 0x1E15 DUP5 DUP3 PUSH1 0x20 DUP7 ADD PUSH2 0x1DB0 JUMP JUMPDEST SWAP2 POP POP SWAP3 SWAP2 POP POP JUMP JUMPDEST PUSH0 DUP1 PUSH1 0x40 DUP4 DUP6 SUB SLT ISZERO PUSH2 0x1E34 JUMPI PUSH2 0x1E33 PUSH2 0x18C2 JUMP JUMPDEST JUMPDEST PUSH0 DUP4 ADD CALLDATALOAD PUSH8 0xFFFFFFFFFFFFFFFF DUP2 GT ISZERO PUSH2 0x1E51 JUMPI PUSH2 0x1E50 PUSH2 0x18C6 JUMP JUMPDEST JUMPDEST PUSH2 0x1E5D DUP6 DUP3 DUP7 ADD PUSH2 0x1DF1 JUMP JUMPDEST SWAP3 POP POP PUSH1 0x20 PUSH2 0x1E6E DUP6 DUP3 DUP7 ADD PUSH2 0x1943 JUMP JUMPDEST SWAP2 POP POP SWAP3 POP SWAP3 SWAP1 POP JUMP JUMPDEST PUSH32 0x4E487B7100000000000000000000000000000000000000000000000000000000 PUSH0 MSTORE PUSH1 0x22 PUSH1 0x4 MSTORE PUSH1 0x24 PUSH0 REVERT JUMPDEST PUSH0 PUSH1 0x2 DUP3 DIV SWAP1 POP PUSH1 0x1 DUP3 AND DUP1 PUSH2 0x1EBC JUMPI PUSH1 0x7F DUP3 AND SWAP2 POP JUMPDEST PUSH1 0x20 DUP3 LT DUP2 SUB PUSH2 0x1ECF JUMPI PUSH2 0x1ECE PUSH2 0x1E78 JUMP JUMPDEST JUMPDEST POP SWAP2 SWAP1 POP JUMP JUMPDEST PUSH32 0x496E73756666696369656E742062616C616E6365000000000000000000000000 PUSH0 DUP3 ADD MSTORE POP JUMP JUMPDEST PUSH0 PUSH2 0x1F09 PUSH1 0x14 DUP4 PUSH2 0x1833 JUMP JUMPDEST SWAP2 POP PUSH2 0x1F14 DUP3 PUSH2 0x1ED5 JUMP JUMPDEST PUSH1 0x20 DUP3 ADD SWAP1 POP SWAP2 SWAP1 POP JUMP JUMPDEST PUSH0 PUSH1 0x20 DUP3 ADD SWAP1 POP DUP2 DUP2 SUB PUSH0 DUP4 ADD MSTORE PUSH2 0x1F36 DUP2 PUSH2 0x1EFD JUMP JUMPDEST SWAP1 POP SWAP2 SWAP1 POP JUMP JUMPDEST PUSH0 DUP2 SWAP1 POP SWAP2 SWAP1 POP JUMP JUMPDEST PUSH2 0x1F57 PUSH2 0x1F52 DUP3 PUSH2 0x1924 JUMP JUMPDEST PUSH2 0x1F3D JUMP JUMPDEST DUP3 MSTORE POP POP JUMP JUMPDEST PUSH0 DUP2 PUSH1 0x60 SHL SWAP1 POP SWAP2 SWAP1 POP JUMP JUMPDEST PUSH0 PUSH2 0x1F73 DUP3 PUSH2 0x1F5D JUMP JUMPDEST SWAP1 POP SWAP2 SWAP1 POP JUMP JUMPDEST PUSH0 PUSH2 0x1F84 DUP3 PUSH2 0x1F69 JUMP JUMPDEST SWAP1 POP SWAP2 SWAP1 POP JUMP JUMPDEST PUSH2 0x1F9C PUSH2 0x1F97 DUP3 PUSH2 0x18E9 JUMP JUMPDEST PUSH2 0x1F7A JUMP JUMPDEST DUP3 MSTORE POP POP JUMP JUMPDEST PUSH0 PUSH2 0x1FAD DUP3 DUP6 PUSH2 0x1F46 JUMP JUMPDEST PUSH1 0x20 DUP3 ADD SWAP2 POP PUSH2 0x1FBD DUP3 DUP5 PUSH2 0x1F8B JUMP JUMPDEST PUSH1 0x14 DUP3 ADD SWAP2 POP DUP2 SWAP1 POP SWAP4 SWAP3 POP POP POP JUMP JUMPDEST PUSH32 0x4E487B7100000000000000000000000000000000000000000000000000000000 PUSH0 MSTORE PUSH1 0x12 PUSH1 0x4 MSTORE PUSH1 0x24 PUSH0 REVERT JUMPDEST PUSH0 PUSH2 0x2004 DUP3 PUSH2 0x1924 JUMP JUMPDEST SWAP2 POP PUSH2 0x200F DUP4 PUSH2 0x1924 JUMP JUMPDEST SWAP3 POP DUP3 PUSH2 0x201F JUMPI PUSH2 0x201E PUSH2 0x1FCD JUMP JUMPDEST JUMPDEST DUP3 DUP3 MOD SWAP1 POP SWAP3 SWAP2 POP POP JUMP JUMPDEST PUSH32 0x4E487B7100000000000000000000000000000000000000000000000000000000 PUSH0 MSTORE PUSH1 0x11 PUSH1 0x4 MSTORE PUSH1 0x24 PUSH0 REVERT JUMPDEST PUSH0 PUSH2 0x2061 DUP3 PUSH2 0x1924 JUMP JUMPDEST SWAP2 POP PUSH2 0x206C DUP4 PUSH2 0x1924 JUMP JUMPDEST SWAP3 POP DUP3 DUP3 MUL PUSH2 0x207A DUP2 PUSH2 0x1924 JUMP JUMPDEST SWAP2 POP DUP3 DUP3 DIV DUP5 EQ DUP4 ISZERO OR PUSH2 0x2091 JUMPI PUSH2 0x2090 PUSH2 0x202A JUMP JUMPDEST JUMPDEST POP SWAP3 SWAP2 POP POP JUMP JUMPDEST PUSH32 0x596F7520776F6E21000000000000000000000000000000000000000000000000 PUSH0 DUP3 ADD MSTORE POP JUMP JUMPDEST PUSH0 PUSH2 0x20CC PUSH1 0x8 DUP4 PUSH2 0x1833 JUMP JUMPDEST SWAP2 POP PUSH2 0x20D7 DUP3 PUSH2 0x2098 JUMP JUMPDEST PUSH1 0x20 DUP3 ADD SWAP1 POP SWAP2 SWAP1 POP JUMP JUMPDEST PUSH0 PUSH1 0x60 DUP3 ADD SWAP1 POP PUSH2 0x20F5 PUSH0 DUP4 ADD DUP6 PUSH2 0x1A30 JUMP JUMPDEST PUSH2 0x2102 PUSH1 0x20 DUP4 ADD DUP5 PUSH2 0x19A0 JUMP JUMPDEST DUP2 DUP2 SUB PUSH1 0x40 DUP4 ADD MSTORE PUSH2 0x2113 DUP2 PUSH2 0x20C0 JUMP JUMPDEST SWAP1 POP SWAP4 SWAP3 POP POP POP JUMP JUMPDEST PUSH32 0x596F75206C6F7374210000000000000000000000000000000000000000000000 PUSH0 DUP3 ADD MSTORE POP JUMP JUMPDEST PUSH0 PUSH2 0x2150 PUSH1 0x9 DUP4 PUSH2 0x1833 JUMP JUMPDEST SWAP2 POP PUSH2 0x215B DUP3 PUSH2 0x211C JUMP JUMPDEST PUSH1 0x20 DUP3 ADD SWAP1 POP SWAP2 SWAP1 POP JUMP JUMPDEST PUSH0 PUSH1 0x60 DUP3 ADD SWAP1 POP PUSH2 0x2179 PUSH0 DUP4 ADD DUP6 PUSH2 0x1A30 JUMP JUMPDEST PUSH2 0x2186 PUSH1 0x20 DUP4 ADD DUP5 PUSH2 0x19A0 JUMP JUMPDEST DUP2 DUP2 SUB PUSH1 0x40 DUP4 ADD MSTORE PUSH2 0x2197 DUP2 PUSH2 0x2144 JUMP JUMPDEST SWAP1 POP SWAP4 SWAP3 POP POP POP JUMP JUMPDEST PUSH32 0x4974656D206E6F7420666F756E64000000000000000000000000000000000000 PUSH0 DUP3 ADD MSTORE POP JUMP JUMPDEST PUSH0 PUSH2 0x21D4 PUSH1 0xE DUP4 PUSH2 0x1833 JUMP JUMPDEST SWAP2 POP PUSH2 0x21DF DUP3 PUSH2 0x21A0 JUMP JUMPDEST PUSH1 0x20 DUP3 ADD SWAP1 POP SWAP2 SWAP1 POP JUMP JUMPDEST PUSH0 PUSH1 0x20 DUP3 ADD SWAP1 POP DUP2 DUP2 SUB PUSH0 DUP4 ADD MSTORE PUSH2 0x2201 DUP2 PUSH2 0x21C8 JUMP JUMPDEST SWAP1 POP SWAP2 SWAP1 POP JUMP JUMPDEST PUSH0 DUP2 SLOAD SWAP1 POP PUSH2 0x2216 DUP2 PUSH2 0x1EA5 JUMP JUMPDEST SWAP1 POP SWAP2 SWAP1 POP JUMP JUMPDEST PUSH0 DUP2 SWAP1 POP DUP2 PUSH0 MSTORE PUSH1 0x20 PUSH0 KECCAK256 SWAP1 POP SWAP2 SWAP1 POP JUMP JUMPDEST PUSH0 PUSH1 0x20 PUSH1 0x1F DUP4 ADD DIV SWAP1 POP SWAP2 SWAP1 POP JUMP JUMPDEST PUSH0 DUP3 DUP3 SHL SWAP1 POP SWAP3 SWAP2 POP POP JUMP JUMPDEST PUSH0 PUSH1 0x8 DUP4 MUL PUSH2 0x2279 PUSH32 0xFFFFFFFFFFFFFFFFFFFFFFFFFFFFFFFFFFFFFFFFFFFFFFFFFFFFFFFFFFFFFFFF DUP3 PUSH2 0x223E JUMP JUMPDEST PUSH2 0x2283 DUP7 DUP4 PUSH2 0x223E JUMP JUMPDEST SWAP6 POP DUP1 NOT DUP5 AND SWAP4 POP DUP1 DUP7 AND DUP5 OR SWAP3 POP POP POP SWAP4 SWAP3 POP POP POP JUMP JUMPDEST PUSH0 DUP2 SWAP1 POP SWAP2 SWAP1 POP JUMP JUMPDEST PUSH0 PUSH2 0x22BE PUSH2 0x22B9 PUSH2 0x22B4 DUP5 PUSH2 0x1924 JUMP JUMPDEST PUSH2 0x229B JUMP JUMPDEST PUSH2 0x1924 JUMP JUMPDEST SWAP1 POP SWAP2 SWAP1 POP JUMP JUMPDEST PUSH0 DUP2 SWAP1 POP SWAP2 SWAP1 POP JUMP JUMPDEST PUSH2 0x22D7 DUP4 PUSH2 0x22A4 JUMP JUMPDEST PUSH2 0x22EB PUSH2 0x22E3 DUP3 PUSH2 0x22C5 JUMP JUMPDEST DUP5 DUP5 SLOAD PUSH2 0x224A JUMP JUMPDEST DUP3 SSTORE POP POP POP POP JUMP JUMPDEST PUSH0 SWAP1 JUMP JUMPDEST PUSH2 0x22FF PUSH2 0x22F3 JUMP JUMPDEST PUSH2 0x230A DUP2 DUP5 DUP5 PUSH2 0x22CE JUMP JUMPDEST POP POP POP JUMP JUMPDEST JUMPDEST DUP2 DUP2 LT ISZERO PUSH2 0x232D JUMPI PUSH2 0x2322 PUSH0 DUP3 PUSH2 0x22F7 JUMP JUMPDEST PUSH1 0x1 DUP2 ADD SWAP1 POP PUSH2 0x2310 JUMP JUMPDEST POP POP JUMP JUMPDEST PUSH1 0x1F DUP3 GT ISZERO PUSH2 0x2372 JUMPI PUSH2 0x2343 DUP2 PUSH2 0x221D JUMP JUMPDEST PUSH2 0x234C DUP5 PUSH2 0x222F JUMP JUMPDEST DUP2 ADD PUSH1 0x20 DUP6 LT ISZERO PUSH2 0x235B JUMPI DUP2 SWAP1 POP JUMPDEST PUSH2 0x236F PUSH2 0x2367 DUP6 PUSH2 0x222F JUMP JUMPDEST DUP4 ADD DUP3 PUSH2 0x230F JUMP JUMPDEST POP POP JUMPDEST POP POP POP JUMP JUMPDEST PUSH0 DUP3 DUP3 SHR SWAP1 POP SWAP3 SWAP2 POP POP JUMP JUMPDEST PUSH0 PUSH2 0x2392 PUSH0 NOT DUP5 PUSH1 0x8 MUL PUSH2 0x2377 JUMP JUMPDEST NOT DUP1 DUP4 AND SWAP2 POP POP SWAP3 SWAP2 POP POP JUMP JUMPDEST PUSH0 PUSH2 0x23AA DUP4 DUP4 PUSH2 0x2383 JUMP JUMPDEST SWAP2 POP DUP3 PUSH1 0x2 MUL DUP3 OR SWAP1 POP SWAP3 SWAP2 POP POP JUMP JUMPDEST DUP2 DUP2 SUB PUSH2 0x23C8 JUMPI POP POP PUSH2 0x249D JUMP JUMPDEST PUSH2 0x23D1 DUP3 PUSH2 0x2208 JUMP JUMPDEST PUSH8 0xFFFFFFFFFFFFFFFF DUP2 GT ISZERO PUSH2 0x23EA JUMPI PUSH2 0x23E9 PUSH2 0x1CFA JUMP JUMPDEST JUMPDEST PUSH2 0x23F4 DUP3 SLOAD PUSH2 0x1EA5 JUMP JUMPDEST PUSH2 0x23FF DUP3 DUP3 DUP6 PUSH2 0x2331 JUMP JUMPDEST PUSH0 PUSH1 0x1F DUP4 GT PUSH1 0x1 DUP2 EQ PUSH2 0x242C JUMPI PUSH0 DUP5 ISZERO PUSH2 0x241A JUMPI DUP3 DUP8 ADD SLOAD SWAP1 POP JUMPDEST PUSH2 0x2424 DUP6 DUP3 PUSH2 0x239F JUMP JUMPDEST DUP7 SSTORE POP PUSH2 0x2496 JUMP JUMPDEST PUSH1 0x1F NOT DUP5 AND PUSH2 0x243A DUP8 PUSH2 0x221D JUMP JUMPDEST SWAP7 POP PUSH2 0x2445 DUP7 PUSH2 0x221D JUMP JUMPDEST PUSH0 JUMPDEST DUP3 DUP2 LT ISZERO PUSH2 0x246C JUMPI DUP5 DUP10 ADD SLOAD DUP3 SSTORE PUSH1 0x1 DUP3 ADD SWAP2 POP PUSH1 0x1 DUP6 ADD SWAP5 POP PUSH1 0x20 DUP2 ADD SWAP1 POP PUSH2 0x2447 JUMP JUMPDEST DUP7 DUP4 LT ISZERO PUSH2 0x2489 JUMPI DUP5 DUP10 ADD SLOAD PUSH2 0x2485 PUSH1 0x1F DUP10 AND DUP3 PUSH2 0x2383 JUMP JUMPDEST DUP4 SSTORE POP JUMPDEST PUSH1 0x1 PUSH1 0x2 DUP9 MUL ADD DUP9 SSTORE POP POP POP JUMPDEST POP POP POP POP POP POP JUMPDEST JUMP JUMPDEST PUSH0 DUP2 SLOAD PUSH2 0x24AB DUP2 PUSH2 0x1EA5 JUMP JUMPDEST PUSH2 0x24B5 DUP2 DUP7 PUSH2 0x1833 JUMP JUMPDEST SWAP5 POP PUSH1 0x1 DUP3 AND PUSH0 DUP2 EQ PUSH2 0x24CF JUMPI PUSH1 0x1 DUP2 EQ PUSH2 0x24E5 JUMPI PUSH2 0x2517 JUMP JUMPDEST PUSH1 0xFF NOT DUP4 AND DUP7 MSTORE DUP2 ISZERO ISZERO PUSH1 0x20 MUL DUP7 ADD SWAP4 POP PUSH2 0x2517 JUMP JUMPDEST PUSH2 0x24EE DUP6 PUSH2 0x221D JUMP JUMPDEST PUSH0 JUMPDEST DUP4 DUP2 LT ISZERO PUSH2 0x250F JUMPI DUP2 SLOAD DUP2 DUP10 ADD MSTORE PUSH1 0x1 DUP3 ADD SWAP2 POP PUSH1 0x20 DUP2 ADD SWAP1 POP PUSH2 0x24F0 JUMP JUMPDEST DUP1 DUP9 ADD SWAP6 POP POP POP JUMPDEST POP POP POP SWAP3 SWAP2 POP POP JUMP JUMPDEST PUSH0 PUSH1 0x60 DUP3 ADD SWAP1 POP PUSH2 0x2533 PUSH0 DUP4 ADD DUP7 PUSH2 0x1AB4 JUMP JUMPDEST DUP2 DUP2 SUB PUSH1 0x20 DUP4 ADD MSTORE PUSH2 0x2545 DUP2 DUP6 PUSH2 0x249F JUMP JUMPDEST SWAP1 POP PUSH2 0x2554 PUSH1 0x40 DUP4 ADD DUP5 PUSH2 0x1A30 JUMP JUMPDEST SWAP5 SWAP4 POP POP POP POP JUMP JUMPDEST PUSH32 0x426F6E757320616C726561647920636C61696D65640000000000000000000000 PUSH0 DUP3 ADD MSTORE POP JUMP JUMPDEST PUSH0 PUSH2 0x2590 PUSH1 0x15 DUP4 PUSH2 0x1833 JUMP JUMPDEST SWAP2 POP PUSH2 0x259B DUP3 PUSH2 0x255C JUMP JUMPDEST PUSH1 0x20 DUP3 ADD SWAP1 POP SWAP2 SWAP1 POP JUMP JUMPDEST PUSH0 PUSH1 0x20 DUP3 ADD SWAP1 POP DUP2 DUP2 SUB PUSH0 DUP4 ADD MSTORE PUSH2 0x25BD DUP2 PUSH2 0x2584 JUMP JUMPDEST SWAP1 POP SWAP2 SWAP1 POP JUMP JUMPDEST PUSH32 0x4E487B7100000000000000000000000000000000000000000000000000000000 PUSH0 MSTORE PUSH1 0x32 PUSH1 0x4 MSTORE PUSH1 0x24 PUSH0 REVERT JUMPDEST PUSH0 PUSH1 0x60 DUP3 ADD SWAP1 POP PUSH2 0x2604 PUSH0 DUP4 ADD DUP7 PUSH2 0x1B32 JUMP JUMPDEST PUSH2 0x2611 PUSH1 0x20 DUP4 ADD DUP6 PUSH2 0x1A30 JUMP JUMPDEST PUSH2 0x261E PUSH1 0x40 DUP4 ADD DUP5 PUSH2 0x1A30 JUMP JUMPDEST SWAP5 SWAP4 POP POP POP POP JUMP JUMPDEST PUSH2 0x262F DUP3 PUSH2 0x1829 JUMP JUMPDEST PUSH8 0xFFFFFFFFFFFFFFFF DUP2 GT ISZERO PUSH2 0x2648 JUMPI PUSH2 0x2647 PUSH2 0x1CFA JUMP JUMPDEST JUMPDEST PUSH2 0x2652 DUP3 SLOAD PUSH2 0x1EA5 JUMP JUMPDEST PUSH2 0x265D DUP3 DUP3 DUP6 PUSH2 0x2331 JUMP JUMPDEST PUSH0 PUSH1 0x20 SWAP1 POP PUSH1 0x1F DUP4 GT PUSH1 0x1 DUP2 EQ PUSH2 0x268E JUMPI PUSH0 DUP5 ISZERO PUSH2 0x267C JUMPI DUP3 DUP8 ADD MLOAD SWAP1 POP JUMPDEST PUSH2 0x2686 DUP6 DUP3 PUSH2 0x239F JUMP JUMPDEST DUP7 SSTORE POP PUSH2 0x26ED JUMP JUMPDEST PUSH1 0x1F NOT DUP5 AND PUSH2 0x269C DUP7 PUSH2 0x221D JUMP JUMPDEST PUSH0 JUMPDEST DUP3 DUP2 LT ISZERO PUSH2 0x26C3 JUMPI DUP5 DUP10 ADD MLOAD DUP3 SSTORE PUSH1 0x1 DUP3 ADD SWAP2 POP PUSH1 0x20 DUP6 ADD SWAP5 POP PUSH1 0x20 DUP2 ADD SWAP1 POP PUSH2 0x269E JUMP JUMPDEST DUP7 DUP4 LT ISZERO PUSH2 0x26E0 JUMPI DUP5 DUP10 ADD MLOAD PUSH2 0x26DC PUSH1 0x1F DUP10 AND DUP3 PUSH2 0x2383 JUMP JUMPDEST DUP4 SSTORE POP JUMPDEST PUSH1 0x1 PUSH1 0x2 DUP9 MUL ADD DUP9 SSTORE POP POP POP JUMPDEST POP POP POP POP POP POP JUMP JUMPDEST PUSH0 PUSH2 0x26FF DUP3 PUSH2 0x1AA8 JUMP JUMPDEST SWAP2 POP PUSH1 0xFF DUP3 SUB PUSH2 0x2712 JUMPI PUSH2 0x2711 PUSH2 0x202A JUMP JUMPDEST JUMPDEST PUSH1 0x1 DUP3 ADD SWAP1 POP SWAP2 SWAP1 POP JUMP JUMPDEST PUSH0 PUSH2 0x2727 DUP3 PUSH2 0x1924 JUMP JUMPDEST SWAP2 POP PUSH2 0x2732 DUP4 PUSH2 0x1924 JUMP JUMPDEST SWAP3 POP DUP3 DUP3 ADD SWAP1 POP DUP1 DUP3 GT ISZERO PUSH2 0x274A JUMPI PUSH2 0x2749 PUSH2 0x202A JUMP JUMPDEST JUMPDEST SWAP3 SWAP2 POP POP JUMP INVALID LOG2 PUSH5 0x6970667358 0x22 SLT KECCAK256 DUP8 MSIZE SWAP5 SGT EXP PUSH7 0x25AEE2E303869D CALLDATALOAD BASEFEE LOG2 0xC8 0xD7 STOP PUSH22 0xD41367DAAD7272BFF048CE0E64736F6C634300081A00 CALLER "
				},
				"gasEstimates": {
					"creation": {
						"codeDepositCost": "2023600",
						"executionCost": "infinite",
						"totalCost": "infinite"
					},
					"external": {
						"addItemToStore(string,uint256)": "infinite",
						"allowance(address,address)": "infinite",
						"approve(address,uint256)": "infinite",
						"balanceOf(address)": "2962",
						"betOnRandomNumber(bool,uint256)": "infinite",
						"burn(uint256)": "infinite",
						"burnFrom(address,uint256)": "infinite",
						"burnTokens(uint256)": "infinite",
						"decimals()": "361",
						"getItemDetails(uint8)": "infinite",
						"getMyBalance()": "2650",
						"getUserItems(address)": "infinite",
						"mint(address,uint256)": "infinite",
						"name()": "infinite",
						"owner()": "2582",
						"purchaseItem(uint8)": "infinite",
						"redeemWelcomeBonus()": "infinite",
						"renounceOwnership()": "infinite",
						"symbol()": "infinite",
						"totalSupply()": "2544",
						"transfer(address,uint256)": "infinite",
						"transferFrom(address,address,uint256)": "infinite",
						"transferOwnership(address)": "infinite",
						"transferToken(address,uint256)": "infinite"
					},
					"internal": {
						"_addItem(string memory,uint256)": "infinite",
						"_initializeItems()": "infinite"
					}
				},
				"methodIdentifiers": {
					"addItemToStore(string,uint256)": "e3af42e1",
					"allowance(address,address)": "dd62ed3e",
					"approve(address,uint256)": "095ea7b3",
					"balanceOf(address)": "70a08231",
					"betOnRandomNumber(bool,uint256)": "09ceb537",
					"burn(uint256)": "42966c68",
					"burnFrom(address,uint256)": "79cc6790",
					"burnTokens(uint256)": "6d1b229d",
					"decimals()": "313ce567",
					"getItemDetails(uint8)": "d917bd27",
					"getMyBalance()": "4c738909",
					"getUserItems(address)": "ce6019b4",
					"mint(address,uint256)": "40c10f19",
					"name()": "06fdde03",
					"owner()": "8da5cb5b",
					"purchaseItem(uint8)": "af3bcb7d",
					"redeemWelcomeBonus()": "c81d7604",
					"renounceOwnership()": "715018a6",
					"symbol()": "95d89b41",
					"totalSupply()": "18160ddd",
					"transfer(address,uint256)": "a9059cbb",
					"transferFrom(address,address,uint256)": "23b872dd",
					"transferOwnership(address)": "f2fde38b",
					"transferToken(address,uint256)": "1072cbea"
				}
			},
			"storageLayout": {
				"storage": [
					{
						"astId": 307,
						"contract": "contracts/myContract.sol:DegenToken",
						"label": "_balances",
						"offset": 0,
						"slot": "0",
						"type": "t_mapping(t_address,t_uint256)"
					},
					{
						"astId": 313,
						"contract": "contracts/myContract.sol:DegenToken",
						"label": "_allowances",
						"offset": 0,
						"slot": "1",
						"type": "t_mapping(t_address,t_mapping(t_address,t_uint256))"
					},
					{
						"astId": 315,
						"contract": "contracts/myContract.sol:DegenToken",
						"label": "_totalSupply",
						"offset": 0,
						"slot": "2",
						"type": "t_uint256"
					},
					{
						"astId": 317,
						"contract": "contracts/myContract.sol:DegenToken",
						"label": "_name",
						"offset": 0,
						"slot": "3",
						"type": "t_string_storage"
					},
					{
						"astId": 319,
						"contract": "contracts/myContract.sol:DegenToken",
						"label": "_symbol",
						"offset": 0,
						"slot": "4",
						"type": "t_string_storage"
					},
					{
						"astId": 8,
						"contract": "contracts/myContract.sol:DegenToken",
						"label": "_owner",
						"offset": 0,
						"slot": "5",
						"type": "t_address"
					},
					{
						"astId": 1002,
						"contract": "contracts/myContract.sol:DegenToken",
						"label": "items",
						"offset": 0,
						"slot": "6",
						"type": "t_mapping(t_uint8,t_struct(Item)997_storage)"
					},
					{
						"astId": 1008,
						"contract": "contracts/myContract.sol:DegenToken",
						"label": "playerItems",
						"offset": 0,
						"slot": "7",
						"type": "t_mapping(t_address,t_array(t_struct(Item)997_storage)dyn_storage)"
					},
					{
						"astId": 1010,
						"contract": "contracts/myContract.sol:DegenToken",
						"label": "nextItemId",
						"offset": 0,
						"slot": "8",
						"type": "t_uint8"
					}
				],
				"types": {
					"t_address": {
						"encoding": "inplace",
						"label": "address",
						"numberOfBytes": "20"
					},
					"t_array(t_struct(Item)997_storage)dyn_storage": {
						"base": "t_struct(Item)997_storage",
						"encoding": "dynamic_array",
						"label": "struct DegenToken.Item[]",
						"numberOfBytes": "32"
					},
					"t_mapping(t_address,t_array(t_struct(Item)997_storage)dyn_storage)": {
						"encoding": "mapping",
						"key": "t_address",
						"label": "mapping(address => struct DegenToken.Item[])",
						"numberOfBytes": "32",
						"value": "t_array(t_struct(Item)997_storage)dyn_storage"
					},
					"t_mapping(t_address,t_mapping(t_address,t_uint256))": {
						"encoding": "mapping",
						"key": "t_address",
						"label": "mapping(address => mapping(address => uint256))",
						"numberOfBytes": "32",
						"value": "t_mapping(t_address,t_uint256)"
					},
					"t_mapping(t_address,t_uint256)": {
						"encoding": "mapping",
						"key": "t_address",
						"label": "mapping(address => uint256)",
						"numberOfBytes": "32",
						"value": "t_uint256"
					},
					"t_mapping(t_uint8,t_struct(Item)997_storage)": {
						"encoding": "mapping",
						"key": "t_uint8",
						"label": "mapping(uint8 => struct DegenToken.Item)",
						"numberOfBytes": "32",
						"value": "t_struct(Item)997_storage"
					},
					"t_string_storage": {
						"encoding": "bytes",
						"label": "string",
						"numberOfBytes": "32"
					},
					"t_struct(Item)997_storage": {
						"encoding": "inplace",
						"label": "struct DegenToken.Item",
						"members": [
							{
								"astId": 992,
								"contract": "contracts/myContract.sol:DegenToken",
								"label": "name",
								"offset": 0,
								"slot": "0",
								"type": "t_string_storage"
							},
							{
								"astId": 994,
								"contract": "contracts/myContract.sol:DegenToken",
								"label": "itemId",
								"offset": 0,
								"slot": "1",
								"type": "t_uint8"
							},
							{
								"astId": 996,
								"contract": "contracts/myContract.sol:DegenToken",
								"label": "price",
								"offset": 0,
								"slot": "2",
								"type": "t_uint256"
							}
						],
						"numberOfBytes": "96"
					},
					"t_uint256": {
						"encoding": "inplace",
						"label": "uint256",
						"numberOfBytes": "32"
					},
					"t_uint8": {
						"encoding": "inplace",
						"label": "uint8",
						"numberOfBytes": "1"
					}
				}
			},
			"userdoc": {
				"kind": "user",
				"methods": {},
				"version": 1
			}
		}
	}
}