{
	"data": {
		"bytecode": {
			"linkReferences": {},
			"object": "608060405234801561000f575f80fd5b506040516134fb3803806134fb83398181016040528101906100319190610911565b816040518060400160405280600581526020017f446567656e0000000000000000000000000000000000000000000000000000008152506040518060400160405280600381526020017f44474e000000000000000000000000000000000000000000000000000000000081525081600390816100ad9190610b80565b5080600490816100bd9190610b80565b5050505f73ffffffffffffffffffffffffffffffffffffffff168173ffffffffffffffffffffffffffffffffffffffff1603610130575f6040517f1e4fbdf70000000000000000000000000000000000000000000000000000000081526004016101279190610c5e565b60405180910390fd5b61013f8161017460201b60201c565b5061014f8261023760201b60201c565b61015f82826102c760201b60201c565b61016d6102e960201b60201c565b5050610d68565b5f60055f9054906101000a900473ffffffffffffffffffffffffffffffffffffffff1690508160055f6101000a81548173ffffffffffffffffffffffffffffffffffffffff021916908373ffffffffffffffffffffffffffffffffffffffff1602179055508173ffffffffffffffffffffffffffffffffffffffff168173ffffffffffffffffffffffffffffffffffffffff167f8be0079c531659141344cd1fd0a4f28419497f9722a3daafe3b4186f6b6457e060405160405180910390a35050565b61024561044d60201b60201c565b5f73ffffffffffffffffffffffffffffffffffffffff168173ffffffffffffffffffffffffffffffffffffffff16036102b5575f6040517f1e4fbdf70000000000000000000000000000000000000000000000000000000081526004016102ac9190610c5e565b60405180910390fd5b6102c48161017460201b60201c565b50565b6102d561044d60201b60201c565b6102e582826104e660201b60201c565b5050565b61032f6040518060400160405280601081526020017f4e6f76696365204e6176696761746f7200000000000000000000000000000000815250606461056b60201b60201c565b6103766040518060400160405280600f81526020017f4d7974686963204d6176657269636b00000000000000000000000000000000008152506102bc61056b60201b60201c565b6103bd6040518060400160405280601181526020017f43656c65737469616c20437275736865720000000000000000000000000000008152506104b061056b60201b60201c565b6104046040518060400160405280600a81526020017f41737472616c204163650000000000000000000000000000000000000000000081525061089861056b60201b60201c565b61044b6040518060400160405280601081526020017f446976696e6520446f6d696e61746f720000000000000000000000000000000081525061096061056b60201b60201c565b565b61045b61063860201b60201c565b73ffffffffffffffffffffffffffffffffffffffff1661047f61063f60201b60201c565b73ffffffffffffffffffffffffffffffffffffffff16146104e4576104a861063860201b60201c565b6040517f118cdaa70000000000000000000000000000000000000000000000000000000081526004016104db9190610c5e565b60405180910390fd5b565b5f73ffffffffffffffffffffffffffffffffffffffff168273ffffffffffffffffffffffffffffffffffffffff1603610556575f6040517fec442f0500000000000000000000000000000000000000000000000000000000815260040161054d9190610c5e565b60405180910390fd5b6105675f838361066760201b60201c565b5050565b604051806060016040528083815260200160085f9054906101000a900460ff1660ff1681526020018281525060065f60085f9054906101000a900460ff1660ff1660ff1681526020019081526020015f205f820151815f0190816105cf9190610b80565b506020820151816001015f6101000a81548160ff021916908360ff1602179055506040820151816002015590505060085f81819054906101000a900460ff168092919061061b90610cb0565b91906101000a81548160ff021916908360ff160217905550505050565b5f33905090565b5f60055f9054906101000a900473ffffffffffffffffffffffffffffffffffffffff16905090565b5f73ffffffffffffffffffffffffffffffffffffffff168373ffffffffffffffffffffffffffffffffffffffff16036106b7578060025f8282546106ab9190610cd8565b92505081905550610785565b5f805f8573ffffffffffffffffffffffffffffffffffffffff1673ffffffffffffffffffffffffffffffffffffffff1681526020019081526020015f2054905081811015610740578381836040517fe450d38c00000000000000000000000000000000000000000000000000000000815260040161073793929190610d1a565b60405180910390fd5b8181035f808673ffffffffffffffffffffffffffffffffffffffff1673ffffffffffffffffffffffffffffffffffffffff1681526020019081526020015f2081905550505b5f73ffffffffffffffffffffffffffffffffffffffff168273ffffffffffffffffffffffffffffffffffffffff16036107cc578060025f8282540392505081905550610816565b805f808473ffffffffffffffffffffffffffffffffffffffff1673ffffffffffffffffffffffffffffffffffffffff1681526020019081526020015f205f82825401925050819055505b8173ffffffffffffffffffffffffffffffffffffffff168373ffffffffffffffffffffffffffffffffffffffff167fddf252ad1be2c89b69c2b068fc378daa952ba7f163c4a11628f55a4df523b3ef836040516108739190610d4f565b60405180910390a3505050565b5f80fd5b5f73ffffffffffffffffffffffffffffffffffffffff82169050919050565b5f6108ad82610884565b9050919050565b6108bd816108a3565b81146108c7575f80fd5b50565b5f815190506108d8816108b4565b92915050565b5f819050919050565b6108f0816108de565b81146108fa575f80fd5b50565b5f8151905061090b816108e7565b92915050565b5f806040838503121561092757610926610880565b5b5f610934858286016108ca565b9250506020610945858286016108fd565b9150509250929050565b5f81519050919050565b7f4e487b71000000000000000000000000000000000000000000000000000000005f52604160045260245ffd5b7f4e487b71000000000000000000000000000000000000000000000000000000005f52602260045260245ffd5b5f60028204905060018216806109ca57607f821691505b6020821081036109dd576109dc610986565b5b50919050565b5f819050815f5260205f209050919050565b5f6020601f8301049050919050565b5f82821b905092915050565b5f60088302610a3f7fffffffffffffffffffffffffffffffffffffffffffffffffffffffffffffffff82610a04565b610a498683610a04565b95508019841693508086168417925050509392505050565b5f819050919050565b5f610a84610a7f610a7a846108de565b610a61565b6108de565b9050919050565b5f819050919050565b610a9d83610a6a565b610ab1610aa982610a8b565b848454610a10565b825550505050565b5f90565b610ac5610ab9565b610ad0818484610a94565b505050565b5b81811015610af357610ae85f82610abd565b600181019050610ad6565b5050565b601f821115610b3857610b09816109e3565b610b12846109f5565b81016020851015610b21578190505b610b35610b2d856109f5565b830182610ad5565b50505b505050565b5f82821c905092915050565b5f610b585f1984600802610b3d565b1980831691505092915050565b5f610b708383610b49565b9150826002028217905092915050565b610b898261094f565b67ffffffffffffffff811115610ba257610ba1610959565b5b610bac82546109b3565b610bb7828285610af7565b5f60209050601f831160018114610be8575f8415610bd6578287015190505b610be08582610b65565b865550610c47565b601f198416610bf6866109e3565b5f5b82811015610c1d57848901518255600182019150602085019450602081019050610bf8565b86831015610c3a5784890151610c36601f891682610b49565b8355505b6001600288020188555050505b505050505050565b610c58816108a3565b82525050565b5f602082019050610c715f830184610c4f565b92915050565b7f4e487b71000000000000000000000000000000000000000000000000000000005f52601160045260245ffd5b5f60ff82169050919050565b5f610cba82610ca4565b915060ff8203610ccd57610ccc610c77565b5b600182019050919050565b5f610ce2826108de565b9150610ced836108de565b9250828201905080821115610d0557610d04610c77565b5b92915050565b610d14816108de565b82525050565b5f606082019050610d2d5f830186610c4f565b610d3a6020830185610d0b565b610d476040830184610d0b565b949350505050565b5f602082019050610d625f830184610d0b565b92915050565b61278680610d755f395ff3fe608060405234801561000f575f80fd5b5060043610610156575f3560e01c8063715018a6116100c1578063c81d76041161007a578063c81d76041461039c578063ce6019b4146103a6578063d917bd27146103d6578063dd62ed3e14610407578063e3af42e114610437578063f2fde38b1461045357610156565b8063715018a6146102ee57806379cc6790146102f85780638da5cb5b1461031457806395d89b4114610332578063a9059cbb14610350578063af3bcb7d1461038057610156565b8063313ce56711610113578063313ce5671461022e57806340c10f191461024c57806342966c68146102685780634c738909146102845780636d1b229d146102a257806370a08231146102be57610156565b806306fdde031461015a578063095ea7b31461017857806309ceb537146101a85780631072cbea146101c457806318160ddd146101e057806323b872dd146101fe575b5f80fd5b61016261046f565b60405161016f9190611899565b60405180910390f35b610192600480360381019061018d9190611957565b6104ff565b60405161019f91906119af565b60405180910390f35b6101c260048036038101906101bd91906119f2565b610521565b005b6101de60048036038101906101d99190611957565b61067f565b005b6101e86106d9565b6040516101f59190611a3f565b60405180910390f35b61021860048036038101906102139190611a58565b6106e2565b60405161022591906119af565b60405180910390f35b610236610710565b6040516102439190611ac3565b60405180910390f35b61026660048036038101906102619190611957565b610718565b005b610282600480360381019061027d9190611adc565b61072e565b005b61028c610742565b6040516102999190611a3f565b60405180910390f35b6102bc60048036038101906102b79190611adc565b610751565b005b6102d860048036038101906102d39190611b07565b6107a8565b6040516102e59190611a3f565b60405180910390f35b6102f66107ed565b005b610312600480360381019061030d9190611957565b610800565b005b61031c610820565b6040516103299190611b41565b60405180910390f35b61033a610848565b6040516103479190611899565b60405180910390f35b61036a60048036038101906103659190611957565b6108d8565b60405161037791906119af565b60405180910390f35b61039a60048036038101906103959190611b84565b6108fa565b005b6103a4610b2a565b005b6103c060048036038101906103bb9190611b07565b610b81565b6040516103cd9190611c66565b60405180910390f35b6103f060048036038101906103eb9190611b84565b610d85565b6040516103fe929190611c86565b60405180910390f35b610421600480360381019061041c9190611cb4565b610e75565b60405161042e9190611a3f565b60405180910390f35b610451600480360381019061044c9190611e1e565b610ef7565b005b61046d60048036038101906104689190611b07565b610f0d565b005b60606003805461047e90611ea5565b80601f01602080910402602001604051908101604052809291908181526020018280546104aa90611ea5565b80156104f55780601f106104cc576101008083540402835291602001916104f5565b820191905f5260205f20905b8154815290600101906020018083116104d857829003601f168201915b5050505050905090565b5f80610509610f91565b9050610516818585610f98565b600191505092915050565b8061052b336107a8565b101561056c576040517f08c379a000000000000000000000000000000000000000000000000000000000815260040161056390611f1f565b60405180910390fd5b5f600a4233604051602001610582929190611fa2565b604051602081830303815290604052805190602001205f1c6105a49190611ffa565b905060058110151583151503610620576105ca336002846105c59190612057565b610faa565b3373ffffffffffffffffffffffffffffffffffffffff167fd04d9689d8e43bc0bacea67661ef472dcf321f34f08af72f651af30c4c8665878260016040516106139291906120e2565b60405180910390a261067a565b6106298261072e565b3373ffffffffffffffffffffffffffffffffffffffff167fd04d9689d8e43bc0bacea67661ef472dcf321f34f08af72f651af30c4c866587825f604051610671929190612166565b60405180910390a25b505050565b80610689336107a8565b10156106ca576040517f08c379a00000000000000000000000000000000000000000000000000000000081526004016106c190611f1f565b60405180910390fd5b6106d5338383611029565b5050565b5f600254905090565b5f806106ec610f91565b90506106f9858285611119565b610704858585611029565b60019150509392505050565b5f6012905090565b6107206111ab565b61072a8282610faa565b5050565b61073f610739610f91565b82611232565b50565b5f61074c336107a8565b905090565b8061075b336107a8565b101561079c576040517f08c379a000000000000000000000000000000000000000000000000000000000815260040161079390611f1f565b60405180910390fd5b6107a58161072e565b50565b5f805f8373ffffffffffffffffffffffffffffffffffffffff1673ffffffffffffffffffffffffffffffffffffffff1681526020019081526020015f20549050919050565b6107f56111ab565b6107fe5f6112b1565b565b6108128261080c610f91565b83611119565b61081c8282611232565b5050565b5f60055f9054906101000a900473ffffffffffffffffffffffffffffffffffffffff16905090565b60606004805461085790611ea5565b80601f016020809104026020016040519081016040528092919081815260200182805461088390611ea5565b80156108ce5780601f106108a5576101008083540402835291602001916108ce565b820191905f5260205f20905b8154815290600101906020018083116108b157829003601f168201915b5050505050905090565b5f806108e2610f91565b90506108ef818585611029565b600191505092915050565b5f60065f8360ff1660ff1681526020019081526020015f206002015411610956576040517f08c379a000000000000000000000000000000000000000000000000000000000815260040161094d906121ea565b60405180910390fd5b60065f8260ff1660ff1681526020019081526020015f206002015461097a336107a8565b10156109bb576040517f08c379a00000000000000000000000000000000000000000000000000000000081526004016109b290611f1f565b60405180910390fd5b6109de60065f8360ff1660ff1681526020019081526020015f206002015461072e565b60075f3373ffffffffffffffffffffffffffffffffffffffff1673ffffffffffffffffffffffffffffffffffffffff1681526020019081526020015f2060065f8360ff1660ff1681526020019081526020015f20908060018154018082558091505060019003905f5260205f2090600302015f909190919091505f8201815f019081610a6a91906123ba565b50600182015f9054906101000a900460ff16816001015f6101000a81548160ff021916908360ff1602179055506002820154816002015550503373ffffffffffffffffffffffffffffffffffffffff167f8bedd141782c49139782bd92bd7a760a0bcb544ffecfd2b25f00366fae06598e8260065f8560ff1660ff1681526020019081526020015f205f0160065f8660ff1660ff1681526020019081526020015f2060020154604051610b1f93929190612520565b60405180910390a250565b5f610b34336107a8565b14610b74576040517f08c379a0000000000000000000000000000000000000000000000000000000008152600401610b6b906125a6565b60405180910390fd5b610b7f336032610faa565b565b60605f60075f8473ffffffffffffffffffffffffffffffffffffffff1673ffffffffffffffffffffffffffffffffffffffff1681526020019081526020015f20805480602002602001604051908101604052809291908181526020015f905b82821015610cc5578382905f5260205f2090600302016040518060600160405290815f82018054610c1090611ea5565b80601f0160208091040260200160405190810160405280929190818152602001828054610c3c90611ea5565b8015610c875780601f10610c5e57610100808354040283529160200191610c87565b820191905f5260205f20905b815481529060010190602001808311610c6a57829003601f168201915b50505050508152602001600182015f9054906101000a900460ff1660ff1660ff16815260200160028201548152505081526020019060010190610be0565b5050505090505f815190505f8167ffffffffffffffff811115610ceb57610cea611cfa565b5b604051908082528060200260200182016040528015610d195781602001602082028036833780820191505090505b5090505f5b82811015610d7957838181518110610d3957610d386125c4565b5b602002602001015160200151828281518110610d5857610d576125c4565b5b602002602001019060ff16908160ff16815250508080600101915050610d1e565b50809350505050919050565b60605f8060065f8560ff1660ff1681526020019081526020015f206040518060600160405290815f82018054610dba90611ea5565b80601f0160208091040260200160405190810160405280929190818152602001828054610de690611ea5565b8015610e315780601f10610e0857610100808354040283529160200191610e31565b820191905f5260205f20905b815481529060010190602001808311610e1457829003601f168201915b50505050508152602001600182015f9054906101000a900460ff1660ff1660ff1681526020016002820154815250509050805f015181604001519250925050915091565b5f60015f8473ffffffffffffffffffffffffffffffffffffffff1673ffffffffffffffffffffffffffffffffffffffff1681526020019081526020015f205f8373ffffffffffffffffffffffffffffffffffffffff1673ffffffffffffffffffffffffffffffffffffffff1681526020019081526020015f2054905092915050565b610eff6111ab565b610f098282611374565b5050565b610f156111ab565b5f73ffffffffffffffffffffffffffffffffffffffff168173ffffffffffffffffffffffffffffffffffffffff1603610f85575f6040517f1e4fbdf7000000000000000000000000000000000000000000000000000000008152600401610f7c9190611b41565b60405180910390fd5b610f8e816112b1565b50565b5f33905090565b610fa58383836001611441565b505050565b5f73ffffffffffffffffffffffffffffffffffffffff168273ffffffffffffffffffffffffffffffffffffffff160361101a575f6040517fec442f050000000000000000000000000000000000000000000000000000000081526004016110119190611b41565b60405180910390fd5b6110255f8383611610565b5050565b5f73ffffffffffffffffffffffffffffffffffffffff168373ffffffffffffffffffffffffffffffffffffffff1603611099575f6040517f96c6fd1e0000000000000000000000000000000000000000000000000000000081526004016110909190611b41565b60405180910390fd5b5f73ffffffffffffffffffffffffffffffffffffffff168273ffffffffffffffffffffffffffffffffffffffff1603611109575f6040517fec442f050000000000000000000000000000000000000000000000000000000081526004016111009190611b41565b60405180910390fd5b611114838383611610565b505050565b5f6111248484610e75565b90507fffffffffffffffffffffffffffffffffffffffffffffffffffffffffffffffff81146111a55781811015611196578281836040517ffb8f41b200000000000000000000000000000000000000000000000000000000815260040161118d939291906125f1565b60405180910390fd5b6111a484848484035f611441565b5b50505050565b6111b3610f91565b73ffffffffffffffffffffffffffffffffffffffff166111d1610820565b73ffffffffffffffffffffffffffffffffffffffff1614611230576111f4610f91565b6040517f118cdaa70000000000000000000000000000000000000000000000000000000081526004016112279190611b41565b60405180910390fd5b565b5f73ffffffffffffffffffffffffffffffffffffffff168273ffffffffffffffffffffffffffffffffffffffff16036112a2575f6040517f96c6fd1e0000000000000000000000000000000000000000000000000000000081526004016112999190611b41565b60405180910390fd5b6112ad825f83611610565b5050565b5f60055f9054906101000a900473ffffffffffffffffffffffffffffffffffffffff1690508160055f6101000a81548173ffffffffffffffffffffffffffffffffffffffff021916908373ffffffffffffffffffffffffffffffffffffffff1602179055508173ffffffffffffffffffffffffffffffffffffffff168173ffffffffffffffffffffffffffffffffffffffff167f8be0079c531659141344cd1fd0a4f28419497f9722a3daafe3b4186f6b6457e060405160405180910390a35050565b604051806060016040528083815260200160085f9054906101000a900460ff1660ff1681526020018281525060065f60085f9054906101000a900460ff1660ff1660ff1681526020019081526020015f205f820151815f0190816113d89190612626565b506020820151816001015f6101000a81548160ff021916908360ff1602179055506040820151816002015590505060085f81819054906101000a900460ff1680929190611424906126f5565b91906101000a81548160ff021916908360ff160217905550505050565b5f73ffffffffffffffffffffffffffffffffffffffff168473ffffffffffffffffffffffffffffffffffffffff16036114b1575f6040517fe602df050000000000000000000000000000000000000000000000000000000081526004016114a89190611b41565b60405180910390fd5b5f73ffffffffffffffffffffffffffffffffffffffff168373ffffffffffffffffffffffffffffffffffffffff1603611521575f6040517f94280d620000000000000000000000000000000000000000000000000000000081526004016115189190611b41565b60405180910390fd5b8160015f8673ffffffffffffffffffffffffffffffffffffffff1673ffffffffffffffffffffffffffffffffffffffff1681526020019081526020015f205f8573ffffffffffffffffffffffffffffffffffffffff1673ffffffffffffffffffffffffffffffffffffffff1681526020019081526020015f2081905550801561160a578273ffffffffffffffffffffffffffffffffffffffff168473ffffffffffffffffffffffffffffffffffffffff167f8c5be1e5ebec7d5bd14f71427d1e84f3dd0314c0f7b2291e5b200ac8c7c3b925846040516116019190611a3f565b60405180910390a35b50505050565b5f73ffffffffffffffffffffffffffffffffffffffff168373ffffffffffffffffffffffffffffffffffffffff1603611660578060025f828254611654919061271d565b9250508190555061172e565b5f805f8573ffffffffffffffffffffffffffffffffffffffff1673ffffffffffffffffffffffffffffffffffffffff1681526020019081526020015f20549050818110156116e9578381836040517fe450d38c0000000000000000000000000000000000000000000000000000000081526004016116e0939291906125f1565b60405180910390fd5b8181035f808673ffffffffffffffffffffffffffffffffffffffff1673ffffffffffffffffffffffffffffffffffffffff1681526020019081526020015f2081905550505b5f73ffffffffffffffffffffffffffffffffffffffff168273ffffffffffffffffffffffffffffffffffffffff1603611775578060025f82825403925050819055506117bf565b805f808473ffffffffffffffffffffffffffffffffffffffff1673ffffffffffffffffffffffffffffffffffffffff1681526020019081526020015f205f82825401925050819055505b8173ffffffffffffffffffffffffffffffffffffffff168373ffffffffffffffffffffffffffffffffffffffff167fddf252ad1be2c89b69c2b068fc378daa952ba7f163c4a11628f55a4df523b3ef8360405161181c9190611a3f565b60405180910390a3505050565b5f81519050919050565b5f82825260208201905092915050565b8281835e5f83830152505050565b5f601f19601f8301169050919050565b5f61186b82611829565b6118758185611833565b9350611885818560208601611843565b61188e81611851565b840191505092915050565b5f6020820190508181035f8301526118b18184611861565b905092915050565b5f604051905090565b5f80fd5b5f80fd5b5f73ffffffffffffffffffffffffffffffffffffffff82169050919050565b5f6118f3826118ca565b9050919050565b611903816118e9565b811461190d575f80fd5b50565b5f8135905061191e816118fa565b92915050565b5f819050919050565b61193681611924565b8114611940575f80fd5b50565b5f813590506119518161192d565b92915050565b5f806040838503121561196d5761196c6118c2565b5b5f61197a85828601611910565b925050602061198b85828601611943565b9150509250929050565b5f8115159050919050565b6119a981611995565b82525050565b5f6020820190506119c25f8301846119a0565b92915050565b6119d181611995565b81146119db575f80fd5b50565b5f813590506119ec816119c8565b92915050565b5f8060408385031215611a0857611a076118c2565b5b5f611a15858286016119de565b9250506020611a2685828601611943565b9150509250929050565b611a3981611924565b82525050565b5f602082019050611a525f830184611a30565b92915050565b5f805f60608486031215611a6f57611a6e6118c2565b5b5f611a7c86828701611910565b9350506020611a8d86828701611910565b9250506040611a9e86828701611943565b9150509250925092565b5f60ff82169050919050565b611abd81611aa8565b82525050565b5f602082019050611ad65f830184611ab4565b92915050565b5f60208284031215611af157611af06118c2565b5b5f611afe84828501611943565b91505092915050565b5f60208284031215611b1c57611b1b6118c2565b5b5f611b2984828501611910565b91505092915050565b611b3b816118e9565b82525050565b5f602082019050611b545f830184611b32565b92915050565b611b6381611aa8565b8114611b6d575f80fd5b50565b5f81359050611b7e81611b5a565b92915050565b5f60208284031215611b9957611b986118c2565b5b5f611ba684828501611b70565b91505092915050565b5f81519050919050565b5f82825260208201905092915050565b5f819050602082019050919050565b611be181611aa8565b82525050565b5f611bf28383611bd8565b60208301905092915050565b5f602082019050919050565b5f611c1482611baf565b611c1e8185611bb9565b9350611c2983611bc9565b805f5b83811015611c59578151611c408882611be7565b9750611c4b83611bfe565b925050600181019050611c2c565b5085935050505092915050565b5f6020820190508181035f830152611c7e8184611c0a565b905092915050565b5f6040820190508181035f830152611c9e8185611861565b9050611cad6020830184611a30565b9392505050565b5f8060408385031215611cca57611cc96118c2565b5b5f611cd785828601611910565b9250506020611ce885828601611910565b9150509250929050565b5f80fd5b5f80fd5b7f4e487b71000000000000000000000000000000000000000000000000000000005f52604160045260245ffd5b611d3082611851565b810181811067ffffffffffffffff82111715611d4f57611d4e611cfa565b5b80604052505050565b5f611d616118b9565b9050611d6d8282611d27565b919050565b5f67ffffffffffffffff821115611d8c57611d8b611cfa565b5b611d9582611851565b9050602081019050919050565b828183375f83830152505050565b5f611dc2611dbd84611d72565b611d58565b905082815260208101848484011115611dde57611ddd611cf6565b5b611de9848285611da2565b509392505050565b5f82601f830112611e0557611e04611cf2565b5b8135611e15848260208601611db0565b91505092915050565b5f8060408385031215611e3457611e336118c2565b5b5f83013567ffffffffffffffff811115611e5157611e506118c6565b5b611e5d85828601611df1565b9250506020611e6e85828601611943565b9150509250929050565b7f4e487b71000000000000000000000000000000000000000000000000000000005f52602260045260245ffd5b5f6002820490506001821680611ebc57607f821691505b602082108103611ecf57611ece611e78565b5b50919050565b7f496e73756666696369656e742062616c616e63650000000000000000000000005f82015250565b5f611f09601483611833565b9150611f1482611ed5565b602082019050919050565b5f6020820190508181035f830152611f3681611efd565b9050919050565b5f819050919050565b611f57611f5282611924565b611f3d565b82525050565b5f8160601b9050919050565b5f611f7382611f5d565b9050919050565b5f611f8482611f69565b9050919050565b611f9c611f97826118e9565b611f7a565b82525050565b5f611fad8285611f46565b602082019150611fbd8284611f8b565b6014820191508190509392505050565b7f4e487b71000000000000000000000000000000000000000000000000000000005f52601260045260245ffd5b5f61200482611924565b915061200f83611924565b92508261201f5761201e611fcd565b5b828206905092915050565b7f4e487b71000000000000000000000000000000000000000000000000000000005f52601160045260245ffd5b5f61206182611924565b915061206c83611924565b925082820261207a81611924565b915082820484148315176120915761209061202a565b5b5092915050565b7f596f7520776f6e210000000000000000000000000000000000000000000000005f82015250565b5f6120cc600883611833565b91506120d782612098565b602082019050919050565b5f6060820190506120f55f830185611a30565b61210260208301846119a0565b8181036040830152612113816120c0565b90509392505050565b7f596f75206c6f73742100000000000000000000000000000000000000000000005f82015250565b5f612150600983611833565b915061215b8261211c565b602082019050919050565b5f6060820190506121795f830185611a30565b61218660208301846119a0565b818103604083015261219781612144565b90509392505050565b7f4974656d206e6f7420666f756e640000000000000000000000000000000000005f82015250565b5f6121d4600e83611833565b91506121df826121a0565b602082019050919050565b5f6020820190508181035f830152612201816121c8565b9050919050565b5f8154905061221681611ea5565b9050919050565b5f819050815f5260205f209050919050565b5f6020601f8301049050919050565b5f82821b905092915050565b5f600883026122797fffffffffffffffffffffffffffffffffffffffffffffffffffffffffffffffff8261223e565b612283868361223e565b95508019841693508086168417925050509392505050565b5f819050919050565b5f6122be6122b96122b484611924565b61229b565b611924565b9050919050565b5f819050919050565b6122d7836122a4565b6122eb6122e3826122c5565b84845461224a565b825550505050565b5f90565b6122ff6122f3565b61230a8184846122ce565b505050565b5b8181101561232d576123225f826122f7565b600181019050612310565b5050565b601f821115612372576123438161221d565b61234c8461222f565b8101602085101561235b578190505b61236f6123678561222f565b83018261230f565b50505b505050565b5f82821c905092915050565b5f6123925f1984600802612377565b1980831691505092915050565b5f6123aa8383612383565b9150826002028217905092915050565b8181036123c857505061249d565b6123d182612208565b67ffffffffffffffff8111156123ea576123e9611cfa565b5b6123f48254611ea5565b6123ff828285612331565b5f601f83116001811461242c575f841561241a578287015490505b612424858261239f565b865550612496565b601f19841661243a8761221d565b96506124458661221d565b5f5b8281101561246c57848901548255600182019150600185019450602081019050612447565b868310156124895784890154612485601f891682612383565b8355505b6001600288020188555050505b5050505050505b565b5f81546124ab81611ea5565b6124b58186611833565b9450600182165f81146124cf57600181146124e557612517565b60ff198316865281151560200286019350612517565b6124ee8561221d565b5f5b8381101561250f578154818901526001820191506020810190506124f0565b808801955050505b50505092915050565b5f6060820190506125335f830186611ab4565b8181036020830152612545818561249f565b90506125546040830184611a30565b949350505050565b7f426f6e757320616c726561647920636c61696d656400000000000000000000005f82015250565b5f612590601583611833565b915061259b8261255c565b602082019050919050565b5f6020820190508181035f8301526125bd81612584565b9050919050565b7f4e487b71000000000000000000000000000000000000000000000000000000005f52603260045260245ffd5b5f6060820190506126045f830186611b32565b6126116020830185611a30565b61261e6040830184611a30565b949350505050565b61262f82611829565b67ffffffffffffffff81111561264857612647611cfa565b5b6126528254611ea5565b61265d828285612331565b5f60209050601f83116001811461268e575f841561267c578287015190505b612686858261239f565b8655506126ed565b601f19841661269c8661221d565b5f5b828110156126c35784890151825560018201915060208501945060208101905061269e565b868310156126e057848901516126dc601f891682612383565b8355505b6001600288020188555050505b505050505050565b5f6126ff82611aa8565b915060ff82036127125761271161202a565b5b600182019050919050565b5f61272782611924565b915061273283611924565b925082820190508082111561274a5761274961202a565b5b9291505056fea2646970667358221220875994130a6625aee2e303869d3548a2c8d70075d41367daad7272bff048ce0e64736f6c634300081a0033",
			"opcodes": "PUSH1 0x80 PUSH1 0x40 MSTORE CALLVALUE DUP1 ISZERO PUSH2 0xF JUMPI PUSH0 DUP1 REVERT JUMPDEST POP PUSH1 0x40 MLOAD PUSH2 0x34FB CODESIZE SUB DUP1 PUSH2 0x34FB DUP4 CODECOPY DUP2 DUP2 ADD PUSH1 0x40 MSTORE DUP2 ADD SWAP1 PUSH2 0x31 SWAP2 SWAP1 PUSH2 0x911 JUMP JUMPDEST DUP2 PUSH1 0x40 MLOAD DUP1 PUSH1 0x40 ADD PUSH1 0x40 MSTORE DUP1 PUSH1 0x5 DUP2 MSTORE PUSH1 0x20 ADD PUSH32 0x446567656E000000000000000000000000000000000000000000000000000000 DUP2 MSTORE POP PUSH1 0x40 MLOAD DUP1 PUSH1 0x40 ADD PUSH1 0x40 MSTORE DUP1 PUSH1 0x3 DUP2 MSTORE PUSH1 0x20 ADD PUSH32 0x44474E0000000000000000000000000000000000000000000000000000000000 DUP2 MSTORE POP DUP2 PUSH1 0x3 SWAP1 DUP2 PUSH2 0xAD SWAP2 SWAP1 PUSH2 0xB80 JUMP JUMPDEST POP DUP1 PUSH1 0x4 SWAP1 DUP2 PUSH2 0xBD SWAP2 SWAP1 PUSH2 0xB80 JUMP JUMPDEST POP POP POP PUSH0 PUSH20 0xFFFFFFFFFFFFFFFFFFFFFFFFFFFFFFFFFFFFFFFF AND DUP2 PUSH20 0xFFFFFFFFFFFFFFFFFFFFFFFFFFFFFFFFFFFFFFFF AND SUB PUSH2 0x130 JUMPI PUSH0 PUSH1 0x40 MLOAD PUSH32 0x1E4FBDF700000000000000000000000000000000000000000000000000000000 DUP2 MSTORE PUSH1 0x4 ADD PUSH2 0x127 SWAP2 SWAP1 PUSH2 0xC5E JUMP JUMPDEST PUSH1 0x40 MLOAD DUP1 SWAP2 SUB SWAP1 REVERT JUMPDEST PUSH2 0x13F DUP2 PUSH2 0x174 PUSH1 0x20 SHL PUSH1 0x20 SHR JUMP JUMPDEST POP PUSH2 0x14F DUP3 PUSH2 0x237 PUSH1 0x20 SHL PUSH1 0x20 SHR JUMP JUMPDEST PUSH2 0x15F DUP3 DUP3 PUSH2 0x2C7 PUSH1 0x20 SHL PUSH1 0x20 SHR JUMP JUMPDEST PUSH2 0x16D PUSH2 0x2E9 PUSH1 0x20 SHL PUSH1 0x20 SHR JUMP JUMPDEST POP POP PUSH2 0xD68 JUMP JUMPDEST PUSH0 PUSH1 0x5 PUSH0 SWAP1 SLOAD SWAP1 PUSH2 0x100 EXP SWAP1 DIV PUSH20 0xFFFFFFFFFFFFFFFFFFFFFFFFFFFFFFFFFFFFFFFF AND SWAP1 POP DUP2 PUSH1 0x5 PUSH0 PUSH2 0x100 EXP DUP2 SLOAD DUP2 PUSH20 0xFFFFFFFFFFFFFFFFFFFFFFFFFFFFFFFFFFFFFFFF MUL NOT AND SWAP1 DUP4 PUSH20 0xFFFFFFFFFFFFFFFFFFFFFFFFFFFFFFFFFFFFFFFF AND MUL OR SWAP1 SSTORE POP DUP2 PUSH20 0xFFFFFFFFFFFFFFFFFFFFFFFFFFFFFFFFFFFFFFFF AND DUP2 PUSH20 0xFFFFFFFFFFFFFFFFFFFFFFFFFFFFFFFFFFFFFFFF AND PUSH32 0x8BE0079C531659141344CD1FD0A4F28419497F9722A3DAAFE3B4186F6B6457E0 PUSH1 0x40 MLOAD PUSH1 0x40 MLOAD DUP1 SWAP2 SUB SWAP1 LOG3 POP POP JUMP JUMPDEST PUSH2 0x245 PUSH2 0x44D PUSH1 0x20 SHL PUSH1 0x20 SHR JUMP JUMPDEST PUSH0 PUSH20 0xFFFFFFFFFFFFFFFFFFFFFFFFFFFFFFFFFFFFFFFF AND DUP2 PUSH20 0xFFFFFFFFFFFFFFFFFFFFFFFFFFFFFFFFFFFFFFFF AND SUB PUSH2 0x2B5 JUMPI PUSH0 PUSH1 0x40 MLOAD PUSH32 0x1E4FBDF700000000000000000000000000000000000000000000000000000000 DUP2 MSTORE PUSH1 0x4 ADD PUSH2 0x2AC SWAP2 SWAP1 PUSH2 0xC5E JUMP JUMPDEST PUSH1 0x40 MLOAD DUP1 SWAP2 SUB SWAP1 REVERT JUMPDEST PUSH2 0x2C4 DUP2 PUSH2 0x174 PUSH1 0x20 SHL PUSH1 0x20 SHR JUMP JUMPDEST POP JUMP JUMPDEST PUSH2 0x2D5 PUSH2 0x44D PUSH1 0x20 SHL PUSH1 0x20 SHR JUMP JUMPDEST PUSH2 0x2E5 DUP3 DUP3 PUSH2 0x4E6 PUSH1 0x20 SHL PUSH1 0x20 SHR JUMP JUMPDEST POP POP JUMP JUMPDEST PUSH2 0x32F PUSH1 0x40 MLOAD DUP1 PUSH1 0x40 ADD PUSH1 0x40 MSTORE DUP1 PUSH1 0x10 DUP2 MSTORE PUSH1 0x20 ADD PUSH32 0x4E6F76696365204E6176696761746F7200000000000000000000000000000000 DUP2 MSTORE POP PUSH1 0x64 PUSH2 0x56B PUSH1 0x20 SHL PUSH1 0x20 SHR JUMP JUMPDEST PUSH2 0x376 PUSH1 0x40 MLOAD DUP1 PUSH1 0x40 ADD PUSH1 0x40 MSTORE DUP1 PUSH1 0xF DUP2 MSTORE PUSH1 0x20 ADD PUSH32 0x4D7974686963204D6176657269636B0000000000000000000000000000000000 DUP2 MSTORE POP PUSH2 0x2BC PUSH2 0x56B PUSH1 0x20 SHL PUSH1 0x20 SHR JUMP JUMPDEST PUSH2 0x3BD PUSH1 0x40 MLOAD DUP1 PUSH1 0x40 ADD PUSH1 0x40 MSTORE DUP1 PUSH1 0x11 DUP2 MSTORE PUSH1 0x20 ADD PUSH32 0x43656C65737469616C2043727573686572000000000000000000000000000000 DUP2 MSTORE POP PUSH2 0x4B0 PUSH2 0x56B PUSH1 0x20 SHL PUSH1 0x20 SHR JUMP JUMPDEST PUSH2 0x404 PUSH1 0x40 MLOAD DUP1 PUSH1 0x40 ADD PUSH1 0x40 MSTORE DUP1 PUSH1 0xA DUP2 MSTORE PUSH1 0x20 ADD PUSH32 0x41737472616C2041636500000000000000000000000000000000000000000000 DUP2 MSTORE POP PUSH2 0x898 PUSH2 0x56B PUSH1 0x20 SHL PUSH1 0x20 SHR JUMP JUMPDEST PUSH2 0x44B PUSH1 0x40 MLOAD DUP1 PUSH1 0x40 ADD PUSH1 0x40 MSTORE DUP1 PUSH1 0x10 DUP2 MSTORE PUSH1 0x20 ADD PUSH32 0x446976696E6520446F6D696E61746F7200000000000000000000000000000000 DUP2 MSTORE POP PUSH2 0x960 PUSH2 0x56B PUSH1 0x20 SHL PUSH1 0x20 SHR JUMP JUMPDEST JUMP JUMPDEST PUSH2 0x45B PUSH2 0x638 PUSH1 0x20 SHL PUSH1 0x20 SHR JUMP JUMPDEST PUSH20 0xFFFFFFFFFFFFFFFFFFFFFFFFFFFFFFFFFFFFFFFF AND PUSH2 0x47F PUSH2 0x63F PUSH1 0x20 SHL PUSH1 0x20 SHR JUMP JUMPDEST PUSH20 0xFFFFFFFFFFFFFFFFFFFFFFFFFFFFFFFFFFFFFFFF AND EQ PUSH2 0x4E4 JUMPI PUSH2 0x4A8 PUSH2 0x638 PUSH1 0x20 SHL PUSH1 0x20 SHR JUMP JUMPDEST PUSH1 0x40 MLOAD PUSH32 0x118CDAA700000000000000000000000000000000000000000000000000000000 DUP2 MSTORE PUSH1 0x4 ADD PUSH2 0x4DB SWAP2 SWAP1 PUSH2 0xC5E JUMP JUMPDEST PUSH1 0x40 MLOAD DUP1 SWAP2 SUB SWAP1 REVERT JUMPDEST JUMP JUMPDEST PUSH0 PUSH20 0xFFFFFFFFFFFFFFFFFFFFFFFFFFFFFFFFFFFFFFFF AND DUP3 PUSH20 0xFFFFFFFFFFFFFFFFFFFFFFFFFFFFFFFFFFFFFFFF AND SUB PUSH2 0x556 JUMPI PUSH0 PUSH1 0x40 MLOAD PUSH32 0xEC442F0500000000000000000000000000000000000000000000000000000000 DUP2 MSTORE PUSH1 0x4 ADD PUSH2 0x54D SWAP2 SWAP1 PUSH2 0xC5E JUMP JUMPDEST PUSH1 0x40 MLOAD DUP1 SWAP2 SUB SWAP1 REVERT JUMPDEST PUSH2 0x567 PUSH0 DUP4 DUP4 PUSH2 0x667 PUSH1 0x20 SHL PUSH1 0x20 SHR JUMP JUMPDEST POP POP JUMP JUMPDEST PUSH1 0x40 MLOAD DUP1 PUSH1 0x60 ADD PUSH1 0x40 MSTORE DUP1 DUP4 DUP2 MSTORE PUSH1 0x20 ADD PUSH1 0x8 PUSH0 SWAP1 SLOAD SWAP1 PUSH2 0x100 EXP SWAP1 DIV PUSH1 0xFF AND PUSH1 0xFF AND DUP2 MSTORE PUSH1 0x20 ADD DUP3 DUP2 MSTORE POP PUSH1 0x6 PUSH0 PUSH1 0x8 PUSH0 SWAP1 SLOAD SWAP1 PUSH2 0x100 EXP SWAP1 DIV PUSH1 0xFF AND PUSH1 0xFF AND PUSH1 0xFF AND DUP2 MSTORE PUSH1 0x20 ADD SWAP1 DUP2 MSTORE PUSH1 0x20 ADD PUSH0 KECCAK256 PUSH0 DUP3 ADD MLOAD DUP2 PUSH0 ADD SWAP1 DUP2 PUSH2 0x5CF SWAP2 SWAP1 PUSH2 0xB80 JUMP JUMPDEST POP PUSH1 0x20 DUP3 ADD MLOAD DUP2 PUSH1 0x1 ADD PUSH0 PUSH2 0x100 EXP DUP2 SLOAD DUP2 PUSH1 0xFF MUL NOT AND SWAP1 DUP4 PUSH1 0xFF AND MUL OR SWAP1 SSTORE POP PUSH1 0x40 DUP3 ADD MLOAD DUP2 PUSH1 0x2 ADD SSTORE SWAP1 POP POP PUSH1 0x8 PUSH0 DUP2 DUP2 SWAP1 SLOAD SWAP1 PUSH2 0x100 EXP SWAP1 DIV PUSH1 0xFF AND DUP1 SWAP3 SWAP2 SWAP1 PUSH2 0x61B SWAP1 PUSH2 0xCB0 JUMP JUMPDEST SWAP2 SWAP1 PUSH2 0x100 EXP DUP2 SLOAD DUP2 PUSH1 0xFF MUL NOT AND SWAP1 DUP4 PUSH1 0xFF AND MUL OR SWAP1 SSTORE POP POP POP POP JUMP JUMPDEST PUSH0 CALLER SWAP1 POP SWAP1 JUMP JUMPDEST PUSH0 PUSH1 0x5 PUSH0 SWAP1 SLOAD SWAP1 PUSH2 0x100 EXP SWAP1 DIV PUSH20 0xFFFFFFFFFFFFFFFFFFFFFFFFFFFFFFFFFFFFFFFF AND SWAP1 POP SWAP1 JUMP JUMPDEST PUSH0 PUSH20 0xFFFFFFFFFFFFFFFFFFFFFFFFFFFFFFFFFFFFFFFF AND DUP4 PUSH20 0xFFFFFFFFFFFFFFFFFFFFFFFFFFFFFFFFFFFFFFFF AND SUB PUSH2 0x6B7 JUMPI DUP1 PUSH1 0x2 PUSH0 DUP3 DUP3 SLOAD PUSH2 0x6AB SWAP2 SWAP1 PUSH2 0xCD8 JUMP JUMPDEST SWAP3 POP POP DUP2 SWAP1 SSTORE POP PUSH2 0x785 JUMP JUMPDEST PUSH0 DUP1 PUSH0 DUP6 PUSH20 0xFFFFFFFFFFFFFFFFFFFFFFFFFFFFFFFFFFFFFFFF AND PUSH20 0xFFFFFFFFFFFFFFFFFFFFFFFFFFFFFFFFFFFFFFFF AND DUP2 MSTORE PUSH1 0x20 ADD SWAP1 DUP2 MSTORE PUSH1 0x20 ADD PUSH0 KECCAK256 SLOAD SWAP1 POP DUP2 DUP2 LT ISZERO PUSH2 0x740 JUMPI DUP4 DUP2 DUP4 PUSH1 0x40 MLOAD PUSH32 0xE450D38C00000000000000000000000000000000000000000000000000000000 DUP2 MSTORE PUSH1 0x4 ADD PUSH2 0x737 SWAP4 SWAP3 SWAP2 SWAP1 PUSH2 0xD1A JUMP JUMPDEST PUSH1 0x40 MLOAD DUP1 SWAP2 SUB SWAP1 REVERT JUMPDEST DUP2 DUP2 SUB PUSH0 DUP1 DUP7 PUSH20 0xFFFFFFFFFFFFFFFFFFFFFFFFFFFFFFFFFFFFFFFF AND PUSH20 0xFFFFFFFFFFFFFFFFFFFFFFFFFFFFFFFFFFFFFFFF AND DUP2 MSTORE PUSH1 0x20 ADD SWAP1 DUP2 MSTORE PUSH1 0x20 ADD PUSH0 KECCAK256 DUP2 SWAP1 SSTORE POP POP JUMPDEST PUSH0 PUSH20 0xFFFFFFFFFFFFFFFFFFFFFFFFFFFFFFFFFFFFFFFF AND DUP3 PUSH20 0xFFFFFFFFFFFFFFFFFFFFFFFFFFFFFFFFFFFFFFFF AND SUB PUSH2 0x7CC JUMPI DUP1 PUSH1 0x2 PUSH0 DUP3 DUP3 SLOAD SUB SWAP3 POP POP DUP2 SWAP1 SSTORE POP PUSH2 0x816 JUMP JUMPDEST DUP1 PUSH0 DUP1 DUP5 PUSH20 0xFFFFFFFFFFFFFFFFFFFFFFFFFFFFFFFFFFFFFFFF AND PUSH20 0xFFFFFFFFFFFFFFFFFFFFFFFFFFFFFFFFFFFFFFFF AND DUP2 MSTORE PUSH1 0x20 ADD SWAP1 DUP2 MSTORE PUSH1 0x20 ADD PUSH0 KECCAK256 PUSH0 DUP3 DUP3 SLOAD ADD SWAP3 POP POP DUP2 SWAP1 SSTORE POP JUMPDEST DUP2 PUSH20 0xFFFFFFFFFFFFFFFFFFFFFFFFFFFFFFFFFFFFFFFF AND DUP4 PUSH20 0xFFFFFFFFFFFFFFFFFFFFFFFFFFFFFFFFFFFFFFFF AND PUSH32 0xDDF252AD1BE2C89B69C2B068FC378DAA952BA7F163C4A11628F55A4DF523B3EF DUP4 PUSH1 0x40 MLOAD PUSH2 0x873 SWAP2 SWAP1 PUSH2 0xD4F JUMP JUMPDEST PUSH1 0x40 MLOAD DUP1 SWAP2 SUB SWAP1 LOG3 POP POP POP JUMP JUMPDEST PUSH0 DUP1 REVERT JUMPDEST PUSH0 PUSH20 0xFFFFFFFFFFFFFFFFFFFFFFFFFFFFFFFFFFFFFFFF DUP3 AND SWAP1 POP SWAP2 SWAP1 POP JUMP JUMPDEST PUSH0 PUSH2 0x8AD DUP3 PUSH2 0x884 JUMP JUMPDEST SWAP1 POP SWAP2 SWAP1 POP JUMP JUMPDEST PUSH2 0x8BD DUP2 PUSH2 0x8A3 JUMP JUMPDEST DUP2 EQ PUSH2 0x8C7 JUMPI PUSH0 DUP1 REVERT JUMPDEST POP JUMP JUMPDEST PUSH0 DUP2 MLOAD SWAP1 POP PUSH2 0x8D8 DUP2 PUSH2 0x8B4 JUMP JUMPDEST SWAP3 SWAP2 POP POP JUMP JUMPDEST PUSH0 DUP2 SWAP1 POP SWAP2 SWAP1 POP JUMP JUMPDEST PUSH2 0x8F0 DUP2 PUSH2 0x8DE JUMP JUMPDEST DUP2 EQ PUSH2 0x8FA JUMPI PUSH0 DUP1 REVERT JUMPDEST POP JUMP JUMPDEST PUSH0 DUP2 MLOAD SWAP1 POP PUSH2 0x90B DUP2 PUSH2 0x8E7 JUMP JUMPDEST SWAP3 SWAP2 POP POP JUMP JUMPDEST PUSH0 DUP1 PUSH1 0x40 DUP4 DUP6 SUB SLT ISZERO PUSH2 0x927 JUMPI PUSH2 0x926 PUSH2 0x880 JUMP JUMPDEST JUMPDEST PUSH0 PUSH2 0x934 DUP6 DUP3 DUP7 ADD PUSH2 0x8CA JUMP JUMPDEST SWAP3 POP POP PUSH1 0x20 PUSH2 0x945 DUP6 DUP3 DUP7 ADD PUSH2 0x8FD JUMP JUMPDEST SWAP2 POP POP SWAP3 POP SWAP3 SWAP1 POP JUMP JUMPDEST PUSH0 DUP2 MLOAD SWAP1 POP SWAP2 SWAP1 POP JUMP JUMPDEST PUSH32 0x4E487B7100000000000000000000000000000000000000000000000000000000 PUSH0 MSTORE PUSH1 0x41 PUSH1 0x4 MSTORE PUSH1 0x24 PUSH0 REVERT JUMPDEST PUSH32 0x4E487B7100000000000000000000000000000000000000000000000000000000 PUSH0 MSTORE PUSH1 0x22 PUSH1 0x4 MSTORE PUSH1 0x24 PUSH0 REVERT JUMPDEST PUSH0 PUSH1 0x2 DUP3 DIV SWAP1 POP PUSH1 0x1 DUP3 AND DUP1 PUSH2 0x9CA JUMPI PUSH1 0x7F DUP3 AND SWAP2 POP JUMPDEST PUSH1 0x20 DUP3 LT DUP2 SUB PUSH2 0x9DD JUMPI PUSH2 0x9DC PUSH2 0x986 JUMP JUMPDEST JUMPDEST POP SWAP2 SWAP1 POP JUMP JUMPDEST PUSH0 DUP2 SWAP1 POP DUP2 PUSH0 MSTORE PUSH1 0x20 PUSH0 KECCAK256 SWAP1 POP SWAP2 SWAP1 POP JUMP JUMPDEST PUSH0 PUSH1 0x20 PUSH1 0x1F DUP4 ADD DIV SWAP1 POP SWAP2 SWAP1 POP JUMP JUMPDEST PUSH0 DUP3 DUP3 SHL SWAP1 POP SWAP3 SWAP2 POP POP JUMP JUMPDEST PUSH0 PUSH1 0x8 DUP4 MUL PUSH2 0xA3F PUSH32 0xFFFFFFFFFFFFFFFFFFFFFFFFFFFFFFFFFFFFFFFFFFFFFFFFFFFFFFFFFFFFFFFF DUP3 PUSH2 0xA04 JUMP JUMPDEST PUSH2 0xA49 DUP7 DUP4 PUSH2 0xA04 JUMP JUMPDEST SWAP6 POP DUP1 NOT DUP5 AND SWAP4 POP DUP1 DUP7 AND DUP5 OR SWAP3 POP POP POP SWAP4 SWAP3 POP POP POP JUMP JUMPDEST PUSH0 DUP2 SWAP1 POP SWAP2 SWAP1 POP JUMP JUMPDEST PUSH0 PUSH2 0xA84 PUSH2 0xA7F PUSH2 0xA7A DUP5 PUSH2 0x8DE JUMP JUMPDEST PUSH2 0xA61 JUMP JUMPDEST PUSH2 0x8DE JUMP JUMPDEST SWAP1 POP SWAP2 SWAP1 POP JUMP JUMPDEST PUSH0 DUP2 SWAP1 POP SWAP2 SWAP1 POP JUMP JUMPDEST PUSH2 0xA9D DUP4 PUSH2 0xA6A JUMP JUMPDEST PUSH2 0xAB1 PUSH2 0xAA9 DUP3 PUSH2 0xA8B JUMP JUMPDEST DUP5 DUP5 SLOAD PUSH2 0xA10 JUMP JUMPDEST DUP3 SSTORE POP POP POP POP JUMP JUMPDEST PUSH0 SWAP1 JUMP JUMPDEST PUSH2 0xAC5 PUSH2 0xAB9 JUMP JUMPDEST PUSH2 0xAD0 DUP2 DUP5 DUP5 PUSH2 0xA94 JUMP JUMPDEST POP POP POP JUMP JUMPDEST JUMPDEST DUP2 DUP2 LT ISZERO PUSH2 0xAF3 JUMPI PUSH2 0xAE8 PUSH0 DUP3 PUSH2 0xABD JUMP JUMPDEST PUSH1 0x1 DUP2 ADD SWAP1 POP PUSH2 0xAD6 JUMP JUMPDEST POP POP JUMP JUMPDEST PUSH1 0x1F DUP3 GT ISZERO PUSH2 0xB38 JUMPI PUSH2 0xB09 DUP2 PUSH2 0x9E3 JUMP JUMPDEST PUSH2 0xB12 DUP5 PUSH2 0x9F5 JUMP JUMPDEST DUP2 ADD PUSH1 0x20 DUP6 LT ISZERO PUSH2 0xB21 JUMPI DUP2 SWAP1 POP JUMPDEST PUSH2 0xB35 PUSH2 0xB2D DUP6 PUSH2 0x9F5 JUMP JUMPDEST DUP4 ADD DUP3 PUSH2 0xAD5 JUMP JUMPDEST POP POP JUMPDEST POP POP POP JUMP JUMPDEST PUSH0 DUP3 DUP3 SHR SWAP1 POP SWAP3 SWAP2 POP POP JUMP JUMPDEST PUSH0 PUSH2 0xB58 PUSH0 NOT DUP5 PUSH1 0x8 MUL PUSH2 0xB3D JUMP JUMPDEST NOT DUP1 DUP4 AND SWAP2 POP POP SWAP3 SWAP2 POP POP JUMP JUMPDEST PUSH0 PUSH2 0xB70 DUP4 DUP4 PUSH2 0xB49 JUMP JUMPDEST SWAP2 POP DUP3 PUSH1 0x2 MUL DUP3 OR SWAP1 POP SWAP3 SWAP2 POP POP JUMP JUMPDEST PUSH2 0xB89 DUP3 PUSH2 0x94F JUMP JUMPDEST PUSH8 0xFFFFFFFFFFFFFFFF DUP2 GT ISZERO PUSH2 0xBA2 JUMPI PUSH2 0xBA1 PUSH2 0x959 JUMP JUMPDEST JUMPDEST PUSH2 0xBAC DUP3 SLOAD PUSH2 0x9B3 JUMP JUMPDEST PUSH2 0xBB7 DUP3 DUP3 DUP6 PUSH2 0xAF7 JUMP JUMPDEST PUSH0 PUSH1 0x20 SWAP1 POP PUSH1 0x1F DUP4 GT PUSH1 0x1 DUP2 EQ PUSH2 0xBE8 JUMPI PUSH0 DUP5 ISZERO PUSH2 0xBD6 JUMPI DUP3 DUP8 ADD MLOAD SWAP1 POP JUMPDEST PUSH2 0xBE0 DUP6 DUP3 PUSH2 0xB65 JUMP JUMPDEST DUP7 SSTORE POP PUSH2 0xC47 JUMP JUMPDEST PUSH1 0x1F NOT DUP5 AND PUSH2 0xBF6 DUP7 PUSH2 0x9E3 JUMP JUMPDEST PUSH0 JUMPDEST DUP3 DUP2 LT ISZERO PUSH2 0xC1D JUMPI DUP5 DUP10 ADD MLOAD DUP3 SSTORE PUSH1 0x1 DUP3 ADD SWAP2 POP PUSH1 0x20 DUP6 ADD SWAP5 POP PUSH1 0x20 DUP2 ADD SWAP1 POP PUSH2 0xBF8 JUMP JUMPDEST DUP7 DUP4 LT ISZERO PUSH2 0xC3A JUMPI DUP5 DUP10 ADD MLOAD PUSH2 0xC36 PUSH1 0x1F DUP10 AND DUP3 PUSH2 0xB49 JUMP JUMPDEST DUP4 SSTORE POP JUMPDEST PUSH1 0x1 PUSH1 0x2 DUP9 MUL ADD DUP9 SSTORE POP POP POP JUMPDEST POP POP POP POP POP POP JUMP JUMPDEST PUSH2 0xC58 DUP2 PUSH2 0x8A3 JUMP JUMPDEST DUP3 MSTORE POP POP JUMP JUMPDEST PUSH0 PUSH1 0x20 DUP3 ADD SWAP1 POP PUSH2 0xC71 PUSH0 DUP4 ADD DUP5 PUSH2 0xC4F JUMP JUMPDEST SWAP3 SWAP2 POP POP JUMP JUMPDEST PUSH32 0x4E487B7100000000000000000000000000000000000000000000000000000000 PUSH0 MSTORE PUSH1 0x11 PUSH1 0x4 MSTORE PUSH1 0x24 PUSH0 REVERT JUMPDEST PUSH0 PUSH1 0xFF DUP3 AND SWAP1 POP SWAP2 SWAP1 POP JUMP JUMPDEST PUSH0 PUSH2 0xCBA DUP3 PUSH2 0xCA4 JUMP JUMPDEST SWAP2 POP PUSH1 0xFF DUP3 SUB PUSH2 0xCCD JUMPI PUSH2 0xCCC PUSH2 0xC77 JUMP JUMPDEST JUMPDEST PUSH1 0x1 DUP3 ADD SWAP1 POP SWAP2 SWAP1 POP JUMP JUMPDEST PUSH0 PUSH2 0xCE2 DUP3 PUSH2 0x8DE JUMP JUMPDEST SWAP2 POP PUSH2 0xCED DUP4 PUSH2 0x8DE JUMP JUMPDEST SWAP3 POP DUP3 DUP3 ADD SWAP1 POP DUP1 DUP3 GT ISZERO PUSH2 0xD05 JUMPI PUSH2 0xD04 PUSH2 0xC77 JUMP JUMPDEST JUMPDEST SWAP3 SWAP2 POP POP JUMP JUMPDEST PUSH2 0xD14 DUP2 PUSH2 0x8DE JUMP JUMPDEST DUP3 MSTORE POP POP JUMP JUMPDEST PUSH0 PUSH1 0x60 DUP3 ADD SWAP1 POP PUSH2 0xD2D PUSH0 DUP4 ADD DUP7 PUSH2 0xC4F JUMP JUMPDEST PUSH2 0xD3A PUSH1 0x20 DUP4 ADD DUP6 PUSH2 0xD0B JUMP JUMPDEST PUSH2 0xD47 PUSH1 0x40 DUP4 ADD DUP5 PUSH2 0xD0B JUMP JUMPDEST SWAP5 SWAP4 POP POP POP POP JUMP JUMPDEST PUSH0 PUSH1 0x20 DUP3 ADD SWAP1 POP PUSH2 0xD62 PUSH0 DUP4 ADD DUP5 PUSH2 0xD0B JUMP JUMPDEST SWAP3 SWAP2 POP POP JUMP JUMPDEST PUSH2 0x2786 DUP1 PUSH2 0xD75 PUSH0 CODECOPY PUSH0 RETURN INVALID PUSH1 0x80 PUSH1 0x40 MSTORE CALLVALUE DUP1 ISZERO PUSH2 0xF JUMPI PUSH0 DUP1 REVERT JUMPDEST POP PUSH1 0x4 CALLDATASIZE LT PUSH2 0x156 JUMPI PUSH0 CALLDATALOAD PUSH1 0xE0 SHR DUP1 PUSH4 0x715018A6 GT PUSH2 0xC1 JUMPI DUP1 PUSH4 0xC81D7604 GT PUSH2 0x7A JUMPI DUP1 PUSH4 0xC81D7604 EQ PUSH2 0x39C JUMPI DUP1 PUSH4 0xCE6019B4 EQ PUSH2 0x3A6 JUMPI DUP1 PUSH4 0xD917BD27 EQ PUSH2 0x3D6 JUMPI DUP1 PUSH4 0xDD62ED3E EQ PUSH2 0x407 JUMPI DUP1 PUSH4 0xE3AF42E1 EQ PUSH2 0x437 JUMPI DUP1 PUSH4 0xF2FDE38B EQ PUSH2 0x453 JUMPI PUSH2 0x156 JUMP JUMPDEST DUP1 PUSH4 0x715018A6 EQ PUSH2 0x2EE JUMPI DUP1 PUSH4 0x79CC6790 EQ PUSH2 0x2F8 JUMPI DUP1 PUSH4 0x8DA5CB5B EQ PUSH2 0x314 JUMPI DUP1 PUSH4 0x95D89B41 EQ PUSH2 0x332 JUMPI DUP1 PUSH4 0xA9059CBB EQ PUSH2 0x350 JUMPI DUP1 PUSH4 0xAF3BCB7D EQ PUSH2 0x380 JUMPI PUSH2 0x156 JUMP JUMPDEST DUP1 PUSH4 0x313CE567 GT PUSH2 0x113 JUMPI DUP1 PUSH4 0x313CE567 EQ PUSH2 0x22E JUMPI DUP1 PUSH4 0x40C10F19 EQ PUSH2 0x24C JUMPI DUP1 PUSH4 0x42966C68 EQ PUSH2 0x268 JUMPI DUP1 PUSH4 0x4C738909 EQ PUSH2 0x284 JUMPI DUP1 PUSH4 0x6D1B229D EQ PUSH2 0x2A2 JUMPI DUP1 PUSH4 0x70A08231 EQ PUSH2 0x2BE JUMPI PUSH2 0x156 JUMP JUMPDEST DUP1 PUSH4 0x6FDDE03 EQ PUSH2 0x15A JUMPI DUP1 PUSH4 0x95EA7B3 EQ PUSH2 0x178 JUMPI DUP1 PUSH4 0x9CEB537 EQ PUSH2 0x1A8 JUMPI DUP1 PUSH4 0x1072CBEA EQ PUSH2 0x1C4 JUMPI DUP1 PUSH4 0x18160DDD EQ PUSH2 0x1E0 JUMPI DUP1 PUSH4 0x23B872DD EQ PUSH2 0x1FE JUMPI JUMPDEST PUSH0 DUP1 REVERT JUMPDEST PUSH2 0x162 PUSH2 0x46F JUMP JUMPDEST PUSH1 0x40 MLOAD PUSH2 0x16F SWAP2 SWAP1 PUSH2 0x1899 JUMP JUMPDEST PUSH1 0x40 MLOAD DUP1 SWAP2 SUB SWAP1 RETURN JUMPDEST PUSH2 0x192 PUSH1 0x4 DUP1 CALLDATASIZE SUB DUP2 ADD SWAP1 PUSH2 0x18D SWAP2 SWAP1 PUSH2 0x1957 JUMP JUMPDEST PUSH2 0x4FF JUMP JUMPDEST PUSH1 0x40 MLOAD PUSH2 0x19F SWAP2 SWAP1 PUSH2 0x19AF JUMP JUMPDEST PUSH1 0x40 MLOAD DUP1 SWAP2 SUB SWAP1 RETURN JUMPDEST PUSH2 0x1C2 PUSH1 0x4 DUP1 CALLDATASIZE SUB DUP2 ADD SWAP1 PUSH2 0x1BD SWAP2 SWAP1 PUSH2 0x19F2 JUMP JUMPDEST PUSH2 0x521 JUMP JUMPDEST STOP JUMPDEST PUSH2 0x1DE PUSH1 0x4 DUP1 CALLDATASIZE SUB DUP2 ADD SWAP1 PUSH2 0x1D9 SWAP2 SWAP1 PUSH2 0x1957 JUMP JUMPDEST PUSH2 0x67F JUMP JUMPDEST STOP JUMPDEST PUSH2 0x1E8 PUSH2 0x6D9 JUMP JUMPDEST PUSH1 0x40 MLOAD PUSH2 0x1F5 SWAP2 SWAP1 PUSH2 0x1A3F JUMP JUMPDEST PUSH1 0x40 MLOAD DUP1 SWAP2 SUB SWAP1 RETURN JUMPDEST PUSH2 0x218 PUSH1 0x4 DUP1 CALLDATASIZE SUB DUP2 ADD SWAP1 PUSH2 0x213 SWAP2 SWAP1 PUSH2 0x1A58 JUMP JUMPDEST PUSH2 0x6E2 JUMP JUMPDEST PUSH1 0x40 MLOAD PUSH2 0x225 SWAP2 SWAP1 PUSH2 0x19AF JUMP JUMPDEST PUSH1 0x40 MLOAD DUP1 SWAP2 SUB SWAP1 RETURN JUMPDEST PUSH2 0x236 PUSH2 0x710 JUMP JUMPDEST PUSH1 0x40 MLOAD PUSH2 0x243 SWAP2 SWAP1 PUSH2 0x1AC3 JUMP JUMPDEST PUSH1 0x40 MLOAD DUP1 SWAP2 SUB SWAP1 RETURN JUMPDEST PUSH2 0x266 PUSH1 0x4 DUP1 CALLDATASIZE SUB DUP2 ADD SWAP1 PUSH2 0x261 SWAP2 SWAP1 PUSH2 0x1957 JUMP JUMPDEST PUSH2 0x718 JUMP JUMPDEST STOP JUMPDEST PUSH2 0x282 PUSH1 0x4 DUP1 CALLDATASIZE SUB DUP2 ADD SWAP1 PUSH2 0x27D SWAP2 SWAP1 PUSH2 0x1ADC JUMP JUMPDEST PUSH2 0x72E JUMP JUMPDEST STOP JUMPDEST PUSH2 0x28C PUSH2 0x742 JUMP JUMPDEST PUSH1 0x40 MLOAD PUSH2 0x299 SWAP2 SWAP1 PUSH2 0x1A3F JUMP JUMPDEST PUSH1 0x40 MLOAD DUP1 SWAP2 SUB SWAP1 RETURN JUMPDEST PUSH2 0x2BC PUSH1 0x4 DUP1 CALLDATASIZE SUB DUP2 ADD SWAP1 PUSH2 0x2B7 SWAP2 SWAP1 PUSH2 0x1ADC JUMP JUMPDEST PUSH2 0x751 JUMP JUMPDEST STOP JUMPDEST PUSH2 0x2D8 PUSH1 0x4 DUP1 CALLDATASIZE SUB DUP2 ADD SWAP1 PUSH2 0x2D3 SWAP2 SWAP1 PUSH2 0x1B07 JUMP JUMPDEST PUSH2 0x7A8 JUMP JUMPDEST PUSH1 0x40 MLOAD PUSH2 0x2E5 SWAP2 SWAP1 PUSH2 0x1A3F JUMP JUMPDEST PUSH1 0x40 MLOAD DUP1 SWAP2 SUB SWAP1 RETURN JUMPDEST PUSH2 0x2F6 PUSH2 0x7ED JUMP JUMPDEST STOP JUMPDEST PUSH2 0x312 PUSH1 0x4 DUP1 CALLDATASIZE SUB DUP2 ADD SWAP1 PUSH2 0x30D SWAP2 SWAP1 PUSH2 0x1957 JUMP JUMPDEST PUSH2 0x800 JUMP JUMPDEST STOP JUMPDEST PUSH2 0x31C PUSH2 0x820 JUMP JUMPDEST PUSH1 0x40 MLOAD PUSH2 0x329 SWAP2 SWAP1 PUSH2 0x1B41 JUMP JUMPDEST PUSH1 0x40 MLOAD DUP1 SWAP2 SUB SWAP1 RETURN JUMPDEST PUSH2 0x33A PUSH2 0x848 JUMP JUMPDEST PUSH1 0x40 MLOAD PUSH2 0x347 SWAP2 SWAP1 PUSH2 0x1899 JUMP JUMPDEST PUSH1 0x40 MLOAD DUP1 SWAP2 SUB SWAP1 RETURN JUMPDEST PUSH2 0x36A PUSH1 0x4 DUP1 CALLDATASIZE SUB DUP2 ADD SWAP1 PUSH2 0x365 SWAP2 SWAP1 PUSH2 0x1957 JUMP JUMPDEST PUSH2 0x8D8 JUMP JUMPDEST PUSH1 0x40 MLOAD PUSH2 0x377 SWAP2 SWAP1 PUSH2 0x19AF JUMP JUMPDEST PUSH1 0x40 MLOAD DUP1 SWAP2 SUB SWAP1 RETURN JUMPDEST PUSH2 0x39A PUSH1 0x4 DUP1 CALLDATASIZE SUB DUP2 ADD SWAP1 PUSH2 0x395 SWAP2 SWAP1 PUSH2 0x1B84 JUMP JUMPDEST PUSH2 0x8FA JUMP JUMPDEST STOP JUMPDEST PUSH2 0x3A4 PUSH2 0xB2A JUMP JUMPDEST STOP JUMPDEST PUSH2 0x3C0 PUSH1 0x4 DUP1 CALLDATASIZE SUB DUP2 ADD SWAP1 PUSH2 0x3BB SWAP2 SWAP1 PUSH2 0x1B07 JUMP JUMPDEST PUSH2 0xB81 JUMP JUMPDEST PUSH1 0x40 MLOAD PUSH2 0x3CD SWAP2 SWAP1 PUSH2 0x1C66 JUMP JUMPDEST PUSH1 0x40 MLOAD DUP1 SWAP2 SUB SWAP1 RETURN JUMPDEST PUSH2 0x3F0 PUSH1 0x4 DUP1 CALLDATASIZE SUB DUP2 ADD SWAP1 PUSH2 0x3EB SWAP2 SWAP1 PUSH2 0x1B84 JUMP JUMPDEST PUSH2 0xD85 JUMP JUMPDEST PUSH1 0x40 MLOAD PUSH2 0x3FE SWAP3 SWAP2 SWAP1 PUSH2 0x1C86 JUMP JUMPDEST PUSH1 0x40 MLOAD DUP1 SWAP2 SUB SWAP1 RETURN JUMPDEST PUSH2 0x421 PUSH1 0x4 DUP1 CALLDATASIZE SUB DUP2 ADD SWAP1 PUSH2 0x41C SWAP2 SWAP1 PUSH2 0x1CB4 JUMP JUMPDEST PUSH2 0xE75 JUMP JUMPDEST PUSH1 0x40 MLOAD PUSH2 0x42E SWAP2 SWAP1 PUSH2 0x1A3F JUMP JUMPDEST PUSH1 0x40 MLOAD DUP1 SWAP2 SUB SWAP1 RETURN JUMPDEST PUSH2 0x451 PUSH1 0x4 DUP1 CALLDATASIZE SUB DUP2 ADD SWAP1 PUSH2 0x44C SWAP2 SWAP1 PUSH2 0x1E1E JUMP JUMPDEST PUSH2 0xEF7 JUMP JUMPDEST STOP JUMPDEST PUSH2 0x46D PUSH1 0x4 DUP1 CALLDATASIZE SUB DUP2 ADD SWAP1 PUSH2 0x468 SWAP2 SWAP1 PUSH2 0x1B07 JUMP JUMPDEST PUSH2 0xF0D JUMP JUMPDEST STOP JUMPDEST PUSH1 0x60 PUSH1 0x3 DUP1 SLOAD PUSH2 0x47E SWAP1 PUSH2 0x1EA5 JUMP JUMPDEST DUP1 PUSH1 0x1F ADD PUSH1 0x20 DUP1 SWAP2 DIV MUL PUSH1 0x20 ADD PUSH1 0x40 MLOAD SWAP1 DUP2 ADD PUSH1 0x40 MSTORE DUP1 SWAP3 SWAP2 SWAP1 DUP2 DUP2 MSTORE PUSH1 0x20 ADD DUP3 DUP1 SLOAD PUSH2 0x4AA SWAP1 PUSH2 0x1EA5 JUMP JUMPDEST DUP1 ISZERO PUSH2 0x4F5 JUMPI DUP1 PUSH1 0x1F LT PUSH2 0x4CC JUMPI PUSH2 0x100 DUP1 DUP4 SLOAD DIV MUL DUP4 MSTORE SWAP2 PUSH1 0x20 ADD SWAP2 PUSH2 0x4F5 JUMP JUMPDEST DUP3 ADD SWAP2 SWAP1 PUSH0 MSTORE PUSH1 0x20 PUSH0 KECCAK256 SWAP1 JUMPDEST DUP2 SLOAD DUP2 MSTORE SWAP1 PUSH1 0x1 ADD SWAP1 PUSH1 0x20 ADD DUP1 DUP4 GT PUSH2 0x4D8 JUMPI DUP3 SWAP1 SUB PUSH1 0x1F AND DUP3 ADD SWAP2 JUMPDEST POP POP POP POP POP SWAP1 POP SWAP1 JUMP JUMPDEST PUSH0 DUP1 PUSH2 0x509 PUSH2 0xF91 JUMP JUMPDEST SWAP1 POP PUSH2 0x516 DUP2 DUP6 DUP6 PUSH2 0xF98 JUMP JUMPDEST PUSH1 0x1 SWAP2 POP POP SWAP3 SWAP2 POP POP JUMP JUMPDEST DUP1 PUSH2 0x52B CALLER PUSH2 0x7A8 JUMP JUMPDEST LT ISZERO PUSH2 0x56C JUMPI PUSH1 0x40 MLOAD PUSH32 0x8C379A000000000000000000000000000000000000000000000000000000000 DUP2 MSTORE PUSH1 0x4 ADD PUSH2 0x563 SWAP1 PUSH2 0x1F1F JUMP JUMPDEST PUSH1 0x40 MLOAD DUP1 SWAP2 SUB SWAP1 REVERT JUMPDEST PUSH0 PUSH1 0xA TIMESTAMP CALLER PUSH1 0x40 MLOAD PUSH1 0x20 ADD PUSH2 0x582 SWAP3 SWAP2 SWAP1 PUSH2 0x1FA2 JUMP JUMPDEST PUSH1 0x40 MLOAD PUSH1 0x20 DUP2 DUP4 SUB SUB DUP2 MSTORE SWAP1 PUSH1 0x40 MSTORE DUP1 MLOAD SWAP1 PUSH1 0x20 ADD KECCAK256 PUSH0 SHR PUSH2 0x5A4 SWAP2 SWAP1 PUSH2 0x1FFA JUMP JUMPDEST SWAP1 POP PUSH1 0x5 DUP2 LT ISZERO ISZERO DUP4 ISZERO ISZERO SUB PUSH2 0x620 JUMPI PUSH2 0x5CA CALLER PUSH1 0x2 DUP5 PUSH2 0x5C5 SWAP2 SWAP1 PUSH2 0x2057 JUMP JUMPDEST PUSH2 0xFAA JUMP JUMPDEST CALLER PUSH20 0xFFFFFFFFFFFFFFFFFFFFFFFFFFFFFFFFFFFFFFFF AND PUSH32 0xD04D9689D8E43BC0BACEA67661EF472DCF321F34F08AF72F651AF30C4C866587 DUP3 PUSH1 0x1 PUSH1 0x40 MLOAD PUSH2 0x613 SWAP3 SWAP2 SWAP1 PUSH2 0x20E2 JUMP JUMPDEST PUSH1 0x40 MLOAD DUP1 SWAP2 SUB SWAP1 LOG2 PUSH2 0x67A JUMP JUMPDEST PUSH2 0x629 DUP3 PUSH2 0x72E JUMP JUMPDEST CALLER PUSH20 0xFFFFFFFFFFFFFFFFFFFFFFFFFFFFFFFFFFFFFFFF AND PUSH32 0xD04D9689D8E43BC0BACEA67661EF472DCF321F34F08AF72F651AF30C4C866587 DUP3 PUSH0 PUSH1 0x40 MLOAD PUSH2 0x671 SWAP3 SWAP2 SWAP1 PUSH2 0x2166 JUMP JUMPDEST PUSH1 0x40 MLOAD DUP1 SWAP2 SUB SWAP1 LOG2 JUMPDEST POP POP POP JUMP JUMPDEST DUP1 PUSH2 0x689 CALLER PUSH2 0x7A8 JUMP JUMPDEST LT ISZERO PUSH2 0x6CA JUMPI PUSH1 0x40 MLOAD PUSH32 0x8C379A000000000000000000000000000000000000000000000000000000000 DUP2 MSTORE PUSH1 0x4 ADD PUSH2 0x6C1 SWAP1 PUSH2 0x1F1F JUMP JUMPDEST PUSH1 0x40 MLOAD DUP1 SWAP2 SUB SWAP1 REVERT JUMPDEST PUSH2 0x6D5 CALLER DUP4 DUP4 PUSH2 0x1029 JUMP JUMPDEST POP POP JUMP JUMPDEST PUSH0 PUSH1 0x2 SLOAD SWAP1 POP SWAP1 JUMP JUMPDEST PUSH0 DUP1 PUSH2 0x6EC PUSH2 0xF91 JUMP JUMPDEST SWAP1 POP PUSH2 0x6F9 DUP6 DUP3 DUP6 PUSH2 0x1119 JUMP JUMPDEST PUSH2 0x704 DUP6 DUP6 DUP6 PUSH2 0x1029 JUMP JUMPDEST PUSH1 0x1 SWAP2 POP POP SWAP4 SWAP3 POP POP POP JUMP JUMPDEST PUSH0 PUSH1 0x12 SWAP1 POP SWAP1 JUMP JUMPDEST PUSH2 0x720 PUSH2 0x11AB JUMP JUMPDEST PUSH2 0x72A DUP3 DUP3 PUSH2 0xFAA JUMP JUMPDEST POP POP JUMP JUMPDEST PUSH2 0x73F PUSH2 0x739 PUSH2 0xF91 JUMP JUMPDEST DUP3 PUSH2 0x1232 JUMP JUMPDEST POP JUMP JUMPDEST PUSH0 PUSH2 0x74C CALLER PUSH2 0x7A8 JUMP JUMPDEST SWAP1 POP SWAP1 JUMP JUMPDEST DUP1 PUSH2 0x75B CALLER PUSH2 0x7A8 JUMP JUMPDEST LT ISZERO PUSH2 0x79C JUMPI PUSH1 0x40 MLOAD PUSH32 0x8C379A000000000000000000000000000000000000000000000000000000000 DUP2 MSTORE PUSH1 0x4 ADD PUSH2 0x793 SWAP1 PUSH2 0x1F1F JUMP JUMPDEST PUSH1 0x40 MLOAD DUP1 SWAP2 SUB SWAP1 REVERT JUMPDEST PUSH2 0x7A5 DUP2 PUSH2 0x72E JUMP JUMPDEST POP JUMP JUMPDEST PUSH0 DUP1 PUSH0 DUP4 PUSH20 0xFFFFFFFFFFFFFFFFFFFFFFFFFFFFFFFFFFFFFFFF AND PUSH20 0xFFFFFFFFFFFFFFFFFFFFFFFFFFFFFFFFFFFFFFFF AND DUP2 MSTORE PUSH1 0x20 ADD SWAP1 DUP2 MSTORE PUSH1 0x20 ADD PUSH0 KECCAK256 SLOAD SWAP1 POP SWAP2 SWAP1 POP JUMP JUMPDEST PUSH2 0x7F5 PUSH2 0x11AB JUMP JUMPDEST PUSH2 0x7FE PUSH0 PUSH2 0x12B1 JUMP JUMPDEST JUMP JUMPDEST PUSH2 0x812 DUP3 PUSH2 0x80C PUSH2 0xF91 JUMP JUMPDEST DUP4 PUSH2 0x1119 JUMP JUMPDEST PUSH2 0x81C DUP3 DUP3 PUSH2 0x1232 JUMP JUMPDEST POP POP JUMP JUMPDEST PUSH0 PUSH1 0x5 PUSH0 SWAP1 SLOAD SWAP1 PUSH2 0x100 EXP SWAP1 DIV PUSH20 0xFFFFFFFFFFFFFFFFFFFFFFFFFFFFFFFFFFFFFFFF AND SWAP1 POP SWAP1 JUMP JUMPDEST PUSH1 0x60 PUSH1 0x4 DUP1 SLOAD PUSH2 0x857 SWAP1 PUSH2 0x1EA5 JUMP JUMPDEST DUP1 PUSH1 0x1F ADD PUSH1 0x20 DUP1 SWAP2 DIV MUL PUSH1 0x20 ADD PUSH1 0x40 MLOAD SWAP1 DUP2 ADD PUSH1 0x40 MSTORE DUP1 SWAP3 SWAP2 SWAP1 DUP2 DUP2 MSTORE PUSH1 0x20 ADD DUP3 DUP1 SLOAD PUSH2 0x883 SWAP1 PUSH2 0x1EA5 JUMP JUMPDEST DUP1 ISZERO PUSH2 0x8CE JUMPI DUP1 PUSH1 0x1F LT PUSH2 0x8A5 JUMPI PUSH2 0x100 DUP1 DUP4 SLOAD DIV MUL DUP4 MSTORE SWAP2 PUSH1 0x20 ADD SWAP2 PUSH2 0x8CE JUMP JUMPDEST DUP3 ADD SWAP2 SWAP1 PUSH0 MSTORE PUSH1 0x20 PUSH0 KECCAK256 SWAP1 JUMPDEST DUP2 SLOAD DUP2 MSTORE SWAP1 PUSH1 0x1 ADD SWAP1 PUSH1 0x20 ADD DUP1 DUP4 GT PUSH2 0x8B1 JUMPI DUP3 SWAP1 SUB PUSH1 0x1F AND DUP3 ADD SWAP2 JUMPDEST POP POP POP POP POP SWAP1 POP SWAP1 JUMP JUMPDEST PUSH0 DUP1 PUSH2 0x8E2 PUSH2 0xF91 JUMP JUMPDEST SWAP1 POP PUSH2 0x8EF DUP2 DUP6 DUP6 PUSH2 0x1029 JUMP JUMPDEST PUSH1 0x1 SWAP2 POP POP SWAP3 SWAP2 POP POP JUMP JUMPDEST PUSH0 PUSH1 0x6 PUSH0 DUP4 PUSH1 0xFF AND PUSH1 0xFF AND DUP2 MSTORE PUSH1 0x20 ADD SWAP1 DUP2 MSTORE PUSH1 0x20 ADD PUSH0 KECCAK256 PUSH1 0x2 ADD SLOAD GT PUSH2 0x956 JUMPI PUSH1 0x40 MLOAD PUSH32 0x8C379A000000000000000000000000000000000000000000000000000000000 DUP2 MSTORE PUSH1 0x4 ADD PUSH2 0x94D SWAP1 PUSH2 0x21EA JUMP JUMPDEST PUSH1 0x40 MLOAD DUP1 SWAP2 SUB SWAP1 REVERT JUMPDEST PUSH1 0x6 PUSH0 DUP3 PUSH1 0xFF AND PUSH1 0xFF AND DUP2 MSTORE PUSH1 0x20 ADD SWAP1 DUP2 MSTORE PUSH1 0x20 ADD PUSH0 KECCAK256 PUSH1 0x2 ADD SLOAD PUSH2 0x97A CALLER PUSH2 0x7A8 JUMP JUMPDEST LT ISZERO PUSH2 0x9BB JUMPI PUSH1 0x40 MLOAD PUSH32 0x8C379A000000000000000000000000000000000000000000000000000000000 DUP2 MSTORE PUSH1 0x4 ADD PUSH2 0x9B2 SWAP1 PUSH2 0x1F1F JUMP JUMPDEST PUSH1 0x40 MLOAD DUP1 SWAP2 SUB SWAP1 REVERT JUMPDEST PUSH2 0x9DE PUSH1 0x6 PUSH0 DUP4 PUSH1 0xFF AND PUSH1 0xFF AND DUP2 MSTORE PUSH1 0x20 ADD SWAP1 DUP2 MSTORE PUSH1 0x20 ADD PUSH0 KECCAK256 PUSH1 0x2 ADD SLOAD PUSH2 0x72E JUMP JUMPDEST PUSH1 0x7 PUSH0 CALLER PUSH20 0xFFFFFFFFFFFFFFFFFFFFFFFFFFFFFFFFFFFFFFFF AND PUSH20 0xFFFFFFFFFFFFFFFFFFFFFFFFFFFFFFFFFFFFFFFF AND DUP2 MSTORE PUSH1 0x20 ADD SWAP1 DUP2 MSTORE PUSH1 0x20 ADD PUSH0 KECCAK256 PUSH1 0x6 PUSH0 DUP4 PUSH1 0xFF AND PUSH1 0xFF AND DUP2 MSTORE PUSH1 0x20 ADD SWAP1 DUP2 MSTORE PUSH1 0x20 ADD PUSH0 KECCAK256 SWAP1 DUP1 PUSH1 0x1 DUP2 SLOAD ADD DUP1 DUP3 SSTORE DUP1 SWAP2 POP POP PUSH1 0x1 SWAP1 SUB SWAP1 PUSH0 MSTORE PUSH1 0x20 PUSH0 KECCAK256 SWAP1 PUSH1 0x3 MUL ADD PUSH0 SWAP1 SWAP2 SWAP1 SWAP2 SWAP1 SWAP2 POP PUSH0 DUP3 ADD DUP2 PUSH0 ADD SWAP1 DUP2 PUSH2 0xA6A SWAP2 SWAP1 PUSH2 0x23BA JUMP JUMPDEST POP PUSH1 0x1 DUP3 ADD PUSH0 SWAP1 SLOAD SWAP1 PUSH2 0x100 EXP SWAP1 DIV PUSH1 0xFF AND DUP2 PUSH1 0x1 ADD PUSH0 PUSH2 0x100 EXP DUP2 SLOAD DUP2 PUSH1 0xFF MUL NOT AND SWAP1 DUP4 PUSH1 0xFF AND MUL OR SWAP1 SSTORE POP PUSH1 0x2 DUP3 ADD SLOAD DUP2 PUSH1 0x2 ADD SSTORE POP POP CALLER PUSH20 0xFFFFFFFFFFFFFFFFFFFFFFFFFFFFFFFFFFFFFFFF AND PUSH32 0x8BEDD141782C49139782BD92BD7A760A0BCB544FFECFD2B25F00366FAE06598E DUP3 PUSH1 0x6 PUSH0 DUP6 PUSH1 0xFF AND PUSH1 0xFF AND DUP2 MSTORE PUSH1 0x20 ADD SWAP1 DUP2 MSTORE PUSH1 0x20 ADD PUSH0 KECCAK256 PUSH0 ADD PUSH1 0x6 PUSH0 DUP7 PUSH1 0xFF AND PUSH1 0xFF AND DUP2 MSTORE PUSH1 0x20 ADD SWAP1 DUP2 MSTORE PUSH1 0x20 ADD PUSH0 KECCAK256 PUSH1 0x2 ADD SLOAD PUSH1 0x40 MLOAD PUSH2 0xB1F SWAP4 SWAP3 SWAP2 SWAP1 PUSH2 0x2520 JUMP JUMPDEST PUSH1 0x40 MLOAD DUP1 SWAP2 SUB SWAP1 LOG2 POP JUMP JUMPDEST PUSH0 PUSH2 0xB34 CALLER PUSH2 0x7A8 JUMP JUMPDEST EQ PUSH2 0xB74 JUMPI PUSH1 0x40 MLOAD PUSH32 0x8C379A000000000000000000000000000000000000000000000000000000000 DUP2 MSTORE PUSH1 0x4 ADD PUSH2 0xB6B SWAP1 PUSH2 0x25A6 JUMP JUMPDEST PUSH1 0x40 MLOAD DUP1 SWAP2 SUB SWAP1 REVERT JUMPDEST PUSH2 0xB7F CALLER PUSH1 0x32 PUSH2 0xFAA JUMP JUMPDEST JUMP JUMPDEST PUSH1 0x60 PUSH0 PUSH1 0x7 PUSH0 DUP5 PUSH20 0xFFFFFFFFFFFFFFFFFFFFFFFFFFFFFFFFFFFFFFFF AND PUSH20 0xFFFFFFFFFFFFFFFFFFFFFFFFFFFFFFFFFFFFFFFF AND DUP2 MSTORE PUSH1 0x20 ADD SWAP1 DUP2 MSTORE PUSH1 0x20 ADD PUSH0 KECCAK256 DUP1 SLOAD DUP1 PUSH1 0x20 MUL PUSH1 0x20 ADD PUSH1 0x40 MLOAD SWAP1 DUP2 ADD PUSH1 0x40 MSTORE DUP1 SWAP3 SWAP2 SWAP1 DUP2 DUP2 MSTORE PUSH1 0x20 ADD PUSH0 SWAP1 JUMPDEST DUP3 DUP3 LT ISZERO PUSH2 0xCC5 JUMPI DUP4 DUP3 SWAP1 PUSH0 MSTORE PUSH1 0x20 PUSH0 KECCAK256 SWAP1 PUSH1 0x3 MUL ADD PUSH1 0x40 MLOAD DUP1 PUSH1 0x60 ADD PUSH1 0x40 MSTORE SWAP1 DUP2 PUSH0 DUP3 ADD DUP1 SLOAD PUSH2 0xC10 SWAP1 PUSH2 0x1EA5 JUMP JUMPDEST DUP1 PUSH1 0x1F ADD PUSH1 0x20 DUP1 SWAP2 DIV MUL PUSH1 0x20 ADD PUSH1 0x40 MLOAD SWAP1 DUP2 ADD PUSH1 0x40 MSTORE DUP1 SWAP3 SWAP2 SWAP1 DUP2 DUP2 MSTORE PUSH1 0x20 ADD DUP3 DUP1 SLOAD PUSH2 0xC3C SWAP1 PUSH2 0x1EA5 JUMP JUMPDEST DUP1 ISZERO PUSH2 0xC87 JUMPI DUP1 PUSH1 0x1F LT PUSH2 0xC5E JUMPI PUSH2 0x100 DUP1 DUP4 SLOAD DIV MUL DUP4 MSTORE SWAP2 PUSH1 0x20 ADD SWAP2 PUSH2 0xC87 JUMP JUMPDEST DUP3 ADD SWAP2 SWAP1 PUSH0 MSTORE PUSH1 0x20 PUSH0 KECCAK256 SWAP1 JUMPDEST DUP2 SLOAD DUP2 MSTORE SWAP1 PUSH1 0x1 ADD SWAP1 PUSH1 0x20 ADD DUP1 DUP4 GT PUSH2 0xC6A JUMPI DUP3 SWAP1 SUB PUSH1 0x1F AND DUP3 ADD SWAP2 JUMPDEST POP POP POP POP POP DUP2 MSTORE PUSH1 0x20 ADD PUSH1 0x1 DUP3 ADD PUSH0 SWAP1 SLOAD SWAP1 PUSH2 0x100 EXP SWAP1 DIV PUSH1 0xFF AND PUSH1 0xFF AND PUSH1 0xFF AND DUP2 MSTORE PUSH1 0x20 ADD PUSH1 0x2 DUP3 ADD SLOAD DUP2 MSTORE POP POP DUP2 MSTORE PUSH1 0x20 ADD SWAP1 PUSH1 0x1 ADD SWAP1 PUSH2 0xBE0 JUMP JUMPDEST POP POP POP POP SWAP1 POP PUSH0 DUP2 MLOAD SWAP1 POP PUSH0 DUP2 PUSH8 0xFFFFFFFFFFFFFFFF DUP2 GT ISZERO PUSH2 0xCEB JUMPI PUSH2 0xCEA PUSH2 0x1CFA JUMP JUMPDEST JUMPDEST PUSH1 0x40 MLOAD SWAP1 DUP1 DUP3 MSTORE DUP1 PUSH1 0x20 MUL PUSH1 0x20 ADD DUP3 ADD PUSH1 0x40 MSTORE DUP1 ISZERO PUSH2 0xD19 JUMPI DUP2 PUSH1 0x20 ADD PUSH1 0x20 DUP3 MUL DUP1 CALLDATASIZE DUP4 CALLDATACOPY DUP1 DUP3 ADD SWAP2 POP POP SWAP1 POP JUMPDEST POP SWAP1 POP PUSH0 JUMPDEST DUP3 DUP2 LT ISZERO PUSH2 0xD79 JUMPI DUP4 DUP2 DUP2 MLOAD DUP2 LT PUSH2 0xD39 JUMPI PUSH2 0xD38 PUSH2 0x25C4 JUMP JUMPDEST JUMPDEST PUSH1 0x20 MUL PUSH1 0x20 ADD ADD MLOAD PUSH1 0x20 ADD MLOAD DUP3 DUP3 DUP2 MLOAD DUP2 LT PUSH2 0xD58 JUMPI PUSH2 0xD57 PUSH2 0x25C4 JUMP JUMPDEST JUMPDEST PUSH1 0x20 MUL PUSH1 0x20 ADD ADD SWAP1 PUSH1 0xFF AND SWAP1 DUP2 PUSH1 0xFF AND DUP2 MSTORE POP POP DUP1 DUP1 PUSH1 0x1 ADD SWAP2 POP POP PUSH2 0xD1E JUMP JUMPDEST POP DUP1 SWAP4 POP POP POP POP SWAP2 SWAP1 POP JUMP JUMPDEST PUSH1 0x60 PUSH0 DUP1 PUSH1 0x6 PUSH0 DUP6 PUSH1 0xFF AND PUSH1 0xFF AND DUP2 MSTORE PUSH1 0x20 ADD SWAP1 DUP2 MSTORE PUSH1 0x20 ADD PUSH0 KECCAK256 PUSH1 0x40 MLOAD DUP1 PUSH1 0x60 ADD PUSH1 0x40 MSTORE SWAP1 DUP2 PUSH0 DUP3 ADD DUP1 SLOAD PUSH2 0xDBA SWAP1 PUSH2 0x1EA5 JUMP JUMPDEST DUP1 PUSH1 0x1F ADD PUSH1 0x20 DUP1 SWAP2 DIV MUL PUSH1 0x20 ADD PUSH1 0x40 MLOAD SWAP1 DUP2 ADD PUSH1 0x40 MSTORE DUP1 SWAP3 SWAP2 SWAP1 DUP2 DUP2 MSTORE PUSH1 0x20 ADD DUP3 DUP1 SLOAD PUSH2 0xDE6 SWAP1 PUSH2 0x1EA5 JUMP JUMPDEST DUP1 ISZERO PUSH2 0xE31 JUMPI DUP1 PUSH1 0x1F LT PUSH2 0xE08 JUMPI PUSH2 0x100 DUP1 DUP4 SLOAD DIV MUL DUP4 MSTORE SWAP2 PUSH1 0x20 ADD SWAP2 PUSH2 0xE31 JUMP JUMPDEST DUP3 ADD SWAP2 SWAP1 PUSH0 MSTORE PUSH1 0x20 PUSH0 KECCAK256 SWAP1 JUMPDEST DUP2 SLOAD DUP2 MSTORE SWAP1 PUSH1 0x1 ADD SWAP1 PUSH1 0x20 ADD DUP1 DUP4 GT PUSH2 0xE14 JUMPI DUP3 SWAP1 SUB PUSH1 0x1F AND DUP3 ADD SWAP2 JUMPDEST POP POP POP POP POP DUP2 MSTORE PUSH1 0x20 ADD PUSH1 0x1 DUP3 ADD PUSH0 SWAP1 SLOAD SWAP1 PUSH2 0x100 EXP SWAP1 DIV PUSH1 0xFF AND PUSH1 0xFF AND PUSH1 0xFF AND DUP2 MSTORE PUSH1 0x20 ADD PUSH1 0x2 DUP3 ADD SLOAD DUP2 MSTORE POP POP SWAP1 POP DUP1 PUSH0 ADD MLOAD DUP2 PUSH1 0x40 ADD MLOAD SWAP3 POP SWAP3 POP POP SWAP2 POP SWAP2 JUMP JUMPDEST PUSH0 PUSH1 0x1 PUSH0 DUP5 PUSH20 0xFFFFFFFFFFFFFFFFFFFFFFFFFFFFFFFFFFFFFFFF AND PUSH20 0xFFFFFFFFFFFFFFFFFFFFFFFFFFFFFFFFFFFFFFFF AND DUP2 MSTORE PUSH1 0x20 ADD SWAP1 DUP2 MSTORE PUSH1 0x20 ADD PUSH0 KECCAK256 PUSH0 DUP4 PUSH20 0xFFFFFFFFFFFFFFFFFFFFFFFFFFFFFFFFFFFFFFFF AND PUSH20 0xFFFFFFFFFFFFFFFFFFFFFFFFFFFFFFFFFFFFFFFF AND DUP2 MSTORE PUSH1 0x20 ADD SWAP1 DUP2 MSTORE PUSH1 0x20 ADD PUSH0 KECCAK256 SLOAD SWAP1 POP SWAP3 SWAP2 POP POP JUMP JUMPDEST PUSH2 0xEFF PUSH2 0x11AB JUMP JUMPDEST PUSH2 0xF09 DUP3 DUP3 PUSH2 0x1374 JUMP JUMPDEST POP POP JUMP JUMPDEST PUSH2 0xF15 PUSH2 0x11AB JUMP JUMPDEST PUSH0 PUSH20 0xFFFFFFFFFFFFFFFFFFFFFFFFFFFFFFFFFFFFFFFF AND DUP2 PUSH20 0xFFFFFFFFFFFFFFFFFFFFFFFFFFFFFFFFFFFFFFFF AND SUB PUSH2 0xF85 JUMPI PUSH0 PUSH1 0x40 MLOAD PUSH32 0x1E4FBDF700000000000000000000000000000000000000000000000000000000 DUP2 MSTORE PUSH1 0x4 ADD PUSH2 0xF7C SWAP2 SWAP1 PUSH2 0x1B41 JUMP JUMPDEST PUSH1 0x40 MLOAD DUP1 SWAP2 SUB SWAP1 REVERT JUMPDEST PUSH2 0xF8E DUP2 PUSH2 0x12B1 JUMP JUMPDEST POP JUMP JUMPDEST PUSH0 CALLER SWAP1 POP SWAP1 JUMP JUMPDEST PUSH2 0xFA5 DUP4 DUP4 DUP4 PUSH1 0x1 PUSH2 0x1441 JUMP JUMPDEST POP POP POP JUMP JUMPDEST PUSH0 PUSH20 0xFFFFFFFFFFFFFFFFFFFFFFFFFFFFFFFFFFFFFFFF AND DUP3 PUSH20 0xFFFFFFFFFFFFFFFFFFFFFFFFFFFFFFFFFFFFFFFF AND SUB PUSH2 0x101A JUMPI PUSH0 PUSH1 0x40 MLOAD PUSH32 0xEC442F0500000000000000000000000000000000000000000000000000000000 DUP2 MSTORE PUSH1 0x4 ADD PUSH2 0x1011 SWAP2 SWAP1 PUSH2 0x1B41 JUMP JUMPDEST PUSH1 0x40 MLOAD DUP1 SWAP2 SUB SWAP1 REVERT JUMPDEST PUSH2 0x1025 PUSH0 DUP4 DUP4 PUSH2 0x1610 JUMP JUMPDEST POP POP JUMP JUMPDEST PUSH0 PUSH20 0xFFFFFFFFFFFFFFFFFFFFFFFFFFFFFFFFFFFFFFFF AND DUP4 PUSH20 0xFFFFFFFFFFFFFFFFFFFFFFFFFFFFFFFFFFFFFFFF AND SUB PUSH2 0x1099 JUMPI PUSH0 PUSH1 0x40 MLOAD PUSH32 0x96C6FD1E00000000000000000000000000000000000000000000000000000000 DUP2 MSTORE PUSH1 0x4 ADD PUSH2 0x1090 SWAP2 SWAP1 PUSH2 0x1B41 JUMP JUMPDEST PUSH1 0x40 MLOAD DUP1 SWAP2 SUB SWAP1 REVERT JUMPDEST PUSH0 PUSH20 0xFFFFFFFFFFFFFFFFFFFFFFFFFFFFFFFFFFFFFFFF AND DUP3 PUSH20 0xFFFFFFFFFFFFFFFFFFFFFFFFFFFFFFFFFFFFFFFF AND SUB PUSH2 0x1109 JUMPI PUSH0 PUSH1 0x40 MLOAD PUSH32 0xEC442F0500000000000000000000000000000000000000000000000000000000 DUP2 MSTORE PUSH1 0x4 ADD PUSH2 0x1100 SWAP2 SWAP1 PUSH2 0x1B41 JUMP JUMPDEST PUSH1 0x40 MLOAD DUP1 SWAP2 SUB SWAP1 REVERT JUMPDEST PUSH2 0x1114 DUP4 DUP4 DUP4 PUSH2 0x1610 JUMP JUMPDEST POP POP POP JUMP JUMPDEST PUSH0 PUSH2 0x1124 DUP5 DUP5 PUSH2 0xE75 JUMP JUMPDEST SWAP1 POP PUSH32 0xFFFFFFFFFFFFFFFFFFFFFFFFFFFFFFFFFFFFFFFFFFFFFFFFFFFFFFFFFFFFFFFF DUP2 EQ PUSH2 0x11A5 JUMPI DUP2 DUP2 LT ISZERO PUSH2 0x1196 JUMPI DUP3 DUP2 DUP4 PUSH1 0x40 MLOAD PUSH32 0xFB8F41B200000000000000000000000000000000000000000000000000000000 DUP2 MSTORE PUSH1 0x4 ADD PUSH2 0x118D SWAP4 SWAP3 SWAP2 SWAP1 PUSH2 0x25F1 JUMP JUMPDEST PUSH1 0x40 MLOAD DUP1 SWAP2 SUB SWAP1 REVERT JUMPDEST PUSH2 0x11A4 DUP5 DUP5 DUP5 DUP5 SUB PUSH0 PUSH2 0x1441 JUMP JUMPDEST JUMPDEST POP POP POP POP JUMP JUMPDEST PUSH2 0x11B3 PUSH2 0xF91 JUMP JUMPDEST PUSH20 0xFFFFFFFFFFFFFFFFFFFFFFFFFFFFFFFFFFFFFFFF AND PUSH2 0x11D1 PUSH2 0x820 JUMP JUMPDEST PUSH20 0xFFFFFFFFFFFFFFFFFFFFFFFFFFFFFFFFFFFFFFFF AND EQ PUSH2 0x1230 JUMPI PUSH2 0x11F4 PUSH2 0xF91 JUMP JUMPDEST PUSH1 0x40 MLOAD PUSH32 0x118CDAA700000000000000000000000000000000000000000000000000000000 DUP2 MSTORE PUSH1 0x4 ADD PUSH2 0x1227 SWAP2 SWAP1 PUSH2 0x1B41 JUMP JUMPDEST PUSH1 0x40 MLOAD DUP1 SWAP2 SUB SWAP1 REVERT JUMPDEST JUMP JUMPDEST PUSH0 PUSH20 0xFFFFFFFFFFFFFFFFFFFFFFFFFFFFFFFFFFFFFFFF AND DUP3 PUSH20 0xFFFFFFFFFFFFFFFFFFFFFFFFFFFFFFFFFFFFFFFF AND SUB PUSH2 0x12A2 JUMPI PUSH0 PUSH1 0x40 MLOAD PUSH32 0x96C6FD1E00000000000000000000000000000000000000000000000000000000 DUP2 MSTORE PUSH1 0x4 ADD PUSH2 0x1299 SWAP2 SWAP1 PUSH2 0x1B41 JUMP JUMPDEST PUSH1 0x40 MLOAD DUP1 SWAP2 SUB SWAP1 REVERT JUMPDEST PUSH2 0x12AD DUP3 PUSH0 DUP4 PUSH2 0x1610 JUMP JUMPDEST POP POP JUMP JUMPDEST PUSH0 PUSH1 0x5 PUSH0 SWAP1 SLOAD SWAP1 PUSH2 0x100 EXP SWAP1 DIV PUSH20 0xFFFFFFFFFFFFFFFFFFFFFFFFFFFFFFFFFFFFFFFF AND SWAP1 POP DUP2 PUSH1 0x5 PUSH0 PUSH2 0x100 EXP DUP2 SLOAD DUP2 PUSH20 0xFFFFFFFFFFFFFFFFFFFFFFFFFFFFFFFFFFFFFFFF MUL NOT AND SWAP1 DUP4 PUSH20 0xFFFFFFFFFFFFFFFFFFFFFFFFFFFFFFFFFFFFFFFF AND MUL OR SWAP1 SSTORE POP DUP2 PUSH20 0xFFFFFFFFFFFFFFFFFFFFFFFFFFFFFFFFFFFFFFFF AND DUP2 PUSH20 0xFFFFFFFFFFFFFFFFFFFFFFFFFFFFFFFFFFFFFFFF AND PUSH32 0x8BE0079C531659141344CD1FD0A4F28419497F9722A3DAAFE3B4186F6B6457E0 PUSH1 0x40 MLOAD PUSH1 0x40 MLOAD DUP1 SWAP2 SUB SWAP1 LOG3 POP POP JUMP JUMPDEST PUSH1 0x40 MLOAD DUP1 PUSH1 0x60 ADD PUSH1 0x40 MSTORE DUP1 DUP4 DUP2 MSTORE PUSH1 0x20 ADD PUSH1 0x8 PUSH0 SWAP1 SLOAD SWAP1 PUSH2 0x100 EXP SWAP1 DIV PUSH1 0xFF AND PUSH1 0xFF AND DUP2 MSTORE PUSH1 0x20 ADD DUP3 DUP2 MSTORE POP PUSH1 0x6 PUSH0 PUSH1 0x8 PUSH0 SWAP1 SLOAD SWAP1 PUSH2 0x100 EXP SWAP1 DIV PUSH1 0xFF AND PUSH1 0xFF AND PUSH1 0xFF AND DUP2 MSTORE PUSH1 0x20 ADD SWAP1 DUP2 MSTORE PUSH1 0x20 ADD PUSH0 KECCAK256 PUSH0 DUP3 ADD MLOAD DUP2 PUSH0 ADD SWAP1 DUP2 PUSH2 0x13D8 SWAP2 SWAP1 PUSH2 0x2626 JUMP JUMPDEST POP PUSH1 0x20 DUP3 ADD MLOAD DUP2 PUSH1 0x1 ADD PUSH0 PUSH2 0x100 EXP DUP2 SLOAD DUP2 PUSH1 0xFF MUL NOT AND SWAP1 DUP4 PUSH1 0xFF AND MUL OR SWAP1 SSTORE POP PUSH1 0x40 DUP3 ADD MLOAD DUP2 PUSH1 0x2 ADD SSTORE SWAP1 POP POP PUSH1 0x8 PUSH0 DUP2 DUP2 SWAP1 SLOAD SWAP1 PUSH2 0x100 EXP SWAP1 DIV PUSH1 0xFF AND DUP1 SWAP3 SWAP2 SWAP1 PUSH2 0x1424 SWAP1 PUSH2 0x26F5 JUMP JUMPDEST SWAP2 SWAP1 PUSH2 0x100 EXP DUP2 SLOAD DUP2 PUSH1 0xFF MUL NOT AND SWAP1 DUP4 PUSH1 0xFF AND MUL OR SWAP1 SSTORE POP POP POP POP JUMP JUMPDEST PUSH0 PUSH20 0xFFFFFFFFFFFFFFFFFFFFFFFFFFFFFFFFFFFFFFFF AND DUP5 PUSH20 0xFFFFFFFFFFFFFFFFFFFFFFFFFFFFFFFFFFFFFFFF AND SUB PUSH2 0x14B1 JUMPI PUSH0 PUSH1 0x40 MLOAD PUSH32 0xE602DF0500000000000000000000000000000000000000000000000000000000 DUP2 MSTORE PUSH1 0x4 ADD PUSH2 0x14A8 SWAP2 SWAP1 PUSH2 0x1B41 JUMP JUMPDEST PUSH1 0x40 MLOAD DUP1 SWAP2 SUB SWAP1 REVERT JUMPDEST PUSH0 PUSH20 0xFFFFFFFFFFFFFFFFFFFFFFFFFFFFFFFFFFFFFFFF AND DUP4 PUSH20 0xFFFFFFFFFFFFFFFFFFFFFFFFFFFFFFFFFFFFFFFF AND SUB PUSH2 0x1521 JUMPI PUSH0 PUSH1 0x40 MLOAD PUSH32 0x94280D6200000000000000000000000000000000000000000000000000000000 DUP2 MSTORE PUSH1 0x4 ADD PUSH2 0x1518 SWAP2 SWAP1 PUSH2 0x1B41 JUMP JUMPDEST PUSH1 0x40 MLOAD DUP1 SWAP2 SUB SWAP1 REVERT JUMPDEST DUP2 PUSH1 0x1 PUSH0 DUP7 PUSH20 0xFFFFFFFFFFFFFFFFFFFFFFFFFFFFFFFFFFFFFFFF AND PUSH20 0xFFFFFFFFFFFFFFFFFFFFFFFFFFFFFFFFFFFFFFFF AND DUP2 MSTORE PUSH1 0x20 ADD SWAP1 DUP2 MSTORE PUSH1 0x20 ADD PUSH0 KECCAK256 PUSH0 DUP6 PUSH20 0xFFFFFFFFFFFFFFFFFFFFFFFFFFFFFFFFFFFFFFFF AND PUSH20 0xFFFFFFFFFFFFFFFFFFFFFFFFFFFFFFFFFFFFFFFF AND DUP2 MSTORE PUSH1 0x20 ADD SWAP1 DUP2 MSTORE PUSH1 0x20 ADD PUSH0 KECCAK256 DUP2 SWAP1 SSTORE POP DUP1 ISZERO PUSH2 0x160A JUMPI DUP3 PUSH20 0xFFFFFFFFFFFFFFFFFFFFFFFFFFFFFFFFFFFFFFFF AND DUP5 PUSH20 0xFFFFFFFFFFFFFFFFFFFFFFFFFFFFFFFFFFFFFFFF AND PUSH32 0x8C5BE1E5EBEC7D5BD14F71427D1E84F3DD0314C0F7B2291E5B200AC8C7C3B925 DUP5 PUSH1 0x40 MLOAD PUSH2 0x1601 SWAP2 SWAP1 PUSH2 0x1A3F JUMP JUMPDEST PUSH1 0x40 MLOAD DUP1 SWAP2 SUB SWAP1 LOG3 JUMPDEST POP POP POP POP JUMP JUMPDEST PUSH0 PUSH20 0xFFFFFFFFFFFFFFFFFFFFFFFFFFFFFFFFFFFFFFFF AND DUP4 PUSH20 0xFFFFFFFFFFFFFFFFFFFFFFFFFFFFFFFFFFFFFFFF AND SUB PUSH2 0x1660 JUMPI DUP1 PUSH1 0x2 PUSH0 DUP3 DUP3 SLOAD PUSH2 0x1654 SWAP2 SWAP1 PUSH2 0x271D JUMP JUMPDEST SWAP3 POP POP DUP2 SWAP1 SSTORE POP PUSH2 0x172E JUMP JUMPDEST PUSH0 DUP1 PUSH0 DUP6 PUSH20 0xFFFFFFFFFFFFFFFFFFFFFFFFFFFFFFFFFFFFFFFF AND PUSH20 0xFFFFFFFFFFFFFFFFFFFFFFFFFFFFFFFFFFFFFFFF AND DUP2 MSTORE PUSH1 0x20 ADD SWAP1 DUP2 MSTORE PUSH1 0x20 ADD PUSH0 KECCAK256 SLOAD SWAP1 POP DUP2 DUP2 LT ISZERO PUSH2 0x16E9 JUMPI DUP4 DUP2 DUP4 PUSH1 0x40 MLOAD PUSH32 0xE450D38C00000000000000000000000000000000000000000000000000000000 DUP2 MSTORE PUSH1 0x4 ADD PUSH2 0x16E0 SWAP4 SWAP3 SWAP2 SWAP1 PUSH2 0x25F1 JUMP JUMPDEST PUSH1 0x40 MLOAD DUP1 SWAP2 SUB SWAP1 REVERT JUMPDEST DUP2 DUP2 SUB PUSH0 DUP1 DUP7 PUSH20 0xFFFFFFFFFFFFFFFFFFFFFFFFFFFFFFFFFFFFFFFF AND PUSH20 0xFFFFFFFFFFFFFFFFFFFFFFFFFFFFFFFFFFFFFFFF AND DUP2 MSTORE PUSH1 0x20 ADD SWAP1 DUP2 MSTORE PUSH1 0x20 ADD PUSH0 KECCAK256 DUP2 SWAP1 SSTORE POP POP JUMPDEST PUSH0 PUSH20 0xFFFFFFFFFFFFFFFFFFFFFFFFFFFFFFFFFFFFFFFF AND DUP3 PUSH20 0xFFFFFFFFFFFFFFFFFFFFFFFFFFFFFFFFFFFFFFFF AND SUB PUSH2 0x1775 JUMPI DUP1 PUSH1 0x2 PUSH0 DUP3 DUP3 SLOAD SUB SWAP3 POP POP DUP2 SWAP1 SSTORE POP PUSH2 0x17BF JUMP JUMPDEST DUP1 PUSH0 DUP1 DUP5 PUSH20 0xFFFFFFFFFFFFFFFFFFFFFFFFFFFFFFFFFFFFFFFF AND PUSH20 0xFFFFFFFFFFFFFFFFFFFFFFFFFFFFFFFFFFFFFFFF AND DUP2 MSTORE PUSH1 0x20 ADD SWAP1 DUP2 MSTORE PUSH1 0x20 ADD PUSH0 KECCAK256 PUSH0 DUP3 DUP3 SLOAD ADD SWAP3 POP POP DUP2 SWAP1 SSTORE POP JUMPDEST DUP2 PUSH20 0xFFFFFFFFFFFFFFFFFFFFFFFFFFFFFFFFFFFFFFFF AND DUP4 PUSH20 0xFFFFFFFFFFFFFFFFFFFFFFFFFFFFFFFFFFFFFFFF AND PUSH32 0xDDF252AD1BE2C89B69C2B068FC378DAA952BA7F163C4A11628F55A4DF523B3EF DUP4 PUSH1 0x40 MLOAD PUSH2 0x181C SWAP2 SWAP1 PUSH2 0x1A3F JUMP JUMPDEST PUSH1 0x40 MLOAD DUP1 SWAP2 SUB SWAP1 LOG3 POP POP POP JUMP JUMPDEST PUSH0 DUP2 MLOAD SWAP1 POP SWAP2 SWAP1 POP JUMP JUMPDEST PUSH0 DUP3 DUP3 MSTORE PUSH1 0x20 DUP3 ADD SWAP1 POP SWAP3 SWAP2 POP POP JUMP JUMPDEST DUP3 DUP2 DUP4 MCOPY PUSH0 DUP4 DUP4 ADD MSTORE POP POP POP JUMP JUMPDEST PUSH0 PUSH1 0x1F NOT PUSH1 0x1F DUP4 ADD AND SWAP1 POP SWAP2 SWAP1 POP JUMP JUMPDEST PUSH0 PUSH2 0x186B DUP3 PUSH2 0x1829 JUMP JUMPDEST PUSH2 0x1875 DUP2 DUP6 PUSH2 0x1833 JUMP JUMPDEST SWAP4 POP PUSH2 0x1885 DUP2 DUP6 PUSH1 0x20 DUP7 ADD PUSH2 0x1843 JUMP JUMPDEST PUSH2 0x188E DUP2 PUSH2 0x1851 JUMP JUMPDEST DUP5 ADD SWAP2 POP POP SWAP3 SWAP2 POP POP JUMP JUMPDEST PUSH0 PUSH1 0x20 DUP3 ADD SWAP1 POP DUP2 DUP2 SUB PUSH0 DUP4 ADD MSTORE PUSH2 0x18B1 DUP2 DUP5 PUSH2 0x1861 JUMP JUMPDEST SWAP1 POP SWAP3 SWAP2 POP POP JUMP JUMPDEST PUSH0 PUSH1 0x40 MLOAD SWAP1 POP SWAP1 JUMP JUMPDEST PUSH0 DUP1 REVERT JUMPDEST PUSH0 DUP1 REVERT JUMPDEST PUSH0 PUSH20 0xFFFFFFFFFFFFFFFFFFFFFFFFFFFFFFFFFFFFFFFF DUP3 AND SWAP1 POP SWAP2 SWAP1 POP JUMP JUMPDEST PUSH0 PUSH2 0x18F3 DUP3 PUSH2 0x18CA JUMP JUMPDEST SWAP1 POP SWAP2 SWAP1 POP JUMP JUMPDEST PUSH2 0x1903 DUP2 PUSH2 0x18E9 JUMP JUMPDEST DUP2 EQ PUSH2 0x190D JUMPI PUSH0 DUP1 REVERT JUMPDEST POP JUMP JUMPDEST PUSH0 DUP2 CALLDATALOAD SWAP1 POP PUSH2 0x191E DUP2 PUSH2 0x18FA JUMP JUMPDEST SWAP3 SWAP2 POP POP JUMP JUMPDEST PUSH0 DUP2 SWAP1 POP SWAP2 SWAP1 POP JUMP JUMPDEST PUSH2 0x1936 DUP2 PUSH2 0x1924 JUMP JUMPDEST DUP2 EQ PUSH2 0x1940 JUMPI PUSH0 DUP1 REVERT JUMPDEST POP JUMP JUMPDEST PUSH0 DUP2 CALLDATALOAD SWAP1 POP PUSH2 0x1951 DUP2 PUSH2 0x192D JUMP JUMPDEST SWAP3 SWAP2 POP POP JUMP JUMPDEST PUSH0 DUP1 PUSH1 0x40 DUP4 DUP6 SUB SLT ISZERO PUSH2 0x196D JUMPI PUSH2 0x196C PUSH2 0x18C2 JUMP JUMPDEST JUMPDEST PUSH0 PUSH2 0x197A DUP6 DUP3 DUP7 ADD PUSH2 0x1910 JUMP JUMPDEST SWAP3 POP POP PUSH1 0x20 PUSH2 0x198B DUP6 DUP3 DUP7 ADD PUSH2 0x1943 JUMP JUMPDEST SWAP2 POP POP SWAP3 POP SWAP3 SWAP1 POP JUMP JUMPDEST PUSH0 DUP2 ISZERO ISZERO SWAP1 POP SWAP2 SWAP1 POP JUMP JUMPDEST PUSH2 0x19A9 DUP2 PUSH2 0x1995 JUMP JUMPDEST DUP3 MSTORE POP POP JUMP JUMPDEST PUSH0 PUSH1 0x20 DUP3 ADD SWAP1 POP PUSH2 0x19C2 PUSH0 DUP4 ADD DUP5 PUSH2 0x19A0 JUMP JUMPDEST SWAP3 SWAP2 POP POP JUMP JUMPDEST PUSH2 0x19D1 DUP2 PUSH2 0x1995 JUMP JUMPDEST DUP2 EQ PUSH2 0x19DB JUMPI PUSH0 DUP1 REVERT JUMPDEST POP JUMP JUMPDEST PUSH0 DUP2 CALLDATALOAD SWAP1 POP PUSH2 0x19EC DUP2 PUSH2 0x19C8 JUMP JUMPDEST SWAP3 SWAP2 POP POP JUMP JUMPDEST PUSH0 DUP1 PUSH1 0x40 DUP4 DUP6 SUB SLT ISZERO PUSH2 0x1A08 JUMPI PUSH2 0x1A07 PUSH2 0x18C2 JUMP JUMPDEST JUMPDEST PUSH0 PUSH2 0x1A15 DUP6 DUP3 DUP7 ADD PUSH2 0x19DE JUMP JUMPDEST SWAP3 POP POP PUSH1 0x20 PUSH2 0x1A26 DUP6 DUP3 DUP7 ADD PUSH2 0x1943 JUMP JUMPDEST SWAP2 POP POP SWAP3 POP SWAP3 SWAP1 POP JUMP JUMPDEST PUSH2 0x1A39 DUP2 PUSH2 0x1924 JUMP JUMPDEST DUP3 MSTORE POP POP JUMP JUMPDEST PUSH0 PUSH1 0x20 DUP3 ADD SWAP1 POP PUSH2 0x1A52 PUSH0 DUP4 ADD DUP5 PUSH2 0x1A30 JUMP JUMPDEST SWAP3 SWAP2 POP POP JUMP JUMPDEST PUSH0 DUP1 PUSH0 PUSH1 0x60 DUP5 DUP7 SUB SLT ISZERO PUSH2 0x1A6F JUMPI PUSH2 0x1A6E PUSH2 0x18C2 JUMP JUMPDEST JUMPDEST PUSH0 PUSH2 0x1A7C DUP7 DUP3 DUP8 ADD PUSH2 0x1910 JUMP JUMPDEST SWAP4 POP POP PUSH1 0x20 PUSH2 0x1A8D DUP7 DUP3 DUP8 ADD PUSH2 0x1910 JUMP JUMPDEST SWAP3 POP POP PUSH1 0x40 PUSH2 0x1A9E DUP7 DUP3 DUP8 ADD PUSH2 0x1943 JUMP JUMPDEST SWAP2 POP POP SWAP3 POP SWAP3 POP SWAP3 JUMP JUMPDEST PUSH0 PUSH1 0xFF DUP3 AND SWAP1 POP SWAP2 SWAP1 POP JUMP JUMPDEST PUSH2 0x1ABD DUP2 PUSH2 0x1AA8 JUMP JUMPDEST DUP3 MSTORE POP POP JUMP JUMPDEST PUSH0 PUSH1 0x20 DUP3 ADD SWAP1 POP PUSH2 0x1AD6 PUSH0 DUP4 ADD DUP5 PUSH2 0x1AB4 JUMP JUMPDEST SWAP3 SWAP2 POP POP JUMP JUMPDEST PUSH0 PUSH1 0x20 DUP3 DUP5 SUB SLT ISZERO PUSH2 0x1AF1 JUMPI PUSH2 0x1AF0 PUSH2 0x18C2 JUMP JUMPDEST JUMPDEST PUSH0 PUSH2 0x1AFE DUP5 DUP3 DUP6 ADD PUSH2 0x1943 JUMP JUMPDEST SWAP2 POP POP SWAP3 SWAP2 POP POP JUMP JUMPDEST PUSH0 PUSH1 0x20 DUP3 DUP5 SUB SLT ISZERO PUSH2 0x1B1C JUMPI PUSH2 0x1B1B PUSH2 0x18C2 JUMP JUMPDEST JUMPDEST PUSH0 PUSH2 0x1B29 DUP5 DUP3 DUP6 ADD PUSH2 0x1910 JUMP JUMPDEST SWAP2 POP POP SWAP3 SWAP2 POP POP JUMP JUMPDEST PUSH2 0x1B3B DUP2 PUSH2 0x18E9 JUMP JUMPDEST DUP3 MSTORE POP POP JUMP JUMPDEST PUSH0 PUSH1 0x20 DUP3 ADD SWAP1 POP PUSH2 0x1B54 PUSH0 DUP4 ADD DUP5 PUSH2 0x1B32 JUMP JUMPDEST SWAP3 SWAP2 POP POP JUMP JUMPDEST PUSH2 0x1B63 DUP2 PUSH2 0x1AA8 JUMP JUMPDEST DUP2 EQ PUSH2 0x1B6D JUMPI PUSH0 DUP1 REVERT JUMPDEST POP JUMP JUMPDEST PUSH0 DUP2 CALLDATALOAD SWAP1 POP PUSH2 0x1B7E DUP2 PUSH2 0x1B5A JUMP JUMPDEST SWAP3 SWAP2 POP POP JUMP JUMPDEST PUSH0 PUSH1 0x20 DUP3 DUP5 SUB SLT ISZERO PUSH2 0x1B99 JUMPI PUSH2 0x1B98 PUSH2 0x18C2 JUMP JUMPDEST JUMPDEST PUSH0 PUSH2 0x1BA6 DUP5 DUP3 DUP6 ADD PUSH2 0x1B70 JUMP JUMPDEST SWAP2 POP POP SWAP3 SWAP2 POP POP JUMP JUMPDEST PUSH0 DUP2 MLOAD SWAP1 POP SWAP2 SWAP1 POP JUMP JUMPDEST PUSH0 DUP3 DUP3 MSTORE PUSH1 0x20 DUP3 ADD SWAP1 POP SWAP3 SWAP2 POP POP JUMP JUMPDEST PUSH0 DUP2 SWAP1 POP PUSH1 0x20 DUP3 ADD SWAP1 POP SWAP2 SWAP1 POP JUMP JUMPDEST PUSH2 0x1BE1 DUP2 PUSH2 0x1AA8 JUMP JUMPDEST DUP3 MSTORE POP POP JUMP JUMPDEST PUSH0 PUSH2 0x1BF2 DUP4 DUP4 PUSH2 0x1BD8 JUMP JUMPDEST PUSH1 0x20 DUP4 ADD SWAP1 POP SWAP3 SWAP2 POP POP JUMP JUMPDEST PUSH0 PUSH1 0x20 DUP3 ADD SWAP1 POP SWAP2 SWAP1 POP JUMP JUMPDEST PUSH0 PUSH2 0x1C14 DUP3 PUSH2 0x1BAF JUMP JUMPDEST PUSH2 0x1C1E DUP2 DUP6 PUSH2 0x1BB9 JUMP JUMPDEST SWAP4 POP PUSH2 0x1C29 DUP4 PUSH2 0x1BC9 JUMP JUMPDEST DUP1 PUSH0 JUMPDEST DUP4 DUP2 LT ISZERO PUSH2 0x1C59 JUMPI DUP2 MLOAD PUSH2 0x1C40 DUP9 DUP3 PUSH2 0x1BE7 JUMP JUMPDEST SWAP8 POP PUSH2 0x1C4B DUP4 PUSH2 0x1BFE JUMP JUMPDEST SWAP3 POP POP PUSH1 0x1 DUP2 ADD SWAP1 POP PUSH2 0x1C2C JUMP JUMPDEST POP DUP6 SWAP4 POP POP POP POP SWAP3 SWAP2 POP POP JUMP JUMPDEST PUSH0 PUSH1 0x20 DUP3 ADD SWAP1 POP DUP2 DUP2 SUB PUSH0 DUP4 ADD MSTORE PUSH2 0x1C7E DUP2 DUP5 PUSH2 0x1C0A JUMP JUMPDEST SWAP1 POP SWAP3 SWAP2 POP POP JUMP JUMPDEST PUSH0 PUSH1 0x40 DUP3 ADD SWAP1 POP DUP2 DUP2 SUB PUSH0 DUP4 ADD MSTORE PUSH2 0x1C9E DUP2 DUP6 PUSH2 0x1861 JUMP JUMPDEST SWAP1 POP PUSH2 0x1CAD PUSH1 0x20 DUP4 ADD DUP5 PUSH2 0x1A30 JUMP JUMPDEST SWAP4 SWAP3 POP POP POP JUMP JUMPDEST PUSH0 DUP1 PUSH1 0x40 DUP4 DUP6 SUB SLT ISZERO PUSH2 0x1CCA JUMPI PUSH2 0x1CC9 PUSH2 0x18C2 JUMP JUMPDEST JUMPDEST PUSH0 PUSH2 0x1CD7 DUP6 DUP3 DUP7 ADD PUSH2 0x1910 JUMP JUMPDEST SWAP3 POP POP PUSH1 0x20 PUSH2 0x1CE8 DUP6 DUP3 DUP7 ADD PUSH2 0x1910 JUMP JUMPDEST SWAP2 POP POP SWAP3 POP SWAP3 SWAP1 POP JUMP JUMPDEST PUSH0 DUP1 REVERT JUMPDEST PUSH0 DUP1 REVERT JUMPDEST PUSH32 0x4E487B7100000000000000000000000000000000000000000000000000000000 PUSH0 MSTORE PUSH1 0x41 PUSH1 0x4 MSTORE PUSH1 0x24 PUSH0 REVERT JUMPDEST PUSH2 0x1D30 DUP3 PUSH2 0x1851 JUMP JUMPDEST DUP2 ADD DUP2 DUP2 LT PUSH8 0xFFFFFFFFFFFFFFFF DUP3 GT OR ISZERO PUSH2 0x1D4F JUMPI PUSH2 0x1D4E PUSH2 0x1CFA JUMP JUMPDEST JUMPDEST DUP1 PUSH1 0x40 MSTORE POP POP POP JUMP JUMPDEST PUSH0 PUSH2 0x1D61 PUSH2 0x18B9 JUMP JUMPDEST SWAP1 POP PUSH2 0x1D6D DUP3 DUP3 PUSH2 0x1D27 JUMP JUMPDEST SWAP2 SWAP1 POP JUMP JUMPDEST PUSH0 PUSH8 0xFFFFFFFFFFFFFFFF DUP3 GT ISZERO PUSH2 0x1D8C JUMPI PUSH2 0x1D8B PUSH2 0x1CFA JUMP JUMPDEST JUMPDEST PUSH2 0x1D95 DUP3 PUSH2 0x1851 JUMP JUMPDEST SWAP1 POP PUSH1 0x20 DUP2 ADD SWAP1 POP SWAP2 SWAP1 POP JUMP JUMPDEST DUP3 DUP2 DUP4 CALLDATACOPY PUSH0 DUP4 DUP4 ADD MSTORE POP POP POP JUMP JUMPDEST PUSH0 PUSH2 0x1DC2 PUSH2 0x1DBD DUP5 PUSH2 0x1D72 JUMP JUMPDEST PUSH2 0x1D58 JUMP JUMPDEST SWAP1 POP DUP3 DUP2 MSTORE PUSH1 0x20 DUP2 ADD DUP5 DUP5 DUP5 ADD GT ISZERO PUSH2 0x1DDE JUMPI PUSH2 0x1DDD PUSH2 0x1CF6 JUMP JUMPDEST JUMPDEST PUSH2 0x1DE9 DUP5 DUP3 DUP6 PUSH2 0x1DA2 JUMP JUMPDEST POP SWAP4 SWAP3 POP POP POP JUMP JUMPDEST PUSH0 DUP3 PUSH1 0x1F DUP4 ADD SLT PUSH2 0x1E05 JUMPI PUSH2 0x1E04 PUSH2 0x1CF2 JUMP JUMPDEST JUMPDEST DUP2 CALLDATALOAD PUSH2 0x1E15 DUP5 DUP3 PUSH1 0x20 DUP7 ADD PUSH2 0x1DB0 JUMP JUMPDEST SWAP2 POP POP SWAP3 SWAP2 POP POP JUMP JUMPDEST PUSH0 DUP1 PUSH1 0x40 DUP4 DUP6 SUB SLT ISZERO PUSH2 0x1E34 JUMPI PUSH2 0x1E33 PUSH2 0x18C2 JUMP JUMPDEST JUMPDEST PUSH0 DUP4 ADD CALLDATALOAD PUSH8 0xFFFFFFFFFFFFFFFF DUP2 GT ISZERO PUSH2 0x1E51 JUMPI PUSH2 0x1E50 PUSH2 0x18C6 JUMP JUMPDEST JUMPDEST PUSH2 0x1E5D DUP6 DUP3 DUP7 ADD PUSH2 0x1DF1 JUMP JUMPDEST SWAP3 POP POP PUSH1 0x20 PUSH2 0x1E6E DUP6 DUP3 DUP7 ADD PUSH2 0x1943 JUMP JUMPDEST SWAP2 POP POP SWAP3 POP SWAP3 SWAP1 POP JUMP JUMPDEST PUSH32 0x4E487B7100000000000000000000000000000000000000000000000000000000 PUSH0 MSTORE PUSH1 0x22 PUSH1 0x4 MSTORE PUSH1 0x24 PUSH0 REVERT JUMPDEST PUSH0 PUSH1 0x2 DUP3 DIV SWAP1 POP PUSH1 0x1 DUP3 AND DUP1 PUSH2 0x1EBC JUMPI PUSH1 0x7F DUP3 AND SWAP2 POP JUMPDEST PUSH1 0x20 DUP3 LT DUP2 SUB PUSH2 0x1ECF JUMPI PUSH2 0x1ECE PUSH2 0x1E78 JUMP JUMPDEST JUMPDEST POP SWAP2 SWAP1 POP JUMP JUMPDEST PUSH32 0x496E73756666696369656E742062616C616E6365000000000000000000000000 PUSH0 DUP3 ADD MSTORE POP JUMP JUMPDEST PUSH0 PUSH2 0x1F09 PUSH1 0x14 DUP4 PUSH2 0x1833 JUMP JUMPDEST SWAP2 POP PUSH2 0x1F14 DUP3 PUSH2 0x1ED5 JUMP JUMPDEST PUSH1 0x20 DUP3 ADD SWAP1 POP SWAP2 SWAP1 POP JUMP JUMPDEST PUSH0 PUSH1 0x20 DUP3 ADD SWAP1 POP DUP2 DUP2 SUB PUSH0 DUP4 ADD MSTORE PUSH2 0x1F36 DUP2 PUSH2 0x1EFD JUMP JUMPDEST SWAP1 POP SWAP2 SWAP1 POP JUMP JUMPDEST PUSH0 DUP2 SWAP1 POP SWAP2 SWAP1 POP JUMP JUMPDEST PUSH2 0x1F57 PUSH2 0x1F52 DUP3 PUSH2 0x1924 JUMP JUMPDEST PUSH2 0x1F3D JUMP JUMPDEST DUP3 MSTORE POP POP JUMP JUMPDEST PUSH0 DUP2 PUSH1 0x60 SHL SWAP1 POP SWAP2 SWAP1 POP JUMP JUMPDEST PUSH0 PUSH2 0x1F73 DUP3 PUSH2 0x1F5D JUMP JUMPDEST SWAP1 POP SWAP2 SWAP1 POP JUMP JUMPDEST PUSH0 PUSH2 0x1F84 DUP3 PUSH2 0x1F69 JUMP JUMPDEST SWAP1 POP SWAP2 SWAP1 POP JUMP JUMPDEST PUSH2 0x1F9C PUSH2 0x1F97 DUP3 PUSH2 0x18E9 JUMP JUMPDEST PUSH2 0x1F7A JUMP JUMPDEST DUP3 MSTORE POP POP JUMP JUMPDEST PUSH0 PUSH2 0x1FAD DUP3 DUP6 PUSH2 0x1F46 JUMP JUMPDEST PUSH1 0x20 DUP3 ADD SWAP2 POP PUSH2 0x1FBD DUP3 DUP5 PUSH2 0x1F8B JUMP JUMPDEST PUSH1 0x14 DUP3 ADD SWAP2 POP DUP2 SWAP1 POP SWAP4 SWAP3 POP POP POP JUMP JUMPDEST PUSH32 0x4E487B7100000000000000000000000000000000000000000000000000000000 PUSH0 MSTORE PUSH1 0x12 PUSH1 0x4 MSTORE PUSH1 0x24 PUSH0 REVERT JUMPDEST PUSH0 PUSH2 0x2004 DUP3 PUSH2 0x1924 JUMP JUMPDEST SWAP2 POP PUSH2 0x200F DUP4 PUSH2 0x1924 JUMP JUMPDEST SWAP3 POP DUP3 PUSH2 0x201F JUMPI PUSH2 0x201E PUSH2 0x1FCD JUMP JUMPDEST JUMPDEST DUP3 DUP3 MOD SWAP1 POP SWAP3 SWAP2 POP POP JUMP JUMPDEST PUSH32 0x4E487B7100000000000000000000000000000000000000000000000000000000 PUSH0 MSTORE PUSH1 0x11 PUSH1 0x4 MSTORE PUSH1 0x24 PUSH0 REVERT JUMPDEST PUSH0 PUSH2 0x2061 DUP3 PUSH2 0x1924 JUMP JUMPDEST SWAP2 POP PUSH2 0x206C DUP4 PUSH2 0x1924 JUMP JUMPDEST SWAP3 POP DUP3 DUP3 MUL PUSH2 0x207A DUP2 PUSH2 0x1924 JUMP JUMPDEST SWAP2 POP DUP3 DUP3 DIV DUP5 EQ DUP4 ISZERO OR PUSH2 0x2091 JUMPI PUSH2 0x2090 PUSH2 0x202A JUMP JUMPDEST JUMPDEST POP SWAP3 SWAP2 POP POP JUMP JUMPDEST PUSH32 0x596F7520776F6E21000000000000000000000000000000000000000000000000 PUSH0 DUP3 ADD MSTORE POP JUMP JUMPDEST PUSH0 PUSH2 0x20CC PUSH1 0x8 DUP4 PUSH2 0x1833 JUMP JUMPDEST SWAP2 POP PUSH2 0x20D7 DUP3 PUSH2 0x2098 JUMP JUMPDEST PUSH1 0x20 DUP3 ADD SWAP1 POP SWAP2 SWAP1 POP JUMP JUMPDEST PUSH0 PUSH1 0x60 DUP3 ADD SWAP1 POP PUSH2 0x20F5 PUSH0 DUP4 ADD DUP6 PUSH2 0x1A30 JUMP JUMPDEST PUSH2 0x2102 PUSH1 0x20 DUP4 ADD DUP5 PUSH2 0x19A0 JUMP JUMPDEST DUP2 DUP2 SUB PUSH1 0x40 DUP4 ADD MSTORE PUSH2 0x2113 DUP2 PUSH2 0x20C0 JUMP JUMPDEST SWAP1 POP SWAP4 SWAP3 POP POP POP JUMP JUMPDEST PUSH32 0x596F75206C6F7374210000000000000000000000000000000000000000000000 PUSH0 DUP3 ADD MSTORE POP JUMP JUMPDEST PUSH0 PUSH2 0x2150 PUSH1 0x9 DUP4 PUSH2 0x1833 JUMP JUMPDEST SWAP2 POP PUSH2 0x215B DUP3 PUSH2 0x211C JUMP JUMPDEST PUSH1 0x20 DUP3 ADD SWAP1 POP SWAP2 SWAP1 POP JUMP JUMPDEST PUSH0 PUSH1 0x60 DUP3 ADD SWAP1 POP PUSH2 0x2179 PUSH0 DUP4 ADD DUP6 PUSH2 0x1A30 JUMP JUMPDEST PUSH2 0x2186 PUSH1 0x20 DUP4 ADD DUP5 PUSH2 0x19A0 JUMP JUMPDEST DUP2 DUP2 SUB PUSH1 0x40 DUP4 ADD MSTORE PUSH2 0x2197 DUP2 PUSH2 0x2144 JUMP JUMPDEST SWAP1 POP SWAP4 SWAP3 POP POP POP JUMP JUMPDEST PUSH32 0x4974656D206E6F7420666F756E64000000000000000000000000000000000000 PUSH0 DUP3 ADD MSTORE POP JUMP JUMPDEST PUSH0 PUSH2 0x21D4 PUSH1 0xE DUP4 PUSH2 0x1833 JUMP JUMPDEST SWAP2 POP PUSH2 0x21DF DUP3 PUSH2 0x21A0 JUMP JUMPDEST PUSH1 0x20 DUP3 ADD SWAP1 POP SWAP2 SWAP1 POP JUMP JUMPDEST PUSH0 PUSH1 0x20 DUP3 ADD SWAP1 POP DUP2 DUP2 SUB PUSH0 DUP4 ADD MSTORE PUSH2 0x2201 DUP2 PUSH2 0x21C8 JUMP JUMPDEST SWAP1 POP SWAP2 SWAP1 POP JUMP JUMPDEST PUSH0 DUP2 SLOAD SWAP1 POP PUSH2 0x2216 DUP2 PUSH2 0x1EA5 JUMP JUMPDEST SWAP1 POP SWAP2 SWAP1 POP JUMP JUMPDEST PUSH0 DUP2 SWAP1 POP DUP2 PUSH0 MSTORE PUSH1 0x20 PUSH0 KECCAK256 SWAP1 POP SWAP2 SWAP1 POP JUMP JUMPDEST PUSH0 PUSH1 0x20 PUSH1 0x1F DUP4 ADD DIV SWAP1 POP SWAP2 SWAP1 POP JUMP JUMPDEST PUSH0 DUP3 DUP3 SHL SWAP1 POP SWAP3 SWAP2 POP POP JUMP JUMPDEST PUSH0 PUSH1 0x8 DUP4 MUL PUSH2 0x2279 PUSH32 0xFFFFFFFFFFFFFFFFFFFFFFFFFFFFFFFFFFFFFFFFFFFFFFFFFFFFFFFFFFFFFFFF DUP3 PUSH2 0x223E JUMP JUMPDEST PUSH2 0x2283 DUP7 DUP4 PUSH2 0x223E JUMP JUMPDEST SWAP6 POP DUP1 NOT DUP5 AND SWAP4 POP DUP1 DUP7 AND DUP5 OR SWAP3 POP POP POP SWAP4 SWAP3 POP POP POP JUMP JUMPDEST PUSH0 DUP2 SWAP1 POP SWAP2 SWAP1 POP JUMP JUMPDEST PUSH0 PUSH2 0x22BE PUSH2 0x22B9 PUSH2 0x22B4 DUP5 PUSH2 0x1924 JUMP JUMPDEST PUSH2 0x229B JUMP JUMPDEST PUSH2 0x1924 JUMP JUMPDEST SWAP1 POP SWAP2 SWAP1 POP JUMP JUMPDEST PUSH0 DUP2 SWAP1 POP SWAP2 SWAP1 POP JUMP JUMPDEST PUSH2 0x22D7 DUP4 PUSH2 0x22A4 JUMP JUMPDEST PUSH2 0x22EB PUSH2 0x22E3 DUP3 PUSH2 0x22C5 JUMP JUMPDEST DUP5 DUP5 SLOAD PUSH2 0x224A JUMP JUMPDEST DUP3 SSTORE POP POP POP POP JUMP JUMPDEST PUSH0 SWAP1 JUMP JUMPDEST PUSH2 0x22FF PUSH2 0x22F3 JUMP JUMPDEST PUSH2 0x230A DUP2 DUP5 DUP5 PUSH2 0x22CE JUMP JUMPDEST POP POP POP JUMP JUMPDEST JUMPDEST DUP2 DUP2 LT ISZERO PUSH2 0x232D JUMPI PUSH2 0x2322 PUSH0 DUP3 PUSH2 0x22F7 JUMP JUMPDEST PUSH1 0x1 DUP2 ADD SWAP1 POP PUSH2 0x2310 JUMP JUMPDEST POP POP JUMP JUMPDEST PUSH1 0x1F DUP3 GT ISZERO PUSH2 0x2372 JUMPI PUSH2 0x2343 DUP2 PUSH2 0x221D JUMP JUMPDEST PUSH2 0x234C DUP5 PUSH2 0x222F JUMP JUMPDEST DUP2 ADD PUSH1 0x20 DUP6 LT ISZERO PUSH2 0x235B JUMPI DUP2 SWAP1 POP JUMPDEST PUSH2 0x236F PUSH2 0x2367 DUP6 PUSH2 0x222F JUMP JUMPDEST DUP4 ADD DUP3 PUSH2 0x230F JUMP JUMPDEST POP POP JUMPDEST POP POP POP JUMP JUMPDEST PUSH0 DUP3 DUP3 SHR SWAP1 POP SWAP3 SWAP2 POP POP JUMP JUMPDEST PUSH0 PUSH2 0x2392 PUSH0 NOT DUP5 PUSH1 0x8 MUL PUSH2 0x2377 JUMP JUMPDEST NOT DUP1 DUP4 AND SWAP2 POP POP SWAP3 SWAP2 POP POP JUMP JUMPDEST PUSH0 PUSH2 0x23AA DUP4 DUP4 PUSH2 0x2383 JUMP JUMPDEST SWAP2 POP DUP3 PUSH1 0x2 MUL DUP3 OR SWAP1 POP SWAP3 SWAP2 POP POP JUMP JUMPDEST DUP2 DUP2 SUB PUSH2 0x23C8 JUMPI POP POP PUSH2 0x249D JUMP JUMPDEST PUSH2 0x23D1 DUP3 PUSH2 0x2208 JUMP JUMPDEST PUSH8 0xFFFFFFFFFFFFFFFF DUP2 GT ISZERO PUSH2 0x23EA JUMPI PUSH2 0x23E9 PUSH2 0x1CFA JUMP JUMPDEST JUMPDEST PUSH2 0x23F4 DUP3 SLOAD PUSH2 0x1EA5 JUMP JUMPDEST PUSH2 0x23FF DUP3 DUP3 DUP6 PUSH2 0x2331 JUMP JUMPDEST PUSH0 PUSH1 0x1F DUP4 GT PUSH1 0x1 DUP2 EQ PUSH2 0x242C JUMPI PUSH0 DUP5 ISZERO PUSH2 0x241A JUMPI DUP3 DUP8 ADD SLOAD SWAP1 POP JUMPDEST PUSH2 0x2424 DUP6 DUP3 PUSH2 0x239F JUMP JUMPDEST DUP7 SSTORE POP PUSH2 0x2496 JUMP JUMPDEST PUSH1 0x1F NOT DUP5 AND PUSH2 0x243A DUP8 PUSH2 0x221D JUMP JUMPDEST SWAP7 POP PUSH2 0x2445 DUP7 PUSH2 0x221D JUMP JUMPDEST PUSH0 JUMPDEST DUP3 DUP2 LT ISZERO PUSH2 0x246C JUMPI DUP5 DUP10 ADD SLOAD DUP3 SSTORE PUSH1 0x1 DUP3 ADD SWAP2 POP PUSH1 0x1 DUP6 ADD SWAP5 POP PUSH1 0x20 DUP2 ADD SWAP1 POP PUSH2 0x2447 JUMP JUMPDEST DUP7 DUP4 LT ISZERO PUSH2 0x2489 JUMPI DUP5 DUP10 ADD SLOAD PUSH2 0x2485 PUSH1 0x1F DUP10 AND DUP3 PUSH2 0x2383 JUMP JUMPDEST DUP4 SSTORE POP JUMPDEST PUSH1 0x1 PUSH1 0x2 DUP9 MUL ADD DUP9 SSTORE POP POP POP JUMPDEST POP POP POP POP POP POP JUMPDEST JUMP JUMPDEST PUSH0 DUP2 SLOAD PUSH2 0x24AB DUP2 PUSH2 0x1EA5 JUMP JUMPDEST PUSH2 0x24B5 DUP2 DUP7 PUSH2 0x1833 JUMP JUMPDEST SWAP5 POP PUSH1 0x1 DUP3 AND PUSH0 DUP2 EQ PUSH2 0x24CF JUMPI PUSH1 0x1 DUP2 EQ PUSH2 0x24E5 JUMPI PUSH2 0x2517 JUMP JUMPDEST PUSH1 0xFF NOT DUP4 AND DUP7 MSTORE DUP2 ISZERO ISZERO PUSH1 0x20 MUL DUP7 ADD SWAP4 POP PUSH2 0x2517 JUMP JUMPDEST PUSH2 0x24EE DUP6 PUSH2 0x221D JUMP JUMPDEST PUSH0 JUMPDEST DUP4 DUP2 LT ISZERO PUSH2 0x250F JUMPI DUP2 SLOAD DUP2 DUP10 ADD MSTORE PUSH1 0x1 DUP3 ADD SWAP2 POP PUSH1 0x20 DUP2 ADD SWAP1 POP PUSH2 0x24F0 JUMP JUMPDEST DUP1 DUP9 ADD SWAP6 POP POP POP JUMPDEST POP POP POP SWAP3 SWAP2 POP POP JUMP JUMPDEST PUSH0 PUSH1 0x60 DUP3 ADD SWAP1 POP PUSH2 0x2533 PUSH0 DUP4 ADD DUP7 PUSH2 0x1AB4 JUMP JUMPDEST DUP2 DUP2 SUB PUSH1 0x20 DUP4 ADD MSTORE PUSH2 0x2545 DUP2 DUP6 PUSH2 0x249F JUMP JUMPDEST SWAP1 POP PUSH2 0x2554 PUSH1 0x40 DUP4 ADD DUP5 PUSH2 0x1A30 JUMP JUMPDEST SWAP5 SWAP4 POP POP POP POP JUMP JUMPDEST PUSH32 0x426F6E757320616C726561647920636C61696D65640000000000000000000000 PUSH0 DUP3 ADD MSTORE POP JUMP JUMPDEST PUSH0 PUSH2 0x2590 PUSH1 0x15 DUP4 PUSH2 0x1833 JUMP JUMPDEST SWAP2 POP PUSH2 0x259B DUP3 PUSH2 0x255C JUMP JUMPDEST PUSH1 0x20 DUP3 ADD SWAP1 POP SWAP2 SWAP1 POP JUMP JUMPDEST PUSH0 PUSH1 0x20 DUP3 ADD SWAP1 POP DUP2 DUP2 SUB PUSH0 DUP4 ADD MSTORE PUSH2 0x25BD DUP2 PUSH2 0x2584 JUMP JUMPDEST SWAP1 POP SWAP2 SWAP1 POP JUMP JUMPDEST PUSH32 0x4E487B7100000000000000000000000000000000000000000000000000000000 PUSH0 MSTORE PUSH1 0x32 PUSH1 0x4 MSTORE PUSH1 0x24 PUSH0 REVERT JUMPDEST PUSH0 PUSH1 0x60 DUP3 ADD SWAP1 POP PUSH2 0x2604 PUSH0 DUP4 ADD DUP7 PUSH2 0x1B32 JUMP JUMPDEST PUSH2 0x2611 PUSH1 0x20 DUP4 ADD DUP6 PUSH2 0x1A30 JUMP JUMPDEST PUSH2 0x261E PUSH1 0x40 DUP4 ADD DUP5 PUSH2 0x1A30 JUMP JUMPDEST SWAP5 SWAP4 POP POP POP POP JUMP JUMPDEST PUSH2 0x262F DUP3 PUSH2 0x1829 JUMP JUMPDEST PUSH8 0xFFFFFFFFFFFFFFFF DUP2 GT ISZERO PUSH2 0x2648 JUMPI PUSH2 0x2647 PUSH2 0x1CFA JUMP JUMPDEST JUMPDEST PUSH2 0x2652 DUP3 SLOAD PUSH2 0x1EA5 JUMP JUMPDEST PUSH2 0x265D DUP3 DUP3 DUP6 PUSH2 0x2331 JUMP JUMPDEST PUSH0 PUSH1 0x20 SWAP1 POP PUSH1 0x1F DUP4 GT PUSH1 0x1 DUP2 EQ PUSH2 0x268E JUMPI PUSH0 DUP5 ISZERO PUSH2 0x267C JUMPI DUP3 DUP8 ADD MLOAD SWAP1 POP JUMPDEST PUSH2 0x2686 DUP6 DUP3 PUSH2 0x239F JUMP JUMPDEST DUP7 SSTORE POP PUSH2 0x26ED JUMP JUMPDEST PUSH1 0x1F NOT DUP5 AND PUSH2 0x269C DUP7 PUSH2 0x221D JUMP JUMPDEST PUSH0 JUMPDEST DUP3 DUP2 LT ISZERO PUSH2 0x26C3 JUMPI DUP5 DUP10 ADD MLOAD DUP3 SSTORE PUSH1 0x1 DUP3 ADD SWAP2 POP PUSH1 0x20 DUP6 ADD SWAP5 POP PUSH1 0x20 DUP2 ADD SWAP1 POP PUSH2 0x269E JUMP JUMPDEST DUP7 DUP4 LT ISZERO PUSH2 0x26E0 JUMPI DUP5 DUP10 ADD MLOAD PUSH2 0x26DC PUSH1 0x1F DUP10 AND DUP3 PUSH2 0x2383 JUMP JUMPDEST DUP4 SSTORE POP JUMPDEST PUSH1 0x1 PUSH1 0x2 DUP9 MUL ADD DUP9 SSTORE POP POP POP JUMPDEST POP POP POP POP POP POP JUMP JUMPDEST PUSH0 PUSH2 0x26FF DUP3 PUSH2 0x1AA8 JUMP JUMPDEST SWAP2 POP PUSH1 0xFF DUP3 SUB PUSH2 0x2712 JUMPI PUSH2 0x2711 PUSH2 0x202A JUMP JUMPDEST JUMPDEST PUSH1 0x1 DUP3 ADD SWAP1 POP SWAP2 SWAP1 POP JUMP JUMPDEST PUSH0 PUSH2 0x2727 DUP3 PUSH2 0x1924 JUMP JUMPDEST SWAP2 POP PUSH2 0x2732 DUP4 PUSH2 0x1924 JUMP JUMPDEST SWAP3 POP DUP3 DUP3 ADD SWAP1 POP DUP1 DUP3 GT ISZERO PUSH2 0x274A JUMPI PUSH2 0x2749 PUSH2 0x202A JUMP JUMPDEST JUMPDEST SWAP3 SWAP2 POP POP JUMP INVALID LOG2 PUSH5 0x6970667358 0x22 SLT KECCAK256 DUP8 MSIZE SWAP5 SGT EXP PUSH7 0x25AEE2E303869D CALLDATALOAD BASEFEE LOG2 0xC8 0xD7 STOP PUSH22 0xD41367DAAD7272BFF048CE0E64736F6C634300081A00 CALLER "
		},
		"gasEstimates": {
			"creation": {
				"codeDepositCost": "2023600",
				"executionCost": "infinite",
				"totalCost": "infinite"
			},
			"external": {
				"addItemToStore(string,uint256)": "infinite",
				"allowance(address,address)": "infinite",
				"approve(address,uint256)": "infinite",
				"balanceOf(address)": "2962",
				"betOnRandomNumber(bool,uint256)": "infinite",
				"burn(uint256)": "infinite",
				"burnFrom(address,uint256)": "infinite",
				"burnTokens(uint256)": "infinite",
				"decimals()": "361",
				"getItemDetails(uint8)": "infinite",
				"getMyBalance()": "2650",
				"getUserItems(address)": "infinite",
				"mint(address,uint256)": "infinite",
				"name()": "infinite",
				"owner()": "2582",
				"purchaseItem(uint8)": "infinite",
				"redeemWelcomeBonus()": "infinite",
				"renounceOwnership()": "infinite",
				"symbol()": "infinite",
				"totalSupply()": "2544",
				"transfer(address,uint256)": "infinite",
				"transferFrom(address,address,uint256)": "infinite",
				"transferOwnership(address)": "infinite",
				"transferToken(address,uint256)": "infinite"
			},
			"internal": {
				"_addItem(string memory,uint256)": "infinite",
				"_initializeItems()": "infinite"
			}
		},
		"methodIdentifiers": {
			"addItemToStore(string,uint256)": "e3af42e1",
			"allowance(address,address)": "dd62ed3e",
			"approve(address,uint256)": "095ea7b3",
			"balanceOf(address)": "70a08231",
			"betOnRandomNumber(bool,uint256)": "09ceb537",
			"burn(uint256)": "42966c68",
			"burnFrom(address,uint256)": "79cc6790",
			"burnTokens(uint256)": "6d1b229d",
			"decimals()": "313ce567",
			"getItemDetails(uint8)": "d917bd27",
			"getMyBalance()": "4c738909",
			"getUserItems(address)": "ce6019b4",
			"mint(address,uint256)": "40c10f19",
			"name()": "06fdde03",
			"owner()": "8da5cb5b",
			"purchaseItem(uint8)": "af3bcb7d",
			"redeemWelcomeBonus()": "c81d7604",
			"renounceOwnership()": "715018a6",
			"symbol()": "95d89b41",
			"totalSupply()": "18160ddd",
			"transfer(address,uint256)": "a9059cbb",
			"transferFrom(address,address,uint256)": "23b872dd",
			"transferOwnership(address)": "f2fde38b",
			"transferToken(address,uint256)": "1072cbea"
		}
	},
	"abi": [
		{
			"inputs": [
				{
					"internalType": "address",
					"name": "initialOwner",
					"type": "address"
				},
				{
					"internalType": "uint256",
					"name": "initialSupply",
					"type": "uint256"
				}
			],
			"stateMutability": "nonpayable",
			"type": "constructor"
		},
		{
			"inputs": [
				{
					"internalType": "address",
					"name": "spender",
					"type": "address"
				},
				{
					"internalType": "uint256",
					"name": "allowance",
					"type": "uint256"
				},
				{
					"internalType": "uint256",
					"name": "needed",
					"type": "uint256"
				}
			],
			"name": "ERC20InsufficientAllowance",
			"type": "error"
		},
		{
			"inputs": [
				{
					"internalType": "address",
					"name": "sender",
					"type": "address"
				},
				{
					"internalType": "uint256",
					"name": "balance",
					"type": "uint256"
				},
				{
					"internalType": "uint256",
					"name": "needed",
					"type": "uint256"
				}
			],
			"name": "ERC20InsufficientBalance",
			"type": "error"
		},
		{
			"inputs": [
				{
					"internalType": "address",
					"name": "approver",
					"type": "address"
				}
			],
			"name": "ERC20InvalidApprover",
			"type": "error"
		},
		{
			"inputs": [
				{
					"internalType": "address",
					"name": "receiver",
					"type": "address"
				}
			],
			"name": "ERC20InvalidReceiver",
			"type": "error"
		},
		{
			"inputs": [
				{
					"internalType": "address",
					"name": "sender",
					"type": "address"
				}
			],
			"name": "ERC20InvalidSender",
			"type": "error"
		},
		{
			"inputs": [
				{
					"internalType": "address",
					"name": "spender",
					"type": "address"
				}
			],
			"name": "ERC20InvalidSpender",
			"type": "error"
		},
		{
			"inputs": [
				{
					"internalType": "address",
					"name": "owner",
					"type": "address"
				}
			],
			"name": "OwnableInvalidOwner",
			"type": "error"
		},
		{
			"inputs": [
				{
					"internalType": "address",
					"name": "account",
					"type": "address"
				}
			],
			"name": "OwnableUnauthorizedAccount",
			"type": "error"
		},
		{
			"anonymous": false,
			"inputs": [
				{
					"indexed": true,
					"internalType": "address",
					"name": "owner",
					"type": "address"
				},
				{
					"indexed": true,
					"internalType": "address",
					"name": "spender",
					"type": "address"
				},
				{
					"indexed": false,
					"internalType": "uint256",
					"name": "value",
					"type": "uint256"
				}
			],
			"name": "Approval",
			"type": "event"
		},
		{
			"anonymous": false,
			"inputs": [
				{
					"indexed": true,
					"internalType": "address",
					"name": "player",
					"type": "address"
				},
				{
					"indexed": false,
					"internalType": "uint256",
					"name": "num",
					"type": "uint256"
				},
				{
					"indexed": false,
					"internalType": "bool",
					"name": "won",
					"type": "bool"
				},
				{
					"indexed": false,
					"internalType": "string",
					"name": "result",
					"type": "string"
				}
			],
			"name": "GameOutcome",
			"type": "event"
		},
		{
			"anonymous": false,
			"inputs": [
				{
					"indexed": true,
					"internalType": "address",
					"name": "buyer",
					"type": "address"
				},
				{
					"indexed": false,
					"internalType": "uint8",
					"name": "itemId",
					"type": "uint8"
				},
				{
					"indexed": false,
					"internalType": "string",
					"name": "itemName",
					"type": "string"
				},
				{
					"indexed": false,
					"internalType": "uint256",
					"name": "price",
					"type": "uint256"
				}
			],
			"name": "ItemPurchased",
			"type": "event"
		},
		{
			"anonymous": false,
			"inputs": [
				{
					"indexed": true,
					"internalType": "address",
					"name": "previousOwner",
					"type": "address"
				},
				{
					"indexed": true,
					"internalType": "address",
					"name": "newOwner",
					"type": "address"
				}
			],
			"name": "OwnershipTransferred",
			"type": "event"
		},
		{
			"anonymous": false,
			"inputs": [
				{
					"indexed": true,
					"internalType": "address",
					"name": "from",
					"type": "address"
				},
				{
					"indexed": true,
					"internalType": "address",
					"name": "to",
					"type": "address"
				},
				{
					"indexed": false,
					"internalType": "uint256",
					"name": "value",
					"type": "uint256"
				}
			],
			"name": "Transfer",
			"type": "event"
		},
		{
			"inputs": [
				{
					"internalType": "string",
					"name": "name",
					"type": "string"
				},
				{
					"internalType": "uint256",
					"name": "price",
					"type": "uint256"
				}
			],
			"name": "addItemToStore",
			"outputs": [],
			"stateMutability": "nonpayable",
			"type": "function"
		},
		{
			"inputs": [
				{
					"internalType": "address",
					"name": "owner",
					"type": "address"
				},
				{
					"internalType": "address",
					"name": "spender",
					"type": "address"
				}
			],
			"name": "allowance",
			"outputs": [
				{
					"internalType": "uint256",
					"name": "",
					"type": "uint256"
				}
			],
			"stateMutability": "view",
			"type": "function"
		},
		{
			"inputs": [
				{
					"internalType": "address",
					"name": "spender",
					"type": "address"
				},
				{
					"internalType": "uint256",
					"name": "value",
					"type": "uint256"
				}
			],
			"name": "approve",
			"outputs": [
				{
					"internalType": "bool",
					"name": "",
					"type": "bool"
				}
			],
			"stateMutability": "nonpayable",
			"type": "function"
		},
		{
			"inputs": [
				{
					"internalType": "address",
					"name": "account",
					"type": "address"
				}
			],
			"name": "balanceOf",
			"outputs": [
				{
					"internalType": "uint256",
					"name": "",
					"type": "uint256"
				}
			],
			"stateMutability": "view",
			"type": "function"
		},
		{
			"inputs": [
				{
					"internalType": "bool",
					"name": "predictLessThanFive",
					"type": "bool"
				},
				{
					"internalType": "uint256",
					"name": "betAmount",
					"type": "uint256"
				}
			],
			"name": "betOnRandomNumber",
			"outputs": [],
			"stateMutability": "nonpayable",
			"type": "function"
		},
		{
			"inputs": [
				{
					"internalType": "uint256",
					"name": "value",
					"type": "uint256"
				}
			],
			"name": "burn",
			"outputs": [],
			"stateMutability": "nonpayable",
			"type": "function"
		},
		{
			"inputs": [
				{
					"internalType": "address",
					"name": "account",
					"type": "address"
				},
				{
					"internalType": "uint256",
					"name": "value",
					"type": "uint256"
				}
			],
			"name": "burnFrom",
			"outputs": [],
			"stateMutability": "nonpayable",
			"type": "function"
		},
		{
			"inputs": [
				{
					"internalType": "uint256",
					"name": "amount",
					"type": "uint256"
				}
			],
			"name": "burnTokens",
			"outputs": [],
			"stateMutability": "nonpayable",
			"type": "function"
		},
		{
			"inputs": [],
			"name": "decimals",
			"outputs": [
				{
					"internalType": "uint8",
					"name": "",
					"type": "uint8"
				}
			],
			"stateMutability": "view",
			"type": "function"
		},
		{
			"inputs": [
				{
					"internalType": "uint8",
					"name": "itemId",
					"type": "uint8"
				}
			],
			"name": "getItemDetails",
			"outputs": [
				{
					"internalType": "string",
					"name": "",
					"type": "string"
				},
				{
					"internalType": "uint256",
					"name": "",
					"type": "uint256"
				}
			],
			"stateMutability": "view",
			"type": "function"
		},
		{
			"inputs": [],
			"name": "getMyBalance",
			"outputs": [
				{
					"internalType": "uint256",
					"name": "",
					"type": "uint256"
				}
			],
			"stateMutability": "view",
			"type": "function"
		},
		{
			"inputs": [
				{
					"internalType": "address",
					"name": "user",
					"type": "address"
				}
			],
			"name": "getUserItems",
			"outputs": [
				{
					"internalType": "uint8[]",
					"name": "",
					"type": "uint8[]"
				}
			],
			"stateMutability": "view",
			"type": "function"
		},
		{
			"inputs": [
				{
					"internalType": "address",
					"name": "to",
					"type": "address"
				},
				{
					"internalType": "uint256",
					"name": "amount",
					"type": "uint256"
				}
			],
			"name": "mint",
			"outputs": [],
			"stateMutability": "nonpayable",
			"type": "function"
		},
		{
			"inputs": [],
			"name": "name",
			"outputs": [
				{
					"internalType": "string",
					"name": "",
					"type": "string"
				}
			],
			"stateMutability": "view",
			"type": "function"
		},
		{
			"inputs": [],
			"name": "owner",
			"outputs": [
				{
					"internalType": "address",
					"name": "",
					"type": "address"
				}
			],
			"stateMutability": "view",
			"type": "function"
		},
		{
			"inputs": [
				{
					"internalType": "uint8",
					"name": "itemId",
					"type": "uint8"
				}
			],
			"name": "purchaseItem",
			"outputs": [],
			"stateMutability": "nonpayable",
			"type": "function"
		},
		{
			"inputs": [],
			"name": "redeemWelcomeBonus",
			"outputs": [],
			"stateMutability": "nonpayable",
			"type": "function"
		},
		{
			"inputs": [],
			"name": "renounceOwnership",
			"outputs": [],
			"stateMutability": "nonpayable",
			"type": "function"
		},
		{
			"inputs": [],
			"name": "symbol",
			"outputs": [
				{
					"internalType": "string",
					"name": "",
					"type": "string"
				}
			],
			"stateMutability": "view",
			"type": "function"
		},
		{
			"inputs": [],
			"name": "totalSupply",
			"outputs": [
				{
					"internalType": "uint256",
					"name": "",
					"type": "uint256"
				}
			],
			"stateMutability": "view",
			"type": "function"
		},
		{
			"inputs": [
				{
					"internalType": "address",
					"name": "to",
					"type": "address"
				},
				{
					"internalType": "uint256",
					"name": "value",
					"type": "uint256"
				}
			],
			"name": "transfer",
			"outputs": [
				{
					"internalType": "bool",
					"name": "",
					"type": "bool"
				}
			],
			"stateMutability": "nonpayable",
			"type": "function"
		},
		{
			"inputs": [
				{
					"internalType": "address",
					"name": "from",
					"type": "address"
				},
				{
					"internalType": "address",
					"name": "to",
					"type": "address"
				},
				{
					"internalType": "uint256",
					"name": "value",
					"type": "uint256"
				}
			],
			"name": "transferFrom",
			"outputs": [
				{
					"internalType": "bool",
					"name": "",
					"type": "bool"
				}
			],
			"stateMutability": "nonpayable",
			"type": "function"
		},
		{
			"inputs": [
				{
					"internalType": "address",
					"name": "newOwner",
					"type": "address"
				}
			],
			"name": "transferOwnership",
			"outputs": [],
			"stateMutability": "nonpayable",
			"type": "function"
		},
		{
			"inputs": [
				{
					"internalType": "address",
					"name": "recipient",
					"type": "address"
				},
				{
					"internalType": "uint256",
					"name": "amount",
					"type": "uint256"
				}
			],
			"name": "transferToken",
			"outputs": [],
			"stateMutability": "nonpayable",
			"type": "function"
		}
	]
}